{
	"contracts/OreOreCoinCashBack.sol": {
		"OreOreCoin": {
			"abi": [
				{
					"inputs": [
						{
							"internalType": "uint256",
							"name": "_supply",
							"type": "uint256"
						},
						{
							"internalType": "string",
							"name": "_name",
							"type": "string"
						},
						{
							"internalType": "string",
							"name": "_symbol",
							"type": "string"
						},
						{
							"internalType": "uint8",
							"name": "_decimals",
							"type": "uint8"
						}
					],
					"stateMutability": "nonpayable",
					"type": "constructor"
				},
				{
					"anonymous": false,
					"inputs": [
						{
							"indexed": true,
							"internalType": "address",
							"name": "target",
							"type": "address"
						}
					],
					"name": "Blacklisted",
					"type": "event"
				},
				{
					"anonymous": false,
					"inputs": [
						{
							"indexed": true,
							"internalType": "address",
							"name": "from",
							"type": "address"
						},
						{
							"indexed": true,
							"internalType": "address",
							"name": "to",
							"type": "address"
						},
						{
							"indexed": false,
							"internalType": "uint256",
							"name": "value",
							"type": "uint256"
						}
					],
					"name": "Cashback",
					"type": "event"
				},
				{
					"anonymous": false,
					"inputs": [
						{
							"indexed": true,
							"internalType": "address",
							"name": "target",
							"type": "address"
						}
					],
					"name": "DeleteFromBlacklist",
					"type": "event"
				},
				{
					"anonymous": false,
					"inputs": [
						{
							"indexed": true,
							"internalType": "address",
							"name": "from",
							"type": "address"
						},
						{
							"indexed": true,
							"internalType": "address",
							"name": "to",
							"type": "address"
						},
						{
							"indexed": false,
							"internalType": "uint256",
							"name": "value",
							"type": "uint256"
						}
					],
					"name": "RejectedPaymentFromBlacklistedAddr",
					"type": "event"
				},
				{
					"anonymous": false,
					"inputs": [
						{
							"indexed": true,
							"internalType": "address",
							"name": "from",
							"type": "address"
						},
						{
							"indexed": true,
							"internalType": "address",
							"name": "to",
							"type": "address"
						},
						{
							"indexed": false,
							"internalType": "uint256",
							"name": "value",
							"type": "uint256"
						}
					],
					"name": "RejectedPaymentToBlacklistedAddr",
					"type": "event"
				},
				{
					"anonymous": false,
					"inputs": [
						{
							"indexed": true,
							"internalType": "address",
							"name": "addr",
							"type": "address"
						},
						{
							"indexed": false,
							"internalType": "uint8",
							"name": "rate",
							"type": "uint8"
						}
					],
					"name": "SetCashback",
					"type": "event"
				},
				{
					"anonymous": false,
					"inputs": [
						{
							"indexed": true,
							"internalType": "address",
							"name": "from",
							"type": "address"
						},
						{
							"indexed": true,
							"internalType": "address",
							"name": "to",
							"type": "address"
						},
						{
							"indexed": false,
							"internalType": "uint256",
							"name": "value",
							"type": "uint256"
						}
					],
					"name": "Transfer",
					"type": "event"
				},
				{
					"inputs": [
						{
							"internalType": "address",
							"name": "",
							"type": "address"
						}
					],
					"name": "balanceOf",
					"outputs": [
						{
							"internalType": "uint256",
							"name": "",
							"type": "uint256"
						}
					],
					"stateMutability": "view",
					"type": "function"
				},
				{
					"inputs": [
						{
							"internalType": "address",
							"name": "",
							"type": "address"
						}
					],
					"name": "blackList",
					"outputs": [
						{
							"internalType": "int8",
							"name": "",
							"type": "int8"
						}
					],
					"stateMutability": "view",
					"type": "function"
				},
				{
					"inputs": [
						{
							"internalType": "address",
							"name": "_addr",
							"type": "address"
						}
					],
					"name": "blacklisting",
					"outputs": [],
					"stateMutability": "nonpayable",
					"type": "function"
				},
				{
					"inputs": [
						{
							"internalType": "address",
							"name": "",
							"type": "address"
						}
					],
					"name": "cashbackRate",
					"outputs": [
						{
							"internalType": "uint8",
							"name": "",
							"type": "uint8"
						}
					],
					"stateMutability": "view",
					"type": "function"
				},
				{
					"inputs": [],
					"name": "decimals",
					"outputs": [
						{
							"internalType": "uint8",
							"name": "",
							"type": "uint8"
						}
					],
					"stateMutability": "view",
					"type": "function"
				},
				{
					"inputs": [
						{
							"internalType": "address",
							"name": "_addr",
							"type": "address"
						}
					],
					"name": "deleteFromBlacklist",
					"outputs": [],
					"stateMutability": "nonpayable",
					"type": "function"
				},
				{
					"inputs": [],
					"name": "name",
					"outputs": [
						{
							"internalType": "string",
							"name": "",
							"type": "string"
						}
					],
					"stateMutability": "view",
					"type": "function"
				},
				{
					"inputs": [],
					"name": "owner",
					"outputs": [
						{
							"internalType": "address",
							"name": "",
							"type": "address"
						}
					],
					"stateMutability": "view",
					"type": "function"
				},
				{
					"inputs": [
						{
							"internalType": "uint8",
							"name": "_rate",
							"type": "uint8"
						}
					],
					"name": "setCashbackRate",
					"outputs": [],
					"stateMutability": "nonpayable",
					"type": "function"
				},
				{
					"inputs": [],
					"name": "symbol",
					"outputs": [
						{
							"internalType": "string",
							"name": "",
							"type": "string"
						}
					],
					"stateMutability": "view",
					"type": "function"
				},
				{
					"inputs": [],
					"name": "totalSupply",
					"outputs": [
						{
							"internalType": "uint256",
							"name": "",
							"type": "uint256"
						}
					],
					"stateMutability": "view",
					"type": "function"
				},
				{
					"inputs": [
						{
							"internalType": "address",
							"name": "_to",
							"type": "address"
						},
						{
							"internalType": "uint256",
							"name": "_value",
							"type": "uint256"
						}
					],
					"name": "transfer",
					"outputs": [],
					"stateMutability": "nonpayable",
					"type": "function"
				}
			],
			"devdoc": {
				"kind": "dev",
				"methods": {},
				"version": 1
			},
			"evm": {
				"assembly": "    /* \"contracts/OreOreCoinCashBack.sol\":61:3387  contract OreOreCoin {... */\n  mstore(0x40, 0x80)\n    /* \"contracts/OreOreCoinCashBack.sol\":1293:1602  constructor(uint256 _supply, string memory _name, string memory _symbol, uint8 _decimals) {... */\n  callvalue\n  dup1\n  iszero\n  tag_1\n  jumpi\n  0x00\n  dup1\n  revert\ntag_1:\n  pop\n  mload(0x40)\n  sub(codesize, bytecodeSize)\n  dup1\n  bytecodeSize\n  dup4\n  codecopy\n  dup2\n  dup2\n  add\n  0x40\n  mstore\n  dup2\n  add\n  swap1\n  tag_2\n  swap2\n  swap1\n  tag_3\n  jump\t// in\ntag_2:\n    /* \"contracts/OreOreCoinCashBack.sol\":1418:1425  _supply */\n  dup4\n    /* \"contracts/OreOreCoinCashBack.sol\":1394:1403  balanceOf */\n  0x04\n    /* \"contracts/OreOreCoinCashBack.sol\":1394:1415  balanceOf[msg.sender] */\n  0x00\n    /* \"contracts/OreOreCoinCashBack.sol\":1404:1414  msg.sender */\n  caller\n    /* \"contracts/OreOreCoinCashBack.sol\":1394:1415  balanceOf[msg.sender] */\n  0xffffffffffffffffffffffffffffffffffffffff\n  and\n  0xffffffffffffffffffffffffffffffffffffffff\n  and\n  dup2\n  mstore\n  0x20\n  add\n  swap1\n  dup2\n  mstore\n  0x20\n  add\n  0x00\n  keccak256\n    /* \"contracts/OreOreCoinCashBack.sol\":1394:1425  balanceOf[msg.sender] = _supply */\n  dup2\n  swap1\n  sstore\n  pop\n    /* \"contracts/OreOreCoinCashBack.sol\":1443:1448  _name */\n  dup3\n    /* \"contracts/OreOreCoinCashBack.sol\":1436:1440  name */\n  0x00\n    /* \"contracts/OreOreCoinCashBack.sol\":1436:1448  name = _name */\n  swap1\n  dup1\n  mload\n  swap1\n  0x20\n  add\n  swap1\n  tag_6\n  swap3\n  swap2\n  swap1\n  tag_7\n  jump\t// in\ntag_6:\n  pop\n    /* \"contracts/OreOreCoinCashBack.sol\":1468:1475  _symbol */\n  dup2\n    /* \"contracts/OreOreCoinCashBack.sol\":1459:1465  symbol */\n  0x01\n    /* \"contracts/OreOreCoinCashBack.sol\":1459:1475  symbol = _symbol */\n  swap1\n  dup1\n  mload\n  swap1\n  0x20\n  add\n  swap1\n  tag_8\n  swap3\n  swap2\n  swap1\n  tag_7\n  jump\t// in\ntag_8:\n  pop\n    /* \"contracts/OreOreCoinCashBack.sol\":1497:1506  _decimals */\n  dup1\n    /* \"contracts/OreOreCoinCashBack.sol\":1486:1494  decimals */\n  0x02\n  0x00\n    /* \"contracts/OreOreCoinCashBack.sol\":1486:1506  decimals = _decimals */\n  0x0100\n  exp\n  dup2\n  sload\n  dup2\n  0xff\n  mul\n  not\n  and\n  swap1\n  dup4\n  0xff\n  and\n  mul\n  or\n  swap1\n  sstore\n  pop\n    /* \"contracts/OreOreCoinCashBack.sol\":1531:1538  _supply */\n  dup4\n    /* \"contracts/OreOreCoinCashBack.sol\":1517:1528  totalSupply */\n  0x03\n    /* \"contracts/OreOreCoinCashBack.sol\":1517:1538  totalSupply = _supply */\n  dup2\n  swap1\n  sstore\n  pop\n    /* \"contracts/OreOreCoinCashBack.sol\":1557:1567  msg.sender */\n  caller\n    /* \"contracts/OreOreCoinCashBack.sol\":1549:1554  owner */\n  0x06\n  0x00\n    /* \"contracts/OreOreCoinCashBack.sol\":1549:1567  owner = msg.sender */\n  0x0100\n  exp\n  dup2\n  sload\n  dup2\n  0xffffffffffffffffffffffffffffffffffffffff\n  mul\n  not\n  and\n  swap1\n  dup4\n  0xffffffffffffffffffffffffffffffffffffffff\n  and\n  mul\n  or\n  swap1\n  sstore\n  pop\n    /* \"contracts/OreOreCoinCashBack.sol\":1293:1602  constructor(uint256 _supply, string memory _name, string memory _symbol, uint8 _decimals) {... */\n  pop\n  pop\n  pop\n  pop\n    /* \"contracts/OreOreCoinCashBack.sol\":61:3387  contract OreOreCoin {... */\n  jump(tag_9)\ntag_7:\n  dup3\n  dup1\n  sload\n  tag_10\n  swap1\n  tag_11\n  jump\t// in\ntag_10:\n  swap1\n  0x00\n  mstore\n  keccak256(0x00, 0x20)\n  swap1\n  0x1f\n  add\n  0x20\n  swap1\n  div\n  dup2\n  add\n  swap3\n  dup3\n  tag_13\n  jumpi\n  0x00\n  dup6\n  sstore\n  jump(tag_12)\ntag_13:\n  dup3\n  0x1f\n  lt\n  tag_14\n  jumpi\n  dup1\n  mload\n  not(0xff)\n  and\n  dup4\n  dup1\n  add\n  or\n  dup6\n  sstore\n  jump(tag_12)\ntag_14:\n  dup3\n  dup1\n  add\n  0x01\n  add\n  dup6\n  sstore\n  dup3\n  iszero\n  tag_12\n  jumpi\n  swap2\n  dup3\n  add\ntag_15:\n  dup3\n  dup2\n  gt\n  iszero\n  tag_16\n  jumpi\n  dup3\n  mload\n  dup3\n  sstore\n  swap2\n  0x20\n  add\n  swap2\n  swap1\n  0x01\n  add\n  swap1\n  jump(tag_15)\ntag_16:\ntag_12:\n  pop\n  swap1\n  pop\n  tag_17\n  swap2\n  swap1\n  tag_18\n  jump\t// in\ntag_17:\n  pop\n  swap1\n  jump\t// out\ntag_18:\ntag_19:\n  dup1\n  dup3\n  gt\n  iszero\n  tag_20\n  jumpi\n  0x00\n  dup2\n  0x00\n  swap1\n  sstore\n  pop\n  0x01\n  add\n  jump(tag_19)\ntag_20:\n  pop\n  swap1\n  jump\t// out\n    /* \"#utility.yul\":7:82   */\ntag_21:\n    /* \"#utility.yul\":40:46   */\n  0x00\n    /* \"#utility.yul\":73:75   */\n  0x40\n    /* \"#utility.yul\":67:76   */\n  mload\n    /* \"#utility.yul\":57:76   */\n  swap1\n  pop\n    /* \"#utility.yul\":7:82   */\n  swap1\n  jump\t// out\n    /* \"#utility.yul\":88:205   */\ntag_22:\n    /* \"#utility.yul\":197:198   */\n  0x00\n    /* \"#utility.yul\":194:195   */\n  dup1\n    /* \"#utility.yul\":187:199   */\n  revert\n    /* \"#utility.yul\":211:328   */\ntag_23:\n    /* \"#utility.yul\":320:321   */\n  0x00\n    /* \"#utility.yul\":317:318   */\n  dup1\n    /* \"#utility.yul\":310:322   */\n  revert\n    /* \"#utility.yul\":334:411   */\ntag_24:\n    /* \"#utility.yul\":371:378   */\n  0x00\n    /* \"#utility.yul\":400:405   */\n  dup2\n    /* \"#utility.yul\":389:405   */\n  swap1\n  pop\n    /* \"#utility.yul\":334:411   */\n  swap2\n  swap1\n  pop\n  jump\t// out\n    /* \"#utility.yul\":417:539   */\ntag_25:\n    /* \"#utility.yul\":490:514   */\n  tag_47\n    /* \"#utility.yul\":508:513   */\n  dup2\n    /* \"#utility.yul\":490:514   */\n  tag_24\n  jump\t// in\ntag_47:\n    /* \"#utility.yul\":483:488   */\n  dup2\n    /* \"#utility.yul\":480:515   */\n  eq\n    /* \"#utility.yul\":470:533   */\n  tag_48\n  jumpi\n    /* \"#utility.yul\":529:530   */\n  0x00\n    /* \"#utility.yul\":526:527   */\n  dup1\n    /* \"#utility.yul\":519:531   */\n  revert\n    /* \"#utility.yul\":470:533   */\ntag_48:\n    /* \"#utility.yul\":417:539   */\n  pop\n  jump\t// out\n    /* \"#utility.yul\":545:688   */\ntag_26:\n    /* \"#utility.yul\":602:607   */\n  0x00\n    /* \"#utility.yul\":633:639   */\n  dup2\n    /* \"#utility.yul\":627:640   */\n  mload\n    /* \"#utility.yul\":618:640   */\n  swap1\n  pop\n    /* \"#utility.yul\":649:682   */\n  tag_50\n    /* \"#utility.yul\":676:681   */\n  dup2\n    /* \"#utility.yul\":649:682   */\n  tag_25\n  jump\t// in\ntag_50:\n    /* \"#utility.yul\":545:688   */\n  swap3\n  swap2\n  pop\n  pop\n  jump\t// out\n    /* \"#utility.yul\":694:811   */\ntag_27:\n    /* \"#utility.yul\":803:804   */\n  0x00\n    /* \"#utility.yul\":800:801   */\n  dup1\n    /* \"#utility.yul\":793:805   */\n  revert\n    /* \"#utility.yul\":817:934   */\ntag_28:\n    /* \"#utility.yul\":926:927   */\n  0x00\n    /* \"#utility.yul\":923:924   */\n  dup1\n    /* \"#utility.yul\":916:928   */\n  revert\n    /* \"#utility.yul\":940:1042   */\ntag_29:\n    /* \"#utility.yul\":981:987   */\n  0x00\n    /* \"#utility.yul\":1032:1034   */\n  0x1f\n    /* \"#utility.yul\":1028:1035   */\n  not\n    /* \"#utility.yul\":1023:1025   */\n  0x1f\n    /* \"#utility.yul\":1016:1021   */\n  dup4\n    /* \"#utility.yul\":1012:1026   */\n  add\n    /* \"#utility.yul\":1008:1036   */\n  and\n    /* \"#utility.yul\":998:1036   */\n  swap1\n  pop\n    /* \"#utility.yul\":940:1042   */\n  swap2\n  swap1\n  pop\n  jump\t// out\n    /* \"#utility.yul\":1048:1228   */\ntag_30:\n    /* \"#utility.yul\":1096:1173   */\n  0x4e487b7100000000000000000000000000000000000000000000000000000000\n    /* \"#utility.yul\":1093:1094   */\n  0x00\n    /* \"#utility.yul\":1086:1174   */\n  mstore\n    /* \"#utility.yul\":1193:1197   */\n  0x41\n    /* \"#utility.yul\":1190:1191   */\n  0x04\n    /* \"#utility.yul\":1183:1198   */\n  mstore\n    /* \"#utility.yul\":1217:1221   */\n  0x24\n    /* \"#utility.yul\":1214:1215   */\n  0x00\n    /* \"#utility.yul\":1207:1222   */\n  revert\n    /* \"#utility.yul\":1234:1515   */\ntag_31:\n    /* \"#utility.yul\":1317:1344   */\n  tag_56\n    /* \"#utility.yul\":1339:1343   */\n  dup3\n    /* \"#utility.yul\":1317:1344   */\n  tag_29\n  jump\t// in\ntag_56:\n    /* \"#utility.yul\":1309:1315   */\n  dup2\n    /* \"#utility.yul\":1305:1345   */\n  add\n    /* \"#utility.yul\":1447:1453   */\n  dup2\n    /* \"#utility.yul\":1435:1445   */\n  dup2\n    /* \"#utility.yul\":1432:1454   */\n  lt\n    /* \"#utility.yul\":1411:1429   */\n  0xffffffffffffffff\n    /* \"#utility.yul\":1399:1409   */\n  dup3\n    /* \"#utility.yul\":1396:1430   */\n  gt\n    /* \"#utility.yul\":1393:1455   */\n  or\n    /* \"#utility.yul\":1390:1478   */\n  iszero\n  tag_57\n  jumpi\n    /* \"#utility.yul\":1458:1476   */\n  tag_58\n  tag_30\n  jump\t// in\ntag_58:\n    /* \"#utility.yul\":1390:1478   */\ntag_57:\n    /* \"#utility.yul\":1498:1508   */\n  dup1\n    /* \"#utility.yul\":1494:1496   */\n  0x40\n    /* \"#utility.yul\":1487:1509   */\n  mstore\n    /* \"#utility.yul\":1277:1515   */\n  pop\n    /* \"#utility.yul\":1234:1515   */\n  pop\n  pop\n  jump\t// out\n    /* \"#utility.yul\":1521:1650   */\ntag_32:\n    /* \"#utility.yul\":1555:1561   */\n  0x00\n    /* \"#utility.yul\":1582:1602   */\n  tag_60\n  tag_21\n  jump\t// in\ntag_60:\n    /* \"#utility.yul\":1572:1602   */\n  swap1\n  pop\n    /* \"#utility.yul\":1611:1644   */\n  tag_61\n    /* \"#utility.yul\":1639:1643   */\n  dup3\n    /* \"#utility.yul\":1631:1637   */\n  dup3\n    /* \"#utility.yul\":1611:1644   */\n  tag_31\n  jump\t// in\ntag_61:\n    /* \"#utility.yul\":1521:1650   */\n  swap2\n  swap1\n  pop\n  jump\t// out\n    /* \"#utility.yul\":1656:1964   */\ntag_33:\n    /* \"#utility.yul\":1718:1722   */\n  0x00\n    /* \"#utility.yul\":1808:1826   */\n  0xffffffffffffffff\n    /* \"#utility.yul\":1800:1806   */\n  dup3\n    /* \"#utility.yul\":1797:1827   */\n  gt\n    /* \"#utility.yul\":1794:1850   */\n  iszero\n  tag_63\n  jumpi\n    /* \"#utility.yul\":1830:1848   */\n  tag_64\n  tag_30\n  jump\t// in\ntag_64:\n    /* \"#utility.yul\":1794:1850   */\ntag_63:\n    /* \"#utility.yul\":1868:1897   */\n  tag_65\n    /* \"#utility.yul\":1890:1896   */\n  dup3\n    /* \"#utility.yul\":1868:1897   */\n  tag_29\n  jump\t// in\ntag_65:\n    /* \"#utility.yul\":1860:1897   */\n  swap1\n  pop\n    /* \"#utility.yul\":1952:1956   */\n  0x20\n    /* \"#utility.yul\":1946:1950   */\n  dup2\n    /* \"#utility.yul\":1942:1957   */\n  add\n    /* \"#utility.yul\":1934:1957   */\n  swap1\n  pop\n    /* \"#utility.yul\":1656:1964   */\n  swap2\n  swap1\n  pop\n  jump\t// out\n    /* \"#utility.yul\":1970:2277   */\ntag_34:\n    /* \"#utility.yul\":2038:2039   */\n  0x00\n    /* \"#utility.yul\":2048:2161   */\ntag_67:\n    /* \"#utility.yul\":2062:2068   */\n  dup4\n    /* \"#utility.yul\":2059:2060   */\n  dup2\n    /* \"#utility.yul\":2056:2069   */\n  lt\n    /* \"#utility.yul\":2048:2161   */\n  iszero\n  tag_69\n  jumpi\n    /* \"#utility.yul\":2147:2148   */\n  dup1\n    /* \"#utility.yul\":2142:2145   */\n  dup3\n    /* \"#utility.yul\":2138:2149   */\n  add\n    /* \"#utility.yul\":2132:2150   */\n  mload\n    /* \"#utility.yul\":2128:2129   */\n  dup2\n    /* \"#utility.yul\":2123:2126   */\n  dup5\n    /* \"#utility.yul\":2119:2130   */\n  add\n    /* \"#utility.yul\":2112:2151   */\n  mstore\n    /* \"#utility.yul\":2084:2086   */\n  0x20\n    /* \"#utility.yul\":2081:2082   */\n  dup2\n    /* \"#utility.yul\":2077:2087   */\n  add\n    /* \"#utility.yul\":2072:2087   */\n  swap1\n  pop\n    /* \"#utility.yul\":2048:2161   */\n  jump(tag_67)\ntag_69:\n    /* \"#utility.yul\":2179:2185   */\n  dup4\n    /* \"#utility.yul\":2176:2177   */\n  dup2\n    /* \"#utility.yul\":2173:2186   */\n  gt\n    /* \"#utility.yul\":2170:2271   */\n  iszero\n  tag_70\n  jumpi\n    /* \"#utility.yul\":2259:2260   */\n  0x00\n    /* \"#utility.yul\":2250:2256   */\n  dup5\n    /* \"#utility.yul\":2245:2248   */\n  dup5\n    /* \"#utility.yul\":2241:2257   */\n  add\n    /* \"#utility.yul\":2234:2261   */\n  mstore\n    /* \"#utility.yul\":2170:2271   */\ntag_70:\n    /* \"#utility.yul\":2019:2277   */\n  pop\n    /* \"#utility.yul\":1970:2277   */\n  pop\n  pop\n  pop\n  jump\t// out\n    /* \"#utility.yul\":2283:2704   */\ntag_35:\n    /* \"#utility.yul\":2372:2377   */\n  0x00\n    /* \"#utility.yul\":2397:2463   */\n  tag_72\n    /* \"#utility.yul\":2413:2462   */\n  tag_73\n    /* \"#utility.yul\":2455:2461   */\n  dup5\n    /* \"#utility.yul\":2413:2462   */\n  tag_33\n  jump\t// in\ntag_73:\n    /* \"#utility.yul\":2397:2463   */\n  tag_32\n  jump\t// in\ntag_72:\n    /* \"#utility.yul\":2388:2463   */\n  swap1\n  pop\n    /* \"#utility.yul\":2486:2492   */\n  dup3\n    /* \"#utility.yul\":2479:2484   */\n  dup2\n    /* \"#utility.yul\":2472:2493   */\n  mstore\n    /* \"#utility.yul\":2524:2528   */\n  0x20\n    /* \"#utility.yul\":2517:2522   */\n  dup2\n    /* \"#utility.yul\":2513:2529   */\n  add\n    /* \"#utility.yul\":2562:2565   */\n  dup5\n    /* \"#utility.yul\":2553:2559   */\n  dup5\n    /* \"#utility.yul\":2548:2551   */\n  dup5\n    /* \"#utility.yul\":2544:2560   */\n  add\n    /* \"#utility.yul\":2541:2566   */\n  gt\n    /* \"#utility.yul\":2538:2650   */\n  iszero\n  tag_74\n  jumpi\n    /* \"#utility.yul\":2569:2648   */\n  tag_75\n  tag_28\n  jump\t// in\ntag_75:\n    /* \"#utility.yul\":2538:2650   */\ntag_74:\n    /* \"#utility.yul\":2659:2698   */\n  tag_76\n    /* \"#utility.yul\":2691:2697   */\n  dup5\n    /* \"#utility.yul\":2686:2689   */\n  dup3\n    /* \"#utility.yul\":2681:2684   */\n  dup6\n    /* \"#utility.yul\":2659:2698   */\n  tag_34\n  jump\t// in\ntag_76:\n    /* \"#utility.yul\":2378:2704   */\n  pop\n    /* \"#utility.yul\":2283:2704   */\n  swap4\n  swap3\n  pop\n  pop\n  pop\n  jump\t// out\n    /* \"#utility.yul\":2724:3079   */\ntag_36:\n    /* \"#utility.yul\":2791:2796   */\n  0x00\n    /* \"#utility.yul\":2840:2843   */\n  dup3\n    /* \"#utility.yul\":2833:2837   */\n  0x1f\n    /* \"#utility.yul\":2825:2831   */\n  dup4\n    /* \"#utility.yul\":2821:2838   */\n  add\n    /* \"#utility.yul\":2817:2844   */\n  slt\n    /* \"#utility.yul\":2807:2929   */\n  tag_78\n  jumpi\n    /* \"#utility.yul\":2848:2927   */\n  tag_79\n  tag_27\n  jump\t// in\ntag_79:\n    /* \"#utility.yul\":2807:2929   */\ntag_78:\n    /* \"#utility.yul\":2958:2964   */\n  dup2\n    /* \"#utility.yul\":2952:2965   */\n  mload\n    /* \"#utility.yul\":2983:3073   */\n  tag_80\n    /* \"#utility.yul\":3069:3072   */\n  dup5\n    /* \"#utility.yul\":3061:3067   */\n  dup3\n    /* \"#utility.yul\":3054:3058   */\n  0x20\n    /* \"#utility.yul\":3046:3052   */\n  dup7\n    /* \"#utility.yul\":3042:3059   */\n  add\n    /* \"#utility.yul\":2983:3073   */\n  tag_35\n  jump\t// in\ntag_80:\n    /* \"#utility.yul\":2974:3073   */\n  swap2\n  pop\n    /* \"#utility.yul\":2797:3079   */\n  pop\n    /* \"#utility.yul\":2724:3079   */\n  swap3\n  swap2\n  pop\n  pop\n  jump\t// out\n    /* \"#utility.yul\":3085:3171   */\ntag_37:\n    /* \"#utility.yul\":3120:3127   */\n  0x00\n    /* \"#utility.yul\":3160:3164   */\n  0xff\n    /* \"#utility.yul\":3153:3158   */\n  dup3\n    /* \"#utility.yul\":3149:3165   */\n  and\n    /* \"#utility.yul\":3138:3165   */\n  swap1\n  pop\n    /* \"#utility.yul\":3085:3171   */\n  swap2\n  swap1\n  pop\n  jump\t// out\n    /* \"#utility.yul\":3177:3295   */\ntag_38:\n    /* \"#utility.yul\":3248:3270   */\n  tag_83\n    /* \"#utility.yul\":3264:3269   */\n  dup2\n    /* \"#utility.yul\":3248:3270   */\n  tag_37\n  jump\t// in\ntag_83:\n    /* \"#utility.yul\":3241:3246   */\n  dup2\n    /* \"#utility.yul\":3238:3271   */\n  eq\n    /* \"#utility.yul\":3228:3289   */\n  tag_84\n  jumpi\n    /* \"#utility.yul\":3285:3286   */\n  0x00\n    /* \"#utility.yul\":3282:3283   */\n  dup1\n    /* \"#utility.yul\":3275:3287   */\n  revert\n    /* \"#utility.yul\":3228:3289   */\ntag_84:\n    /* \"#utility.yul\":3177:3295   */\n  pop\n  jump\t// out\n    /* \"#utility.yul\":3301:3440   */\ntag_39:\n    /* \"#utility.yul\":3356:3361   */\n  0x00\n    /* \"#utility.yul\":3387:3393   */\n  dup2\n    /* \"#utility.yul\":3381:3394   */\n  mload\n    /* \"#utility.yul\":3372:3394   */\n  swap1\n  pop\n    /* \"#utility.yul\":3403:3434   */\n  tag_86\n    /* \"#utility.yul\":3428:3433   */\n  dup2\n    /* \"#utility.yul\":3403:3434   */\n  tag_38\n  jump\t// in\ntag_86:\n    /* \"#utility.yul\":3301:3440   */\n  swap3\n  swap2\n  pop\n  pop\n  jump\t// out\n    /* \"#utility.yul\":3446:4608   */\ntag_3:\n    /* \"#utility.yul\":3561:3567   */\n  0x00\n    /* \"#utility.yul\":3569:3575   */\n  dup1\n    /* \"#utility.yul\":3577:3583   */\n  0x00\n    /* \"#utility.yul\":3585:3591   */\n  dup1\n    /* \"#utility.yul\":3634:3637   */\n  0x80\n    /* \"#utility.yul\":3622:3631   */\n  dup6\n    /* \"#utility.yul\":3613:3620   */\n  dup8\n    /* \"#utility.yul\":3609:3632   */\n  sub\n    /* \"#utility.yul\":3605:3638   */\n  slt\n    /* \"#utility.yul\":3602:3722   */\n  iszero\n  tag_88\n  jumpi\n    /* \"#utility.yul\":3641:3720   */\n  tag_89\n  tag_22\n  jump\t// in\ntag_89:\n    /* \"#utility.yul\":3602:3722   */\ntag_88:\n    /* \"#utility.yul\":3761:3762   */\n  0x00\n    /* \"#utility.yul\":3786:3850   */\n  tag_90\n    /* \"#utility.yul\":3842:3849   */\n  dup8\n    /* \"#utility.yul\":3833:3839   */\n  dup3\n    /* \"#utility.yul\":3822:3831   */\n  dup9\n    /* \"#utility.yul\":3818:3840   */\n  add\n    /* \"#utility.yul\":3786:3850   */\n  tag_26\n  jump\t// in\ntag_90:\n    /* \"#utility.yul\":3776:3850   */\n  swap5\n  pop\n    /* \"#utility.yul\":3732:3860   */\n  pop\n    /* \"#utility.yul\":3920:3922   */\n  0x20\n    /* \"#utility.yul\":3909:3918   */\n  dup6\n    /* \"#utility.yul\":3905:3923   */\n  add\n    /* \"#utility.yul\":3899:3924   */\n  mload\n    /* \"#utility.yul\":3951:3969   */\n  0xffffffffffffffff\n    /* \"#utility.yul\":3943:3949   */\n  dup2\n    /* \"#utility.yul\":3940:3970   */\n  gt\n    /* \"#utility.yul\":3937:4054   */\n  iszero\n  tag_91\n  jumpi\n    /* \"#utility.yul\":3973:4052   */\n  tag_92\n  tag_23\n  jump\t// in\ntag_92:\n    /* \"#utility.yul\":3937:4054   */\ntag_91:\n    /* \"#utility.yul\":4078:4152   */\n  tag_93\n    /* \"#utility.yul\":4144:4151   */\n  dup8\n    /* \"#utility.yul\":4135:4141   */\n  dup3\n    /* \"#utility.yul\":4124:4133   */\n  dup9\n    /* \"#utility.yul\":4120:4142   */\n  add\n    /* \"#utility.yul\":4078:4152   */\n  tag_36\n  jump\t// in\ntag_93:\n    /* \"#utility.yul\":4068:4152   */\n  swap4\n  pop\n    /* \"#utility.yul\":3870:4162   */\n  pop\n    /* \"#utility.yul\":4222:4224   */\n  0x40\n    /* \"#utility.yul\":4211:4220   */\n  dup6\n    /* \"#utility.yul\":4207:4225   */\n  add\n    /* \"#utility.yul\":4201:4226   */\n  mload\n    /* \"#utility.yul\":4253:4271   */\n  0xffffffffffffffff\n    /* \"#utility.yul\":4245:4251   */\n  dup2\n    /* \"#utility.yul\":4242:4272   */\n  gt\n    /* \"#utility.yul\":4239:4356   */\n  iszero\n  tag_94\n  jumpi\n    /* \"#utility.yul\":4275:4354   */\n  tag_95\n  tag_23\n  jump\t// in\ntag_95:\n    /* \"#utility.yul\":4239:4356   */\ntag_94:\n    /* \"#utility.yul\":4380:4454   */\n  tag_96\n    /* \"#utility.yul\":4446:4453   */\n  dup8\n    /* \"#utility.yul\":4437:4443   */\n  dup3\n    /* \"#utility.yul\":4426:4435   */\n  dup9\n    /* \"#utility.yul\":4422:4444   */\n  add\n    /* \"#utility.yul\":4380:4454   */\n  tag_36\n  jump\t// in\ntag_96:\n    /* \"#utility.yul\":4370:4454   */\n  swap3\n  pop\n    /* \"#utility.yul\":4172:4464   */\n  pop\n    /* \"#utility.yul\":4503:4505   */\n  0x60\n    /* \"#utility.yul\":4529:4591   */\n  tag_97\n    /* \"#utility.yul\":4583:4590   */\n  dup8\n    /* \"#utility.yul\":4574:4580   */\n  dup3\n    /* \"#utility.yul\":4563:4572   */\n  dup9\n    /* \"#utility.yul\":4559:4581   */\n  add\n    /* \"#utility.yul\":4529:4591   */\n  tag_39\n  jump\t// in\ntag_97:\n    /* \"#utility.yul\":4519:4591   */\n  swap2\n  pop\n    /* \"#utility.yul\":4474:4601   */\n  pop\n    /* \"#utility.yul\":3446:4608   */\n  swap3\n  swap6\n  swap2\n  swap5\n  pop\n  swap3\n  pop\n  jump\t// out\n    /* \"#utility.yul\":4614:4794   */\ntag_40:\n    /* \"#utility.yul\":4662:4739   */\n  0x4e487b7100000000000000000000000000000000000000000000000000000000\n    /* \"#utility.yul\":4659:4660   */\n  0x00\n    /* \"#utility.yul\":4652:4740   */\n  mstore\n    /* \"#utility.yul\":4759:4763   */\n  0x22\n    /* \"#utility.yul\":4756:4757   */\n  0x04\n    /* \"#utility.yul\":4749:4764   */\n  mstore\n    /* \"#utility.yul\":4783:4787   */\n  0x24\n    /* \"#utility.yul\":4780:4781   */\n  0x00\n    /* \"#utility.yul\":4773:4788   */\n  revert\n    /* \"#utility.yul\":4800:5120   */\ntag_11:\n    /* \"#utility.yul\":4844:4850   */\n  0x00\n    /* \"#utility.yul\":4881:4882   */\n  0x02\n    /* \"#utility.yul\":4875:4879   */\n  dup3\n    /* \"#utility.yul\":4871:4883   */\n  div\n    /* \"#utility.yul\":4861:4883   */\n  swap1\n  pop\n    /* \"#utility.yul\":4928:4929   */\n  0x01\n    /* \"#utility.yul\":4922:4926   */\n  dup3\n    /* \"#utility.yul\":4918:4930   */\n  and\n    /* \"#utility.yul\":4949:4967   */\n  dup1\n    /* \"#utility.yul\":4939:5020   */\n  tag_100\n  jumpi\n    /* \"#utility.yul\":5005:5009   */\n  0x7f\n    /* \"#utility.yul\":4997:5003   */\n  dup3\n    /* \"#utility.yul\":4993:5010   */\n  and\n    /* \"#utility.yul\":4983:5010   */\n  swap2\n  pop\n    /* \"#utility.yul\":4939:5020   */\ntag_100:\n    /* \"#utility.yul\":5067:5069   */\n  0x20\n    /* \"#utility.yul\":5059:5065   */\n  dup3\n    /* \"#utility.yul\":5056:5070   */\n  lt\n    /* \"#utility.yul\":5036:5054   */\n  dup2\n    /* \"#utility.yul\":5033:5071   */\n  eq\n    /* \"#utility.yul\":5030:5114   */\n  iszero\n  tag_101\n  jumpi\n    /* \"#utility.yul\":5086:5104   */\n  tag_102\n  tag_40\n  jump\t// in\ntag_102:\n    /* \"#utility.yul\":5030:5114   */\ntag_101:\n    /* \"#utility.yul\":4851:5120   */\n  pop\n    /* \"#utility.yul\":4800:5120   */\n  swap2\n  swap1\n  pop\n  jump\t// out\n    /* \"contracts/OreOreCoinCashBack.sol\":61:3387  contract OreOreCoin {... */\ntag_9:\n  dataSize(sub_0)\n  dup1\n  dataOffset(sub_0)\n  0x00\n  codecopy\n  0x00\n  return\nstop\n\nsub_0: assembly {\n        /* \"contracts/OreOreCoinCashBack.sol\":61:3387  contract OreOreCoin {... */\n      mstore(0x40, 0x80)\n      callvalue\n      dup1\n      iszero\n      tag_1\n      jumpi\n      0x00\n      dup1\n      revert\n    tag_1:\n      pop\n      jumpi(tag_2, lt(calldatasize, 0x04))\n      shr(0xe0, calldataload(0x00))\n      dup1\n      0x8a294c60\n      gt\n      tag_15\n      jumpi\n      dup1\n      0x8a294c60\n      eq\n      tag_9\n      jumpi\n      dup1\n      0x8da5cb5b\n      eq\n      tag_10\n      jumpi\n      dup1\n      0x8de6b343\n      eq\n      tag_11\n      jumpi\n      dup1\n      0x8f81cc1d\n      eq\n      tag_12\n      jumpi\n      dup1\n      0x95d89b41\n      eq\n      tag_13\n      jumpi\n      dup1\n      0xa9059cbb\n      eq\n      tag_14\n      jumpi\n      jump(tag_2)\n    tag_15:\n      dup1\n      0x06fdde03\n      eq\n      tag_3\n      jumpi\n      dup1\n      0x18160ddd\n      eq\n      tag_4\n      jumpi\n      dup1\n      0x313ce567\n      eq\n      tag_5\n      jumpi\n      dup1\n      0x4838d165\n      eq\n      tag_6\n      jumpi\n      dup1\n      0x4c7efb41\n      eq\n      tag_7\n      jumpi\n      dup1\n      0x70a08231\n      eq\n      tag_8\n      jumpi\n    tag_2:\n      0x00\n      dup1\n      revert\n        /* \"contracts/OreOreCoinCashBack.sol\":117:135  string public name */\n    tag_3:\n      tag_16\n      tag_17\n      jump\t// in\n    tag_16:\n      mload(0x40)\n      tag_18\n      swap2\n      swap1\n      tag_19\n      jump\t// in\n    tag_18:\n      mload(0x40)\n      dup1\n      swap2\n      sub\n      swap1\n      return\n        /* \"contracts/OreOreCoinCashBack.sol\":261:287  uint256 public totalSupply */\n    tag_4:\n      tag_20\n      tag_21\n      jump\t// in\n    tag_20:\n      mload(0x40)\n      tag_22\n      swap2\n      swap1\n      tag_23\n      jump\t// in\n    tag_22:\n      mload(0x40)\n      dup1\n      swap2\n      sub\n      swap1\n      return\n        /* \"contracts/OreOreCoinCashBack.sol\":203:224  uint8 public decimals */\n    tag_5:\n      tag_24\n      tag_25\n      jump\t// in\n    tag_24:\n      mload(0x40)\n      tag_26\n      swap2\n      swap1\n      tag_27\n      jump\t// in\n    tag_26:\n      mload(0x40)\n      dup1\n      swap2\n      sub\n      swap1\n      return\n        /* \"contracts/OreOreCoinCashBack.sol\":387:429  mapping (address => int8) public blackList */\n    tag_6:\n      tag_28\n      0x04\n      dup1\n      calldatasize\n      sub\n      dup2\n      add\n      swap1\n      tag_29\n      swap2\n      swap1\n      tag_30\n      jump\t// in\n    tag_29:\n      tag_31\n      jump\t// in\n    tag_28:\n      mload(0x40)\n      tag_32\n      swap2\n      swap1\n      tag_33\n      jump\t// in\n    tag_32:\n      mload(0x40)\n      dup1\n      swap2\n      sub\n      swap1\n      return\n        /* \"contracts/OreOreCoinCashBack.sol\":2023:2230  function setCashbackRate(uint8 _rate) public {... */\n    tag_7:\n      tag_34\n      0x04\n      dup1\n      calldatasize\n      sub\n      dup2\n      add\n      swap1\n      tag_35\n      swap2\n      swap1\n      tag_36\n      jump\t// in\n    tag_35:\n      tag_37\n      jump\t// in\n    tag_34:\n      stop\n        /* \"contracts/OreOreCoinCashBack.sol\":311:356  mapping (address => uint256) public balanceOf */\n    tag_8:\n      tag_38\n      0x04\n      dup1\n      calldatasize\n      sub\n      dup2\n      add\n      swap1\n      tag_39\n      swap2\n      swap1\n      tag_30\n      jump\t// in\n    tag_39:\n      tag_40\n      jump\t// in\n    tag_38:\n      mload(0x40)\n      tag_41\n      swap2\n      swap1\n      tag_23\n      jump\t// in\n    tag_41:\n      mload(0x40)\n      dup1\n      swap2\n      sub\n      swap1\n      return\n        /* \"contracts/OreOreCoinCashBack.sol\":1655:1782  function blacklisting(address _addr) public onlyOwner {... */\n    tag_9:\n      tag_42\n      0x04\n      dup1\n      calldatasize\n      sub\n      dup2\n      add\n      swap1\n      tag_43\n      swap2\n      swap1\n      tag_30\n      jump\t// in\n    tag_43:\n      tag_44\n      jump\t// in\n    tag_42:\n      stop\n        /* \"contracts/OreOreCoinCashBack.sol\":455:475  address public owner */\n    tag_10:\n      tag_45\n      tag_46\n      jump\t// in\n    tag_45:\n      mload(0x40)\n      tag_47\n      swap2\n      swap1\n      tag_48\n      jump\t// in\n    tag_47:\n      mload(0x40)\n      dup1\n      swap2\n      sub\n      swap1\n      return\n        /* \"contracts/OreOreCoinCashBack.sol\":1838:1981  function deleteFromBlacklist(address _addr) public onlyOwner {... */\n    tag_11:\n      tag_49\n      0x04\n      dup1\n      calldatasize\n      sub\n      dup2\n      add\n      swap1\n      tag_50\n      swap2\n      swap1\n      tag_30\n      jump\t// in\n    tag_50:\n      tag_51\n      jump\t// in\n    tag_49:\n      stop\n        /* \"contracts/OreOreCoinCashBack.sol\":502:548  mapping (address => uint8) public cashbackRate */\n    tag_12:\n      tag_52\n      0x04\n      dup1\n      calldatasize\n      sub\n      dup2\n      add\n      swap1\n      tag_53\n      swap2\n      swap1\n      tag_30\n      jump\t// in\n    tag_53:\n      tag_54\n      jump\t// in\n    tag_52:\n      mload(0x40)\n      tag_55\n      swap2\n      swap1\n      tag_27\n      jump\t// in\n    tag_55:\n      mload(0x40)\n      dup1\n      swap2\n      sub\n      swap1\n      return\n        /* \"contracts/OreOreCoinCashBack.sol\":159:179  string public symbol */\n    tag_13:\n      tag_56\n      tag_57\n      jump\t// in\n    tag_56:\n      mload(0x40)\n      tag_58\n      swap2\n      swap1\n      tag_19\n      jump\t// in\n    tag_58:\n      mload(0x40)\n      dup1\n      swap2\n      sub\n      swap1\n      return\n        /* \"contracts/OreOreCoinCashBack.sol\":2254:3384  function transfer(address _to, uint256 _value) public {... */\n    tag_14:\n      tag_59\n      0x04\n      dup1\n      calldatasize\n      sub\n      dup2\n      add\n      swap1\n      tag_60\n      swap2\n      swap1\n      tag_61\n      jump\t// in\n    tag_60:\n      tag_62\n      jump\t// in\n    tag_59:\n      stop\n        /* \"contracts/OreOreCoinCashBack.sol\":117:135  string public name */\n    tag_17:\n      0x00\n      dup1\n      sload\n      tag_63\n      swap1\n      tag_64\n      jump\t// in\n    tag_63:\n      dup1\n      0x1f\n      add\n      0x20\n      dup1\n      swap2\n      div\n      mul\n      0x20\n      add\n      mload(0x40)\n      swap1\n      dup2\n      add\n      0x40\n      mstore\n      dup1\n      swap3\n      swap2\n      swap1\n      dup2\n      dup2\n      mstore\n      0x20\n      add\n      dup3\n      dup1\n      sload\n      tag_65\n      swap1\n      tag_64\n      jump\t// in\n    tag_65:\n      dup1\n      iszero\n      tag_66\n      jumpi\n      dup1\n      0x1f\n      lt\n      tag_67\n      jumpi\n      0x0100\n      dup1\n      dup4\n      sload\n      div\n      mul\n      dup4\n      mstore\n      swap2\n      0x20\n      add\n      swap2\n      jump(tag_66)\n    tag_67:\n      dup3\n      add\n      swap2\n      swap1\n      0x00\n      mstore\n      keccak256(0x00, 0x20)\n      swap1\n    tag_68:\n      dup2\n      sload\n      dup2\n      mstore\n      swap1\n      0x01\n      add\n      swap1\n      0x20\n      add\n      dup1\n      dup4\n      gt\n      tag_68\n      jumpi\n      dup3\n      swap1\n      sub\n      0x1f\n      and\n      dup3\n      add\n      swap2\n    tag_66:\n      pop\n      pop\n      pop\n      pop\n      pop\n      dup2\n      jump\t// out\n        /* \"contracts/OreOreCoinCashBack.sol\":261:287  uint256 public totalSupply */\n    tag_21:\n      sload(0x03)\n      dup2\n      jump\t// out\n        /* \"contracts/OreOreCoinCashBack.sol\":203:224  uint8 public decimals */\n    tag_25:\n      0x02\n      0x00\n      swap1\n      sload\n      swap1\n      0x0100\n      exp\n      swap1\n      div\n      0xff\n      and\n      dup2\n      jump\t// out\n        /* \"contracts/OreOreCoinCashBack.sol\":387:429  mapping (address => int8) public blackList */\n    tag_31:\n      mstore(0x20, 0x05)\n      dup1\n      0x00\n      mstore\n      keccak256(0x00, 0x40)\n      0x00\n      swap2\n      pop\n      sload\n      swap1\n      0x0100\n      exp\n      swap1\n      div\n      0x00\n      signextend\n      dup2\n      jump\t// out\n        /* \"contracts/OreOreCoinCashBack.sol\":2023:2230  function setCashbackRate(uint8 _rate) public {... */\n    tag_37:\n        /* \"contracts/OreOreCoinCashBack.sol\":2091:2094  100 */\n      0x64\n        /* \"contracts/OreOreCoinCashBack.sol\":2083:2088  _rate */\n      dup2\n        /* \"contracts/OreOreCoinCashBack.sol\":2083:2094  _rate > 100 */\n      0xff\n      and\n      gt\n        /* \"contracts/OreOreCoinCashBack.sol\":2079:2134  if (_rate > 100) {... */\n      iszero\n      tag_70\n      jumpi\n        /* \"contracts/OreOreCoinCashBack.sol\":2119:2122  100 */\n      0x64\n        /* \"contracts/OreOreCoinCashBack.sol\":2111:2122  _rate = 100 */\n      swap1\n      pop\n        /* \"contracts/OreOreCoinCashBack.sol\":2079:2134  if (_rate > 100) {... */\n    tag_70:\n        /* \"contracts/OreOreCoinCashBack.sol\":2171:2176  _rate */\n      dup1\n        /* \"contracts/OreOreCoinCashBack.sol\":2144:2156  cashbackRate */\n      0x07\n        /* \"contracts/OreOreCoinCashBack.sol\":2144:2168  cashbackRate[msg.sender] */\n      0x00\n        /* \"contracts/OreOreCoinCashBack.sol\":2157:2167  msg.sender */\n      caller\n        /* \"contracts/OreOreCoinCashBack.sol\":2144:2168  cashbackRate[msg.sender] */\n      0xffffffffffffffffffffffffffffffffffffffff\n      and\n      0xffffffffffffffffffffffffffffffffffffffff\n      and\n      dup2\n      mstore\n      0x20\n      add\n      swap1\n      dup2\n      mstore\n      0x20\n      add\n      0x00\n      keccak256\n      0x00\n        /* \"contracts/OreOreCoinCashBack.sol\":2144:2176  cashbackRate[msg.sender] = _rate */\n      0x0100\n      exp\n      dup2\n      sload\n      dup2\n      0xff\n      mul\n      not\n      and\n      swap1\n      dup4\n      0xff\n      and\n      mul\n      or\n      swap1\n      sstore\n      pop\n        /* \"contracts/OreOreCoinCashBack.sol\":2204:2214  msg.sender */\n      caller\n        /* \"contracts/OreOreCoinCashBack.sol\":2192:2222  SetCashback(msg.sender, _rate) */\n      0xffffffffffffffffffffffffffffffffffffffff\n      and\n      0x166537386da389adc71779490c0982f06fdc0368449372828021cdf6f4065710\n        /* \"contracts/OreOreCoinCashBack.sol\":2216:2221  _rate */\n      dup3\n        /* \"contracts/OreOreCoinCashBack.sol\":2192:2222  SetCashback(msg.sender, _rate) */\n      mload(0x40)\n      tag_71\n      swap2\n      swap1\n      tag_27\n      jump\t// in\n    tag_71:\n      mload(0x40)\n      dup1\n      swap2\n      sub\n      swap1\n      log2\n        /* \"contracts/OreOreCoinCashBack.sol\":2023:2230  function setCashbackRate(uint8 _rate) public {... */\n      pop\n      jump\t// out\n        /* \"contracts/OreOreCoinCashBack.sol\":311:356  mapping (address => uint256) public balanceOf */\n    tag_40:\n      mstore(0x20, 0x04)\n      dup1\n      0x00\n      mstore\n      keccak256(0x00, 0x40)\n      0x00\n      swap2\n      pop\n      swap1\n      pop\n      sload\n      dup2\n      jump\t// out\n        /* \"contracts/OreOreCoinCashBack.sol\":1655:1782  function blacklisting(address _addr) public onlyOwner {... */\n    tag_44:\n        /* \"contracts/OreOreCoinCashBack.sol\":669:674  owner */\n      0x06\n      0x00\n      swap1\n      sload\n      swap1\n      0x0100\n      exp\n      swap1\n      div\n      0xffffffffffffffffffffffffffffffffffffffff\n      and\n        /* \"contracts/OreOreCoinCashBack.sol\":655:674  msg.sender == owner */\n      0xffffffffffffffffffffffffffffffffffffffff\n      and\n        /* \"contracts/OreOreCoinCashBack.sol\":655:665  msg.sender */\n      caller\n        /* \"contracts/OreOreCoinCashBack.sol\":655:674  msg.sender == owner */\n      0xffffffffffffffffffffffffffffffffffffffff\n      and\n      eq\n        /* \"contracts/OreOreCoinCashBack.sol\":646:688  require (msg.sender == owner, \"onlyOwner\") */\n      tag_73\n      jumpi\n      mload(0x40)\n      0x08c379a000000000000000000000000000000000000000000000000000000000\n      dup2\n      mstore\n      0x04\n      add\n      tag_74\n      swap1\n      tag_75\n      jump\t// in\n    tag_74:\n      mload(0x40)\n      dup1\n      swap2\n      sub\n      swap1\n      revert\n    tag_73:\n        /* \"contracts/OreOreCoinCashBack.sol\":1739:1740  1 */\n      0x01\n        /* \"contracts/OreOreCoinCashBack.sol\":1720:1729  blackList */\n      0x05\n        /* \"contracts/OreOreCoinCashBack.sol\":1720:1736  blackList[_addr] */\n      0x00\n        /* \"contracts/OreOreCoinCashBack.sol\":1730:1735  _addr */\n      dup4\n        /* \"contracts/OreOreCoinCashBack.sol\":1720:1736  blackList[_addr] */\n      0xffffffffffffffffffffffffffffffffffffffff\n      and\n      0xffffffffffffffffffffffffffffffffffffffff\n      and\n      dup2\n      mstore\n      0x20\n      add\n      swap1\n      dup2\n      mstore\n      0x20\n      add\n      0x00\n      keccak256\n      0x00\n        /* \"contracts/OreOreCoinCashBack.sol\":1720:1740  blackList[_addr] = 1 */\n      0x0100\n      exp\n      dup2\n      sload\n      dup2\n      0xff\n      mul\n      not\n      and\n      swap1\n      dup4\n      0x00\n      signextend\n      0xff\n      and\n      mul\n      or\n      swap1\n      sstore\n      pop\n        /* \"contracts/OreOreCoinCashBack.sol\":1768:1773  _addr */\n      dup1\n        /* \"contracts/OreOreCoinCashBack.sol\":1756:1774  Blacklisted(_addr) */\n      0xffffffffffffffffffffffffffffffffffffffff\n      and\n      0xffa4e6181777692565cf28528fc88fd1516ea86b56da075235fa575af6a4b855\n      mload(0x40)\n      mload(0x40)\n      dup1\n      swap2\n      sub\n      swap1\n      log2\n        /* \"contracts/OreOreCoinCashBack.sol\":1655:1782  function blacklisting(address _addr) public onlyOwner {... */\n      pop\n      jump\t// out\n        /* \"contracts/OreOreCoinCashBack.sol\":455:475  address public owner */\n    tag_46:\n      0x06\n      0x00\n      swap1\n      sload\n      swap1\n      0x0100\n      exp\n      swap1\n      div\n      0xffffffffffffffffffffffffffffffffffffffff\n      and\n      dup2\n      jump\t// out\n        /* \"contracts/OreOreCoinCashBack.sol\":1838:1981  function deleteFromBlacklist(address _addr) public onlyOwner {... */\n    tag_51:\n        /* \"contracts/OreOreCoinCashBack.sol\":669:674  owner */\n      0x06\n      0x00\n      swap1\n      sload\n      swap1\n      0x0100\n      exp\n      swap1\n      div\n      0xffffffffffffffffffffffffffffffffffffffff\n      and\n        /* \"contracts/OreOreCoinCashBack.sol\":655:674  msg.sender == owner */\n      0xffffffffffffffffffffffffffffffffffffffff\n      and\n        /* \"contracts/OreOreCoinCashBack.sol\":655:665  msg.sender */\n      caller\n        /* \"contracts/OreOreCoinCashBack.sol\":655:674  msg.sender == owner */\n      0xffffffffffffffffffffffffffffffffffffffff\n      and\n      eq\n        /* \"contracts/OreOreCoinCashBack.sol\":646:688  require (msg.sender == owner, \"onlyOwner\") */\n      tag_78\n      jumpi\n      mload(0x40)\n      0x08c379a000000000000000000000000000000000000000000000000000000000\n      dup2\n      mstore\n      0x04\n      add\n      tag_79\n      swap1\n      tag_75\n      jump\t// in\n    tag_79:\n      mload(0x40)\n      dup1\n      swap2\n      sub\n      swap1\n      revert\n    tag_78:\n        /* \"contracts/OreOreCoinCashBack.sol\":1929:1931  -1 */\n      0xffffffffffffffffffffffffffffffffffffffffffffffffffffffffffffffff\n        /* \"contracts/OreOreCoinCashBack.sol\":1910:1919  blackList */\n      0x05\n        /* \"contracts/OreOreCoinCashBack.sol\":1910:1926  blackList[_addr] */\n      0x00\n        /* \"contracts/OreOreCoinCashBack.sol\":1920:1925  _addr */\n      dup4\n        /* \"contracts/OreOreCoinCashBack.sol\":1910:1926  blackList[_addr] */\n      0xffffffffffffffffffffffffffffffffffffffff\n      and\n      0xffffffffffffffffffffffffffffffffffffffff\n      and\n      dup2\n      mstore\n      0x20\n      add\n      swap1\n      dup2\n      mstore\n      0x20\n      add\n      0x00\n      keccak256\n      0x00\n        /* \"contracts/OreOreCoinCashBack.sol\":1910:1931  blackList[_addr] = -1 */\n      0x0100\n      exp\n      dup2\n      sload\n      dup2\n      0xff\n      mul\n      not\n      and\n      swap1\n      dup4\n      0x00\n      signextend\n      0xff\n      and\n      mul\n      or\n      swap1\n      sstore\n      pop\n        /* \"contracts/OreOreCoinCashBack.sol\":1967:1972  _addr */\n      dup1\n        /* \"contracts/OreOreCoinCashBack.sol\":1947:1973  DeleteFromBlacklist(_addr) */\n      0xffffffffffffffffffffffffffffffffffffffff\n      and\n      0x2e5392b52e98bf05bdf3784aaec667371398a6ea4fb965a2894852471999bca9\n      mload(0x40)\n      mload(0x40)\n      dup1\n      swap2\n      sub\n      swap1\n      log2\n        /* \"contracts/OreOreCoinCashBack.sol\":1838:1981  function deleteFromBlacklist(address _addr) public onlyOwner {... */\n      pop\n      jump\t// out\n        /* \"contracts/OreOreCoinCashBack.sol\":502:548  mapping (address => uint8) public cashbackRate */\n    tag_54:\n      mstore(0x20, 0x07)\n      dup1\n      0x00\n      mstore\n      keccak256(0x00, 0x40)\n      0x00\n      swap2\n      pop\n      sload\n      swap1\n      0x0100\n      exp\n      swap1\n      div\n      0xff\n      and\n      dup2\n      jump\t// out\n        /* \"contracts/OreOreCoinCashBack.sol\":159:179  string public symbol */\n    tag_57:\n      0x01\n      dup1\n      sload\n      tag_81\n      swap1\n      tag_64\n      jump\t// in\n    tag_81:\n      dup1\n      0x1f\n      add\n      0x20\n      dup1\n      swap2\n      div\n      mul\n      0x20\n      add\n      mload(0x40)\n      swap1\n      dup2\n      add\n      0x40\n      mstore\n      dup1\n      swap3\n      swap2\n      swap1\n      dup2\n      dup2\n      mstore\n      0x20\n      add\n      dup3\n      dup1\n      sload\n      tag_82\n      swap1\n      tag_64\n      jump\t// in\n    tag_82:\n      dup1\n      iszero\n      tag_83\n      jumpi\n      dup1\n      0x1f\n      lt\n      tag_84\n      jumpi\n      0x0100\n      dup1\n      dup4\n      sload\n      div\n      mul\n      dup4\n      mstore\n      swap2\n      0x20\n      add\n      swap2\n      jump(tag_83)\n    tag_84:\n      dup3\n      add\n      swap2\n      swap1\n      0x00\n      mstore\n      keccak256(0x00, 0x20)\n      swap1\n    tag_85:\n      dup2\n      sload\n      dup2\n      mstore\n      swap1\n      0x01\n      add\n      swap1\n      0x20\n      add\n      dup1\n      dup4\n      gt\n      tag_85\n      jumpi\n      dup3\n      swap1\n      sub\n      0x1f\n      and\n      dup3\n      add\n      swap2\n    tag_83:\n      pop\n      pop\n      pop\n      pop\n      pop\n      dup2\n      jump\t// out\n        /* \"contracts/OreOreCoinCashBack.sol\":2254:3384  function transfer(address _to, uint256 _value) public {... */\n    tag_62:\n        /* \"contracts/OreOreCoinCashBack.sol\":2386:2392  _value */\n      dup1\n        /* \"contracts/OreOreCoinCashBack.sol\":2361:2370  balanceOf */\n      0x04\n        /* \"contracts/OreOreCoinCashBack.sol\":2361:2382  balanceOf[msg.sender] */\n      0x00\n        /* \"contracts/OreOreCoinCashBack.sol\":2371:2381  msg.sender */\n      caller\n        /* \"contracts/OreOreCoinCashBack.sol\":2361:2382  balanceOf[msg.sender] */\n      0xffffffffffffffffffffffffffffffffffffffff\n      and\n      0xffffffffffffffffffffffffffffffffffffffff\n      and\n      dup2\n      mstore\n      0x20\n      add\n      swap1\n      dup2\n      mstore\n      0x20\n      add\n      0x00\n      keccak256\n      sload\n        /* \"contracts/OreOreCoinCashBack.sol\":2361:2392  balanceOf[msg.sender] >= _value */\n      lt\n      iszero\n        /* \"contracts/OreOreCoinCashBack.sol\":2352:2410  require (balanceOf[msg.sender] >= _value, \"tranfer_err_1\") */\n      tag_87\n      jumpi\n      mload(0x40)\n      0x08c379a000000000000000000000000000000000000000000000000000000000\n      dup2\n      mstore\n      0x04\n      add\n      tag_88\n      swap1\n      tag_89\n      jump\t// in\n    tag_88:\n      mload(0x40)\n      dup1\n      swap2\n      sub\n      swap1\n      revert\n    tag_87:\n        /* \"contracts/OreOreCoinCashBack.sol\":2457:2466  balanceOf */\n      0x04\n        /* \"contracts/OreOreCoinCashBack.sol\":2457:2471  balanceOf[_to] */\n      0x00\n        /* \"contracts/OreOreCoinCashBack.sol\":2467:2470  _to */\n      dup4\n        /* \"contracts/OreOreCoinCashBack.sol\":2457:2471  balanceOf[_to] */\n      0xffffffffffffffffffffffffffffffffffffffff\n      and\n      0xffffffffffffffffffffffffffffffffffffffff\n      and\n      dup2\n      mstore\n      0x20\n      add\n      swap1\n      dup2\n      mstore\n      0x20\n      add\n      0x00\n      keccak256\n      sload\n        /* \"contracts/OreOreCoinCashBack.sol\":2447:2453  _value */\n      dup2\n        /* \"contracts/OreOreCoinCashBack.sol\":2430:2439  balanceOf */\n      0x04\n        /* \"contracts/OreOreCoinCashBack.sol\":2430:2444  balanceOf[_to] */\n      0x00\n        /* \"contracts/OreOreCoinCashBack.sol\":2440:2443  _to */\n      dup6\n        /* \"contracts/OreOreCoinCashBack.sol\":2430:2444  balanceOf[_to] */\n      0xffffffffffffffffffffffffffffffffffffffff\n      and\n      0xffffffffffffffffffffffffffffffffffffffff\n      and\n      dup2\n      mstore\n      0x20\n      add\n      swap1\n      dup2\n      mstore\n      0x20\n      add\n      0x00\n      keccak256\n      sload\n        /* \"contracts/OreOreCoinCashBack.sol\":2430:2453  balanceOf[_to] + _value */\n      tag_90\n      swap2\n      swap1\n      tag_91\n      jump\t// in\n    tag_90:\n        /* \"contracts/OreOreCoinCashBack.sol\":2430:2471  balanceOf[_to] + _value >= balanceOf[_to] */\n      lt\n      iszero\n        /* \"contracts/OreOreCoinCashBack.sol\":2421:2489  require (balanceOf[_to] + _value >= balanceOf[_to], \"tranfer_err_2\") */\n      tag_92\n      jumpi\n      mload(0x40)\n      0x08c379a000000000000000000000000000000000000000000000000000000000\n      dup2\n      mstore\n      0x04\n      add\n      tag_93\n      swap1\n      tag_94\n      jump\t// in\n    tag_93:\n      mload(0x40)\n      dup1\n      swap2\n      sub\n      swap1\n      revert\n    tag_92:\n        /* \"contracts/OreOreCoinCashBack.sol\":2609:2610  0 */\n      0x00\n        /* \"contracts/OreOreCoinCashBack.sol\":2585:2594  blackList */\n      0x05\n        /* \"contracts/OreOreCoinCashBack.sol\":2585:2606  blackList[msg.sender] */\n      0x00\n        /* \"contracts/OreOreCoinCashBack.sol\":2595:2605  msg.sender */\n      caller\n        /* \"contracts/OreOreCoinCashBack.sol\":2585:2606  blackList[msg.sender] */\n      0xffffffffffffffffffffffffffffffffffffffff\n      and\n      0xffffffffffffffffffffffffffffffffffffffff\n      and\n      dup2\n      mstore\n      0x20\n      add\n      swap1\n      dup2\n      mstore\n      0x20\n      add\n      0x00\n      keccak256\n      0x00\n      swap1\n      sload\n      swap1\n      0x0100\n      exp\n      swap1\n      div\n      0x00\n      signextend\n        /* \"contracts/OreOreCoinCashBack.sol\":2585:2610  blackList[msg.sender] > 0 */\n      0x00\n      signextend\n      sgt\n        /* \"contracts/OreOreCoinCashBack.sol\":2581:3377  if (blackList[msg.sender] > 0) {... */\n      iszero\n      tag_95\n      jumpi\n        /* \"contracts/OreOreCoinCashBack.sol\":2679:2682  _to */\n      dup2\n        /* \"contracts/OreOreCoinCashBack.sol\":2632:2691  RejectedPaymentFromBlacklistedAddr(msg.sender, _to, _value) */\n      0xffffffffffffffffffffffffffffffffffffffff\n      and\n        /* \"contracts/OreOreCoinCashBack.sol\":2667:2677  msg.sender */\n      caller\n        /* \"contracts/OreOreCoinCashBack.sol\":2632:2691  RejectedPaymentFromBlacklistedAddr(msg.sender, _to, _value) */\n      0xffffffffffffffffffffffffffffffffffffffff\n      and\n      0x2a04c84c100a93363ee2e1ab7076505a06b5dd417cccc0d6080ec8285e84f79e\n        /* \"contracts/OreOreCoinCashBack.sol\":2684:2690  _value */\n      dup4\n        /* \"contracts/OreOreCoinCashBack.sol\":2632:2691  RejectedPaymentFromBlacklistedAddr(msg.sender, _to, _value) */\n      mload(0x40)\n      tag_96\n      swap2\n      swap1\n      tag_23\n      jump\t// in\n    tag_96:\n      mload(0x40)\n      dup1\n      swap2\n      sub\n      swap1\n      log3\n        /* \"contracts/OreOreCoinCashBack.sol\":2581:3377  if (blackList[msg.sender] > 0) {... */\n      jump(tag_97)\n    tag_95:\n        /* \"contracts/OreOreCoinCashBack.sol\":2730:2731  0 */\n      0x00\n        /* \"contracts/OreOreCoinCashBack.sol\":2713:2722  blackList */\n      0x05\n        /* \"contracts/OreOreCoinCashBack.sol\":2713:2727  blackList[_to] */\n      0x00\n        /* \"contracts/OreOreCoinCashBack.sol\":2723:2726  _to */\n      dup5\n        /* \"contracts/OreOreCoinCashBack.sol\":2713:2727  blackList[_to] */\n      0xffffffffffffffffffffffffffffffffffffffff\n      and\n      0xffffffffffffffffffffffffffffffffffffffff\n      and\n      dup2\n      mstore\n      0x20\n      add\n      swap1\n      dup2\n      mstore\n      0x20\n      add\n      0x00\n      keccak256\n      0x00\n      swap1\n      sload\n      swap1\n      0x0100\n      exp\n      swap1\n      div\n      0x00\n      signextend\n        /* \"contracts/OreOreCoinCashBack.sol\":2713:2731  blackList[_to] > 0 */\n      0x00\n      signextend\n      sgt\n        /* \"contracts/OreOreCoinCashBack.sol\":2709:3377  if (blackList[_to] > 0) {... */\n      iszero\n      tag_98\n      jumpi\n        /* \"contracts/OreOreCoinCashBack.sol\":2798:2801  _to */\n      dup2\n        /* \"contracts/OreOreCoinCashBack.sol\":2753:2810  RejectedPaymentToBlacklistedAddr(msg.sender, _to, _value) */\n      0xffffffffffffffffffffffffffffffffffffffff\n      and\n        /* \"contracts/OreOreCoinCashBack.sol\":2786:2796  msg.sender */\n      caller\n        /* \"contracts/OreOreCoinCashBack.sol\":2753:2810  RejectedPaymentToBlacklistedAddr(msg.sender, _to, _value) */\n      0xffffffffffffffffffffffffffffffffffffffff\n      and\n      0xee75d149bb5e330e03f98b125aaa1efcd5864e4e2d5946f23dc6dd30630d5616\n        /* \"contracts/OreOreCoinCashBack.sol\":2803:2809  _value */\n      dup4\n        /* \"contracts/OreOreCoinCashBack.sol\":2753:2810  RejectedPaymentToBlacklistedAddr(msg.sender, _to, _value) */\n      mload(0x40)\n      tag_99\n      swap2\n      swap1\n      tag_23\n      jump\t// in\n    tag_99:\n      mload(0x40)\n      dup1\n      swap2\n      sub\n      swap1\n      log3\n        /* \"contracts/OreOreCoinCashBack.sol\":2709:3377  if (blackList[_to] > 0) {... */\n      jump(tag_100)\n    tag_98:\n        /* \"contracts/OreOreCoinCashBack.sol\":2922:2938  uint256 cashback */\n      0x00\n        /* \"contracts/OreOreCoinCashBack.sol\":2980:2981  0 */\n      dup1\n        /* \"contracts/OreOreCoinCashBack.sol\":2960:2972  cashbackRate */\n      0x07\n        /* \"contracts/OreOreCoinCashBack.sol\":2960:2977  cashbackRate[_to] */\n      0x00\n        /* \"contracts/OreOreCoinCashBack.sol\":2973:2976  _to */\n      dup6\n        /* \"contracts/OreOreCoinCashBack.sol\":2960:2977  cashbackRate[_to] */\n      0xffffffffffffffffffffffffffffffffffffffff\n      and\n      0xffffffffffffffffffffffffffffffffffffffff\n      and\n      dup2\n      mstore\n      0x20\n      add\n      swap1\n      dup2\n      mstore\n      0x20\n      add\n      0x00\n      keccak256\n      0x00\n      swap1\n      sload\n      swap1\n      0x0100\n      exp\n      swap1\n      div\n      0xff\n      and\n        /* \"contracts/OreOreCoinCashBack.sol\":2960:2981  cashbackRate[_to] > 0 */\n      0xff\n      and\n      gt\n        /* \"contracts/OreOreCoinCashBack.sol\":2957:3035  if(cashbackRate[_to] > 0) cashback = _value / 100 * uint256(cashbackRate[_to]) */\n      iszero\n      tag_101\n      jumpi\n        /* \"contracts/OreOreCoinCashBack.sol\":3017:3029  cashbackRate */\n      0x07\n        /* \"contracts/OreOreCoinCashBack.sol\":3017:3034  cashbackRate[_to] */\n      0x00\n        /* \"contracts/OreOreCoinCashBack.sol\":3030:3033  _to */\n      dup5\n        /* \"contracts/OreOreCoinCashBack.sol\":3017:3034  cashbackRate[_to] */\n      0xffffffffffffffffffffffffffffffffffffffff\n      and\n      0xffffffffffffffffffffffffffffffffffffffff\n      and\n      dup2\n      mstore\n      0x20\n      add\n      swap1\n      dup2\n      mstore\n      0x20\n      add\n      0x00\n      keccak256\n      0x00\n      swap1\n      sload\n      swap1\n      0x0100\n      exp\n      swap1\n      div\n      0xff\n      and\n        /* \"contracts/OreOreCoinCashBack.sol\":3009:3035  uint256(cashbackRate[_to]) */\n      0xff\n      and\n        /* \"contracts/OreOreCoinCashBack.sol\":3003:3006  100 */\n      0x64\n        /* \"contracts/OreOreCoinCashBack.sol\":2994:3000  _value */\n      dup4\n        /* \"contracts/OreOreCoinCashBack.sol\":2994:3006  _value / 100 */\n      tag_102\n      swap2\n      swap1\n      tag_103\n      jump\t// in\n    tag_102:\n        /* \"contracts/OreOreCoinCashBack.sol\":2994:3035  _value / 100 * uint256(cashbackRate[_to]) */\n      tag_104\n      swap2\n      swap1\n      tag_105\n      jump\t// in\n    tag_104:\n        /* \"contracts/OreOreCoinCashBack.sol\":2983:3035  cashback = _value / 100 * uint256(cashbackRate[_to]) */\n      swap1\n      pop\n        /* \"contracts/OreOreCoinCashBack.sol\":2957:3035  if(cashbackRate[_to] > 0) cashback = _value / 100 * uint256(cashbackRate[_to]) */\n    tag_101:\n        /* \"contracts/OreOreCoinCashBack.sol\":3175:3183  cashback */\n      dup1\n        /* \"contracts/OreOreCoinCashBack.sol\":3166:3172  _value */\n      dup3\n        /* \"contracts/OreOreCoinCashBack.sol\":3166:3183  _value - cashback */\n      tag_106\n      swap2\n      swap1\n      tag_107\n      jump\t// in\n    tag_106:\n        /* \"contracts/OreOreCoinCashBack.sol\":3140:3149  balanceOf */\n      0x04\n        /* \"contracts/OreOreCoinCashBack.sol\":3140:3161  balanceOf[msg.sender] */\n      0x00\n        /* \"contracts/OreOreCoinCashBack.sol\":3150:3160  msg.sender */\n      caller\n        /* \"contracts/OreOreCoinCashBack.sol\":3140:3161  balanceOf[msg.sender] */\n      0xffffffffffffffffffffffffffffffffffffffff\n      and\n      0xffffffffffffffffffffffffffffffffffffffff\n      and\n      dup2\n      mstore\n      0x20\n      add\n      swap1\n      dup2\n      mstore\n      0x20\n      add\n      0x00\n      keccak256\n      0x00\n        /* \"contracts/OreOreCoinCashBack.sol\":3140:3184  balanceOf[msg.sender] -= (_value - cashback) */\n      dup3\n      dup3\n      sload\n      tag_108\n      swap2\n      swap1\n      tag_107\n      jump\t// in\n    tag_108:\n      swap3\n      pop\n      pop\n      dup2\n      swap1\n      sstore\n      pop\n        /* \"contracts/OreOreCoinCashBack.sol\":3227:3235  cashback */\n      dup1\n        /* \"contracts/OreOreCoinCashBack.sol\":3218:3224  _value */\n      dup3\n        /* \"contracts/OreOreCoinCashBack.sol\":3218:3235  _value - cashback */\n      tag_109\n      swap2\n      swap1\n      tag_107\n      jump\t// in\n    tag_109:\n        /* \"contracts/OreOreCoinCashBack.sol\":3199:3208  balanceOf */\n      0x04\n        /* \"contracts/OreOreCoinCashBack.sol\":3199:3213  balanceOf[_to] */\n      0x00\n        /* \"contracts/OreOreCoinCashBack.sol\":3209:3212  _to */\n      dup6\n        /* \"contracts/OreOreCoinCashBack.sol\":3199:3213  balanceOf[_to] */\n      0xffffffffffffffffffffffffffffffffffffffff\n      and\n      0xffffffffffffffffffffffffffffffffffffffff\n      and\n      dup2\n      mstore\n      0x20\n      add\n      swap1\n      dup2\n      mstore\n      0x20\n      add\n      0x00\n      keccak256\n      0x00\n        /* \"contracts/OreOreCoinCashBack.sol\":3199:3236  balanceOf[_to] += (_value - cashback) */\n      dup3\n      dup3\n      sload\n      tag_110\n      swap2\n      swap1\n      tag_91\n      jump\t// in\n    tag_110:\n      swap3\n      pop\n      pop\n      dup2\n      swap1\n      sstore\n      pop\n        /* \"contracts/OreOreCoinCashBack.sol\":3302:3305  _to */\n      dup3\n        /* \"contracts/OreOreCoinCashBack.sol\":3281:3314  Transfer(msg.sender, _to, _value) */\n      0xffffffffffffffffffffffffffffffffffffffff\n      and\n        /* \"contracts/OreOreCoinCashBack.sol\":3290:3300  msg.sender */\n      caller\n        /* \"contracts/OreOreCoinCashBack.sol\":3281:3314  Transfer(msg.sender, _to, _value) */\n      0xffffffffffffffffffffffffffffffffffffffff\n      and\n      0xddf252ad1be2c89b69c2b068fc378daa952ba7f163c4a11628f55a4df523b3ef\n        /* \"contracts/OreOreCoinCashBack.sol\":3307:3313  _value */\n      dup5\n        /* \"contracts/OreOreCoinCashBack.sol\":3281:3314  Transfer(msg.sender, _to, _value) */\n      mload(0x40)\n      tag_111\n      swap2\n      swap1\n      tag_23\n      jump\t// in\n    tag_111:\n      mload(0x40)\n      dup1\n      swap2\n      sub\n      swap1\n      log3\n        /* \"contracts/OreOreCoinCashBack.sol\":3344:3354  msg.sender */\n      caller\n        /* \"contracts/OreOreCoinCashBack.sol\":3330:3365  Cashback(_to, msg.sender, cashback) */\n      0xffffffffffffffffffffffffffffffffffffffff\n      and\n        /* \"contracts/OreOreCoinCashBack.sol\":3339:3342  _to */\n      dup4\n        /* \"contracts/OreOreCoinCashBack.sol\":3330:3365  Cashback(_to, msg.sender, cashback) */\n      0xffffffffffffffffffffffffffffffffffffffff\n      and\n      0x82b105a9603353de51dbdf07d939d19d60f298a181b405653c095bfb286be4c2\n        /* \"contracts/OreOreCoinCashBack.sol\":3356:3364  cashback */\n      dup4\n        /* \"contracts/OreOreCoinCashBack.sol\":3330:3365  Cashback(_to, msg.sender, cashback) */\n      mload(0x40)\n      tag_112\n      swap2\n      swap1\n      tag_23\n      jump\t// in\n    tag_112:\n      mload(0x40)\n      dup1\n      swap2\n      sub\n      swap1\n      log3\n        /* \"contracts/OreOreCoinCashBack.sol\":2828:3377  {... */\n      pop\n        /* \"contracts/OreOreCoinCashBack.sol\":2709:3377  if (blackList[_to] > 0) {... */\n    tag_100:\n        /* \"contracts/OreOreCoinCashBack.sol\":2581:3377  if (blackList[msg.sender] > 0) {... */\n    tag_97:\n        /* \"contracts/OreOreCoinCashBack.sol\":2254:3384  function transfer(address _to, uint256 _value) public {... */\n      pop\n      pop\n      jump\t// out\n        /* \"#utility.yul\":7:106   */\n    tag_113:\n        /* \"#utility.yul\":59:65   */\n      0x00\n        /* \"#utility.yul\":93:98   */\n      dup2\n        /* \"#utility.yul\":87:99   */\n      mload\n        /* \"#utility.yul\":77:99   */\n      swap1\n      pop\n        /* \"#utility.yul\":7:106   */\n      swap2\n      swap1\n      pop\n      jump\t// out\n        /* \"#utility.yul\":112:281   */\n    tag_114:\n        /* \"#utility.yul\":196:207   */\n      0x00\n        /* \"#utility.yul\":230:236   */\n      dup3\n        /* \"#utility.yul\":225:228   */\n      dup3\n        /* \"#utility.yul\":218:237   */\n      mstore\n        /* \"#utility.yul\":270:274   */\n      0x20\n        /* \"#utility.yul\":265:268   */\n      dup3\n        /* \"#utility.yul\":261:275   */\n      add\n        /* \"#utility.yul\":246:275   */\n      swap1\n      pop\n        /* \"#utility.yul\":112:281   */\n      swap3\n      swap2\n      pop\n      pop\n      jump\t// out\n        /* \"#utility.yul\":287:594   */\n    tag_115:\n        /* \"#utility.yul\":355:356   */\n      0x00\n        /* \"#utility.yul\":365:478   */\n    tag_149:\n        /* \"#utility.yul\":379:385   */\n      dup4\n        /* \"#utility.yul\":376:377   */\n      dup2\n        /* \"#utility.yul\":373:386   */\n      lt\n        /* \"#utility.yul\":365:478   */\n      iszero\n      tag_151\n      jumpi\n        /* \"#utility.yul\":464:465   */\n      dup1\n        /* \"#utility.yul\":459:462   */\n      dup3\n        /* \"#utility.yul\":455:466   */\n      add\n        /* \"#utility.yul\":449:467   */\n      mload\n        /* \"#utility.yul\":445:446   */\n      dup2\n        /* \"#utility.yul\":440:443   */\n      dup5\n        /* \"#utility.yul\":436:447   */\n      add\n        /* \"#utility.yul\":429:468   */\n      mstore\n        /* \"#utility.yul\":401:403   */\n      0x20\n        /* \"#utility.yul\":398:399   */\n      dup2\n        /* \"#utility.yul\":394:404   */\n      add\n        /* \"#utility.yul\":389:404   */\n      swap1\n      pop\n        /* \"#utility.yul\":365:478   */\n      jump(tag_149)\n    tag_151:\n        /* \"#utility.yul\":496:502   */\n      dup4\n        /* \"#utility.yul\":493:494   */\n      dup2\n        /* \"#utility.yul\":490:503   */\n      gt\n        /* \"#utility.yul\":487:588   */\n      iszero\n      tag_152\n      jumpi\n        /* \"#utility.yul\":576:577   */\n      0x00\n        /* \"#utility.yul\":567:573   */\n      dup5\n        /* \"#utility.yul\":562:565   */\n      dup5\n        /* \"#utility.yul\":558:574   */\n      add\n        /* \"#utility.yul\":551:578   */\n      mstore\n        /* \"#utility.yul\":487:588   */\n    tag_152:\n        /* \"#utility.yul\":336:594   */\n      pop\n        /* \"#utility.yul\":287:594   */\n      pop\n      pop\n      pop\n      jump\t// out\n        /* \"#utility.yul\":600:702   */\n    tag_116:\n        /* \"#utility.yul\":641:647   */\n      0x00\n        /* \"#utility.yul\":692:694   */\n      0x1f\n        /* \"#utility.yul\":688:695   */\n      not\n        /* \"#utility.yul\":683:685   */\n      0x1f\n        /* \"#utility.yul\":676:681   */\n      dup4\n        /* \"#utility.yul\":672:686   */\n      add\n        /* \"#utility.yul\":668:696   */\n      and\n        /* \"#utility.yul\":658:696   */\n      swap1\n      pop\n        /* \"#utility.yul\":600:702   */\n      swap2\n      swap1\n      pop\n      jump\t// out\n        /* \"#utility.yul\":708:1072   */\n    tag_117:\n        /* \"#utility.yul\":796:799   */\n      0x00\n        /* \"#utility.yul\":824:863   */\n      tag_155\n        /* \"#utility.yul\":857:862   */\n      dup3\n        /* \"#utility.yul\":824:863   */\n      tag_113\n      jump\t// in\n    tag_155:\n        /* \"#utility.yul\":879:950   */\n      tag_156\n        /* \"#utility.yul\":943:949   */\n      dup2\n        /* \"#utility.yul\":938:941   */\n      dup6\n        /* \"#utility.yul\":879:950   */\n      tag_114\n      jump\t// in\n    tag_156:\n        /* \"#utility.yul\":872:950   */\n      swap4\n      pop\n        /* \"#utility.yul\":959:1011   */\n      tag_157\n        /* \"#utility.yul\":1004:1010   */\n      dup2\n        /* \"#utility.yul\":999:1002   */\n      dup6\n        /* \"#utility.yul\":992:996   */\n      0x20\n        /* \"#utility.yul\":985:990   */\n      dup7\n        /* \"#utility.yul\":981:997   */\n      add\n        /* \"#utility.yul\":959:1011   */\n      tag_115\n      jump\t// in\n    tag_157:\n        /* \"#utility.yul\":1036:1065   */\n      tag_158\n        /* \"#utility.yul\":1058:1064   */\n      dup2\n        /* \"#utility.yul\":1036:1065   */\n      tag_116\n      jump\t// in\n    tag_158:\n        /* \"#utility.yul\":1031:1034   */\n      dup5\n        /* \"#utility.yul\":1027:1066   */\n      add\n        /* \"#utility.yul\":1020:1066   */\n      swap2\n      pop\n        /* \"#utility.yul\":800:1072   */\n      pop\n        /* \"#utility.yul\":708:1072   */\n      swap3\n      swap2\n      pop\n      pop\n      jump\t// out\n        /* \"#utility.yul\":1078:1391   */\n    tag_19:\n        /* \"#utility.yul\":1191:1195   */\n      0x00\n        /* \"#utility.yul\":1229:1231   */\n      0x20\n        /* \"#utility.yul\":1218:1227   */\n      dup3\n        /* \"#utility.yul\":1214:1232   */\n      add\n        /* \"#utility.yul\":1206:1232   */\n      swap1\n      pop\n        /* \"#utility.yul\":1278:1287   */\n      dup2\n        /* \"#utility.yul\":1272:1276   */\n      dup2\n        /* \"#utility.yul\":1268:1288   */\n      sub\n        /* \"#utility.yul\":1264:1265   */\n      0x00\n        /* \"#utility.yul\":1253:1262   */\n      dup4\n        /* \"#utility.yul\":1249:1266   */\n      add\n        /* \"#utility.yul\":1242:1289   */\n      mstore\n        /* \"#utility.yul\":1306:1384   */\n      tag_160\n        /* \"#utility.yul\":1379:1383   */\n      dup2\n        /* \"#utility.yul\":1370:1376   */\n      dup5\n        /* \"#utility.yul\":1306:1384   */\n      tag_117\n      jump\t// in\n    tag_160:\n        /* \"#utility.yul\":1298:1384   */\n      swap1\n      pop\n        /* \"#utility.yul\":1078:1391   */\n      swap3\n      swap2\n      pop\n      pop\n      jump\t// out\n        /* \"#utility.yul\":1397:1474   */\n    tag_118:\n        /* \"#utility.yul\":1434:1441   */\n      0x00\n        /* \"#utility.yul\":1463:1468   */\n      dup2\n        /* \"#utility.yul\":1452:1468   */\n      swap1\n      pop\n        /* \"#utility.yul\":1397:1474   */\n      swap2\n      swap1\n      pop\n      jump\t// out\n        /* \"#utility.yul\":1480:1598   */\n    tag_119:\n        /* \"#utility.yul\":1567:1591   */\n      tag_163\n        /* \"#utility.yul\":1585:1590   */\n      dup2\n        /* \"#utility.yul\":1567:1591   */\n      tag_118\n      jump\t// in\n    tag_163:\n        /* \"#utility.yul\":1562:1565   */\n      dup3\n        /* \"#utility.yul\":1555:1592   */\n      mstore\n        /* \"#utility.yul\":1480:1598   */\n      pop\n      pop\n      jump\t// out\n        /* \"#utility.yul\":1604:1826   */\n    tag_23:\n        /* \"#utility.yul\":1697:1701   */\n      0x00\n        /* \"#utility.yul\":1735:1737   */\n      0x20\n        /* \"#utility.yul\":1724:1733   */\n      dup3\n        /* \"#utility.yul\":1720:1738   */\n      add\n        /* \"#utility.yul\":1712:1738   */\n      swap1\n      pop\n        /* \"#utility.yul\":1748:1819   */\n      tag_165\n        /* \"#utility.yul\":1816:1817   */\n      0x00\n        /* \"#utility.yul\":1805:1814   */\n      dup4\n        /* \"#utility.yul\":1801:1818   */\n      add\n        /* \"#utility.yul\":1792:1798   */\n      dup5\n        /* \"#utility.yul\":1748:1819   */\n      tag_119\n      jump\t// in\n    tag_165:\n        /* \"#utility.yul\":1604:1826   */\n      swap3\n      swap2\n      pop\n      pop\n      jump\t// out\n        /* \"#utility.yul\":1832:1918   */\n    tag_120:\n        /* \"#utility.yul\":1867:1874   */\n      0x00\n        /* \"#utility.yul\":1907:1911   */\n      0xff\n        /* \"#utility.yul\":1900:1905   */\n      dup3\n        /* \"#utility.yul\":1896:1912   */\n      and\n        /* \"#utility.yul\":1885:1912   */\n      swap1\n      pop\n        /* \"#utility.yul\":1832:1918   */\n      swap2\n      swap1\n      pop\n      jump\t// out\n        /* \"#utility.yul\":1924:2036   */\n    tag_121:\n        /* \"#utility.yul\":2007:2029   */\n      tag_168\n        /* \"#utility.yul\":2023:2028   */\n      dup2\n        /* \"#utility.yul\":2007:2029   */\n      tag_120\n      jump\t// in\n    tag_168:\n        /* \"#utility.yul\":2002:2005   */\n      dup3\n        /* \"#utility.yul\":1995:2030   */\n      mstore\n        /* \"#utility.yul\":1924:2036   */\n      pop\n      pop\n      jump\t// out\n        /* \"#utility.yul\":2042:2256   */\n    tag_27:\n        /* \"#utility.yul\":2131:2135   */\n      0x00\n        /* \"#utility.yul\":2169:2171   */\n      0x20\n        /* \"#utility.yul\":2158:2167   */\n      dup3\n        /* \"#utility.yul\":2154:2172   */\n      add\n        /* \"#utility.yul\":2146:2172   */\n      swap1\n      pop\n        /* \"#utility.yul\":2182:2249   */\n      tag_170\n        /* \"#utility.yul\":2246:2247   */\n      0x00\n        /* \"#utility.yul\":2235:2244   */\n      dup4\n        /* \"#utility.yul\":2231:2248   */\n      add\n        /* \"#utility.yul\":2222:2228   */\n      dup5\n        /* \"#utility.yul\":2182:2249   */\n      tag_121\n      jump\t// in\n    tag_170:\n        /* \"#utility.yul\":2042:2256   */\n      swap3\n      swap2\n      pop\n      pop\n      jump\t// out\n        /* \"#utility.yul\":2343:2460   */\n    tag_123:\n        /* \"#utility.yul\":2452:2453   */\n      0x00\n        /* \"#utility.yul\":2449:2450   */\n      dup1\n        /* \"#utility.yul\":2442:2454   */\n      revert\n        /* \"#utility.yul\":2589:2715   */\n    tag_125:\n        /* \"#utility.yul\":2626:2633   */\n      0x00\n        /* \"#utility.yul\":2666:2708   */\n      0xffffffffffffffffffffffffffffffffffffffff\n        /* \"#utility.yul\":2659:2664   */\n      dup3\n        /* \"#utility.yul\":2655:2709   */\n      and\n        /* \"#utility.yul\":2644:2709   */\n      swap1\n      pop\n        /* \"#utility.yul\":2589:2715   */\n      swap2\n      swap1\n      pop\n      jump\t// out\n        /* \"#utility.yul\":2721:2817   */\n    tag_126:\n        /* \"#utility.yul\":2758:2765   */\n      0x00\n        /* \"#utility.yul\":2787:2811   */\n      tag_176\n        /* \"#utility.yul\":2805:2810   */\n      dup3\n        /* \"#utility.yul\":2787:2811   */\n      tag_125\n      jump\t// in\n    tag_176:\n        /* \"#utility.yul\":2776:2811   */\n      swap1\n      pop\n        /* \"#utility.yul\":2721:2817   */\n      swap2\n      swap1\n      pop\n      jump\t// out\n        /* \"#utility.yul\":2823:2945   */\n    tag_127:\n        /* \"#utility.yul\":2896:2920   */\n      tag_178\n        /* \"#utility.yul\":2914:2919   */\n      dup2\n        /* \"#utility.yul\":2896:2920   */\n      tag_126\n      jump\t// in\n    tag_178:\n        /* \"#utility.yul\":2889:2894   */\n      dup2\n        /* \"#utility.yul\":2886:2921   */\n      eq\n        /* \"#utility.yul\":2876:2939   */\n      tag_179\n      jumpi\n        /* \"#utility.yul\":2935:2936   */\n      0x00\n        /* \"#utility.yul\":2932:2933   */\n      dup1\n        /* \"#utility.yul\":2925:2937   */\n      revert\n        /* \"#utility.yul\":2876:2939   */\n    tag_179:\n        /* \"#utility.yul\":2823:2945   */\n      pop\n      jump\t// out\n        /* \"#utility.yul\":2951:3090   */\n    tag_128:\n        /* \"#utility.yul\":2997:3002   */\n      0x00\n        /* \"#utility.yul\":3035:3041   */\n      dup2\n        /* \"#utility.yul\":3022:3042   */\n      calldataload\n        /* \"#utility.yul\":3013:3042   */\n      swap1\n      pop\n        /* \"#utility.yul\":3051:3084   */\n      tag_181\n        /* \"#utility.yul\":3078:3083   */\n      dup2\n        /* \"#utility.yul\":3051:3084   */\n      tag_127\n      jump\t// in\n    tag_181:\n        /* \"#utility.yul\":2951:3090   */\n      swap3\n      swap2\n      pop\n      pop\n      jump\t// out\n        /* \"#utility.yul\":3096:3425   */\n    tag_30:\n        /* \"#utility.yul\":3155:3161   */\n      0x00\n        /* \"#utility.yul\":3204:3206   */\n      0x20\n        /* \"#utility.yul\":3192:3201   */\n      dup3\n        /* \"#utility.yul\":3183:3190   */\n      dup5\n        /* \"#utility.yul\":3179:3202   */\n      sub\n        /* \"#utility.yul\":3175:3207   */\n      slt\n        /* \"#utility.yul\":3172:3291   */\n      iszero\n      tag_183\n      jumpi\n        /* \"#utility.yul\":3210:3289   */\n      tag_184\n      tag_123\n      jump\t// in\n    tag_184:\n        /* \"#utility.yul\":3172:3291   */\n    tag_183:\n        /* \"#utility.yul\":3330:3331   */\n      0x00\n        /* \"#utility.yul\":3355:3408   */\n      tag_185\n        /* \"#utility.yul\":3400:3407   */\n      dup5\n        /* \"#utility.yul\":3391:3397   */\n      dup3\n        /* \"#utility.yul\":3380:3389   */\n      dup6\n        /* \"#utility.yul\":3376:3398   */\n      add\n        /* \"#utility.yul\":3355:3408   */\n      tag_128\n      jump\t// in\n    tag_185:\n        /* \"#utility.yul\":3345:3408   */\n      swap2\n      pop\n        /* \"#utility.yul\":3301:3418   */\n      pop\n        /* \"#utility.yul\":3096:3425   */\n      swap3\n      swap2\n      pop\n      pop\n      jump\t// out\n        /* \"#utility.yul\":3431:3520   */\n    tag_129:\n        /* \"#utility.yul\":3465:3472   */\n      0x00\n        /* \"#utility.yul\":3508:3513   */\n      dup2\n        /* \"#utility.yul\":3505:3506   */\n      0x00\n        /* \"#utility.yul\":3494:3514   */\n      signextend\n        /* \"#utility.yul\":3483:3514   */\n      swap1\n      pop\n        /* \"#utility.yul\":3431:3520   */\n      swap2\n      swap1\n      pop\n      jump\t// out\n        /* \"#utility.yul\":3526:3635   */\n    tag_130:\n        /* \"#utility.yul\":3607:3628   */\n      tag_188\n        /* \"#utility.yul\":3622:3627   */\n      dup2\n        /* \"#utility.yul\":3607:3628   */\n      tag_129\n      jump\t// in\n    tag_188:\n        /* \"#utility.yul\":3602:3605   */\n      dup3\n        /* \"#utility.yul\":3595:3629   */\n      mstore\n        /* \"#utility.yul\":3526:3635   */\n      pop\n      pop\n      jump\t// out\n        /* \"#utility.yul\":3641:3851   */\n    tag_33:\n        /* \"#utility.yul\":3728:3732   */\n      0x00\n        /* \"#utility.yul\":3766:3768   */\n      0x20\n        /* \"#utility.yul\":3755:3764   */\n      dup3\n        /* \"#utility.yul\":3751:3769   */\n      add\n        /* \"#utility.yul\":3743:3769   */\n      swap1\n      pop\n        /* \"#utility.yul\":3779:3844   */\n      tag_190\n        /* \"#utility.yul\":3841:3842   */\n      0x00\n        /* \"#utility.yul\":3830:3839   */\n      dup4\n        /* \"#utility.yul\":3826:3843   */\n      add\n        /* \"#utility.yul\":3817:3823   */\n      dup5\n        /* \"#utility.yul\":3779:3844   */\n      tag_130\n      jump\t// in\n    tag_190:\n        /* \"#utility.yul\":3641:3851   */\n      swap3\n      swap2\n      pop\n      pop\n      jump\t// out\n        /* \"#utility.yul\":3857:3975   */\n    tag_131:\n        /* \"#utility.yul\":3928:3950   */\n      tag_192\n        /* \"#utility.yul\":3944:3949   */\n      dup2\n        /* \"#utility.yul\":3928:3950   */\n      tag_120\n      jump\t// in\n    tag_192:\n        /* \"#utility.yul\":3921:3926   */\n      dup2\n        /* \"#utility.yul\":3918:3951   */\n      eq\n        /* \"#utility.yul\":3908:3969   */\n      tag_193\n      jumpi\n        /* \"#utility.yul\":3965:3966   */\n      0x00\n        /* \"#utility.yul\":3962:3963   */\n      dup1\n        /* \"#utility.yul\":3955:3967   */\n      revert\n        /* \"#utility.yul\":3908:3969   */\n    tag_193:\n        /* \"#utility.yul\":3857:3975   */\n      pop\n      jump\t// out\n        /* \"#utility.yul\":3981:4116   */\n    tag_132:\n        /* \"#utility.yul\":4025:4030   */\n      0x00\n        /* \"#utility.yul\":4063:4069   */\n      dup2\n        /* \"#utility.yul\":4050:4070   */\n      calldataload\n        /* \"#utility.yul\":4041:4070   */\n      swap1\n      pop\n        /* \"#utility.yul\":4079:4110   */\n      tag_195\n        /* \"#utility.yul\":4104:4109   */\n      dup2\n        /* \"#utility.yul\":4079:4110   */\n      tag_131\n      jump\t// in\n    tag_195:\n        /* \"#utility.yul\":3981:4116   */\n      swap3\n      swap2\n      pop\n      pop\n      jump\t// out\n        /* \"#utility.yul\":4122:4447   */\n    tag_36:\n        /* \"#utility.yul\":4179:4185   */\n      0x00\n        /* \"#utility.yul\":4228:4230   */\n      0x20\n        /* \"#utility.yul\":4216:4225   */\n      dup3\n        /* \"#utility.yul\":4207:4214   */\n      dup5\n        /* \"#utility.yul\":4203:4226   */\n      sub\n        /* \"#utility.yul\":4199:4231   */\n      slt\n        /* \"#utility.yul\":4196:4315   */\n      iszero\n      tag_197\n      jumpi\n        /* \"#utility.yul\":4234:4313   */\n      tag_198\n      tag_123\n      jump\t// in\n    tag_198:\n        /* \"#utility.yul\":4196:4315   */\n    tag_197:\n        /* \"#utility.yul\":4354:4355   */\n      0x00\n        /* \"#utility.yul\":4379:4430   */\n      tag_199\n        /* \"#utility.yul\":4422:4429   */\n      dup5\n        /* \"#utility.yul\":4413:4419   */\n      dup3\n        /* \"#utility.yul\":4402:4411   */\n      dup6\n        /* \"#utility.yul\":4398:4420   */\n      add\n        /* \"#utility.yul\":4379:4430   */\n      tag_132\n      jump\t// in\n    tag_199:\n        /* \"#utility.yul\":4369:4430   */\n      swap2\n      pop\n        /* \"#utility.yul\":4325:4440   */\n      pop\n        /* \"#utility.yul\":4122:4447   */\n      swap3\n      swap2\n      pop\n      pop\n      jump\t// out\n        /* \"#utility.yul\":4453:4571   */\n    tag_133:\n        /* \"#utility.yul\":4540:4564   */\n      tag_201\n        /* \"#utility.yul\":4558:4563   */\n      dup2\n        /* \"#utility.yul\":4540:4564   */\n      tag_126\n      jump\t// in\n    tag_201:\n        /* \"#utility.yul\":4535:4538   */\n      dup3\n        /* \"#utility.yul\":4528:4565   */\n      mstore\n        /* \"#utility.yul\":4453:4571   */\n      pop\n      pop\n      jump\t// out\n        /* \"#utility.yul\":4577:4799   */\n    tag_48:\n        /* \"#utility.yul\":4670:4674   */\n      0x00\n        /* \"#utility.yul\":4708:4710   */\n      0x20\n        /* \"#utility.yul\":4697:4706   */\n      dup3\n        /* \"#utility.yul\":4693:4711   */\n      add\n        /* \"#utility.yul\":4685:4711   */\n      swap1\n      pop\n        /* \"#utility.yul\":4721:4792   */\n      tag_203\n        /* \"#utility.yul\":4789:4790   */\n      0x00\n        /* \"#utility.yul\":4778:4787   */\n      dup4\n        /* \"#utility.yul\":4774:4791   */\n      add\n        /* \"#utility.yul\":4765:4771   */\n      dup5\n        /* \"#utility.yul\":4721:4792   */\n      tag_133\n      jump\t// in\n    tag_203:\n        /* \"#utility.yul\":4577:4799   */\n      swap3\n      swap2\n      pop\n      pop\n      jump\t// out\n        /* \"#utility.yul\":4805:4927   */\n    tag_134:\n        /* \"#utility.yul\":4878:4902   */\n      tag_205\n        /* \"#utility.yul\":4896:4901   */\n      dup2\n        /* \"#utility.yul\":4878:4902   */\n      tag_118\n      jump\t// in\n    tag_205:\n        /* \"#utility.yul\":4871:4876   */\n      dup2\n        /* \"#utility.yul\":4868:4903   */\n      eq\n        /* \"#utility.yul\":4858:4921   */\n      tag_206\n      jumpi\n        /* \"#utility.yul\":4917:4918   */\n      0x00\n        /* \"#utility.yul\":4914:4915   */\n      dup1\n        /* \"#utility.yul\":4907:4919   */\n      revert\n        /* \"#utility.yul\":4858:4921   */\n    tag_206:\n        /* \"#utility.yul\":4805:4927   */\n      pop\n      jump\t// out\n        /* \"#utility.yul\":4933:5072   */\n    tag_135:\n        /* \"#utility.yul\":4979:4984   */\n      0x00\n        /* \"#utility.yul\":5017:5023   */\n      dup2\n        /* \"#utility.yul\":5004:5024   */\n      calldataload\n        /* \"#utility.yul\":4995:5024   */\n      swap1\n      pop\n        /* \"#utility.yul\":5033:5066   */\n      tag_208\n        /* \"#utility.yul\":5060:5065   */\n      dup2\n        /* \"#utility.yul\":5033:5066   */\n      tag_134\n      jump\t// in\n    tag_208:\n        /* \"#utility.yul\":4933:5072   */\n      swap3\n      swap2\n      pop\n      pop\n      jump\t// out\n        /* \"#utility.yul\":5078:5552   */\n    tag_61:\n        /* \"#utility.yul\":5146:5152   */\n      0x00\n        /* \"#utility.yul\":5154:5160   */\n      dup1\n        /* \"#utility.yul\":5203:5205   */\n      0x40\n        /* \"#utility.yul\":5191:5200   */\n      dup4\n        /* \"#utility.yul\":5182:5189   */\n      dup6\n        /* \"#utility.yul\":5178:5201   */\n      sub\n        /* \"#utility.yul\":5174:5206   */\n      slt\n        /* \"#utility.yul\":5171:5290   */\n      iszero\n      tag_210\n      jumpi\n        /* \"#utility.yul\":5209:5288   */\n      tag_211\n      tag_123\n      jump\t// in\n    tag_211:\n        /* \"#utility.yul\":5171:5290   */\n    tag_210:\n        /* \"#utility.yul\":5329:5330   */\n      0x00\n        /* \"#utility.yul\":5354:5407   */\n      tag_212\n        /* \"#utility.yul\":5399:5406   */\n      dup6\n        /* \"#utility.yul\":5390:5396   */\n      dup3\n        /* \"#utility.yul\":5379:5388   */\n      dup7\n        /* \"#utility.yul\":5375:5397   */\n      add\n        /* \"#utility.yul\":5354:5407   */\n      tag_128\n      jump\t// in\n    tag_212:\n        /* \"#utility.yul\":5344:5407   */\n      swap3\n      pop\n        /* \"#utility.yul\":5300:5417   */\n      pop\n        /* \"#utility.yul\":5456:5458   */\n      0x20\n        /* \"#utility.yul\":5482:5535   */\n      tag_213\n        /* \"#utility.yul\":5527:5534   */\n      dup6\n        /* \"#utility.yul\":5518:5524   */\n      dup3\n        /* \"#utility.yul\":5507:5516   */\n      dup7\n        /* \"#utility.yul\":5503:5525   */\n      add\n        /* \"#utility.yul\":5482:5535   */\n      tag_135\n      jump\t// in\n    tag_213:\n        /* \"#utility.yul\":5472:5535   */\n      swap2\n      pop\n        /* \"#utility.yul\":5427:5545   */\n      pop\n        /* \"#utility.yul\":5078:5552   */\n      swap3\n      pop\n      swap3\n      swap1\n      pop\n      jump\t// out\n        /* \"#utility.yul\":5558:5738   */\n    tag_136:\n        /* \"#utility.yul\":5606:5683   */\n      0x4e487b7100000000000000000000000000000000000000000000000000000000\n        /* \"#utility.yul\":5603:5604   */\n      0x00\n        /* \"#utility.yul\":5596:5684   */\n      mstore\n        /* \"#utility.yul\":5703:5707   */\n      0x22\n        /* \"#utility.yul\":5700:5701   */\n      0x04\n        /* \"#utility.yul\":5693:5708   */\n      mstore\n        /* \"#utility.yul\":5727:5731   */\n      0x24\n        /* \"#utility.yul\":5724:5725   */\n      0x00\n        /* \"#utility.yul\":5717:5732   */\n      revert\n        /* \"#utility.yul\":5744:6064   */\n    tag_64:\n        /* \"#utility.yul\":5788:5794   */\n      0x00\n        /* \"#utility.yul\":5825:5826   */\n      0x02\n        /* \"#utility.yul\":5819:5823   */\n      dup3\n        /* \"#utility.yul\":5815:5827   */\n      div\n        /* \"#utility.yul\":5805:5827   */\n      swap1\n      pop\n        /* \"#utility.yul\":5872:5873   */\n      0x01\n        /* \"#utility.yul\":5866:5870   */\n      dup3\n        /* \"#utility.yul\":5862:5874   */\n      and\n        /* \"#utility.yul\":5893:5911   */\n      dup1\n        /* \"#utility.yul\":5883:5964   */\n      tag_216\n      jumpi\n        /* \"#utility.yul\":5949:5953   */\n      0x7f\n        /* \"#utility.yul\":5941:5947   */\n      dup3\n        /* \"#utility.yul\":5937:5954   */\n      and\n        /* \"#utility.yul\":5927:5954   */\n      swap2\n      pop\n        /* \"#utility.yul\":5883:5964   */\n    tag_216:\n        /* \"#utility.yul\":6011:6013   */\n      0x20\n        /* \"#utility.yul\":6003:6009   */\n      dup3\n        /* \"#utility.yul\":6000:6014   */\n      lt\n        /* \"#utility.yul\":5980:5998   */\n      dup2\n        /* \"#utility.yul\":5977:6015   */\n      eq\n        /* \"#utility.yul\":5974:6058   */\n      iszero\n      tag_217\n      jumpi\n        /* \"#utility.yul\":6030:6048   */\n      tag_218\n      tag_136\n      jump\t// in\n    tag_218:\n        /* \"#utility.yul\":5974:6058   */\n    tag_217:\n        /* \"#utility.yul\":5795:6064   */\n      pop\n        /* \"#utility.yul\":5744:6064   */\n      swap2\n      swap1\n      pop\n      jump\t// out\n        /* \"#utility.yul\":6070:6229   */\n    tag_137:\n        /* \"#utility.yul\":6210:6221   */\n      0x6f6e6c794f776e65720000000000000000000000000000000000000000000000\n        /* \"#utility.yul\":6206:6207   */\n      0x00\n        /* \"#utility.yul\":6198:6204   */\n      dup3\n        /* \"#utility.yul\":6194:6208   */\n      add\n        /* \"#utility.yul\":6187:6222   */\n      mstore\n        /* \"#utility.yul\":6070:6229   */\n      pop\n      jump\t// out\n        /* \"#utility.yul\":6235:6600   */\n    tag_138:\n        /* \"#utility.yul\":6377:6380   */\n      0x00\n        /* \"#utility.yul\":6398:6464   */\n      tag_221\n        /* \"#utility.yul\":6462:6463   */\n      0x09\n        /* \"#utility.yul\":6457:6460   */\n      dup4\n        /* \"#utility.yul\":6398:6464   */\n      tag_114\n      jump\t// in\n    tag_221:\n        /* \"#utility.yul\":6391:6464   */\n      swap2\n      pop\n        /* \"#utility.yul\":6473:6566   */\n      tag_222\n        /* \"#utility.yul\":6562:6565   */\n      dup3\n        /* \"#utility.yul\":6473:6566   */\n      tag_137\n      jump\t// in\n    tag_222:\n        /* \"#utility.yul\":6591:6593   */\n      0x20\n        /* \"#utility.yul\":6586:6589   */\n      dup3\n        /* \"#utility.yul\":6582:6594   */\n      add\n        /* \"#utility.yul\":6575:6594   */\n      swap1\n      pop\n        /* \"#utility.yul\":6235:6600   */\n      swap2\n      swap1\n      pop\n      jump\t// out\n        /* \"#utility.yul\":6606:7025   */\n    tag_75:\n        /* \"#utility.yul\":6772:6776   */\n      0x00\n        /* \"#utility.yul\":6810:6812   */\n      0x20\n        /* \"#utility.yul\":6799:6808   */\n      dup3\n        /* \"#utility.yul\":6795:6813   */\n      add\n        /* \"#utility.yul\":6787:6813   */\n      swap1\n      pop\n        /* \"#utility.yul\":6859:6868   */\n      dup2\n        /* \"#utility.yul\":6853:6857   */\n      dup2\n        /* \"#utility.yul\":6849:6869   */\n      sub\n        /* \"#utility.yul\":6845:6846   */\n      0x00\n        /* \"#utility.yul\":6834:6843   */\n      dup4\n        /* \"#utility.yul\":6830:6847   */\n      add\n        /* \"#utility.yul\":6823:6870   */\n      mstore\n        /* \"#utility.yul\":6887:7018   */\n      tag_224\n        /* \"#utility.yul\":7013:7017   */\n      dup2\n        /* \"#utility.yul\":6887:7018   */\n      tag_138\n      jump\t// in\n    tag_224:\n        /* \"#utility.yul\":6879:7018   */\n      swap1\n      pop\n        /* \"#utility.yul\":6606:7025   */\n      swap2\n      swap1\n      pop\n      jump\t// out\n        /* \"#utility.yul\":7031:7194   */\n    tag_139:\n        /* \"#utility.yul\":7171:7186   */\n      0x7472616e6665725f6572725f3100000000000000000000000000000000000000\n        /* \"#utility.yul\":7167:7168   */\n      0x00\n        /* \"#utility.yul\":7159:7165   */\n      dup3\n        /* \"#utility.yul\":7155:7169   */\n      add\n        /* \"#utility.yul\":7148:7187   */\n      mstore\n        /* \"#utility.yul\":7031:7194   */\n      pop\n      jump\t// out\n        /* \"#utility.yul\":7200:7566   */\n    tag_140:\n        /* \"#utility.yul\":7342:7345   */\n      0x00\n        /* \"#utility.yul\":7363:7430   */\n      tag_227\n        /* \"#utility.yul\":7427:7429   */\n      0x0d\n        /* \"#utility.yul\":7422:7425   */\n      dup4\n        /* \"#utility.yul\":7363:7430   */\n      tag_114\n      jump\t// in\n    tag_227:\n        /* \"#utility.yul\":7356:7430   */\n      swap2\n      pop\n        /* \"#utility.yul\":7439:7532   */\n      tag_228\n        /* \"#utility.yul\":7528:7531   */\n      dup3\n        /* \"#utility.yul\":7439:7532   */\n      tag_139\n      jump\t// in\n    tag_228:\n        /* \"#utility.yul\":7557:7559   */\n      0x20\n        /* \"#utility.yul\":7552:7555   */\n      dup3\n        /* \"#utility.yul\":7548:7560   */\n      add\n        /* \"#utility.yul\":7541:7560   */\n      swap1\n      pop\n        /* \"#utility.yul\":7200:7566   */\n      swap2\n      swap1\n      pop\n      jump\t// out\n        /* \"#utility.yul\":7572:7991   */\n    tag_89:\n        /* \"#utility.yul\":7738:7742   */\n      0x00\n        /* \"#utility.yul\":7776:7778   */\n      0x20\n        /* \"#utility.yul\":7765:7774   */\n      dup3\n        /* \"#utility.yul\":7761:7779   */\n      add\n        /* \"#utility.yul\":7753:7779   */\n      swap1\n      pop\n        /* \"#utility.yul\":7825:7834   */\n      dup2\n        /* \"#utility.yul\":7819:7823   */\n      dup2\n        /* \"#utility.yul\":7815:7835   */\n      sub\n        /* \"#utility.yul\":7811:7812   */\n      0x00\n        /* \"#utility.yul\":7800:7809   */\n      dup4\n        /* \"#utility.yul\":7796:7813   */\n      add\n        /* \"#utility.yul\":7789:7836   */\n      mstore\n        /* \"#utility.yul\":7853:7984   */\n      tag_230\n        /* \"#utility.yul\":7979:7983   */\n      dup2\n        /* \"#utility.yul\":7853:7984   */\n      tag_140\n      jump\t// in\n    tag_230:\n        /* \"#utility.yul\":7845:7984   */\n      swap1\n      pop\n        /* \"#utility.yul\":7572:7991   */\n      swap2\n      swap1\n      pop\n      jump\t// out\n        /* \"#utility.yul\":7997:8177   */\n    tag_141:\n        /* \"#utility.yul\":8045:8122   */\n      0x4e487b7100000000000000000000000000000000000000000000000000000000\n        /* \"#utility.yul\":8042:8043   */\n      0x00\n        /* \"#utility.yul\":8035:8123   */\n      mstore\n        /* \"#utility.yul\":8142:8146   */\n      0x11\n        /* \"#utility.yul\":8139:8140   */\n      0x04\n        /* \"#utility.yul\":8132:8147   */\n      mstore\n        /* \"#utility.yul\":8166:8170   */\n      0x24\n        /* \"#utility.yul\":8163:8164   */\n      0x00\n        /* \"#utility.yul\":8156:8171   */\n      revert\n        /* \"#utility.yul\":8183:8488   */\n    tag_91:\n        /* \"#utility.yul\":8223:8226   */\n      0x00\n        /* \"#utility.yul\":8242:8262   */\n      tag_233\n        /* \"#utility.yul\":8260:8261   */\n      dup3\n        /* \"#utility.yul\":8242:8262   */\n      tag_118\n      jump\t// in\n    tag_233:\n        /* \"#utility.yul\":8237:8262   */\n      swap2\n      pop\n        /* \"#utility.yul\":8276:8296   */\n      tag_234\n        /* \"#utility.yul\":8294:8295   */\n      dup4\n        /* \"#utility.yul\":8276:8296   */\n      tag_118\n      jump\t// in\n    tag_234:\n        /* \"#utility.yul\":8271:8296   */\n      swap3\n      pop\n        /* \"#utility.yul\":8430:8431   */\n      dup3\n        /* \"#utility.yul\":8362:8428   */\n      0xffffffffffffffffffffffffffffffffffffffffffffffffffffffffffffffff\n        /* \"#utility.yul\":8358:8432   */\n      sub\n        /* \"#utility.yul\":8355:8356   */\n      dup3\n        /* \"#utility.yul\":8352:8433   */\n      gt\n        /* \"#utility.yul\":8349:8456   */\n      iszero\n      tag_235\n      jumpi\n        /* \"#utility.yul\":8436:8454   */\n      tag_236\n      tag_141\n      jump\t// in\n    tag_236:\n        /* \"#utility.yul\":8349:8456   */\n    tag_235:\n        /* \"#utility.yul\":8480:8481   */\n      dup3\n        /* \"#utility.yul\":8477:8478   */\n      dup3\n        /* \"#utility.yul\":8473:8482   */\n      add\n        /* \"#utility.yul\":8466:8482   */\n      swap1\n      pop\n        /* \"#utility.yul\":8183:8488   */\n      swap3\n      swap2\n      pop\n      pop\n      jump\t// out\n        /* \"#utility.yul\":8494:8657   */\n    tag_142:\n        /* \"#utility.yul\":8634:8649   */\n      0x7472616e6665725f6572725f3200000000000000000000000000000000000000\n        /* \"#utility.yul\":8630:8631   */\n      0x00\n        /* \"#utility.yul\":8622:8628   */\n      dup3\n        /* \"#utility.yul\":8618:8632   */\n      add\n        /* \"#utility.yul\":8611:8650   */\n      mstore\n        /* \"#utility.yul\":8494:8657   */\n      pop\n      jump\t// out\n        /* \"#utility.yul\":8663:9029   */\n    tag_143:\n        /* \"#utility.yul\":8805:8808   */\n      0x00\n        /* \"#utility.yul\":8826:8893   */\n      tag_239\n        /* \"#utility.yul\":8890:8892   */\n      0x0d\n        /* \"#utility.yul\":8885:8888   */\n      dup4\n        /* \"#utility.yul\":8826:8893   */\n      tag_114\n      jump\t// in\n    tag_239:\n        /* \"#utility.yul\":8819:8893   */\n      swap2\n      pop\n        /* \"#utility.yul\":8902:8995   */\n      tag_240\n        /* \"#utility.yul\":8991:8994   */\n      dup3\n        /* \"#utility.yul\":8902:8995   */\n      tag_142\n      jump\t// in\n    tag_240:\n        /* \"#utility.yul\":9020:9022   */\n      0x20\n        /* \"#utility.yul\":9015:9018   */\n      dup3\n        /* \"#utility.yul\":9011:9023   */\n      add\n        /* \"#utility.yul\":9004:9023   */\n      swap1\n      pop\n        /* \"#utility.yul\":8663:9029   */\n      swap2\n      swap1\n      pop\n      jump\t// out\n        /* \"#utility.yul\":9035:9454   */\n    tag_94:\n        /* \"#utility.yul\":9201:9205   */\n      0x00\n        /* \"#utility.yul\":9239:9241   */\n      0x20\n        /* \"#utility.yul\":9228:9237   */\n      dup3\n        /* \"#utility.yul\":9224:9242   */\n      add\n        /* \"#utility.yul\":9216:9242   */\n      swap1\n      pop\n        /* \"#utility.yul\":9288:9297   */\n      dup2\n        /* \"#utility.yul\":9282:9286   */\n      dup2\n        /* \"#utility.yul\":9278:9298   */\n      sub\n        /* \"#utility.yul\":9274:9275   */\n      0x00\n        /* \"#utility.yul\":9263:9272   */\n      dup4\n        /* \"#utility.yul\":9259:9276   */\n      add\n        /* \"#utility.yul\":9252:9299   */\n      mstore\n        /* \"#utility.yul\":9316:9447   */\n      tag_242\n        /* \"#utility.yul\":9442:9446   */\n      dup2\n        /* \"#utility.yul\":9316:9447   */\n      tag_143\n      jump\t// in\n    tag_242:\n        /* \"#utility.yul\":9308:9447   */\n      swap1\n      pop\n        /* \"#utility.yul\":9035:9454   */\n      swap2\n      swap1\n      pop\n      jump\t// out\n        /* \"#utility.yul\":9460:9640   */\n    tag_144:\n        /* \"#utility.yul\":9508:9585   */\n      0x4e487b7100000000000000000000000000000000000000000000000000000000\n        /* \"#utility.yul\":9505:9506   */\n      0x00\n        /* \"#utility.yul\":9498:9586   */\n      mstore\n        /* \"#utility.yul\":9605:9609   */\n      0x12\n        /* \"#utility.yul\":9602:9603   */\n      0x04\n        /* \"#utility.yul\":9595:9610   */\n      mstore\n        /* \"#utility.yul\":9629:9633   */\n      0x24\n        /* \"#utility.yul\":9626:9627   */\n      0x00\n        /* \"#utility.yul\":9619:9634   */\n      revert\n        /* \"#utility.yul\":9646:9831   */\n    tag_103:\n        /* \"#utility.yul\":9686:9687   */\n      0x00\n        /* \"#utility.yul\":9703:9723   */\n      tag_245\n        /* \"#utility.yul\":9721:9722   */\n      dup3\n        /* \"#utility.yul\":9703:9723   */\n      tag_118\n      jump\t// in\n    tag_245:\n        /* \"#utility.yul\":9698:9723   */\n      swap2\n      pop\n        /* \"#utility.yul\":9737:9757   */\n      tag_246\n        /* \"#utility.yul\":9755:9756   */\n      dup4\n        /* \"#utility.yul\":9737:9757   */\n      tag_118\n      jump\t// in\n    tag_246:\n        /* \"#utility.yul\":9732:9757   */\n      swap3\n      pop\n        /* \"#utility.yul\":9776:9777   */\n      dup3\n        /* \"#utility.yul\":9766:9801   */\n      tag_247\n      jumpi\n        /* \"#utility.yul\":9781:9799   */\n      tag_248\n      tag_144\n      jump\t// in\n    tag_248:\n        /* \"#utility.yul\":9766:9801   */\n    tag_247:\n        /* \"#utility.yul\":9823:9824   */\n      dup3\n        /* \"#utility.yul\":9820:9821   */\n      dup3\n        /* \"#utility.yul\":9816:9825   */\n      div\n        /* \"#utility.yul\":9811:9825   */\n      swap1\n      pop\n        /* \"#utility.yul\":9646:9831   */\n      swap3\n      swap2\n      pop\n      pop\n      jump\t// out\n        /* \"#utility.yul\":9837:10185   */\n    tag_105:\n        /* \"#utility.yul\":9877:9884   */\n      0x00\n        /* \"#utility.yul\":9900:9920   */\n      tag_250\n        /* \"#utility.yul\":9918:9919   */\n      dup3\n        /* \"#utility.yul\":9900:9920   */\n      tag_118\n      jump\t// in\n    tag_250:\n        /* \"#utility.yul\":9895:9920   */\n      swap2\n      pop\n        /* \"#utility.yul\":9934:9954   */\n      tag_251\n        /* \"#utility.yul\":9952:9953   */\n      dup4\n        /* \"#utility.yul\":9934:9954   */\n      tag_118\n      jump\t// in\n    tag_251:\n        /* \"#utility.yul\":9929:9954   */\n      swap3\n      pop\n        /* \"#utility.yul\":10122:10123   */\n      dup2\n        /* \"#utility.yul\":10054:10120   */\n      0xffffffffffffffffffffffffffffffffffffffffffffffffffffffffffffffff\n        /* \"#utility.yul\":10050:10124   */\n      div\n        /* \"#utility.yul\":10047:10048   */\n      dup4\n        /* \"#utility.yul\":10044:10125   */\n      gt\n        /* \"#utility.yul\":10039:10040   */\n      dup3\n        /* \"#utility.yul\":10032:10041   */\n      iszero\n        /* \"#utility.yul\":10025:10042   */\n      iszero\n        /* \"#utility.yul\":10021:10126   */\n      and\n        /* \"#utility.yul\":10018:10149   */\n      iszero\n      tag_252\n      jumpi\n        /* \"#utility.yul\":10129:10147   */\n      tag_253\n      tag_141\n      jump\t// in\n    tag_253:\n        /* \"#utility.yul\":10018:10149   */\n    tag_252:\n        /* \"#utility.yul\":10177:10178   */\n      dup3\n        /* \"#utility.yul\":10174:10175   */\n      dup3\n        /* \"#utility.yul\":10170:10179   */\n      mul\n        /* \"#utility.yul\":10159:10179   */\n      swap1\n      pop\n        /* \"#utility.yul\":9837:10185   */\n      swap3\n      swap2\n      pop\n      pop\n      jump\t// out\n        /* \"#utility.yul\":10191:10382   */\n    tag_107:\n        /* \"#utility.yul\":10231:10235   */\n      0x00\n        /* \"#utility.yul\":10251:10271   */\n      tag_255\n        /* \"#utility.yul\":10269:10270   */\n      dup3\n        /* \"#utility.yul\":10251:10271   */\n      tag_118\n      jump\t// in\n    tag_255:\n        /* \"#utility.yul\":10246:10271   */\n      swap2\n      pop\n        /* \"#utility.yul\":10285:10305   */\n      tag_256\n        /* \"#utility.yul\":10303:10304   */\n      dup4\n        /* \"#utility.yul\":10285:10305   */\n      tag_118\n      jump\t// in\n    tag_256:\n        /* \"#utility.yul\":10280:10305   */\n      swap3\n      pop\n        /* \"#utility.yul\":10324:10325   */\n      dup3\n        /* \"#utility.yul\":10321:10322   */\n      dup3\n        /* \"#utility.yul\":10318:10326   */\n      lt\n        /* \"#utility.yul\":10315:10349   */\n      iszero\n      tag_257\n      jumpi\n        /* \"#utility.yul\":10329:10347   */\n      tag_258\n      tag_141\n      jump\t// in\n    tag_258:\n        /* \"#utility.yul\":10315:10349   */\n    tag_257:\n        /* \"#utility.yul\":10374:10375   */\n      dup3\n        /* \"#utility.yul\":10371:10372   */\n      dup3\n        /* \"#utility.yul\":10367:10376   */\n      sub\n        /* \"#utility.yul\":10359:10376   */\n      swap1\n      pop\n        /* \"#utility.yul\":10191:10382   */\n      swap3\n      swap2\n      pop\n      pop\n      jump\t// out\n\n    auxdata: 0xa264697066735822122078a803b921618f36997c9d14a5657bfac2be5d483820450ca535079fbd718ba564736f6c634300080c0033\n}\n",
				"bytecode": {
					"linkReferences": {},
					"object": "60806040523480156200001157600080fd5b5060405162001796380380620017968339818101604052810190620000379190620003e0565b83600460003373ffffffffffffffffffffffffffffffffffffffff1673ffffffffffffffffffffffffffffffffffffffff168152602001908152602001600020819055508260009080519060200190620000939291906200011a565b508160019080519060200190620000ac9291906200011a565b5080600260006101000a81548160ff021916908360ff1602179055508360038190555033600660006101000a81548173ffffffffffffffffffffffffffffffffffffffff021916908373ffffffffffffffffffffffffffffffffffffffff16021790555050505050620004f5565b8280546200012890620004bf565b90600052602060002090601f0160209004810192826200014c576000855562000198565b82601f106200016757805160ff191683800117855562000198565b8280016001018555821562000198579182015b82811115620001975782518255916020019190600101906200017a565b5b509050620001a79190620001ab565b5090565b5b80821115620001c6576000816000905550600101620001ac565b5090565b6000604051905090565b600080fd5b600080fd5b6000819050919050565b620001f381620001de565b8114620001ff57600080fd5b50565b6000815190506200021381620001e8565b92915050565b600080fd5b600080fd5b6000601f19601f8301169050919050565b7f4e487b7100000000000000000000000000000000000000000000000000000000600052604160045260246000fd5b6200026e8262000223565b810181811067ffffffffffffffff8211171562000290576200028f62000234565b5b80604052505050565b6000620002a5620001ca565b9050620002b3828262000263565b919050565b600067ffffffffffffffff821115620002d657620002d562000234565b5b620002e18262000223565b9050602081019050919050565b60005b838110156200030e578082015181840152602081019050620002f1565b838111156200031e576000848401525b50505050565b60006200033b6200033584620002b8565b62000299565b9050828152602081018484840111156200035a57620003596200021e565b5b62000367848285620002ee565b509392505050565b600082601f83011262000387576200038662000219565b5b81516200039984826020860162000324565b91505092915050565b600060ff82169050919050565b620003ba81620003a2565b8114620003c657600080fd5b50565b600081519050620003da81620003af565b92915050565b60008060008060808587031215620003fd57620003fc620001d4565b5b60006200040d8782880162000202565b945050602085015167ffffffffffffffff811115620004315762000430620001d9565b5b6200043f878288016200036f565b935050604085015167ffffffffffffffff811115620004635762000462620001d9565b5b62000471878288016200036f565b92505060606200048487828801620003c9565b91505092959194509250565b7f4e487b7100000000000000000000000000000000000000000000000000000000600052602260045260246000fd5b60006002820490506001821680620004d857607f821691505b60208210811415620004ef57620004ee62000490565b5b50919050565b61129180620005056000396000f3fe608060405234801561001057600080fd5b50600436106100b45760003560e01c80638a294c60116100715780638a294c601461018f5780638da5cb5b146101ab5780638de6b343146101c95780638f81cc1d146101e557806395d89b4114610215578063a9059cbb14610233576100b4565b806306fdde03146100b957806318160ddd146100d7578063313ce567146100f55780634838d165146101135780634c7efb411461014357806370a082311461015f575b600080fd5b6100c161024f565b6040516100ce9190610d00565b60405180910390f35b6100df6102dd565b6040516100ec9190610d3b565b60405180910390f35b6100fd6102e3565b60405161010a9190610d72565b60405180910390f35b61012d60048036038101906101289190610df0565b6102f6565b60405161013a9190610e39565b60405180910390f35b61015d60048036038101906101589190610e80565b610316565b005b61017960048036038101906101749190610df0565b6103d0565b6040516101869190610d3b565b60405180910390f35b6101a960048036038101906101a49190610df0565b6103e8565b005b6101b361051a565b6040516101c09190610ebc565b60405180910390f35b6101e360048036038101906101de9190610df0565b610540565b005b6101ff60048036038101906101fa9190610df0565b610691565b60405161020c9190610d72565b60405180910390f35b61021d6106b1565b60405161022a9190610d00565b60405180910390f35b61024d60048036038101906102489190610f03565b61073f565b005b6000805461025c90610f72565b80601f016020809104026020016040519081016040528092919081815260200182805461028890610f72565b80156102d55780601f106102aa576101008083540402835291602001916102d5565b820191906000526020600020905b8154815290600101906020018083116102b857829003601f168201915b505050505081565b60035481565b600260009054906101000a900460ff1681565b60056020528060005260406000206000915054906101000a900460000b81565b60648160ff16111561032757606490505b80600760003373ffffffffffffffffffffffffffffffffffffffff1673ffffffffffffffffffffffffffffffffffffffff16815260200190815260200160002060006101000a81548160ff021916908360ff1602179055503373ffffffffffffffffffffffffffffffffffffffff167f166537386da389adc71779490c0982f06fdc0368449372828021cdf6f4065710826040516103c59190610d72565b60405180910390a250565b60046020528060005260406000206000915090505481565b600660009054906101000a900473ffffffffffffffffffffffffffffffffffffffff1673ffffffffffffffffffffffffffffffffffffffff163373ffffffffffffffffffffffffffffffffffffffff1614610478576040517f08c379a000000000000000000000000000000000000000000000000000000000815260040161046f90610ff0565b60405180910390fd5b6001600560008373ffffffffffffffffffffffffffffffffffffffff1673ffffffffffffffffffffffffffffffffffffffff16815260200190815260200160002060006101000a81548160ff021916908360000b60ff1602179055508073ffffffffffffffffffffffffffffffffffffffff167fffa4e6181777692565cf28528fc88fd1516ea86b56da075235fa575af6a4b85560405160405180910390a250565b600660009054906101000a900473ffffffffffffffffffffffffffffffffffffffff1681565b600660009054906101000a900473ffffffffffffffffffffffffffffffffffffffff1673ffffffffffffffffffffffffffffffffffffffff163373ffffffffffffffffffffffffffffffffffffffff16146105d0576040517f08c379a00000000000000000000000000000000000000000000000000000000081526004016105c790610ff0565b60405180910390fd5b7fffffffffffffffffffffffffffffffffffffffffffffffffffffffffffffffff600560008373ffffffffffffffffffffffffffffffffffffffff1673ffffffffffffffffffffffffffffffffffffffff16815260200190815260200160002060006101000a81548160ff021916908360000b60ff1602179055508073ffffffffffffffffffffffffffffffffffffffff167f2e5392b52e98bf05bdf3784aaec667371398a6ea4fb965a2894852471999bca960405160405180910390a250565b60076020528060005260406000206000915054906101000a900460ff1681565b600180546106be90610f72565b80601f01602080910402602001604051908101604052809291908181526020018280546106ea90610f72565b80156107375780601f1061070c57610100808354040283529160200191610737565b820191906000526020600020905b81548152906001019060200180831161071a57829003601f168201915b505050505081565b80600460003373ffffffffffffffffffffffffffffffffffffffff1673ffffffffffffffffffffffffffffffffffffffff1681526020019081526020016000205410156107c1576040517f08c379a00000000000000000000000000000000000000000000000000000000081526004016107b89061105c565b60405180910390fd5b600460008373ffffffffffffffffffffffffffffffffffffffff1673ffffffffffffffffffffffffffffffffffffffff1681526020019081526020016000205481600460008573ffffffffffffffffffffffffffffffffffffffff1673ffffffffffffffffffffffffffffffffffffffff1681526020019081526020016000205461084c91906110ab565b101561088d576040517f08c379a00000000000000000000000000000000000000000000000000000000081526004016108849061114d565b60405180910390fd5b6000600560003373ffffffffffffffffffffffffffffffffffffffff1673ffffffffffffffffffffffffffffffffffffffff16815260200190815260200160002060009054906101000a900460000b60000b131561094f578173ffffffffffffffffffffffffffffffffffffffff163373ffffffffffffffffffffffffffffffffffffffff167f2a04c84c100a93363ee2e1ab7076505a06b5dd417cccc0d6080ec8285e84f79e836040516109429190610d3b565b60405180910390a3610c63565b6000600560008473ffffffffffffffffffffffffffffffffffffffff1673ffffffffffffffffffffffffffffffffffffffff16815260200190815260200160002060009054906101000a900460000b60000b1315610a11578173ffffffffffffffffffffffffffffffffffffffff163373ffffffffffffffffffffffffffffffffffffffff167fee75d149bb5e330e03f98b125aaa1efcd5864e4e2d5946f23dc6dd30630d561683604051610a049190610d3b565b60405180910390a3610c62565b600080600760008573ffffffffffffffffffffffffffffffffffffffff1673ffffffffffffffffffffffffffffffffffffffff16815260200190815260200160002060009054906101000a900460ff1660ff161115610ad457600760008473ffffffffffffffffffffffffffffffffffffffff1673ffffffffffffffffffffffffffffffffffffffff16815260200190815260200160002060009054906101000a900460ff1660ff16606483610ac7919061119c565b610ad191906111cd565b90505b8082610ae09190611227565b600460003373ffffffffffffffffffffffffffffffffffffffff1673ffffffffffffffffffffffffffffffffffffffff1681526020019081526020016000206000828254610b2e9190611227565b925050819055508082610b419190611227565b600460008573ffffffffffffffffffffffffffffffffffffffff1673ffffffffffffffffffffffffffffffffffffffff1681526020019081526020016000206000828254610b8f91906110ab565b925050819055508273ffffffffffffffffffffffffffffffffffffffff163373ffffffffffffffffffffffffffffffffffffffff167fddf252ad1be2c89b69c2b068fc378daa952ba7f163c4a11628f55a4df523b3ef84604051610bf39190610d3b565b60405180910390a33373ffffffffffffffffffffffffffffffffffffffff168373ffffffffffffffffffffffffffffffffffffffff167f82b105a9603353de51dbdf07d939d19d60f298a181b405653c095bfb286be4c283604051610c589190610d3b565b60405180910390a3505b5b5050565b600081519050919050565b600082825260208201905092915050565b60005b83811015610ca1578082015181840152602081019050610c86565b83811115610cb0576000848401525b50505050565b6000601f19601f8301169050919050565b6000610cd282610c67565b610cdc8185610c72565b9350610cec818560208601610c83565b610cf581610cb6565b840191505092915050565b60006020820190508181036000830152610d1a8184610cc7565b905092915050565b6000819050919050565b610d3581610d22565b82525050565b6000602082019050610d506000830184610d2c565b92915050565b600060ff82169050919050565b610d6c81610d56565b82525050565b6000602082019050610d876000830184610d63565b92915050565b600080fd5b600073ffffffffffffffffffffffffffffffffffffffff82169050919050565b6000610dbd82610d92565b9050919050565b610dcd81610db2565b8114610dd857600080fd5b50565b600081359050610dea81610dc4565b92915050565b600060208284031215610e0657610e05610d8d565b5b6000610e1484828501610ddb565b91505092915050565b60008160000b9050919050565b610e3381610e1d565b82525050565b6000602082019050610e4e6000830184610e2a565b92915050565b610e5d81610d56565b8114610e6857600080fd5b50565b600081359050610e7a81610e54565b92915050565b600060208284031215610e9657610e95610d8d565b5b6000610ea484828501610e6b565b91505092915050565b610eb681610db2565b82525050565b6000602082019050610ed16000830184610ead565b92915050565b610ee081610d22565b8114610eeb57600080fd5b50565b600081359050610efd81610ed7565b92915050565b60008060408385031215610f1a57610f19610d8d565b5b6000610f2885828601610ddb565b9250506020610f3985828601610eee565b9150509250929050565b7f4e487b7100000000000000000000000000000000000000000000000000000000600052602260045260246000fd5b60006002820490506001821680610f8a57607f821691505b60208210811415610f9e57610f9d610f43565b5b50919050565b7f6f6e6c794f776e65720000000000000000000000000000000000000000000000600082015250565b6000610fda600983610c72565b9150610fe582610fa4565b602082019050919050565b6000602082019050818103600083015261100981610fcd565b9050919050565b7f7472616e6665725f6572725f3100000000000000000000000000000000000000600082015250565b6000611046600d83610c72565b915061105182611010565b602082019050919050565b6000602082019050818103600083015261107581611039565b9050919050565b7f4e487b7100000000000000000000000000000000000000000000000000000000600052601160045260246000fd5b60006110b682610d22565b91506110c183610d22565b9250827fffffffffffffffffffffffffffffffffffffffffffffffffffffffffffffffff038211156110f6576110f561107c565b5b828201905092915050565b7f7472616e6665725f6572725f3200000000000000000000000000000000000000600082015250565b6000611137600d83610c72565b915061114282611101565b602082019050919050565b600060208201905081810360008301526111668161112a565b9050919050565b7f4e487b7100000000000000000000000000000000000000000000000000000000600052601260045260246000fd5b60006111a782610d22565b91506111b283610d22565b9250826111c2576111c161116d565b5b828204905092915050565b60006111d882610d22565b91506111e383610d22565b9250817fffffffffffffffffffffffffffffffffffffffffffffffffffffffffffffffff048311821515161561121c5761121b61107c565b5b828202905092915050565b600061123282610d22565b915061123d83610d22565b9250828210156112505761124f61107c565b5b82820390509291505056fea264697066735822122078a803b921618f36997c9d14a5657bfac2be5d483820450ca535079fbd718ba564736f6c634300080c0033",
					"opcodes": "PUSH1 0x80 PUSH1 0x40 MSTORE CALLVALUE DUP1 ISZERO PUSH3 0x11 JUMPI PUSH1 0x0 DUP1 REVERT JUMPDEST POP PUSH1 0x40 MLOAD PUSH3 0x1796 CODESIZE SUB DUP1 PUSH3 0x1796 DUP4 CODECOPY DUP2 DUP2 ADD PUSH1 0x40 MSTORE DUP2 ADD SWAP1 PUSH3 0x37 SWAP2 SWAP1 PUSH3 0x3E0 JUMP JUMPDEST DUP4 PUSH1 0x4 PUSH1 0x0 CALLER PUSH20 0xFFFFFFFFFFFFFFFFFFFFFFFFFFFFFFFFFFFFFFFF AND PUSH20 0xFFFFFFFFFFFFFFFFFFFFFFFFFFFFFFFFFFFFFFFF AND DUP2 MSTORE PUSH1 0x20 ADD SWAP1 DUP2 MSTORE PUSH1 0x20 ADD PUSH1 0x0 KECCAK256 DUP2 SWAP1 SSTORE POP DUP3 PUSH1 0x0 SWAP1 DUP1 MLOAD SWAP1 PUSH1 0x20 ADD SWAP1 PUSH3 0x93 SWAP3 SWAP2 SWAP1 PUSH3 0x11A JUMP JUMPDEST POP DUP2 PUSH1 0x1 SWAP1 DUP1 MLOAD SWAP1 PUSH1 0x20 ADD SWAP1 PUSH3 0xAC SWAP3 SWAP2 SWAP1 PUSH3 0x11A JUMP JUMPDEST POP DUP1 PUSH1 0x2 PUSH1 0x0 PUSH2 0x100 EXP DUP2 SLOAD DUP2 PUSH1 0xFF MUL NOT AND SWAP1 DUP4 PUSH1 0xFF AND MUL OR SWAP1 SSTORE POP DUP4 PUSH1 0x3 DUP2 SWAP1 SSTORE POP CALLER PUSH1 0x6 PUSH1 0x0 PUSH2 0x100 EXP DUP2 SLOAD DUP2 PUSH20 0xFFFFFFFFFFFFFFFFFFFFFFFFFFFFFFFFFFFFFFFF MUL NOT AND SWAP1 DUP4 PUSH20 0xFFFFFFFFFFFFFFFFFFFFFFFFFFFFFFFFFFFFFFFF AND MUL OR SWAP1 SSTORE POP POP POP POP POP PUSH3 0x4F5 JUMP JUMPDEST DUP3 DUP1 SLOAD PUSH3 0x128 SWAP1 PUSH3 0x4BF JUMP JUMPDEST SWAP1 PUSH1 0x0 MSTORE PUSH1 0x20 PUSH1 0x0 KECCAK256 SWAP1 PUSH1 0x1F ADD PUSH1 0x20 SWAP1 DIV DUP2 ADD SWAP3 DUP3 PUSH3 0x14C JUMPI PUSH1 0x0 DUP6 SSTORE PUSH3 0x198 JUMP JUMPDEST DUP3 PUSH1 0x1F LT PUSH3 0x167 JUMPI DUP1 MLOAD PUSH1 0xFF NOT AND DUP4 DUP1 ADD OR DUP6 SSTORE PUSH3 0x198 JUMP JUMPDEST DUP3 DUP1 ADD PUSH1 0x1 ADD DUP6 SSTORE DUP3 ISZERO PUSH3 0x198 JUMPI SWAP2 DUP3 ADD JUMPDEST DUP3 DUP2 GT ISZERO PUSH3 0x197 JUMPI DUP3 MLOAD DUP3 SSTORE SWAP2 PUSH1 0x20 ADD SWAP2 SWAP1 PUSH1 0x1 ADD SWAP1 PUSH3 0x17A JUMP JUMPDEST JUMPDEST POP SWAP1 POP PUSH3 0x1A7 SWAP2 SWAP1 PUSH3 0x1AB JUMP JUMPDEST POP SWAP1 JUMP JUMPDEST JUMPDEST DUP1 DUP3 GT ISZERO PUSH3 0x1C6 JUMPI PUSH1 0x0 DUP2 PUSH1 0x0 SWAP1 SSTORE POP PUSH1 0x1 ADD PUSH3 0x1AC JUMP JUMPDEST POP SWAP1 JUMP JUMPDEST PUSH1 0x0 PUSH1 0x40 MLOAD SWAP1 POP SWAP1 JUMP JUMPDEST PUSH1 0x0 DUP1 REVERT JUMPDEST PUSH1 0x0 DUP1 REVERT JUMPDEST PUSH1 0x0 DUP2 SWAP1 POP SWAP2 SWAP1 POP JUMP JUMPDEST PUSH3 0x1F3 DUP2 PUSH3 0x1DE JUMP JUMPDEST DUP2 EQ PUSH3 0x1FF JUMPI PUSH1 0x0 DUP1 REVERT JUMPDEST POP JUMP JUMPDEST PUSH1 0x0 DUP2 MLOAD SWAP1 POP PUSH3 0x213 DUP2 PUSH3 0x1E8 JUMP JUMPDEST SWAP3 SWAP2 POP POP JUMP JUMPDEST PUSH1 0x0 DUP1 REVERT JUMPDEST PUSH1 0x0 DUP1 REVERT JUMPDEST PUSH1 0x0 PUSH1 0x1F NOT PUSH1 0x1F DUP4 ADD AND SWAP1 POP SWAP2 SWAP1 POP JUMP JUMPDEST PUSH32 0x4E487B7100000000000000000000000000000000000000000000000000000000 PUSH1 0x0 MSTORE PUSH1 0x41 PUSH1 0x4 MSTORE PUSH1 0x24 PUSH1 0x0 REVERT JUMPDEST PUSH3 0x26E DUP3 PUSH3 0x223 JUMP JUMPDEST DUP2 ADD DUP2 DUP2 LT PUSH8 0xFFFFFFFFFFFFFFFF DUP3 GT OR ISZERO PUSH3 0x290 JUMPI PUSH3 0x28F PUSH3 0x234 JUMP JUMPDEST JUMPDEST DUP1 PUSH1 0x40 MSTORE POP POP POP JUMP JUMPDEST PUSH1 0x0 PUSH3 0x2A5 PUSH3 0x1CA JUMP JUMPDEST SWAP1 POP PUSH3 0x2B3 DUP3 DUP3 PUSH3 0x263 JUMP JUMPDEST SWAP2 SWAP1 POP JUMP JUMPDEST PUSH1 0x0 PUSH8 0xFFFFFFFFFFFFFFFF DUP3 GT ISZERO PUSH3 0x2D6 JUMPI PUSH3 0x2D5 PUSH3 0x234 JUMP JUMPDEST JUMPDEST PUSH3 0x2E1 DUP3 PUSH3 0x223 JUMP JUMPDEST SWAP1 POP PUSH1 0x20 DUP2 ADD SWAP1 POP SWAP2 SWAP1 POP JUMP JUMPDEST PUSH1 0x0 JUMPDEST DUP4 DUP2 LT ISZERO PUSH3 0x30E JUMPI DUP1 DUP3 ADD MLOAD DUP2 DUP5 ADD MSTORE PUSH1 0x20 DUP2 ADD SWAP1 POP PUSH3 0x2F1 JUMP JUMPDEST DUP4 DUP2 GT ISZERO PUSH3 0x31E JUMPI PUSH1 0x0 DUP5 DUP5 ADD MSTORE JUMPDEST POP POP POP POP JUMP JUMPDEST PUSH1 0x0 PUSH3 0x33B PUSH3 0x335 DUP5 PUSH3 0x2B8 JUMP JUMPDEST PUSH3 0x299 JUMP JUMPDEST SWAP1 POP DUP3 DUP2 MSTORE PUSH1 0x20 DUP2 ADD DUP5 DUP5 DUP5 ADD GT ISZERO PUSH3 0x35A JUMPI PUSH3 0x359 PUSH3 0x21E JUMP JUMPDEST JUMPDEST PUSH3 0x367 DUP5 DUP3 DUP6 PUSH3 0x2EE JUMP JUMPDEST POP SWAP4 SWAP3 POP POP POP JUMP JUMPDEST PUSH1 0x0 DUP3 PUSH1 0x1F DUP4 ADD SLT PUSH3 0x387 JUMPI PUSH3 0x386 PUSH3 0x219 JUMP JUMPDEST JUMPDEST DUP2 MLOAD PUSH3 0x399 DUP5 DUP3 PUSH1 0x20 DUP7 ADD PUSH3 0x324 JUMP JUMPDEST SWAP2 POP POP SWAP3 SWAP2 POP POP JUMP JUMPDEST PUSH1 0x0 PUSH1 0xFF DUP3 AND SWAP1 POP SWAP2 SWAP1 POP JUMP JUMPDEST PUSH3 0x3BA DUP2 PUSH3 0x3A2 JUMP JUMPDEST DUP2 EQ PUSH3 0x3C6 JUMPI PUSH1 0x0 DUP1 REVERT JUMPDEST POP JUMP JUMPDEST PUSH1 0x0 DUP2 MLOAD SWAP1 POP PUSH3 0x3DA DUP2 PUSH3 0x3AF JUMP JUMPDEST SWAP3 SWAP2 POP POP JUMP JUMPDEST PUSH1 0x0 DUP1 PUSH1 0x0 DUP1 PUSH1 0x80 DUP6 DUP8 SUB SLT ISZERO PUSH3 0x3FD JUMPI PUSH3 0x3FC PUSH3 0x1D4 JUMP JUMPDEST JUMPDEST PUSH1 0x0 PUSH3 0x40D DUP8 DUP3 DUP9 ADD PUSH3 0x202 JUMP JUMPDEST SWAP5 POP POP PUSH1 0x20 DUP6 ADD MLOAD PUSH8 0xFFFFFFFFFFFFFFFF DUP2 GT ISZERO PUSH3 0x431 JUMPI PUSH3 0x430 PUSH3 0x1D9 JUMP JUMPDEST JUMPDEST PUSH3 0x43F DUP8 DUP3 DUP9 ADD PUSH3 0x36F JUMP JUMPDEST SWAP4 POP POP PUSH1 0x40 DUP6 ADD MLOAD PUSH8 0xFFFFFFFFFFFFFFFF DUP2 GT ISZERO PUSH3 0x463 JUMPI PUSH3 0x462 PUSH3 0x1D9 JUMP JUMPDEST JUMPDEST PUSH3 0x471 DUP8 DUP3 DUP9 ADD PUSH3 0x36F JUMP JUMPDEST SWAP3 POP POP PUSH1 0x60 PUSH3 0x484 DUP8 DUP3 DUP9 ADD PUSH3 0x3C9 JUMP JUMPDEST SWAP2 POP POP SWAP3 SWAP6 SWAP2 SWAP5 POP SWAP3 POP JUMP JUMPDEST PUSH32 0x4E487B7100000000000000000000000000000000000000000000000000000000 PUSH1 0x0 MSTORE PUSH1 0x22 PUSH1 0x4 MSTORE PUSH1 0x24 PUSH1 0x0 REVERT JUMPDEST PUSH1 0x0 PUSH1 0x2 DUP3 DIV SWAP1 POP PUSH1 0x1 DUP3 AND DUP1 PUSH3 0x4D8 JUMPI PUSH1 0x7F DUP3 AND SWAP2 POP JUMPDEST PUSH1 0x20 DUP3 LT DUP2 EQ ISZERO PUSH3 0x4EF JUMPI PUSH3 0x4EE PUSH3 0x490 JUMP JUMPDEST JUMPDEST POP SWAP2 SWAP1 POP JUMP JUMPDEST PUSH2 0x1291 DUP1 PUSH3 0x505 PUSH1 0x0 CODECOPY PUSH1 0x0 RETURN INVALID PUSH1 0x80 PUSH1 0x40 MSTORE CALLVALUE DUP1 ISZERO PUSH2 0x10 JUMPI PUSH1 0x0 DUP1 REVERT JUMPDEST POP PUSH1 0x4 CALLDATASIZE LT PUSH2 0xB4 JUMPI PUSH1 0x0 CALLDATALOAD PUSH1 0xE0 SHR DUP1 PUSH4 0x8A294C60 GT PUSH2 0x71 JUMPI DUP1 PUSH4 0x8A294C60 EQ PUSH2 0x18F JUMPI DUP1 PUSH4 0x8DA5CB5B EQ PUSH2 0x1AB JUMPI DUP1 PUSH4 0x8DE6B343 EQ PUSH2 0x1C9 JUMPI DUP1 PUSH4 0x8F81CC1D EQ PUSH2 0x1E5 JUMPI DUP1 PUSH4 0x95D89B41 EQ PUSH2 0x215 JUMPI DUP1 PUSH4 0xA9059CBB EQ PUSH2 0x233 JUMPI PUSH2 0xB4 JUMP JUMPDEST DUP1 PUSH4 0x6FDDE03 EQ PUSH2 0xB9 JUMPI DUP1 PUSH4 0x18160DDD EQ PUSH2 0xD7 JUMPI DUP1 PUSH4 0x313CE567 EQ PUSH2 0xF5 JUMPI DUP1 PUSH4 0x4838D165 EQ PUSH2 0x113 JUMPI DUP1 PUSH4 0x4C7EFB41 EQ PUSH2 0x143 JUMPI DUP1 PUSH4 0x70A08231 EQ PUSH2 0x15F JUMPI JUMPDEST PUSH1 0x0 DUP1 REVERT JUMPDEST PUSH2 0xC1 PUSH2 0x24F JUMP JUMPDEST PUSH1 0x40 MLOAD PUSH2 0xCE SWAP2 SWAP1 PUSH2 0xD00 JUMP JUMPDEST PUSH1 0x40 MLOAD DUP1 SWAP2 SUB SWAP1 RETURN JUMPDEST PUSH2 0xDF PUSH2 0x2DD JUMP JUMPDEST PUSH1 0x40 MLOAD PUSH2 0xEC SWAP2 SWAP1 PUSH2 0xD3B JUMP JUMPDEST PUSH1 0x40 MLOAD DUP1 SWAP2 SUB SWAP1 RETURN JUMPDEST PUSH2 0xFD PUSH2 0x2E3 JUMP JUMPDEST PUSH1 0x40 MLOAD PUSH2 0x10A SWAP2 SWAP1 PUSH2 0xD72 JUMP JUMPDEST PUSH1 0x40 MLOAD DUP1 SWAP2 SUB SWAP1 RETURN JUMPDEST PUSH2 0x12D PUSH1 0x4 DUP1 CALLDATASIZE SUB DUP2 ADD SWAP1 PUSH2 0x128 SWAP2 SWAP1 PUSH2 0xDF0 JUMP JUMPDEST PUSH2 0x2F6 JUMP JUMPDEST PUSH1 0x40 MLOAD PUSH2 0x13A SWAP2 SWAP1 PUSH2 0xE39 JUMP JUMPDEST PUSH1 0x40 MLOAD DUP1 SWAP2 SUB SWAP1 RETURN JUMPDEST PUSH2 0x15D PUSH1 0x4 DUP1 CALLDATASIZE SUB DUP2 ADD SWAP1 PUSH2 0x158 SWAP2 SWAP1 PUSH2 0xE80 JUMP JUMPDEST PUSH2 0x316 JUMP JUMPDEST STOP JUMPDEST PUSH2 0x179 PUSH1 0x4 DUP1 CALLDATASIZE SUB DUP2 ADD SWAP1 PUSH2 0x174 SWAP2 SWAP1 PUSH2 0xDF0 JUMP JUMPDEST PUSH2 0x3D0 JUMP JUMPDEST PUSH1 0x40 MLOAD PUSH2 0x186 SWAP2 SWAP1 PUSH2 0xD3B JUMP JUMPDEST PUSH1 0x40 MLOAD DUP1 SWAP2 SUB SWAP1 RETURN JUMPDEST PUSH2 0x1A9 PUSH1 0x4 DUP1 CALLDATASIZE SUB DUP2 ADD SWAP1 PUSH2 0x1A4 SWAP2 SWAP1 PUSH2 0xDF0 JUMP JUMPDEST PUSH2 0x3E8 JUMP JUMPDEST STOP JUMPDEST PUSH2 0x1B3 PUSH2 0x51A JUMP JUMPDEST PUSH1 0x40 MLOAD PUSH2 0x1C0 SWAP2 SWAP1 PUSH2 0xEBC JUMP JUMPDEST PUSH1 0x40 MLOAD DUP1 SWAP2 SUB SWAP1 RETURN JUMPDEST PUSH2 0x1E3 PUSH1 0x4 DUP1 CALLDATASIZE SUB DUP2 ADD SWAP1 PUSH2 0x1DE SWAP2 SWAP1 PUSH2 0xDF0 JUMP JUMPDEST PUSH2 0x540 JUMP JUMPDEST STOP JUMPDEST PUSH2 0x1FF PUSH1 0x4 DUP1 CALLDATASIZE SUB DUP2 ADD SWAP1 PUSH2 0x1FA SWAP2 SWAP1 PUSH2 0xDF0 JUMP JUMPDEST PUSH2 0x691 JUMP JUMPDEST PUSH1 0x40 MLOAD PUSH2 0x20C SWAP2 SWAP1 PUSH2 0xD72 JUMP JUMPDEST PUSH1 0x40 MLOAD DUP1 SWAP2 SUB SWAP1 RETURN JUMPDEST PUSH2 0x21D PUSH2 0x6B1 JUMP JUMPDEST PUSH1 0x40 MLOAD PUSH2 0x22A SWAP2 SWAP1 PUSH2 0xD00 JUMP JUMPDEST PUSH1 0x40 MLOAD DUP1 SWAP2 SUB SWAP1 RETURN JUMPDEST PUSH2 0x24D PUSH1 0x4 DUP1 CALLDATASIZE SUB DUP2 ADD SWAP1 PUSH2 0x248 SWAP2 SWAP1 PUSH2 0xF03 JUMP JUMPDEST PUSH2 0x73F JUMP JUMPDEST STOP JUMPDEST PUSH1 0x0 DUP1 SLOAD PUSH2 0x25C SWAP1 PUSH2 0xF72 JUMP JUMPDEST DUP1 PUSH1 0x1F ADD PUSH1 0x20 DUP1 SWAP2 DIV MUL PUSH1 0x20 ADD PUSH1 0x40 MLOAD SWAP1 DUP2 ADD PUSH1 0x40 MSTORE DUP1 SWAP3 SWAP2 SWAP1 DUP2 DUP2 MSTORE PUSH1 0x20 ADD DUP3 DUP1 SLOAD PUSH2 0x288 SWAP1 PUSH2 0xF72 JUMP JUMPDEST DUP1 ISZERO PUSH2 0x2D5 JUMPI DUP1 PUSH1 0x1F LT PUSH2 0x2AA JUMPI PUSH2 0x100 DUP1 DUP4 SLOAD DIV MUL DUP4 MSTORE SWAP2 PUSH1 0x20 ADD SWAP2 PUSH2 0x2D5 JUMP JUMPDEST DUP3 ADD SWAP2 SWAP1 PUSH1 0x0 MSTORE PUSH1 0x20 PUSH1 0x0 KECCAK256 SWAP1 JUMPDEST DUP2 SLOAD DUP2 MSTORE SWAP1 PUSH1 0x1 ADD SWAP1 PUSH1 0x20 ADD DUP1 DUP4 GT PUSH2 0x2B8 JUMPI DUP3 SWAP1 SUB PUSH1 0x1F AND DUP3 ADD SWAP2 JUMPDEST POP POP POP POP POP DUP2 JUMP JUMPDEST PUSH1 0x3 SLOAD DUP2 JUMP JUMPDEST PUSH1 0x2 PUSH1 0x0 SWAP1 SLOAD SWAP1 PUSH2 0x100 EXP SWAP1 DIV PUSH1 0xFF AND DUP2 JUMP JUMPDEST PUSH1 0x5 PUSH1 0x20 MSTORE DUP1 PUSH1 0x0 MSTORE PUSH1 0x40 PUSH1 0x0 KECCAK256 PUSH1 0x0 SWAP2 POP SLOAD SWAP1 PUSH2 0x100 EXP SWAP1 DIV PUSH1 0x0 SIGNEXTEND DUP2 JUMP JUMPDEST PUSH1 0x64 DUP2 PUSH1 0xFF AND GT ISZERO PUSH2 0x327 JUMPI PUSH1 0x64 SWAP1 POP JUMPDEST DUP1 PUSH1 0x7 PUSH1 0x0 CALLER PUSH20 0xFFFFFFFFFFFFFFFFFFFFFFFFFFFFFFFFFFFFFFFF AND PUSH20 0xFFFFFFFFFFFFFFFFFFFFFFFFFFFFFFFFFFFFFFFF AND DUP2 MSTORE PUSH1 0x20 ADD SWAP1 DUP2 MSTORE PUSH1 0x20 ADD PUSH1 0x0 KECCAK256 PUSH1 0x0 PUSH2 0x100 EXP DUP2 SLOAD DUP2 PUSH1 0xFF MUL NOT AND SWAP1 DUP4 PUSH1 0xFF AND MUL OR SWAP1 SSTORE POP CALLER PUSH20 0xFFFFFFFFFFFFFFFFFFFFFFFFFFFFFFFFFFFFFFFF AND PUSH32 0x166537386DA389ADC71779490C0982F06FDC0368449372828021CDF6F4065710 DUP3 PUSH1 0x40 MLOAD PUSH2 0x3C5 SWAP2 SWAP1 PUSH2 0xD72 JUMP JUMPDEST PUSH1 0x40 MLOAD DUP1 SWAP2 SUB SWAP1 LOG2 POP JUMP JUMPDEST PUSH1 0x4 PUSH1 0x20 MSTORE DUP1 PUSH1 0x0 MSTORE PUSH1 0x40 PUSH1 0x0 KECCAK256 PUSH1 0x0 SWAP2 POP SWAP1 POP SLOAD DUP2 JUMP JUMPDEST PUSH1 0x6 PUSH1 0x0 SWAP1 SLOAD SWAP1 PUSH2 0x100 EXP SWAP1 DIV PUSH20 0xFFFFFFFFFFFFFFFFFFFFFFFFFFFFFFFFFFFFFFFF AND PUSH20 0xFFFFFFFFFFFFFFFFFFFFFFFFFFFFFFFFFFFFFFFF AND CALLER PUSH20 0xFFFFFFFFFFFFFFFFFFFFFFFFFFFFFFFFFFFFFFFF AND EQ PUSH2 0x478 JUMPI PUSH1 0x40 MLOAD PUSH32 0x8C379A000000000000000000000000000000000000000000000000000000000 DUP2 MSTORE PUSH1 0x4 ADD PUSH2 0x46F SWAP1 PUSH2 0xFF0 JUMP JUMPDEST PUSH1 0x40 MLOAD DUP1 SWAP2 SUB SWAP1 REVERT JUMPDEST PUSH1 0x1 PUSH1 0x5 PUSH1 0x0 DUP4 PUSH20 0xFFFFFFFFFFFFFFFFFFFFFFFFFFFFFFFFFFFFFFFF AND PUSH20 0xFFFFFFFFFFFFFFFFFFFFFFFFFFFFFFFFFFFFFFFF AND DUP2 MSTORE PUSH1 0x20 ADD SWAP1 DUP2 MSTORE PUSH1 0x20 ADD PUSH1 0x0 KECCAK256 PUSH1 0x0 PUSH2 0x100 EXP DUP2 SLOAD DUP2 PUSH1 0xFF MUL NOT AND SWAP1 DUP4 PUSH1 0x0 SIGNEXTEND PUSH1 0xFF AND MUL OR SWAP1 SSTORE POP DUP1 PUSH20 0xFFFFFFFFFFFFFFFFFFFFFFFFFFFFFFFFFFFFFFFF AND PUSH32 0xFFA4E6181777692565CF28528FC88FD1516EA86B56DA075235FA575AF6A4B855 PUSH1 0x40 MLOAD PUSH1 0x40 MLOAD DUP1 SWAP2 SUB SWAP1 LOG2 POP JUMP JUMPDEST PUSH1 0x6 PUSH1 0x0 SWAP1 SLOAD SWAP1 PUSH2 0x100 EXP SWAP1 DIV PUSH20 0xFFFFFFFFFFFFFFFFFFFFFFFFFFFFFFFFFFFFFFFF AND DUP2 JUMP JUMPDEST PUSH1 0x6 PUSH1 0x0 SWAP1 SLOAD SWAP1 PUSH2 0x100 EXP SWAP1 DIV PUSH20 0xFFFFFFFFFFFFFFFFFFFFFFFFFFFFFFFFFFFFFFFF AND PUSH20 0xFFFFFFFFFFFFFFFFFFFFFFFFFFFFFFFFFFFFFFFF AND CALLER PUSH20 0xFFFFFFFFFFFFFFFFFFFFFFFFFFFFFFFFFFFFFFFF AND EQ PUSH2 0x5D0 JUMPI PUSH1 0x40 MLOAD PUSH32 0x8C379A000000000000000000000000000000000000000000000000000000000 DUP2 MSTORE PUSH1 0x4 ADD PUSH2 0x5C7 SWAP1 PUSH2 0xFF0 JUMP JUMPDEST PUSH1 0x40 MLOAD DUP1 SWAP2 SUB SWAP1 REVERT JUMPDEST PUSH32 0xFFFFFFFFFFFFFFFFFFFFFFFFFFFFFFFFFFFFFFFFFFFFFFFFFFFFFFFFFFFFFFFF PUSH1 0x5 PUSH1 0x0 DUP4 PUSH20 0xFFFFFFFFFFFFFFFFFFFFFFFFFFFFFFFFFFFFFFFF AND PUSH20 0xFFFFFFFFFFFFFFFFFFFFFFFFFFFFFFFFFFFFFFFF AND DUP2 MSTORE PUSH1 0x20 ADD SWAP1 DUP2 MSTORE PUSH1 0x20 ADD PUSH1 0x0 KECCAK256 PUSH1 0x0 PUSH2 0x100 EXP DUP2 SLOAD DUP2 PUSH1 0xFF MUL NOT AND SWAP1 DUP4 PUSH1 0x0 SIGNEXTEND PUSH1 0xFF AND MUL OR SWAP1 SSTORE POP DUP1 PUSH20 0xFFFFFFFFFFFFFFFFFFFFFFFFFFFFFFFFFFFFFFFF AND PUSH32 0x2E5392B52E98BF05BDF3784AAEC667371398A6EA4FB965A2894852471999BCA9 PUSH1 0x40 MLOAD PUSH1 0x40 MLOAD DUP1 SWAP2 SUB SWAP1 LOG2 POP JUMP JUMPDEST PUSH1 0x7 PUSH1 0x20 MSTORE DUP1 PUSH1 0x0 MSTORE PUSH1 0x40 PUSH1 0x0 KECCAK256 PUSH1 0x0 SWAP2 POP SLOAD SWAP1 PUSH2 0x100 EXP SWAP1 DIV PUSH1 0xFF AND DUP2 JUMP JUMPDEST PUSH1 0x1 DUP1 SLOAD PUSH2 0x6BE SWAP1 PUSH2 0xF72 JUMP JUMPDEST DUP1 PUSH1 0x1F ADD PUSH1 0x20 DUP1 SWAP2 DIV MUL PUSH1 0x20 ADD PUSH1 0x40 MLOAD SWAP1 DUP2 ADD PUSH1 0x40 MSTORE DUP1 SWAP3 SWAP2 SWAP1 DUP2 DUP2 MSTORE PUSH1 0x20 ADD DUP3 DUP1 SLOAD PUSH2 0x6EA SWAP1 PUSH2 0xF72 JUMP JUMPDEST DUP1 ISZERO PUSH2 0x737 JUMPI DUP1 PUSH1 0x1F LT PUSH2 0x70C JUMPI PUSH2 0x100 DUP1 DUP4 SLOAD DIV MUL DUP4 MSTORE SWAP2 PUSH1 0x20 ADD SWAP2 PUSH2 0x737 JUMP JUMPDEST DUP3 ADD SWAP2 SWAP1 PUSH1 0x0 MSTORE PUSH1 0x20 PUSH1 0x0 KECCAK256 SWAP1 JUMPDEST DUP2 SLOAD DUP2 MSTORE SWAP1 PUSH1 0x1 ADD SWAP1 PUSH1 0x20 ADD DUP1 DUP4 GT PUSH2 0x71A JUMPI DUP3 SWAP1 SUB PUSH1 0x1F AND DUP3 ADD SWAP2 JUMPDEST POP POP POP POP POP DUP2 JUMP JUMPDEST DUP1 PUSH1 0x4 PUSH1 0x0 CALLER PUSH20 0xFFFFFFFFFFFFFFFFFFFFFFFFFFFFFFFFFFFFFFFF AND PUSH20 0xFFFFFFFFFFFFFFFFFFFFFFFFFFFFFFFFFFFFFFFF AND DUP2 MSTORE PUSH1 0x20 ADD SWAP1 DUP2 MSTORE PUSH1 0x20 ADD PUSH1 0x0 KECCAK256 SLOAD LT ISZERO PUSH2 0x7C1 JUMPI PUSH1 0x40 MLOAD PUSH32 0x8C379A000000000000000000000000000000000000000000000000000000000 DUP2 MSTORE PUSH1 0x4 ADD PUSH2 0x7B8 SWAP1 PUSH2 0x105C JUMP JUMPDEST PUSH1 0x40 MLOAD DUP1 SWAP2 SUB SWAP1 REVERT JUMPDEST PUSH1 0x4 PUSH1 0x0 DUP4 PUSH20 0xFFFFFFFFFFFFFFFFFFFFFFFFFFFFFFFFFFFFFFFF AND PUSH20 0xFFFFFFFFFFFFFFFFFFFFFFFFFFFFFFFFFFFFFFFF AND DUP2 MSTORE PUSH1 0x20 ADD SWAP1 DUP2 MSTORE PUSH1 0x20 ADD PUSH1 0x0 KECCAK256 SLOAD DUP2 PUSH1 0x4 PUSH1 0x0 DUP6 PUSH20 0xFFFFFFFFFFFFFFFFFFFFFFFFFFFFFFFFFFFFFFFF AND PUSH20 0xFFFFFFFFFFFFFFFFFFFFFFFFFFFFFFFFFFFFFFFF AND DUP2 MSTORE PUSH1 0x20 ADD SWAP1 DUP2 MSTORE PUSH1 0x20 ADD PUSH1 0x0 KECCAK256 SLOAD PUSH2 0x84C SWAP2 SWAP1 PUSH2 0x10AB JUMP JUMPDEST LT ISZERO PUSH2 0x88D JUMPI PUSH1 0x40 MLOAD PUSH32 0x8C379A000000000000000000000000000000000000000000000000000000000 DUP2 MSTORE PUSH1 0x4 ADD PUSH2 0x884 SWAP1 PUSH2 0x114D JUMP JUMPDEST PUSH1 0x40 MLOAD DUP1 SWAP2 SUB SWAP1 REVERT JUMPDEST PUSH1 0x0 PUSH1 0x5 PUSH1 0x0 CALLER PUSH20 0xFFFFFFFFFFFFFFFFFFFFFFFFFFFFFFFFFFFFFFFF AND PUSH20 0xFFFFFFFFFFFFFFFFFFFFFFFFFFFFFFFFFFFFFFFF AND DUP2 MSTORE PUSH1 0x20 ADD SWAP1 DUP2 MSTORE PUSH1 0x20 ADD PUSH1 0x0 KECCAK256 PUSH1 0x0 SWAP1 SLOAD SWAP1 PUSH2 0x100 EXP SWAP1 DIV PUSH1 0x0 SIGNEXTEND PUSH1 0x0 SIGNEXTEND SGT ISZERO PUSH2 0x94F JUMPI DUP2 PUSH20 0xFFFFFFFFFFFFFFFFFFFFFFFFFFFFFFFFFFFFFFFF AND CALLER PUSH20 0xFFFFFFFFFFFFFFFFFFFFFFFFFFFFFFFFFFFFFFFF AND PUSH32 0x2A04C84C100A93363EE2E1AB7076505A06B5DD417CCCC0D6080EC8285E84F79E DUP4 PUSH1 0x40 MLOAD PUSH2 0x942 SWAP2 SWAP1 PUSH2 0xD3B JUMP JUMPDEST PUSH1 0x40 MLOAD DUP1 SWAP2 SUB SWAP1 LOG3 PUSH2 0xC63 JUMP JUMPDEST PUSH1 0x0 PUSH1 0x5 PUSH1 0x0 DUP5 PUSH20 0xFFFFFFFFFFFFFFFFFFFFFFFFFFFFFFFFFFFFFFFF AND PUSH20 0xFFFFFFFFFFFFFFFFFFFFFFFFFFFFFFFFFFFFFFFF AND DUP2 MSTORE PUSH1 0x20 ADD SWAP1 DUP2 MSTORE PUSH1 0x20 ADD PUSH1 0x0 KECCAK256 PUSH1 0x0 SWAP1 SLOAD SWAP1 PUSH2 0x100 EXP SWAP1 DIV PUSH1 0x0 SIGNEXTEND PUSH1 0x0 SIGNEXTEND SGT ISZERO PUSH2 0xA11 JUMPI DUP2 PUSH20 0xFFFFFFFFFFFFFFFFFFFFFFFFFFFFFFFFFFFFFFFF AND CALLER PUSH20 0xFFFFFFFFFFFFFFFFFFFFFFFFFFFFFFFFFFFFFFFF AND PUSH32 0xEE75D149BB5E330E03F98B125AAA1EFCD5864E4E2D5946F23DC6DD30630D5616 DUP4 PUSH1 0x40 MLOAD PUSH2 0xA04 SWAP2 SWAP1 PUSH2 0xD3B JUMP JUMPDEST PUSH1 0x40 MLOAD DUP1 SWAP2 SUB SWAP1 LOG3 PUSH2 0xC62 JUMP JUMPDEST PUSH1 0x0 DUP1 PUSH1 0x7 PUSH1 0x0 DUP6 PUSH20 0xFFFFFFFFFFFFFFFFFFFFFFFFFFFFFFFFFFFFFFFF AND PUSH20 0xFFFFFFFFFFFFFFFFFFFFFFFFFFFFFFFFFFFFFFFF AND DUP2 MSTORE PUSH1 0x20 ADD SWAP1 DUP2 MSTORE PUSH1 0x20 ADD PUSH1 0x0 KECCAK256 PUSH1 0x0 SWAP1 SLOAD SWAP1 PUSH2 0x100 EXP SWAP1 DIV PUSH1 0xFF AND PUSH1 0xFF AND GT ISZERO PUSH2 0xAD4 JUMPI PUSH1 0x7 PUSH1 0x0 DUP5 PUSH20 0xFFFFFFFFFFFFFFFFFFFFFFFFFFFFFFFFFFFFFFFF AND PUSH20 0xFFFFFFFFFFFFFFFFFFFFFFFFFFFFFFFFFFFFFFFF AND DUP2 MSTORE PUSH1 0x20 ADD SWAP1 DUP2 MSTORE PUSH1 0x20 ADD PUSH1 0x0 KECCAK256 PUSH1 0x0 SWAP1 SLOAD SWAP1 PUSH2 0x100 EXP SWAP1 DIV PUSH1 0xFF AND PUSH1 0xFF AND PUSH1 0x64 DUP4 PUSH2 0xAC7 SWAP2 SWAP1 PUSH2 0x119C JUMP JUMPDEST PUSH2 0xAD1 SWAP2 SWAP1 PUSH2 0x11CD JUMP JUMPDEST SWAP1 POP JUMPDEST DUP1 DUP3 PUSH2 0xAE0 SWAP2 SWAP1 PUSH2 0x1227 JUMP JUMPDEST PUSH1 0x4 PUSH1 0x0 CALLER PUSH20 0xFFFFFFFFFFFFFFFFFFFFFFFFFFFFFFFFFFFFFFFF AND PUSH20 0xFFFFFFFFFFFFFFFFFFFFFFFFFFFFFFFFFFFFFFFF AND DUP2 MSTORE PUSH1 0x20 ADD SWAP1 DUP2 MSTORE PUSH1 0x20 ADD PUSH1 0x0 KECCAK256 PUSH1 0x0 DUP3 DUP3 SLOAD PUSH2 0xB2E SWAP2 SWAP1 PUSH2 0x1227 JUMP JUMPDEST SWAP3 POP POP DUP2 SWAP1 SSTORE POP DUP1 DUP3 PUSH2 0xB41 SWAP2 SWAP1 PUSH2 0x1227 JUMP JUMPDEST PUSH1 0x4 PUSH1 0x0 DUP6 PUSH20 0xFFFFFFFFFFFFFFFFFFFFFFFFFFFFFFFFFFFFFFFF AND PUSH20 0xFFFFFFFFFFFFFFFFFFFFFFFFFFFFFFFFFFFFFFFF AND DUP2 MSTORE PUSH1 0x20 ADD SWAP1 DUP2 MSTORE PUSH1 0x20 ADD PUSH1 0x0 KECCAK256 PUSH1 0x0 DUP3 DUP3 SLOAD PUSH2 0xB8F SWAP2 SWAP1 PUSH2 0x10AB JUMP JUMPDEST SWAP3 POP POP DUP2 SWAP1 SSTORE POP DUP3 PUSH20 0xFFFFFFFFFFFFFFFFFFFFFFFFFFFFFFFFFFFFFFFF AND CALLER PUSH20 0xFFFFFFFFFFFFFFFFFFFFFFFFFFFFFFFFFFFFFFFF AND PUSH32 0xDDF252AD1BE2C89B69C2B068FC378DAA952BA7F163C4A11628F55A4DF523B3EF DUP5 PUSH1 0x40 MLOAD PUSH2 0xBF3 SWAP2 SWAP1 PUSH2 0xD3B JUMP JUMPDEST PUSH1 0x40 MLOAD DUP1 SWAP2 SUB SWAP1 LOG3 CALLER PUSH20 0xFFFFFFFFFFFFFFFFFFFFFFFFFFFFFFFFFFFFFFFF AND DUP4 PUSH20 0xFFFFFFFFFFFFFFFFFFFFFFFFFFFFFFFFFFFFFFFF AND PUSH32 0x82B105A9603353DE51DBDF07D939D19D60F298A181B405653C095BFB286BE4C2 DUP4 PUSH1 0x40 MLOAD PUSH2 0xC58 SWAP2 SWAP1 PUSH2 0xD3B JUMP JUMPDEST PUSH1 0x40 MLOAD DUP1 SWAP2 SUB SWAP1 LOG3 POP JUMPDEST JUMPDEST POP POP JUMP JUMPDEST PUSH1 0x0 DUP2 MLOAD SWAP1 POP SWAP2 SWAP1 POP JUMP JUMPDEST PUSH1 0x0 DUP3 DUP3 MSTORE PUSH1 0x20 DUP3 ADD SWAP1 POP SWAP3 SWAP2 POP POP JUMP JUMPDEST PUSH1 0x0 JUMPDEST DUP4 DUP2 LT ISZERO PUSH2 0xCA1 JUMPI DUP1 DUP3 ADD MLOAD DUP2 DUP5 ADD MSTORE PUSH1 0x20 DUP2 ADD SWAP1 POP PUSH2 0xC86 JUMP JUMPDEST DUP4 DUP2 GT ISZERO PUSH2 0xCB0 JUMPI PUSH1 0x0 DUP5 DUP5 ADD MSTORE JUMPDEST POP POP POP POP JUMP JUMPDEST PUSH1 0x0 PUSH1 0x1F NOT PUSH1 0x1F DUP4 ADD AND SWAP1 POP SWAP2 SWAP1 POP JUMP JUMPDEST PUSH1 0x0 PUSH2 0xCD2 DUP3 PUSH2 0xC67 JUMP JUMPDEST PUSH2 0xCDC DUP2 DUP6 PUSH2 0xC72 JUMP JUMPDEST SWAP4 POP PUSH2 0xCEC DUP2 DUP6 PUSH1 0x20 DUP7 ADD PUSH2 0xC83 JUMP JUMPDEST PUSH2 0xCF5 DUP2 PUSH2 0xCB6 JUMP JUMPDEST DUP5 ADD SWAP2 POP POP SWAP3 SWAP2 POP POP JUMP JUMPDEST PUSH1 0x0 PUSH1 0x20 DUP3 ADD SWAP1 POP DUP2 DUP2 SUB PUSH1 0x0 DUP4 ADD MSTORE PUSH2 0xD1A DUP2 DUP5 PUSH2 0xCC7 JUMP JUMPDEST SWAP1 POP SWAP3 SWAP2 POP POP JUMP JUMPDEST PUSH1 0x0 DUP2 SWAP1 POP SWAP2 SWAP1 POP JUMP JUMPDEST PUSH2 0xD35 DUP2 PUSH2 0xD22 JUMP JUMPDEST DUP3 MSTORE POP POP JUMP JUMPDEST PUSH1 0x0 PUSH1 0x20 DUP3 ADD SWAP1 POP PUSH2 0xD50 PUSH1 0x0 DUP4 ADD DUP5 PUSH2 0xD2C JUMP JUMPDEST SWAP3 SWAP2 POP POP JUMP JUMPDEST PUSH1 0x0 PUSH1 0xFF DUP3 AND SWAP1 POP SWAP2 SWAP1 POP JUMP JUMPDEST PUSH2 0xD6C DUP2 PUSH2 0xD56 JUMP JUMPDEST DUP3 MSTORE POP POP JUMP JUMPDEST PUSH1 0x0 PUSH1 0x20 DUP3 ADD SWAP1 POP PUSH2 0xD87 PUSH1 0x0 DUP4 ADD DUP5 PUSH2 0xD63 JUMP JUMPDEST SWAP3 SWAP2 POP POP JUMP JUMPDEST PUSH1 0x0 DUP1 REVERT JUMPDEST PUSH1 0x0 PUSH20 0xFFFFFFFFFFFFFFFFFFFFFFFFFFFFFFFFFFFFFFFF DUP3 AND SWAP1 POP SWAP2 SWAP1 POP JUMP JUMPDEST PUSH1 0x0 PUSH2 0xDBD DUP3 PUSH2 0xD92 JUMP JUMPDEST SWAP1 POP SWAP2 SWAP1 POP JUMP JUMPDEST PUSH2 0xDCD DUP2 PUSH2 0xDB2 JUMP JUMPDEST DUP2 EQ PUSH2 0xDD8 JUMPI PUSH1 0x0 DUP1 REVERT JUMPDEST POP JUMP JUMPDEST PUSH1 0x0 DUP2 CALLDATALOAD SWAP1 POP PUSH2 0xDEA DUP2 PUSH2 0xDC4 JUMP JUMPDEST SWAP3 SWAP2 POP POP JUMP JUMPDEST PUSH1 0x0 PUSH1 0x20 DUP3 DUP5 SUB SLT ISZERO PUSH2 0xE06 JUMPI PUSH2 0xE05 PUSH2 0xD8D JUMP JUMPDEST JUMPDEST PUSH1 0x0 PUSH2 0xE14 DUP5 DUP3 DUP6 ADD PUSH2 0xDDB JUMP JUMPDEST SWAP2 POP POP SWAP3 SWAP2 POP POP JUMP JUMPDEST PUSH1 0x0 DUP2 PUSH1 0x0 SIGNEXTEND SWAP1 POP SWAP2 SWAP1 POP JUMP JUMPDEST PUSH2 0xE33 DUP2 PUSH2 0xE1D JUMP JUMPDEST DUP3 MSTORE POP POP JUMP JUMPDEST PUSH1 0x0 PUSH1 0x20 DUP3 ADD SWAP1 POP PUSH2 0xE4E PUSH1 0x0 DUP4 ADD DUP5 PUSH2 0xE2A JUMP JUMPDEST SWAP3 SWAP2 POP POP JUMP JUMPDEST PUSH2 0xE5D DUP2 PUSH2 0xD56 JUMP JUMPDEST DUP2 EQ PUSH2 0xE68 JUMPI PUSH1 0x0 DUP1 REVERT JUMPDEST POP JUMP JUMPDEST PUSH1 0x0 DUP2 CALLDATALOAD SWAP1 POP PUSH2 0xE7A DUP2 PUSH2 0xE54 JUMP JUMPDEST SWAP3 SWAP2 POP POP JUMP JUMPDEST PUSH1 0x0 PUSH1 0x20 DUP3 DUP5 SUB SLT ISZERO PUSH2 0xE96 JUMPI PUSH2 0xE95 PUSH2 0xD8D JUMP JUMPDEST JUMPDEST PUSH1 0x0 PUSH2 0xEA4 DUP5 DUP3 DUP6 ADD PUSH2 0xE6B JUMP JUMPDEST SWAP2 POP POP SWAP3 SWAP2 POP POP JUMP JUMPDEST PUSH2 0xEB6 DUP2 PUSH2 0xDB2 JUMP JUMPDEST DUP3 MSTORE POP POP JUMP JUMPDEST PUSH1 0x0 PUSH1 0x20 DUP3 ADD SWAP1 POP PUSH2 0xED1 PUSH1 0x0 DUP4 ADD DUP5 PUSH2 0xEAD JUMP JUMPDEST SWAP3 SWAP2 POP POP JUMP JUMPDEST PUSH2 0xEE0 DUP2 PUSH2 0xD22 JUMP JUMPDEST DUP2 EQ PUSH2 0xEEB JUMPI PUSH1 0x0 DUP1 REVERT JUMPDEST POP JUMP JUMPDEST PUSH1 0x0 DUP2 CALLDATALOAD SWAP1 POP PUSH2 0xEFD DUP2 PUSH2 0xED7 JUMP JUMPDEST SWAP3 SWAP2 POP POP JUMP JUMPDEST PUSH1 0x0 DUP1 PUSH1 0x40 DUP4 DUP6 SUB SLT ISZERO PUSH2 0xF1A JUMPI PUSH2 0xF19 PUSH2 0xD8D JUMP JUMPDEST JUMPDEST PUSH1 0x0 PUSH2 0xF28 DUP6 DUP3 DUP7 ADD PUSH2 0xDDB JUMP JUMPDEST SWAP3 POP POP PUSH1 0x20 PUSH2 0xF39 DUP6 DUP3 DUP7 ADD PUSH2 0xEEE JUMP JUMPDEST SWAP2 POP POP SWAP3 POP SWAP3 SWAP1 POP JUMP JUMPDEST PUSH32 0x4E487B7100000000000000000000000000000000000000000000000000000000 PUSH1 0x0 MSTORE PUSH1 0x22 PUSH1 0x4 MSTORE PUSH1 0x24 PUSH1 0x0 REVERT JUMPDEST PUSH1 0x0 PUSH1 0x2 DUP3 DIV SWAP1 POP PUSH1 0x1 DUP3 AND DUP1 PUSH2 0xF8A JUMPI PUSH1 0x7F DUP3 AND SWAP2 POP JUMPDEST PUSH1 0x20 DUP3 LT DUP2 EQ ISZERO PUSH2 0xF9E JUMPI PUSH2 0xF9D PUSH2 0xF43 JUMP JUMPDEST JUMPDEST POP SWAP2 SWAP1 POP JUMP JUMPDEST PUSH32 0x6F6E6C794F776E65720000000000000000000000000000000000000000000000 PUSH1 0x0 DUP3 ADD MSTORE POP JUMP JUMPDEST PUSH1 0x0 PUSH2 0xFDA PUSH1 0x9 DUP4 PUSH2 0xC72 JUMP JUMPDEST SWAP2 POP PUSH2 0xFE5 DUP3 PUSH2 0xFA4 JUMP JUMPDEST PUSH1 0x20 DUP3 ADD SWAP1 POP SWAP2 SWAP1 POP JUMP JUMPDEST PUSH1 0x0 PUSH1 0x20 DUP3 ADD SWAP1 POP DUP2 DUP2 SUB PUSH1 0x0 DUP4 ADD MSTORE PUSH2 0x1009 DUP2 PUSH2 0xFCD JUMP JUMPDEST SWAP1 POP SWAP2 SWAP1 POP JUMP JUMPDEST PUSH32 0x7472616E6665725F6572725F3100000000000000000000000000000000000000 PUSH1 0x0 DUP3 ADD MSTORE POP JUMP JUMPDEST PUSH1 0x0 PUSH2 0x1046 PUSH1 0xD DUP4 PUSH2 0xC72 JUMP JUMPDEST SWAP2 POP PUSH2 0x1051 DUP3 PUSH2 0x1010 JUMP JUMPDEST PUSH1 0x20 DUP3 ADD SWAP1 POP SWAP2 SWAP1 POP JUMP JUMPDEST PUSH1 0x0 PUSH1 0x20 DUP3 ADD SWAP1 POP DUP2 DUP2 SUB PUSH1 0x0 DUP4 ADD MSTORE PUSH2 0x1075 DUP2 PUSH2 0x1039 JUMP JUMPDEST SWAP1 POP SWAP2 SWAP1 POP JUMP JUMPDEST PUSH32 0x4E487B7100000000000000000000000000000000000000000000000000000000 PUSH1 0x0 MSTORE PUSH1 0x11 PUSH1 0x4 MSTORE PUSH1 0x24 PUSH1 0x0 REVERT JUMPDEST PUSH1 0x0 PUSH2 0x10B6 DUP3 PUSH2 0xD22 JUMP JUMPDEST SWAP2 POP PUSH2 0x10C1 DUP4 PUSH2 0xD22 JUMP JUMPDEST SWAP3 POP DUP3 PUSH32 0xFFFFFFFFFFFFFFFFFFFFFFFFFFFFFFFFFFFFFFFFFFFFFFFFFFFFFFFFFFFFFFFF SUB DUP3 GT ISZERO PUSH2 0x10F6 JUMPI PUSH2 0x10F5 PUSH2 0x107C JUMP JUMPDEST JUMPDEST DUP3 DUP3 ADD SWAP1 POP SWAP3 SWAP2 POP POP JUMP JUMPDEST PUSH32 0x7472616E6665725F6572725F3200000000000000000000000000000000000000 PUSH1 0x0 DUP3 ADD MSTORE POP JUMP JUMPDEST PUSH1 0x0 PUSH2 0x1137 PUSH1 0xD DUP4 PUSH2 0xC72 JUMP JUMPDEST SWAP2 POP PUSH2 0x1142 DUP3 PUSH2 0x1101 JUMP JUMPDEST PUSH1 0x20 DUP3 ADD SWAP1 POP SWAP2 SWAP1 POP JUMP JUMPDEST PUSH1 0x0 PUSH1 0x20 DUP3 ADD SWAP1 POP DUP2 DUP2 SUB PUSH1 0x0 DUP4 ADD MSTORE PUSH2 0x1166 DUP2 PUSH2 0x112A JUMP JUMPDEST SWAP1 POP SWAP2 SWAP1 POP JUMP JUMPDEST PUSH32 0x4E487B7100000000000000000000000000000000000000000000000000000000 PUSH1 0x0 MSTORE PUSH1 0x12 PUSH1 0x4 MSTORE PUSH1 0x24 PUSH1 0x0 REVERT JUMPDEST PUSH1 0x0 PUSH2 0x11A7 DUP3 PUSH2 0xD22 JUMP JUMPDEST SWAP2 POP PUSH2 0x11B2 DUP4 PUSH2 0xD22 JUMP JUMPDEST SWAP3 POP DUP3 PUSH2 0x11C2 JUMPI PUSH2 0x11C1 PUSH2 0x116D JUMP JUMPDEST JUMPDEST DUP3 DUP3 DIV SWAP1 POP SWAP3 SWAP2 POP POP JUMP JUMPDEST PUSH1 0x0 PUSH2 0x11D8 DUP3 PUSH2 0xD22 JUMP JUMPDEST SWAP2 POP PUSH2 0x11E3 DUP4 PUSH2 0xD22 JUMP JUMPDEST SWAP3 POP DUP2 PUSH32 0xFFFFFFFFFFFFFFFFFFFFFFFFFFFFFFFFFFFFFFFFFFFFFFFFFFFFFFFFFFFFFFFF DIV DUP4 GT DUP3 ISZERO ISZERO AND ISZERO PUSH2 0x121C JUMPI PUSH2 0x121B PUSH2 0x107C JUMP JUMPDEST JUMPDEST DUP3 DUP3 MUL SWAP1 POP SWAP3 SWAP2 POP POP JUMP JUMPDEST PUSH1 0x0 PUSH2 0x1232 DUP3 PUSH2 0xD22 JUMP JUMPDEST SWAP2 POP PUSH2 0x123D DUP4 PUSH2 0xD22 JUMP JUMPDEST SWAP3 POP DUP3 DUP3 LT ISZERO PUSH2 0x1250 JUMPI PUSH2 0x124F PUSH2 0x107C JUMP JUMPDEST JUMPDEST DUP3 DUP3 SUB SWAP1 POP SWAP3 SWAP2 POP POP JUMP INVALID LOG2 PUSH5 0x6970667358 0x22 SLT KECCAK256 PUSH25 0xA803B921618F36997C9D14A5657BFAC2BE5D483820450CA535 SMOD SWAP16 0xBD PUSH18 0x8BA564736F6C634300080C00330000000000 "
				},
				"gasEstimates": {
					"creation": {
						"codeDepositCost": "950600",
						"executionCost": "infinite",
						"totalCost": "infinite"
					},
					"external": {
						"balanceOf(address)": "2925",
						"blackList(address)": "2916",
						"blacklisting(address)": "28151",
						"cashbackRate(address)": "2911",
						"decimals()": "2516",
						"deleteFromBlacklist(address)": "28195",
						"name()": "infinite",
						"owner()": "2536",
						"setCashbackRate(uint8)": "infinite",
						"symbol()": "infinite",
						"totalSupply()": "2452",
						"transfer(address,uint256)": "infinite"
					}
				},
				"methodIdentifiers": {
					"balanceOf(address)": "70a08231",
					"blackList(address)": "4838d165",
					"blacklisting(address)": "8a294c60",
					"cashbackRate(address)": "8f81cc1d",
					"decimals()": "313ce567",
					"deleteFromBlacklist(address)": "8de6b343",
					"name()": "06fdde03",
					"owner()": "8da5cb5b",
					"setCashbackRate(uint8)": "4c7efb41",
					"symbol()": "95d89b41",
					"totalSupply()": "18160ddd",
					"transfer(address,uint256)": "a9059cbb"
				}
			},
			"storageLayout": {
				"storage": [
					{
						"astId": 3,
						"contract": "contracts/OreOreCoinCashBack.sol:OreOreCoin",
						"label": "name",
						"offset": 0,
						"slot": "0",
						"type": "t_string_storage"
					},
					{
						"astId": 5,
						"contract": "contracts/OreOreCoinCashBack.sol:OreOreCoin",
						"label": "symbol",
						"offset": 0,
						"slot": "1",
						"type": "t_string_storage"
					},
					{
						"astId": 7,
						"contract": "contracts/OreOreCoinCashBack.sol:OreOreCoin",
						"label": "decimals",
						"offset": 0,
						"slot": "2",
						"type": "t_uint8"
					},
					{
						"astId": 9,
						"contract": "contracts/OreOreCoinCashBack.sol:OreOreCoin",
						"label": "totalSupply",
						"offset": 0,
						"slot": "3",
						"type": "t_uint256"
					},
					{
						"astId": 13,
						"contract": "contracts/OreOreCoinCashBack.sol:OreOreCoin",
						"label": "balanceOf",
						"offset": 0,
						"slot": "4",
						"type": "t_mapping(t_address,t_uint256)"
					},
					{
						"astId": 17,
						"contract": "contracts/OreOreCoinCashBack.sol:OreOreCoin",
						"label": "blackList",
						"offset": 0,
						"slot": "5",
						"type": "t_mapping(t_address,t_int8)"
					},
					{
						"astId": 19,
						"contract": "contracts/OreOreCoinCashBack.sol:OreOreCoin",
						"label": "owner",
						"offset": 0,
						"slot": "6",
						"type": "t_address"
					},
					{
						"astId": 23,
						"contract": "contracts/OreOreCoinCashBack.sol:OreOreCoin",
						"label": "cashbackRate",
						"offset": 0,
						"slot": "7",
						"type": "t_mapping(t_address,t_uint8)"
					}
				],
				"types": {
					"t_address": {
						"encoding": "inplace",
						"label": "address",
						"numberOfBytes": "20"
					},
					"t_int8": {
						"encoding": "inplace",
						"label": "int8",
						"numberOfBytes": "1"
					},
					"t_mapping(t_address,t_int8)": {
						"encoding": "mapping",
						"key": "t_address",
						"label": "mapping(address => int8)",
						"numberOfBytes": "32",
						"value": "t_int8"
					},
					"t_mapping(t_address,t_uint256)": {
						"encoding": "mapping",
						"key": "t_address",
						"label": "mapping(address => uint256)",
						"numberOfBytes": "32",
						"value": "t_uint256"
					},
					"t_mapping(t_address,t_uint8)": {
						"encoding": "mapping",
						"key": "t_address",
						"label": "mapping(address => uint8)",
						"numberOfBytes": "32",
						"value": "t_uint8"
					},
					"t_string_storage": {
						"encoding": "bytes",
						"label": "string",
						"numberOfBytes": "32"
					},
					"t_uint256": {
						"encoding": "inplace",
						"label": "uint256",
						"numberOfBytes": "32"
					},
					"t_uint8": {
						"encoding": "inplace",
						"label": "uint8",
						"numberOfBytes": "1"
					}
				}
			},
			"userdoc": {
				"kind": "user",
				"methods": {},
				"version": 1
			}
		}
	}
}