{
	"contracts/OreOreCoinFull.sol": {
		"Crowdsale": {
			"abi": [
				{
					"inputs": [
						{
							"internalType": "uint256",
							"name": "_fundingGoalInEthers",
							"type": "uint256"
						},
						{
							"internalType": "uint256",
							"name": "_transferableToken",
							"type": "uint256"
						},
						{
							"internalType": "uint256",
							"name": "_amountOfTokenPerEther",
							"type": "uint256"
						},
						{
							"internalType": "contract OreOreCoin",
							"name": "_addressOfTokenUsedAsReward",
							"type": "address"
						}
					],
					"stateMutability": "nonpayable",
					"type": "constructor"
				},
				{
					"anonymous": false,
					"inputs": [
						{
							"indexed": false,
							"internalType": "address",
							"name": "beneficiary",
							"type": "address"
						},
						{
							"indexed": false,
							"internalType": "uint256",
							"name": "fundingGoal",
							"type": "uint256"
						},
						{
							"indexed": false,
							"internalType": "uint256",
							"name": "amountRaised",
							"type": "uint256"
						},
						{
							"indexed": false,
							"internalType": "bool",
							"name": "reached",
							"type": "bool"
						},
						{
							"indexed": false,
							"internalType": "uint256",
							"name": "raisedToken",
							"type": "uint256"
						}
					],
					"name": "CheckGoalReached",
					"type": "event"
				},
				{
					"anonymous": false,
					"inputs": [
						{
							"indexed": false,
							"internalType": "uint256",
							"name": "fundingGoal",
							"type": "uint256"
						},
						{
							"indexed": false,
							"internalType": "uint256",
							"name": "deadline",
							"type": "uint256"
						},
						{
							"indexed": false,
							"internalType": "uint256",
							"name": "transferableToken",
							"type": "uint256"
						},
						{
							"indexed": false,
							"internalType": "address",
							"name": "beneficiary",
							"type": "address"
						}
					],
					"name": "CrowdsaleStart",
					"type": "event"
				},
				{
					"anonymous": false,
					"inputs": [
						{
							"indexed": false,
							"internalType": "address",
							"name": "backer",
							"type": "address"
						},
						{
							"indexed": false,
							"internalType": "uint256",
							"name": "amount",
							"type": "uint256"
						},
						{
							"indexed": false,
							"internalType": "uint256",
							"name": "token",
							"type": "uint256"
						}
					],
					"name": "ReservedToken",
					"type": "event"
				},
				{
					"anonymous": false,
					"inputs": [
						{
							"indexed": false,
							"internalType": "address",
							"name": "oldaddr",
							"type": "address"
						},
						{
							"indexed": false,
							"internalType": "address",
							"name": "newaddr",
							"type": "address"
						}
					],
					"name": "TransferOwnership",
					"type": "event"
				},
				{
					"anonymous": false,
					"inputs": [
						{
							"indexed": false,
							"internalType": "address",
							"name": "addr",
							"type": "address"
						},
						{
							"indexed": false,
							"internalType": "uint256",
							"name": "amount",
							"type": "uint256"
						},
						{
							"indexed": false,
							"internalType": "bool",
							"name": "result",
							"type": "bool"
						}
					],
					"name": "WithdrawalEther",
					"type": "event"
				},
				{
					"anonymous": false,
					"inputs": [
						{
							"indexed": false,
							"internalType": "address",
							"name": "addr",
							"type": "address"
						},
						{
							"indexed": false,
							"internalType": "uint256",
							"name": "amount",
							"type": "uint256"
						},
						{
							"indexed": false,
							"internalType": "bool",
							"name": "result",
							"type": "bool"
						}
					],
					"name": "WithdrawalToken",
					"type": "event"
				},
				{
					"inputs": [],
					"name": "checkGoalReached",
					"outputs": [],
					"stateMutability": "nonpayable",
					"type": "function"
				},
				{
					"inputs": [],
					"name": "currentSwapRate",
					"outputs": [
						{
							"internalType": "uint256",
							"name": "",
							"type": "uint256"
						}
					],
					"stateMutability": "view",
					"type": "function"
				},
				{
					"inputs": [],
					"name": "deadline",
					"outputs": [
						{
							"internalType": "uint256",
							"name": "",
							"type": "uint256"
						}
					],
					"stateMutability": "view",
					"type": "function"
				},
				{
					"inputs": [
						{
							"internalType": "address",
							"name": "",
							"type": "address"
						}
					],
					"name": "fundersProperty",
					"outputs": [
						{
							"internalType": "uint256",
							"name": "paymentEther",
							"type": "uint256"
						},
						{
							"internalType": "uint256",
							"name": "reservedToken",
							"type": "uint256"
						},
						{
							"internalType": "bool",
							"name": "withdrawed",
							"type": "bool"
						}
					],
					"stateMutability": "view",
					"type": "function"
				},
				{
					"inputs": [],
					"name": "fundingGoal",
					"outputs": [
						{
							"internalType": "uint256",
							"name": "",
							"type": "uint256"
						}
					],
					"stateMutability": "view",
					"type": "function"
				},
				{
					"inputs": [],
					"name": "fundingGoalReached",
					"outputs": [
						{
							"internalType": "bool",
							"name": "",
							"type": "bool"
						}
					],
					"stateMutability": "view",
					"type": "function"
				},
				{
					"inputs": [],
					"name": "getRemainingTimeEthToken",
					"outputs": [
						{
							"internalType": "uint256",
							"name": "min",
							"type": "uint256"
						},
						{
							"internalType": "uint256",
							"name": "shortage",
							"type": "uint256"
						},
						{
							"internalType": "uint256",
							"name": "remainToken",
							"type": "uint256"
						}
					],
					"stateMutability": "view",
					"type": "function"
				},
				{
					"inputs": [],
					"name": "isOpened",
					"outputs": [
						{
							"internalType": "bool",
							"name": "",
							"type": "bool"
						}
					],
					"stateMutability": "view",
					"type": "function"
				},
				{
					"inputs": [],
					"name": "owner",
					"outputs": [
						{
							"internalType": "address",
							"name": "",
							"type": "address"
						}
					],
					"stateMutability": "view",
					"type": "function"
				},
				{
					"inputs": [],
					"name": "price",
					"outputs": [
						{
							"internalType": "uint256",
							"name": "",
							"type": "uint256"
						}
					],
					"stateMutability": "view",
					"type": "function"
				},
				{
					"inputs": [],
					"name": "soldToken",
					"outputs": [
						{
							"internalType": "uint256",
							"name": "",
							"type": "uint256"
						}
					],
					"stateMutability": "view",
					"type": "function"
				},
				{
					"inputs": [
						{
							"internalType": "uint256",
							"name": "_durationInMinutes",
							"type": "uint256"
						}
					],
					"name": "start",
					"outputs": [],
					"stateMutability": "nonpayable",
					"type": "function"
				},
				{
					"inputs": [],
					"name": "startTime",
					"outputs": [
						{
							"internalType": "uint256",
							"name": "",
							"type": "uint256"
						}
					],
					"stateMutability": "view",
					"type": "function"
				},
				{
					"inputs": [],
					"name": "tokenReward",
					"outputs": [
						{
							"internalType": "contract OreOreCoin",
							"name": "",
							"type": "address"
						}
					],
					"stateMutability": "view",
					"type": "function"
				},
				{
					"inputs": [
						{
							"internalType": "address",
							"name": "_new",
							"type": "address"
						}
					],
					"name": "transferOwnership",
					"outputs": [],
					"stateMutability": "nonpayable",
					"type": "function"
				},
				{
					"inputs": [],
					"name": "transferableToken",
					"outputs": [
						{
							"internalType": "uint256",
							"name": "",
							"type": "uint256"
						}
					],
					"stateMutability": "view",
					"type": "function"
				},
				{
					"inputs": [],
					"name": "withdrawal",
					"outputs": [],
					"stateMutability": "nonpayable",
					"type": "function"
				},
				{
					"inputs": [],
					"name": "withdrawalOwner",
					"outputs": [],
					"stateMutability": "nonpayable",
					"type": "function"
				},
				{
					"stateMutability": "payable",
					"type": "receive"
				}
			],
			"devdoc": {
				"kind": "dev",
				"methods": {},
				"version": 1
			},
			"evm": {
				"assembly": "    /* \"contracts/OreOreCoinFull.sol\":6608:13967  contract Crowdsale is Owned {... */\n  mstore(0x40, 0x80)\n    /* \"contracts/OreOreCoinFull.sol\":8103:8507  constructor (... */\n  callvalue\n  dup1\n  iszero\n  tag_1\n  jumpi\n  0x00\n  dup1\n  revert\ntag_1:\n  pop\n  mload(0x40)\n  sub(codesize, bytecodeSize)\n  dup1\n  bytecodeSize\n  dup4\n  codecopy\n  dup2\n  dup2\n  add\n  0x40\n  mstore\n  dup2\n  add\n  swap1\n  tag_2\n  swap2\n  swap1\n  tag_3\n  jump\t// in\ntag_2:\n    /* \"contracts/OreOreCoinFull.sol\":493:503  msg.sender */\n  caller\n    /* \"contracts/OreOreCoinFull.sol\":485:490  owner */\n  0x00\n  dup1\n    /* \"contracts/OreOreCoinFull.sol\":485:503  owner = msg.sender */\n  0x0100\n  exp\n  dup2\n  sload\n  dup2\n  0xffffffffffffffffffffffffffffffffffffffff\n  mul\n  not\n  and\n  swap1\n  dup4\n  0xffffffffffffffffffffffffffffffffffffffff\n  and\n  mul\n  or\n  swap1\n  sstore\n  pop\n    /* \"contracts/OreOreCoinFull.sol\":8328:8335  1 ether */\n  0x0de0b6b3a7640000\n    /* \"contracts/OreOreCoinFull.sol\":8305:8325  _fundingGoalInEthers */\n  dup5\n    /* \"contracts/OreOreCoinFull.sol\":8305:8335  _fundingGoalInEthers * 1 ether */\n  tag_8\n  swap2\n  swap1\n  tag_9\n  jump\t// in\ntag_8:\n    /* \"contracts/OreOreCoinFull.sol\":8291:8302  fundingGoal */\n  0x01\n    /* \"contracts/OreOreCoinFull.sol\":8291:8335  fundingGoal = _fundingGoalInEthers * 1 ether */\n  dup2\n  swap1\n  sstore\n  pop\n    /* \"contracts/OreOreCoinFull.sol\":8364:8386  _amountOfTokenPerEther */\n  dup2\n    /* \"contracts/OreOreCoinFull.sol\":8354:8361  1 ether */\n  0x0de0b6b3a7640000\n    /* \"contracts/OreOreCoinFull.sol\":8354:8386  1 ether / _amountOfTokenPerEther */\n  tag_10\n  swap2\n  swap1\n  tag_11\n  jump\t// in\ntag_10:\n    /* \"contracts/OreOreCoinFull.sol\":8346:8351  price */\n  0x03\n    /* \"contracts/OreOreCoinFull.sol\":8346:8386  price = 1 ether / _amountOfTokenPerEther */\n  dup2\n  swap1\n  sstore\n  pop\n    /* \"contracts/OreOreCoinFull.sol\":8417:8435  _transferableToken */\n  dup3\n    /* \"contracts/OreOreCoinFull.sol\":8397:8414  transferableToken */\n  0x04\n    /* \"contracts/OreOreCoinFull.sol\":8397:8435  transferableToken = _transferableToken */\n  dup2\n  swap1\n  sstore\n  pop\n    /* \"contracts/OreOreCoinFull.sol\":8471:8498  _addressOfTokenUsedAsReward */\n  dup1\n    /* \"contracts/OreOreCoinFull.sol\":8446:8457  tokenReward */\n  0x07\n  0x00\n    /* \"contracts/OreOreCoinFull.sol\":8446:8499  tokenReward = OreOreCoin(_addressOfTokenUsedAsReward) */\n  0x0100\n  exp\n  dup2\n  sload\n  dup2\n  0xffffffffffffffffffffffffffffffffffffffff\n  mul\n  not\n  and\n  swap1\n  dup4\n  0xffffffffffffffffffffffffffffffffffffffff\n  and\n  mul\n  or\n  swap1\n  sstore\n  pop\n    /* \"contracts/OreOreCoinFull.sol\":8103:8507  constructor (... */\n  pop\n  pop\n  pop\n  pop\n    /* \"contracts/OreOreCoinFull.sol\":6608:13967  contract Crowdsale is Owned {... */\n  jump(tag_12)\n    /* \"#utility.yul\":88:205   */\ntag_14:\n    /* \"#utility.yul\":197:198   */\n  0x00\n    /* \"#utility.yul\":194:195   */\n  dup1\n    /* \"#utility.yul\":187:199   */\n  revert\n    /* \"#utility.yul\":334:411   */\ntag_16:\n    /* \"#utility.yul\":371:378   */\n  0x00\n    /* \"#utility.yul\":400:405   */\n  dup2\n    /* \"#utility.yul\":389:405   */\n  swap1\n  pop\n    /* \"#utility.yul\":334:411   */\n  swap2\n  swap1\n  pop\n  jump\t// out\n    /* \"#utility.yul\":417:539   */\ntag_17:\n    /* \"#utility.yul\":490:514   */\n  tag_32\n    /* \"#utility.yul\":508:513   */\n  dup2\n    /* \"#utility.yul\":490:514   */\n  tag_16\n  jump\t// in\ntag_32:\n    /* \"#utility.yul\":483:488   */\n  dup2\n    /* \"#utility.yul\":480:515   */\n  eq\n    /* \"#utility.yul\":470:533   */\n  tag_33\n  jumpi\n    /* \"#utility.yul\":529:530   */\n  0x00\n    /* \"#utility.yul\":526:527   */\n  dup1\n    /* \"#utility.yul\":519:531   */\n  revert\n    /* \"#utility.yul\":470:533   */\ntag_33:\n    /* \"#utility.yul\":417:539   */\n  pop\n  jump\t// out\n    /* \"#utility.yul\":545:688   */\ntag_18:\n    /* \"#utility.yul\":602:607   */\n  0x00\n    /* \"#utility.yul\":633:639   */\n  dup2\n    /* \"#utility.yul\":627:640   */\n  mload\n    /* \"#utility.yul\":618:640   */\n  swap1\n  pop\n    /* \"#utility.yul\":649:682   */\n  tag_35\n    /* \"#utility.yul\":676:681   */\n  dup2\n    /* \"#utility.yul\":649:682   */\n  tag_17\n  jump\t// in\ntag_35:\n    /* \"#utility.yul\":545:688   */\n  swap3\n  swap2\n  pop\n  pop\n  jump\t// out\n    /* \"#utility.yul\":694:820   */\ntag_19:\n    /* \"#utility.yul\":731:738   */\n  0x00\n    /* \"#utility.yul\":771:813   */\n  0xffffffffffffffffffffffffffffffffffffffff\n    /* \"#utility.yul\":764:769   */\n  dup3\n    /* \"#utility.yul\":760:814   */\n  and\n    /* \"#utility.yul\":749:814   */\n  swap1\n  pop\n    /* \"#utility.yul\":694:820   */\n  swap2\n  swap1\n  pop\n  jump\t// out\n    /* \"#utility.yul\":826:922   */\ntag_20:\n    /* \"#utility.yul\":863:870   */\n  0x00\n    /* \"#utility.yul\":892:916   */\n  tag_38\n    /* \"#utility.yul\":910:915   */\n  dup3\n    /* \"#utility.yul\":892:916   */\n  tag_19\n  jump\t// in\ntag_38:\n    /* \"#utility.yul\":881:916   */\n  swap1\n  pop\n    /* \"#utility.yul\":826:922   */\n  swap2\n  swap1\n  pop\n  jump\t// out\n    /* \"#utility.yul\":928:1042   */\ntag_21:\n    /* \"#utility.yul\":983:990   */\n  0x00\n    /* \"#utility.yul\":1012:1036   */\n  tag_40\n    /* \"#utility.yul\":1030:1035   */\n  dup3\n    /* \"#utility.yul\":1012:1036   */\n  tag_20\n  jump\t// in\ntag_40:\n    /* \"#utility.yul\":1001:1036   */\n  swap1\n  pop\n    /* \"#utility.yul\":928:1042   */\n  swap2\n  swap1\n  pop\n  jump\t// out\n    /* \"#utility.yul\":1048:1206   */\ntag_22:\n    /* \"#utility.yul\":1139:1181   */\n  tag_42\n    /* \"#utility.yul\":1175:1180   */\n  dup2\n    /* \"#utility.yul\":1139:1181   */\n  tag_21\n  jump\t// in\ntag_42:\n    /* \"#utility.yul\":1132:1137   */\n  dup2\n    /* \"#utility.yul\":1129:1182   */\n  eq\n    /* \"#utility.yul\":1119:1200   */\n  tag_43\n  jumpi\n    /* \"#utility.yul\":1196:1197   */\n  0x00\n    /* \"#utility.yul\":1193:1194   */\n  dup1\n    /* \"#utility.yul\":1186:1198   */\n  revert\n    /* \"#utility.yul\":1119:1200   */\ntag_43:\n    /* \"#utility.yul\":1048:1206   */\n  pop\n  jump\t// out\n    /* \"#utility.yul\":1212:1391   */\ntag_23:\n    /* \"#utility.yul\":1287:1292   */\n  0x00\n    /* \"#utility.yul\":1318:1324   */\n  dup2\n    /* \"#utility.yul\":1312:1325   */\n  mload\n    /* \"#utility.yul\":1303:1325   */\n  swap1\n  pop\n    /* \"#utility.yul\":1334:1385   */\n  tag_45\n    /* \"#utility.yul\":1379:1384   */\n  dup2\n    /* \"#utility.yul\":1334:1385   */\n  tag_22\n  jump\t// in\ntag_45:\n    /* \"#utility.yul\":1212:1391   */\n  swap3\n  swap2\n  pop\n  pop\n  jump\t// out\n    /* \"#utility.yul\":1397:2253   */\ntag_3:\n    /* \"#utility.yul\":1512:1518   */\n  0x00\n    /* \"#utility.yul\":1520:1526   */\n  dup1\n    /* \"#utility.yul\":1528:1534   */\n  0x00\n    /* \"#utility.yul\":1536:1542   */\n  dup1\n    /* \"#utility.yul\":1585:1588   */\n  0x80\n    /* \"#utility.yul\":1573:1582   */\n  dup6\n    /* \"#utility.yul\":1564:1571   */\n  dup8\n    /* \"#utility.yul\":1560:1583   */\n  sub\n    /* \"#utility.yul\":1556:1589   */\n  slt\n    /* \"#utility.yul\":1553:1673   */\n  iszero\n  tag_47\n  jumpi\n    /* \"#utility.yul\":1592:1671   */\n  tag_48\n  tag_14\n  jump\t// in\ntag_48:\n    /* \"#utility.yul\":1553:1673   */\ntag_47:\n    /* \"#utility.yul\":1712:1713   */\n  0x00\n    /* \"#utility.yul\":1737:1801   */\n  tag_49\n    /* \"#utility.yul\":1793:1800   */\n  dup8\n    /* \"#utility.yul\":1784:1790   */\n  dup3\n    /* \"#utility.yul\":1773:1782   */\n  dup9\n    /* \"#utility.yul\":1769:1791   */\n  add\n    /* \"#utility.yul\":1737:1801   */\n  tag_18\n  jump\t// in\ntag_49:\n    /* \"#utility.yul\":1727:1801   */\n  swap5\n  pop\n    /* \"#utility.yul\":1683:1811   */\n  pop\n    /* \"#utility.yul\":1850:1852   */\n  0x20\n    /* \"#utility.yul\":1876:1940   */\n  tag_50\n    /* \"#utility.yul\":1932:1939   */\n  dup8\n    /* \"#utility.yul\":1923:1929   */\n  dup3\n    /* \"#utility.yul\":1912:1921   */\n  dup9\n    /* \"#utility.yul\":1908:1930   */\n  add\n    /* \"#utility.yul\":1876:1940   */\n  tag_18\n  jump\t// in\ntag_50:\n    /* \"#utility.yul\":1866:1940   */\n  swap4\n  pop\n    /* \"#utility.yul\":1821:1950   */\n  pop\n    /* \"#utility.yul\":1989:1991   */\n  0x40\n    /* \"#utility.yul\":2015:2079   */\n  tag_51\n    /* \"#utility.yul\":2071:2078   */\n  dup8\n    /* \"#utility.yul\":2062:2068   */\n  dup3\n    /* \"#utility.yul\":2051:2060   */\n  dup9\n    /* \"#utility.yul\":2047:2069   */\n  add\n    /* \"#utility.yul\":2015:2079   */\n  tag_18\n  jump\t// in\ntag_51:\n    /* \"#utility.yul\":2005:2079   */\n  swap3\n  pop\n    /* \"#utility.yul\":1960:2089   */\n  pop\n    /* \"#utility.yul\":2128:2130   */\n  0x60\n    /* \"#utility.yul\":2154:2236   */\n  tag_52\n    /* \"#utility.yul\":2228:2235   */\n  dup8\n    /* \"#utility.yul\":2219:2225   */\n  dup3\n    /* \"#utility.yul\":2208:2217   */\n  dup9\n    /* \"#utility.yul\":2204:2226   */\n  add\n    /* \"#utility.yul\":2154:2236   */\n  tag_23\n  jump\t// in\ntag_52:\n    /* \"#utility.yul\":2144:2236   */\n  swap2\n  pop\n    /* \"#utility.yul\":2099:2246   */\n  pop\n    /* \"#utility.yul\":1397:2253   */\n  swap3\n  swap6\n  swap2\n  swap5\n  pop\n  swap3\n  pop\n  jump\t// out\n    /* \"#utility.yul\":2259:2439   */\ntag_24:\n    /* \"#utility.yul\":2307:2384   */\n  0x4e487b7100000000000000000000000000000000000000000000000000000000\n    /* \"#utility.yul\":2304:2305   */\n  0x00\n    /* \"#utility.yul\":2297:2385   */\n  mstore\n    /* \"#utility.yul\":2404:2408   */\n  0x11\n    /* \"#utility.yul\":2401:2402   */\n  0x04\n    /* \"#utility.yul\":2394:2409   */\n  mstore\n    /* \"#utility.yul\":2428:2432   */\n  0x24\n    /* \"#utility.yul\":2425:2426   */\n  0x00\n    /* \"#utility.yul\":2418:2433   */\n  revert\n    /* \"#utility.yul\":2445:2793   */\ntag_9:\n    /* \"#utility.yul\":2485:2492   */\n  0x00\n    /* \"#utility.yul\":2508:2528   */\n  tag_55\n    /* \"#utility.yul\":2526:2527   */\n  dup3\n    /* \"#utility.yul\":2508:2528   */\n  tag_16\n  jump\t// in\ntag_55:\n    /* \"#utility.yul\":2503:2528   */\n  swap2\n  pop\n    /* \"#utility.yul\":2542:2562   */\n  tag_56\n    /* \"#utility.yul\":2560:2561   */\n  dup4\n    /* \"#utility.yul\":2542:2562   */\n  tag_16\n  jump\t// in\ntag_56:\n    /* \"#utility.yul\":2537:2562   */\n  swap3\n  pop\n    /* \"#utility.yul\":2730:2731   */\n  dup2\n    /* \"#utility.yul\":2662:2728   */\n  0xffffffffffffffffffffffffffffffffffffffffffffffffffffffffffffffff\n    /* \"#utility.yul\":2658:2732   */\n  div\n    /* \"#utility.yul\":2655:2656   */\n  dup4\n    /* \"#utility.yul\":2652:2733   */\n  gt\n    /* \"#utility.yul\":2647:2648   */\n  dup3\n    /* \"#utility.yul\":2640:2649   */\n  iszero\n    /* \"#utility.yul\":2633:2650   */\n  iszero\n    /* \"#utility.yul\":2629:2734   */\n  and\n    /* \"#utility.yul\":2626:2757   */\n  iszero\n  tag_57\n  jumpi\n    /* \"#utility.yul\":2737:2755   */\n  tag_58\n  tag_24\n  jump\t// in\ntag_58:\n    /* \"#utility.yul\":2626:2757   */\ntag_57:\n    /* \"#utility.yul\":2785:2786   */\n  dup3\n    /* \"#utility.yul\":2782:2783   */\n  dup3\n    /* \"#utility.yul\":2778:2787   */\n  mul\n    /* \"#utility.yul\":2767:2787   */\n  swap1\n  pop\n    /* \"#utility.yul\":2445:2793   */\n  swap3\n  swap2\n  pop\n  pop\n  jump\t// out\n    /* \"#utility.yul\":2799:2979   */\ntag_25:\n    /* \"#utility.yul\":2847:2924   */\n  0x4e487b7100000000000000000000000000000000000000000000000000000000\n    /* \"#utility.yul\":2844:2845   */\n  0x00\n    /* \"#utility.yul\":2837:2925   */\n  mstore\n    /* \"#utility.yul\":2944:2948   */\n  0x12\n    /* \"#utility.yul\":2941:2942   */\n  0x04\n    /* \"#utility.yul\":2934:2949   */\n  mstore\n    /* \"#utility.yul\":2968:2972   */\n  0x24\n    /* \"#utility.yul\":2965:2966   */\n  0x00\n    /* \"#utility.yul\":2958:2973   */\n  revert\n    /* \"#utility.yul\":2985:3170   */\ntag_11:\n    /* \"#utility.yul\":3025:3026   */\n  0x00\n    /* \"#utility.yul\":3042:3062   */\n  tag_61\n    /* \"#utility.yul\":3060:3061   */\n  dup3\n    /* \"#utility.yul\":3042:3062   */\n  tag_16\n  jump\t// in\ntag_61:\n    /* \"#utility.yul\":3037:3062   */\n  swap2\n  pop\n    /* \"#utility.yul\":3076:3096   */\n  tag_62\n    /* \"#utility.yul\":3094:3095   */\n  dup4\n    /* \"#utility.yul\":3076:3096   */\n  tag_16\n  jump\t// in\ntag_62:\n    /* \"#utility.yul\":3071:3096   */\n  swap3\n  pop\n    /* \"#utility.yul\":3115:3116   */\n  dup3\n    /* \"#utility.yul\":3105:3140   */\n  tag_63\n  jumpi\n    /* \"#utility.yul\":3120:3138   */\n  tag_64\n  tag_25\n  jump\t// in\ntag_64:\n    /* \"#utility.yul\":3105:3140   */\ntag_63:\n    /* \"#utility.yul\":3162:3163   */\n  dup3\n    /* \"#utility.yul\":3159:3160   */\n  dup3\n    /* \"#utility.yul\":3155:3164   */\n  div\n    /* \"#utility.yul\":3150:3164   */\n  swap1\n  pop\n    /* \"#utility.yul\":2985:3170   */\n  swap3\n  swap2\n  pop\n  pop\n  jump\t// out\n    /* \"contracts/OreOreCoinFull.sol\":6608:13967  contract Crowdsale is Owned {... */\ntag_12:\n  dataSize(sub_0)\n  dup1\n  dataOffset(sub_0)\n  0x00\n  codecopy\n  0x00\n  return\nstop\n\nsub_0: assembly {\n        /* \"contracts/OreOreCoinFull.sol\":6608:13967  contract Crowdsale is Owned {... */\n      mstore(0x40, 0x80)\n      jumpi(tag_1, lt(calldatasize, 0x04))\n      shr(0xe0, calldataload(0x00))\n      dup1\n      0x78e97925\n      gt\n      tag_21\n      jumpi\n      dup1\n      0xa035b1fe\n      gt\n      tag_22\n      jumpi\n      dup1\n      0xa035b1fe\n      eq\n      tag_16\n      jumpi\n      dup1\n      0xd424f628\n      eq\n      tag_17\n      jumpi\n      dup1\n      0xd4e93292\n      eq\n      tag_18\n      jumpi\n      dup1\n      0xd8c02754\n      eq\n      tag_19\n      jumpi\n      dup1\n      0xf2fde38b\n      eq\n      tag_20\n      jumpi\n      jump(tag_2)\n    tag_22:\n      dup1\n      0x78e97925\n      eq\n      tag_12\n      jumpi\n      dup1\n      0x7a3a0e84\n      eq\n      tag_13\n      jumpi\n      dup1\n      0x8da5cb5b\n      eq\n      tag_14\n      jumpi\n      dup1\n      0x95805dad\n      eq\n      tag_15\n      jumpi\n      jump(tag_2)\n    tag_21:\n      dup1\n      0x5334c231\n      gt\n      tag_23\n      jumpi\n      dup1\n      0x5334c231\n      eq\n      tag_7\n      jumpi\n      dup1\n      0x5627df88\n      eq\n      tag_8\n      jumpi\n      dup1\n      0x6769d1f9\n      eq\n      tag_9\n      jumpi\n      dup1\n      0x692aa97e\n      eq\n      tag_10\n      jumpi\n      dup1\n      0x6e66f6e9\n      eq\n      tag_11\n      jumpi\n      jump(tag_2)\n    tag_23:\n      dup1\n      0x01cb3b20\n      eq\n      tag_3\n      jumpi\n      dup1\n      0x163f9b4f\n      eq\n      tag_4\n      jumpi\n      dup1\n      0x21365597\n      eq\n      tag_5\n      jumpi\n      dup1\n      0x29dcb0cf\n      eq\n      tag_6\n      jumpi\n      jump(tag_2)\n    tag_1:\n      jumpi(tag_2, calldatasize)\n        /* \"contracts/OreOreCoinFull.sol\":8697:8705  isOpened */\n      0x07\n      0x15\n      swap1\n      sload\n      swap1\n      0x0100\n      exp\n      swap1\n      div\n      0xff\n      and\n        /* \"contracts/OreOreCoinFull.sol\":8697:8735  isOpened && block.timestamp < deadline */\n      dup1\n      iszero\n      tag_26\n      jumpi\n      pop\n        /* \"contracts/OreOreCoinFull.sol\":8727:8735  deadline */\n      sload(0x02)\n        /* \"contracts/OreOreCoinFull.sol\":8709:8724  block.timestamp */\n      timestamp\n        /* \"contracts/OreOreCoinFull.sol\":8709:8735  block.timestamp < deadline */\n      lt\n        /* \"contracts/OreOreCoinFull.sol\":8697:8735  isOpened && block.timestamp < deadline */\n    tag_26:\n        /* \"contracts/OreOreCoinFull.sol\":8688:8758  require (isOpened && block.timestamp < deadline, \"receive function 1\") */\n      tag_27\n      jumpi\n      mload(0x40)\n      0x08c379a000000000000000000000000000000000000000000000000000000000\n      dup2\n      mstore\n      0x04\n      add\n      tag_28\n      swap1\n      tag_29\n      jump\t// in\n    tag_28:\n      mload(0x40)\n      dup1\n      swap2\n      sub\n      swap1\n      revert\n    tag_27:\n        /* \"contracts/OreOreCoinFull.sol\":8821:8832  uint amount */\n      0x00\n        /* \"contracts/OreOreCoinFull.sol\":8835:8844  msg.value */\n      callvalue\n        /* \"contracts/OreOreCoinFull.sol\":8821:8844  uint amount = msg.value */\n      swap1\n      pop\n        /* \"contracts/OreOreCoinFull.sol\":8855:8865  uint token */\n      0x00\n        /* \"contracts/OreOreCoinFull.sol\":8913:8916  100 */\n      0x64\n        /* \"contracts/OreOreCoinFull.sol\":8892:8909  currentSwapRate() */\n      tag_30\n        /* \"contracts/OreOreCoinFull.sol\":8892:8907  currentSwapRate */\n      tag_31\n        /* \"contracts/OreOreCoinFull.sol\":8892:8909  currentSwapRate() */\n      jump\t// in\n    tag_30:\n        /* \"contracts/OreOreCoinFull.sol\":8886:8889  100 */\n      0x64\n        /* \"contracts/OreOreCoinFull.sol\":8886:8909  100 + currentSwapRate() */\n      tag_32\n      swap2\n      swap1\n      tag_33\n      jump\t// in\n    tag_32:\n        /* \"contracts/OreOreCoinFull.sol\":8877:8882  price */\n      sload(0x03)\n        /* \"contracts/OreOreCoinFull.sol\":8868:8874  amount */\n      dup5\n        /* \"contracts/OreOreCoinFull.sol\":8868:8882  amount / price */\n      tag_34\n      swap2\n      swap1\n      tag_35\n      jump\t// in\n    tag_34:\n        /* \"contracts/OreOreCoinFull.sol\":8868:8910  amount / price * (100 + currentSwapRate()) */\n      tag_36\n      swap2\n      swap1\n      tag_37\n      jump\t// in\n    tag_36:\n        /* \"contracts/OreOreCoinFull.sol\":8868:8916  amount / price * (100 + currentSwapRate()) / 100 */\n      tag_38\n      swap2\n      swap1\n      tag_35\n      jump\t// in\n    tag_38:\n        /* \"contracts/OreOreCoinFull.sol\":8855:8916  uint token = amount / price * (100 + currentSwapRate()) / 100 */\n      swap1\n      pop\n        /* \"contracts/OreOreCoinFull.sol\":9040:9041  0 */\n      0x00\n        /* \"contracts/OreOreCoinFull.sol\":9031:9036  token */\n      dup2\n        /* \"contracts/OreOreCoinFull.sol\":9031:9041  token != 0 */\n      eq\n      iszero\n        /* \"contracts/OreOreCoinFull.sol\":9031:9082  token != 0 && soldToken + token < transferableToken */\n      dup1\n      iszero\n      tag_39\n      jumpi\n      pop\n        /* \"contracts/OreOreCoinFull.sol\":9065:9082  transferableToken */\n      sload(0x04)\n        /* \"contracts/OreOreCoinFull.sol\":9057:9062  token */\n      dup2\n        /* \"contracts/OreOreCoinFull.sol\":9045:9054  soldToken */\n      sload(0x05)\n        /* \"contracts/OreOreCoinFull.sol\":9045:9062  soldToken + token */\n      tag_40\n      swap2\n      swap1\n      tag_33\n      jump\t// in\n    tag_40:\n        /* \"contracts/OreOreCoinFull.sol\":9045:9082  soldToken + token < transferableToken */\n      lt\n        /* \"contracts/OreOreCoinFull.sol\":9031:9082  token != 0 && soldToken + token < transferableToken */\n    tag_39:\n        /* \"contracts/OreOreCoinFull.sol\":9022:9105  require (token != 0 && soldToken + token < transferableToken, \"receive function 2\") */\n      tag_41\n      jumpi\n      mload(0x40)\n      0x08c379a000000000000000000000000000000000000000000000000000000000\n      dup2\n      mstore\n      0x04\n      add\n      tag_42\n      swap1\n      tag_43\n      jump\t// in\n    tag_42:\n      mload(0x40)\n      dup1\n      swap2\n      sub\n      swap1\n      revert\n    tag_41:\n        /* \"contracts/OreOreCoinFull.sol\":9213:9219  amount */\n      dup2\n        /* \"contracts/OreOreCoinFull.sol\":9169:9184  fundersProperty */\n      0x08\n        /* \"contracts/OreOreCoinFull.sol\":9169:9196  fundersProperty[msg.sender] */\n      0x00\n        /* \"contracts/OreOreCoinFull.sol\":9185:9195  msg.sender */\n      caller\n        /* \"contracts/OreOreCoinFull.sol\":9169:9196  fundersProperty[msg.sender] */\n      0xffffffffffffffffffffffffffffffffffffffff\n      and\n      0xffffffffffffffffffffffffffffffffffffffff\n      and\n      dup2\n      mstore\n      0x20\n      add\n      swap1\n      dup2\n      mstore\n      0x20\n      add\n      0x00\n      keccak256\n        /* \"contracts/OreOreCoinFull.sol\":9169:9209  fundersProperty[msg.sender].paymentEther */\n      0x00\n      add\n      0x00\n        /* \"contracts/OreOreCoinFull.sol\":9169:9219  fundersProperty[msg.sender].paymentEther += amount */\n      dup3\n      dup3\n      sload\n      tag_44\n      swap2\n      swap1\n      tag_33\n      jump\t// in\n    tag_44:\n      swap3\n      pop\n      pop\n      dup2\n      swap1\n      sstore\n      pop\n        /* \"contracts/OreOreCoinFull.sol\":9275:9280  token */\n      dup1\n        /* \"contracts/OreOreCoinFull.sol\":9230:9245  fundersProperty */\n      0x08\n        /* \"contracts/OreOreCoinFull.sol\":9230:9257  fundersProperty[msg.sender] */\n      0x00\n        /* \"contracts/OreOreCoinFull.sol\":9246:9256  msg.sender */\n      caller\n        /* \"contracts/OreOreCoinFull.sol\":9230:9257  fundersProperty[msg.sender] */\n      0xffffffffffffffffffffffffffffffffffffffff\n      and\n      0xffffffffffffffffffffffffffffffffffffffff\n      and\n      dup2\n      mstore\n      0x20\n      add\n      swap1\n      dup2\n      mstore\n      0x20\n      add\n      0x00\n      keccak256\n        /* \"contracts/OreOreCoinFull.sol\":9230:9271  fundersProperty[msg.sender].reservedToken */\n      0x01\n      add\n      0x00\n        /* \"contracts/OreOreCoinFull.sol\":9230:9280  fundersProperty[msg.sender].reservedToken += token */\n      dup3\n      dup3\n      sload\n      tag_45\n      swap2\n      swap1\n      tag_33\n      jump\t// in\n    tag_45:\n      swap3\n      pop\n      pop\n      dup2\n      swap1\n      sstore\n      pop\n        /* \"contracts/OreOreCoinFull.sol\":9304:9309  token */\n      dup1\n        /* \"contracts/OreOreCoinFull.sol\":9291:9300  soldToken */\n      0x05\n      0x00\n        /* \"contracts/OreOreCoinFull.sol\":9291:9309  soldToken += token */\n      dup3\n      dup3\n      sload\n      tag_46\n      swap2\n      swap1\n      tag_33\n      jump\t// in\n    tag_46:\n      swap3\n      pop\n      pop\n      dup2\n      swap1\n      sstore\n      pop\n        /* \"contracts/OreOreCoinFull.sol\":9325:9365  ReservedToken(msg.sender, amount, token) */\n      0xead0fad6e7b11ddfb488609871d5558d4fc839131da518a4105c68466683e469\n        /* \"contracts/OreOreCoinFull.sol\":9339:9349  msg.sender */\n      caller\n        /* \"contracts/OreOreCoinFull.sol\":9351:9357  amount */\n      dup4\n        /* \"contracts/OreOreCoinFull.sol\":9359:9364  token */\n      dup4\n        /* \"contracts/OreOreCoinFull.sol\":9325:9365  ReservedToken(msg.sender, amount, token) */\n      mload(0x40)\n      tag_47\n      swap4\n      swap3\n      swap2\n      swap1\n      tag_48\n      jump\t// in\n    tag_47:\n      mload(0x40)\n      dup1\n      swap2\n      sub\n      swap1\n      log1\n        /* \"contracts/OreOreCoinFull.sol\":8608:9373  {... */\n      pop\n      pop\n        /* \"contracts/OreOreCoinFull.sol\":6608:13967  contract Crowdsale is Owned {... */\n      stop\n    tag_2:\n      0x00\n      dup1\n      revert\n        /* \"contracts/OreOreCoinFull.sol\":11153:11555  function checkGoalReached() public afterDeadline {... */\n    tag_3:\n      callvalue\n      dup1\n      iszero\n      tag_49\n      jumpi\n      0x00\n      dup1\n      revert\n    tag_49:\n      pop\n      tag_50\n      tag_51\n      jump\t// in\n    tag_50:\n      stop\n        /* \"contracts/OreOreCoinFull.sol\":11640:12594  function withdrawalOwner() public onlyOwner {... */\n    tag_4:\n      callvalue\n      dup1\n      iszero\n      tag_52\n      jumpi\n      0x00\n      dup1\n      revert\n    tag_52:\n      pop\n      tag_53\n      tag_54\n      jump\t// in\n    tag_53:\n      stop\n        /* \"contracts/OreOreCoinFull.sol\":6810:6842  uint256 public transferableToken */\n    tag_5:\n      callvalue\n      dup1\n      iszero\n      tag_55\n      jumpi\n      0x00\n      dup1\n      revert\n    tag_55:\n      pop\n      tag_56\n      tag_57\n      jump\t// in\n    tag_56:\n      mload(0x40)\n      tag_58\n      swap2\n      swap1\n      tag_59\n      jump\t// in\n    tag_58:\n      mload(0x40)\n      dup1\n      swap2\n      sub\n      swap1\n      return\n        /* \"contracts/OreOreCoinFull.sol\":6719:6742  uint256 public deadline */\n    tag_6:\n      callvalue\n      dup1\n      iszero\n      tag_60\n      jumpi\n      0x00\n      dup1\n      revert\n    tag_60:\n      pop\n      tag_61\n      tag_62\n      jump\t// in\n    tag_61:\n      mload(0x40)\n      tag_63\n      swap2\n      swap1\n      tag_59\n      jump\t// in\n    tag_63:\n      mload(0x40)\n      dup1\n      swap2\n      sub\n      swap1\n      return\n        /* \"contracts/OreOreCoinFull.sol\":10130:10499  function currentSwapRate() public view returns(uint) {... */\n    tag_7:\n      callvalue\n      dup1\n      iszero\n      tag_64\n      jumpi\n      0x00\n      dup1\n      revert\n    tag_64:\n      pop\n      tag_65\n      tag_31\n      jump\t// in\n    tag_65:\n      mload(0x40)\n      tag_66\n      swap2\n      swap1\n      tag_59\n      jump\t// in\n    tag_66:\n      mload(0x40)\n      dup1\n      swap2\n      sub\n      swap1\n      return\n        /* \"contracts/OreOreCoinFull.sol\":7169:7221  mapping (address => Property) public fundersProperty */\n    tag_8:\n      callvalue\n      dup1\n      iszero\n      tag_67\n      jumpi\n      0x00\n      dup1\n      revert\n    tag_67:\n      pop\n      tag_68\n      0x04\n      dup1\n      calldatasize\n      sub\n      dup2\n      add\n      swap1\n      tag_69\n      swap2\n      swap1\n      tag_70\n      jump\t// in\n    tag_69:\n      tag_71\n      jump\t// in\n    tag_68:\n      mload(0x40)\n      tag_72\n      swap4\n      swap3\n      swap2\n      swap1\n      tag_73\n      jump\t// in\n    tag_72:\n      mload(0x40)\n      dup1\n      swap2\n      sub\n      swap1\n      return\n        /* \"contracts/OreOreCoinFull.sol\":6873:6897  uint256 public soldToken */\n    tag_9:\n      callvalue\n      dup1\n      iszero\n      tag_74\n      jumpi\n      0x00\n      dup1\n      revert\n    tag_74:\n      pop\n      tag_75\n      tag_76\n      jump\t// in\n    tag_75:\n      mload(0x40)\n      tag_77\n      swap2\n      swap1\n      tag_59\n      jump\t// in\n    tag_77:\n      mload(0x40)\n      dup1\n      swap2\n      sub\n      swap1\n      return\n        /* \"contracts/OreOreCoinFull.sol\":7102:7122  bool public isOpened */\n    tag_10:\n      callvalue\n      dup1\n      iszero\n      tag_78\n      jumpi\n      0x00\n      dup1\n      revert\n    tag_78:\n      pop\n      tag_79\n      tag_80\n      jump\t// in\n    tag_79:\n      mload(0x40)\n      tag_81\n      swap2\n      swap1\n      tag_82\n      jump\t// in\n    tag_81:\n      mload(0x40)\n      dup1\n      swap2\n      sub\n      swap1\n      return\n        /* \"contracts/OreOreCoinFull.sol\":6972:7001  OreOreCoin public tokenReward */\n    tag_11:\n      callvalue\n      dup1\n      iszero\n      tag_83\n      jumpi\n      0x00\n      dup1\n      revert\n    tag_83:\n      pop\n      tag_84\n      tag_85\n      jump\t// in\n    tag_84:\n      mload(0x40)\n      tag_86\n      swap2\n      swap1\n      tag_87\n      jump\t// in\n    tag_86:\n      mload(0x40)\n      dup1\n      swap2\n      sub\n      swap1\n      return\n        /* \"contracts/OreOreCoinFull.sol\":6924:6948  uint256 public startTime */\n    tag_12:\n      callvalue\n      dup1\n      iszero\n      tag_88\n      jumpi\n      0x00\n      dup1\n      revert\n    tag_88:\n      pop\n      tag_89\n      tag_90\n      jump\t// in\n    tag_89:\n      mload(0x40)\n      tag_91\n      swap2\n      swap1\n      tag_59\n      jump\t// in\n    tag_91:\n      mload(0x40)\n      dup1\n      swap2\n      sub\n      swap1\n      return\n        /* \"contracts/OreOreCoinFull.sol\":6669:6695  uint256 public fundingGoal */\n    tag_13:\n      callvalue\n      dup1\n      iszero\n      tag_92\n      jumpi\n      0x00\n      dup1\n      revert\n    tag_92:\n      pop\n      tag_93\n      tag_94\n      jump\t// in\n    tag_93:\n      mload(0x40)\n      tag_95\n      swap2\n      swap1\n      tag_59\n      jump\t// in\n    tag_95:\n      mload(0x40)\n      dup1\n      swap2\n      sub\n      swap1\n      return\n        /* \"contracts/OreOreCoinFull.sol\":138:158  address public owner */\n    tag_14:\n      callvalue\n      dup1\n      iszero\n      tag_96\n      jumpi\n      0x00\n      dup1\n      revert\n    tag_96:\n      pop\n      tag_97\n      tag_98\n      jump\t// in\n    tag_97:\n      mload(0x40)\n      tag_99\n      swap2\n      swap1\n      tag_100\n      jump\t// in\n    tag_99:\n      mload(0x40)\n      dup1\n      swap2\n      sub\n      swap1\n      return\n        /* \"contracts/OreOreCoinFull.sol\":9450:10023  function start(uint _durationInMinutes) public onlyOwner {... */\n    tag_15:\n      callvalue\n      dup1\n      iszero\n      tag_101\n      jumpi\n      0x00\n      dup1\n      revert\n    tag_101:\n      pop\n      tag_102\n      0x04\n      dup1\n      calldatasize\n      sub\n      dup2\n      add\n      swap1\n      tag_103\n      swap2\n      swap1\n      tag_104\n      jump\t// in\n    tag_103:\n      tag_105\n      jump\t// in\n    tag_102:\n      stop\n        /* \"contracts/OreOreCoinFull.sol\":6759:6779  uint256 public price */\n    tag_16:\n      callvalue\n      dup1\n      iszero\n      tag_106\n      jumpi\n      0x00\n      dup1\n      revert\n    tag_106:\n      pop\n      tag_107\n      tag_108\n      jump\t// in\n    tag_107:\n      mload(0x40)\n      tag_109\n      swap2\n      swap1\n      tag_59\n      jump\t// in\n    tag_109:\n      mload(0x40)\n      dup1\n      swap2\n      sub\n      swap1\n      return\n        /* \"contracts/OreOreCoinFull.sol\":7038:7068  bool public fundingGoalReached */\n    tag_17:\n      callvalue\n      dup1\n      iszero\n      tag_110\n      jumpi\n      0x00\n      dup1\n      revert\n    tag_110:\n      pop\n      tag_111\n      tag_112\n      jump\t// in\n    tag_111:\n      mload(0x40)\n      tag_113\n      swap2\n      swap1\n      tag_82\n      jump\t// in\n    tag_113:\n      mload(0x40)\n      dup1\n      swap2\n      sub\n      swap1\n      return\n        /* \"contracts/OreOreCoinFull.sol\":12686:13964  function withdrawal() public {... */\n    tag_18:\n      callvalue\n      dup1\n      iszero\n      tag_114\n      jumpi\n      0x00\n      dup1\n      revert\n    tag_114:\n      pop\n      tag_115\n      tag_116\n      jump\t// in\n    tag_115:\n      stop\n        /* \"contracts/OreOreCoinFull.sol\":10610:11084  function getRemainingTimeEthToken() public view returns(uint min, uint shortage, uint remainToken) {... */\n    tag_19:\n      callvalue\n      dup1\n      iszero\n      tag_117\n      jumpi\n      0x00\n      dup1\n      revert\n    tag_117:\n      pop\n      tag_118\n      tag_119\n      jump\t// in\n    tag_118:\n      mload(0x40)\n      tag_120\n      swap4\n      swap3\n      swap2\n      swap1\n      tag_121\n      jump\t// in\n    tag_120:\n      mload(0x40)\n      dup1\n      swap2\n      sub\n      swap1\n      return\n        /* \"contracts/OreOreCoinFull.sol\":615:787  function transferOwnership(address _new) public onlyOwner {... */\n    tag_20:\n      callvalue\n      dup1\n      iszero\n      tag_122\n      jumpi\n      0x00\n      dup1\n      revert\n    tag_122:\n      pop\n      tag_123\n      0x04\n      dup1\n      calldatasize\n      sub\n      dup2\n      add\n      swap1\n      tag_124\n      swap2\n      swap1\n      tag_70\n      jump\t// in\n    tag_124:\n      tag_125\n      jump\t// in\n    tag_123:\n      stop\n        /* \"contracts/OreOreCoinFull.sol\":10130:10499  function currentSwapRate() public view returns(uint) {... */\n    tag_31:\n        /* \"contracts/OreOreCoinFull.sol\":10177:10181  uint */\n      0x00\n        /* \"contracts/OreOreCoinFull.sol\":10222:10237  block.timestamp */\n      timestamp\n        /* \"contracts/OreOreCoinFull.sol\":10210:10219  3 minutes */\n      0xb4\n        /* \"contracts/OreOreCoinFull.sol\":10198:10207  startTime */\n      sload(0x06)\n        /* \"contracts/OreOreCoinFull.sol\":10198:10219  startTime + 3 minutes */\n      tag_127\n      swap2\n      swap1\n      tag_33\n      jump\t// in\n    tag_127:\n        /* \"contracts/OreOreCoinFull.sol\":10198:10237  startTime + 3 minutes > block.timestamp */\n      gt\n        /* \"contracts/OreOreCoinFull.sol\":10194:10492  if (startTime + 3 minutes > block.timestamp) {... */\n      iszero\n      tag_128\n      jumpi\n        /* \"contracts/OreOreCoinFull.sol\":10261:10264  100 */\n      0x64\n        /* \"contracts/OreOreCoinFull.sol\":10254:10264  return 100 */\n      swap1\n      pop\n      jump(tag_126)\n        /* \"contracts/OreOreCoinFull.sol\":10194:10492  if (startTime + 3 minutes > block.timestamp) {... */\n    tag_128:\n        /* \"contracts/OreOreCoinFull.sol\":10310:10325  block.timestamp */\n      timestamp\n        /* \"contracts/OreOreCoinFull.sol\":10298:10307  5 minutes */\n      0x012c\n        /* \"contracts/OreOreCoinFull.sol\":10286:10295  startTime */\n      sload(0x06)\n        /* \"contracts/OreOreCoinFull.sol\":10286:10307  startTime + 5 minutes */\n      tag_130\n      swap2\n      swap1\n      tag_33\n      jump\t// in\n    tag_130:\n        /* \"contracts/OreOreCoinFull.sol\":10286:10325  startTime + 5 minutes > block.timestamp */\n      gt\n        /* \"contracts/OreOreCoinFull.sol\":10282:10492  if (startTime + 5 minutes > block.timestamp) {... */\n      iszero\n      tag_131\n      jumpi\n        /* \"contracts/OreOreCoinFull.sol\":10349:10351  50 */\n      0x32\n        /* \"contracts/OreOreCoinFull.sol\":10342:10351  return 50 */\n      swap1\n      pop\n      jump(tag_126)\n        /* \"contracts/OreOreCoinFull.sol\":10282:10492  if (startTime + 5 minutes > block.timestamp) {... */\n    tag_131:\n        /* \"contracts/OreOreCoinFull.sol\":10398:10413  block.timestamp */\n      timestamp\n        /* \"contracts/OreOreCoinFull.sol\":10385:10395  10 minutes */\n      0x0258\n        /* \"contracts/OreOreCoinFull.sol\":10373:10382  startTime */\n      sload(0x06)\n        /* \"contracts/OreOreCoinFull.sol\":10373:10395  startTime + 10 minutes */\n      tag_133\n      swap2\n      swap1\n      tag_33\n      jump\t// in\n    tag_133:\n        /* \"contracts/OreOreCoinFull.sol\":10373:10413  startTime + 10 minutes > block.timestamp */\n      gt\n        /* \"contracts/OreOreCoinFull.sol\":10369:10492  if (startTime + 10 minutes > block.timestamp) {... */\n      iszero\n      tag_134\n      jumpi\n        /* \"contracts/OreOreCoinFull.sol\":10437:10439  20 */\n      0x14\n        /* \"contracts/OreOreCoinFull.sol\":10430:10439  return 20 */\n      swap1\n      pop\n      jump(tag_126)\n        /* \"contracts/OreOreCoinFull.sol\":10369:10492  if (startTime + 10 minutes > block.timestamp) {... */\n    tag_134:\n        /* \"contracts/OreOreCoinFull.sol\":10479:10480  0 */\n      0x00\n        /* \"contracts/OreOreCoinFull.sol\":10472:10480  return 0 */\n      swap1\n      pop\n        /* \"contracts/OreOreCoinFull.sol\":10130:10499  function currentSwapRate() public view returns(uint) {... */\n    tag_126:\n      swap1\n      jump\t// out\n        /* \"contracts/OreOreCoinFull.sol\":11153:11555  function checkGoalReached() public afterDeadline {... */\n    tag_51:\n        /* \"contracts/OreOreCoinFull.sol\":8026:8034  deadline */\n      sload(0x02)\n        /* \"contracts/OreOreCoinFull.sol\":8007:8022  block.timestamp */\n      timestamp\n        /* \"contracts/OreOreCoinFull.sol\":8007:8034  block.timestamp >= deadline */\n      lt\n      iszero\n        /* \"contracts/OreOreCoinFull.sol\":7998:8052  require (block.timestamp >= deadline, \"afterDeadline\") */\n      tag_137\n      jumpi\n      mload(0x40)\n      0x08c379a000000000000000000000000000000000000000000000000000000000\n      dup2\n      mstore\n      0x04\n      add\n      tag_138\n      swap1\n      tag_139\n      jump\t// in\n    tag_138:\n      mload(0x40)\n      dup1\n      swap2\n      sub\n      swap1\n      revert\n    tag_137:\n        /* \"contracts/OreOreCoinFull.sol\":11217:11225  isOpened */\n      0x07\n      0x15\n      swap1\n      sload\n      swap1\n      0x0100\n      exp\n      swap1\n      div\n      0xff\n      and\n        /* \"contracts/OreOreCoinFull.sol\":11213:11548  if (isOpened) {... */\n      iszero\n      tag_141\n      jumpi\n        /* \"contracts/OreOreCoinFull.sol\":11323:11334  fundingGoal */\n      sload(0x01)\n        /* \"contracts/OreOreCoinFull.sol\":11298:11319  address(this).balance */\n      selfbalance\n        /* \"contracts/OreOreCoinFull.sol\":11298:11334  address(this).balance >= fundingGoal */\n      lt\n        /* \"contracts/OreOreCoinFull.sol\":11294:11396  if (address(this).balance >= fundingGoal) {... */\n      tag_142\n      jumpi\n        /* \"contracts/OreOreCoinFull.sol\":11376:11380  true */\n      0x01\n        /* \"contracts/OreOreCoinFull.sol\":11355:11373  fundingGoalReached */\n      0x07\n      0x14\n        /* \"contracts/OreOreCoinFull.sol\":11355:11380  fundingGoalReached = true */\n      0x0100\n      exp\n      dup2\n      sload\n      dup2\n      0xff\n      mul\n      not\n      and\n      swap1\n      dup4\n      iszero\n      iszero\n      mul\n      or\n      swap1\n      sstore\n      pop\n        /* \"contracts/OreOreCoinFull.sol\":11294:11396  if (address(this).balance >= fundingGoal) {... */\n    tag_142:\n        /* \"contracts/OreOreCoinFull.sol\":11421:11426  false */\n      0x00\n        /* \"contracts/OreOreCoinFull.sol\":11410:11418  isOpened */\n      0x07\n      0x15\n        /* \"contracts/OreOreCoinFull.sol\":11410:11426  isOpened = false */\n      0x0100\n      exp\n      dup2\n      sload\n      dup2\n      0xff\n      mul\n      not\n      and\n      swap1\n      dup4\n      iszero\n      iszero\n      mul\n      or\n      swap1\n      sstore\n      pop\n        /* \"contracts/OreOreCoinFull.sol\":11446:11536  CheckGoalReached(owner, fundingGoal, address(this).balance, fundingGoalReached, soldToken) */\n      0xc783731abb215641b374658a7052db331ac5fad7a50db3b621017b721a40ac82\n        /* \"contracts/OreOreCoinFull.sol\":11463:11468  owner */\n      0x00\n      dup1\n      sload\n      swap1\n      0x0100\n      exp\n      swap1\n      div\n      0xffffffffffffffffffffffffffffffffffffffff\n      and\n        /* \"contracts/OreOreCoinFull.sol\":11470:11481  fundingGoal */\n      sload(0x01)\n        /* \"contracts/OreOreCoinFull.sol\":11483:11504  address(this).balance */\n      selfbalance\n        /* \"contracts/OreOreCoinFull.sol\":11506:11524  fundingGoalReached */\n      0x07\n      0x14\n      swap1\n      sload\n      swap1\n      0x0100\n      exp\n      swap1\n      div\n      0xff\n      and\n        /* \"contracts/OreOreCoinFull.sol\":11526:11535  soldToken */\n      sload(0x05)\n        /* \"contracts/OreOreCoinFull.sol\":11446:11536  CheckGoalReached(owner, fundingGoal, address(this).balance, fundingGoalReached, soldToken) */\n      mload(0x40)\n      tag_143\n      swap6\n      swap5\n      swap4\n      swap3\n      swap2\n      swap1\n      tag_144\n      jump\t// in\n    tag_143:\n      mload(0x40)\n      dup1\n      swap2\n      sub\n      swap1\n      log1\n        /* \"contracts/OreOreCoinFull.sol\":11213:11548  if (isOpened) {... */\n    tag_141:\n        /* \"contracts/OreOreCoinFull.sol\":11153:11555  function checkGoalReached() public afterDeadline {... */\n      jump\t// out\n        /* \"contracts/OreOreCoinFull.sol\":11640:12594  function withdrawalOwner() public onlyOwner {... */\n    tag_54:\n        /* \"contracts/OreOreCoinFull.sol\":395:400  owner */\n      0x00\n      dup1\n      sload\n      swap1\n      0x0100\n      exp\n      swap1\n      div\n      0xffffffffffffffffffffffffffffffffffffffff\n      and\n        /* \"contracts/OreOreCoinFull.sol\":381:400  msg.sender == owner */\n      0xffffffffffffffffffffffffffffffffffffffff\n      and\n        /* \"contracts/OreOreCoinFull.sol\":381:391  msg.sender */\n      caller\n        /* \"contracts/OreOreCoinFull.sol\":381:400  msg.sender == owner */\n      0xffffffffffffffffffffffffffffffffffffffff\n      and\n      eq\n        /* \"contracts/OreOreCoinFull.sol\":372:414  require (msg.sender == owner, \"onlyOwner\") */\n      tag_146\n      jumpi\n      mload(0x40)\n      0x08c379a000000000000000000000000000000000000000000000000000000000\n      dup2\n      mstore\n      0x04\n      add\n      tag_147\n      swap1\n      tag_148\n      jump\t// in\n    tag_147:\n      mload(0x40)\n      dup1\n      swap2\n      sub\n      swap1\n      revert\n    tag_146:\n        /* \"contracts/OreOreCoinFull.sol\":11705:11713  isOpened */\n      0x07\n      0x15\n      swap1\n      sload\n      swap1\n      0x0100\n      exp\n      swap1\n      div\n      0xff\n      and\n        /* \"contracts/OreOreCoinFull.sol\":11704:11713  !isOpened */\n      iszero\n        /* \"contracts/OreOreCoinFull.sol\":11695:11733  require (!isOpened, \"withdrawalOwner\") */\n      tag_150\n      jumpi\n      mload(0x40)\n      0x08c379a000000000000000000000000000000000000000000000000000000000\n      dup2\n      mstore\n      0x04\n      add\n      tag_151\n      swap1\n      tag_152\n      jump\t// in\n    tag_151:\n      mload(0x40)\n      dup1\n      swap2\n      sub\n      swap1\n      revert\n    tag_150:\n        /* \"contracts/OreOreCoinFull.sol\":11823:11841  fundingGoalReached */\n      0x07\n      0x14\n      swap1\n      sload\n      swap1\n      0x0100\n      exp\n      swap1\n      div\n      0xff\n      and\n        /* \"contracts/OreOreCoinFull.sol\":11819:12587  if (fundingGoalReached) {... */\n      iszero\n      tag_153\n      jumpi\n        /* \"contracts/OreOreCoinFull.sol\":11876:11887  uint amount */\n      0x00\n        /* \"contracts/OreOreCoinFull.sol\":11890:11911  address(this).balance */\n      selfbalance\n        /* \"contracts/OreOreCoinFull.sol\":11876:11911  uint amount = address(this).balance */\n      swap1\n      pop\n        /* \"contracts/OreOreCoinFull.sol\":11939:11940  0 */\n      0x00\n        /* \"contracts/OreOreCoinFull.sol\":11930:11936  amount */\n      dup2\n        /* \"contracts/OreOreCoinFull.sol\":11930:11940  amount > 0 */\n      gt\n        /* \"contracts/OreOreCoinFull.sol\":11926:12088  if (amount > 0) {... */\n      iszero\n      tag_154\n      jumpi\n        /* \"contracts/OreOreCoinFull.sol\":11962:11969  bool ok */\n      0x00\n        /* \"contracts/OreOreCoinFull.sol\":11975:11985  msg.sender */\n      caller\n        /* \"contracts/OreOreCoinFull.sol\":11975:11990  msg.sender.call */\n      0xffffffffffffffffffffffffffffffffffffffff\n      and\n        /* \"contracts/OreOreCoinFull.sol\":11998:12004  amount */\n      dup3\n        /* \"contracts/OreOreCoinFull.sol\":11975:12009  msg.sender.call{value: amount}(\"\") */\n      mload(0x40)\n      tag_155\n      swap1\n      tag_156\n      jump\t// in\n    tag_155:\n      0x00\n      mload(0x40)\n      dup1\n      dup4\n      sub\n      dup2\n      dup6\n      dup8\n      gas\n      call\n      swap3\n      pop\n      pop\n      pop\n      returndatasize\n      dup1\n      0x00\n      dup2\n      eq\n      tag_159\n      jumpi\n      mload(0x40)\n      swap2\n      pop\n      and(add(returndatasize, 0x3f), not(0x1f))\n      dup3\n      add\n      0x40\n      mstore\n      returndatasize\n      dup3\n      mstore\n      returndatasize\n      0x00\n      0x20\n      dup5\n      add\n      returndatacopy\n      jump(tag_158)\n    tag_159:\n      0x60\n      swap2\n      pop\n    tag_158:\n      pop\n        /* \"contracts/OreOreCoinFull.sol\":11961:12009  (bool ok, ) = msg.sender.call{value: amount}(\"\") */\n      pop\n      swap1\n      pop\n        /* \"contracts/OreOreCoinFull.sol\":12033:12072  WithdrawalEther(msg.sender, amount, ok) */\n      0x5b8e8dabfb07633926aad60d1498e605e71a8ee067252f388e7ed6228f8a1f9c\n        /* \"contracts/OreOreCoinFull.sol\":12049:12059  msg.sender */\n      caller\n        /* \"contracts/OreOreCoinFull.sol\":12061:12067  amount */\n      dup4\n        /* \"contracts/OreOreCoinFull.sol\":12069:12071  ok */\n      dup4\n        /* \"contracts/OreOreCoinFull.sol\":12033:12072  WithdrawalEther(msg.sender, amount, ok) */\n      mload(0x40)\n      tag_160\n      swap4\n      swap3\n      swap2\n      swap1\n      tag_161\n      jump\t// in\n    tag_160:\n      mload(0x40)\n      dup1\n      swap2\n      sub\n      swap1\n      log1\n        /* \"contracts/OreOreCoinFull.sol\":11942:12088  {... */\n      pop\n        /* \"contracts/OreOreCoinFull.sol\":11926:12088  if (amount > 0) {... */\n    tag_154:\n        /* \"contracts/OreOreCoinFull.sol\":12132:12140  uint val */\n      0x00\n        /* \"contracts/OreOreCoinFull.sol\":12163:12172  soldToken */\n      sload(0x05)\n        /* \"contracts/OreOreCoinFull.sol\":12143:12160  transferableToken */\n      sload(0x04)\n        /* \"contracts/OreOreCoinFull.sol\":12143:12172  transferableToken - soldToken */\n      tag_162\n      swap2\n      swap1\n      tag_163\n      jump\t// in\n    tag_162:\n        /* \"contracts/OreOreCoinFull.sol\":12132:12172  uint val = transferableToken - soldToken */\n      swap1\n      pop\n        /* \"contracts/OreOreCoinFull.sol\":12197:12198  0 */\n      0x00\n        /* \"contracts/OreOreCoinFull.sol\":12191:12194  val */\n      dup2\n        /* \"contracts/OreOreCoinFull.sol\":12191:12198  val > 0 */\n      gt\n        /* \"contracts/OreOreCoinFull.sol\":12187:12360  if (val > 0) {... */\n      iszero\n      tag_164\n      jumpi\n        /* \"contracts/OreOreCoinFull.sol\":12219:12230  tokenReward */\n      0x07\n      0x00\n      swap1\n      sload\n      swap1\n      0x0100\n      exp\n      swap1\n      div\n      0xffffffffffffffffffffffffffffffffffffffff\n      and\n        /* \"contracts/OreOreCoinFull.sol\":12219:12239  tokenReward.transfer */\n      0xffffffffffffffffffffffffffffffffffffffff\n      and\n      0xa9059cbb\n        /* \"contracts/OreOreCoinFull.sol\":12240:12250  msg.sender */\n      caller\n        /* \"contracts/OreOreCoinFull.sol\":12272:12281  soldToken */\n      sload(0x05)\n        /* \"contracts/OreOreCoinFull.sol\":12252:12269  transferableToken */\n      sload(0x04)\n        /* \"contracts/OreOreCoinFull.sol\":12252:12281  transferableToken - soldToken */\n      tag_165\n      swap2\n      swap1\n      tag_163\n      jump\t// in\n    tag_165:\n        /* \"contracts/OreOreCoinFull.sol\":12219:12282  tokenReward.transfer(msg.sender, transferableToken - soldToken) */\n      mload(0x40)\n      dup4\n      0xffffffff\n      and\n      0xe0\n      shl\n      dup2\n      mstore\n      0x04\n      add\n      tag_166\n      swap3\n      swap2\n      swap1\n      tag_167\n      jump\t// in\n    tag_166:\n      0x00\n      mload(0x40)\n      dup1\n      dup4\n      sub\n      dup2\n      0x00\n      dup8\n      dup1\n      extcodesize\n      iszero\n      dup1\n      iszero\n      tag_168\n      jumpi\n      0x00\n      dup1\n      revert\n    tag_168:\n      pop\n      gas\n      call\n      iszero\n      dup1\n      iszero\n      tag_170\n      jumpi\n      returndatasize\n      0x00\n      dup1\n      returndatacopy\n      revert(0x00, returndatasize)\n    tag_170:\n      pop\n      pop\n      pop\n      pop\n        /* \"contracts/OreOreCoinFull.sol\":12306:12344  WithdrawalToken(msg.sender, val, true) */\n      0x860b533173a7b1027d391a00a46e79992fe2f681fc082e49c56ba22db74601c6\n        /* \"contracts/OreOreCoinFull.sol\":12322:12332  msg.sender */\n      caller\n        /* \"contracts/OreOreCoinFull.sol\":12334:12337  val */\n      dup3\n        /* \"contracts/OreOreCoinFull.sol\":12339:12343  true */\n      0x01\n        /* \"contracts/OreOreCoinFull.sol\":12306:12344  WithdrawalToken(msg.sender, val, true) */\n      mload(0x40)\n      tag_171\n      swap4\n      swap3\n      swap2\n      swap1\n      tag_161\n      jump\t// in\n    tag_171:\n      mload(0x40)\n      dup1\n      swap2\n      sub\n      swap1\n      log1\n        /* \"contracts/OreOreCoinFull.sol\":12187:12360  if (val > 0) {... */\n    tag_164:\n        /* \"contracts/OreOreCoinFull.sol\":11843:12371  {... */\n      pop\n      pop\n        /* \"contracts/OreOreCoinFull.sol\":11819:12587  if (fundingGoalReached) {... */\n      jump(tag_172)\n    tag_153:\n        /* \"contracts/OreOreCoinFull.sol\":12415:12424  uint val2 */\n      0x00\n        /* \"contracts/OreOreCoinFull.sol\":12427:12438  tokenReward */\n      0x07\n      0x00\n      swap1\n      sload\n      swap1\n      0x0100\n      exp\n      swap1\n      div\n      0xffffffffffffffffffffffffffffffffffffffff\n      and\n        /* \"contracts/OreOreCoinFull.sol\":12427:12448  tokenReward.balanceOf */\n      0xffffffffffffffffffffffffffffffffffffffff\n      and\n      0x70a08231\n        /* \"contracts/OreOreCoinFull.sol\":12457:12461  this */\n      address\n        /* \"contracts/OreOreCoinFull.sol\":12427:12463  tokenReward.balanceOf(address(this)) */\n      mload(0x40)\n      dup3\n      0xffffffff\n      and\n      0xe0\n      shl\n      dup2\n      mstore\n      0x04\n      add\n      tag_173\n      swap2\n      swap1\n      tag_100\n      jump\t// in\n    tag_173:\n      0x20\n      mload(0x40)\n      dup1\n      dup4\n      sub\n      dup2\n      dup7\n      gas\n      staticcall\n      iszero\n      dup1\n      iszero\n      tag_175\n      jumpi\n      returndatasize\n      0x00\n      dup1\n      returndatacopy\n      revert(0x00, returndatasize)\n    tag_175:\n      pop\n      pop\n      pop\n      pop\n      mload(0x40)\n      returndatasize\n      not(0x1f)\n      0x1f\n      dup3\n      add\n      and\n      dup3\n      add\n      dup1\n      0x40\n      mstore\n      pop\n      dup2\n      add\n      swap1\n      tag_176\n      swap2\n      swap1\n      tag_177\n      jump\t// in\n    tag_176:\n        /* \"contracts/OreOreCoinFull.sol\":12415:12463  uint val2 = tokenReward.balanceOf(address(this)) */\n      swap1\n      pop\n        /* \"contracts/OreOreCoinFull.sol\":12478:12489  tokenReward */\n      0x07\n      0x00\n      swap1\n      sload\n      swap1\n      0x0100\n      exp\n      swap1\n      div\n      0xffffffffffffffffffffffffffffffffffffffff\n      and\n        /* \"contracts/OreOreCoinFull.sol\":12478:12498  tokenReward.transfer */\n      0xffffffffffffffffffffffffffffffffffffffff\n      and\n      0xa9059cbb\n        /* \"contracts/OreOreCoinFull.sol\":12499:12509  msg.sender */\n      caller\n        /* \"contracts/OreOreCoinFull.sol\":12511:12515  val2 */\n      dup4\n        /* \"contracts/OreOreCoinFull.sol\":12478:12516  tokenReward.transfer(msg.sender, val2) */\n      mload(0x40)\n      dup4\n      0xffffffff\n      and\n      0xe0\n      shl\n      dup2\n      mstore\n      0x04\n      add\n      tag_178\n      swap3\n      swap2\n      swap1\n      tag_167\n      jump\t// in\n    tag_178:\n      0x00\n      mload(0x40)\n      dup1\n      dup4\n      sub\n      dup2\n      0x00\n      dup8\n      dup1\n      extcodesize\n      iszero\n      dup1\n      iszero\n      tag_179\n      jumpi\n      0x00\n      dup1\n      revert\n    tag_179:\n      pop\n      gas\n      call\n      iszero\n      dup1\n      iszero\n      tag_181\n      jumpi\n      returndatasize\n      0x00\n      dup1\n      returndatacopy\n      revert(0x00, returndatasize)\n    tag_181:\n      pop\n      pop\n      pop\n      pop\n        /* \"contracts/OreOreCoinFull.sol\":12536:12575  WithdrawalToken(msg.sender, val2, true) */\n      0x860b533173a7b1027d391a00a46e79992fe2f681fc082e49c56ba22db74601c6\n        /* \"contracts/OreOreCoinFull.sol\":12552:12562  msg.sender */\n      caller\n        /* \"contracts/OreOreCoinFull.sol\":12564:12568  val2 */\n      dup3\n        /* \"contracts/OreOreCoinFull.sol\":12570:12574  true */\n      0x01\n        /* \"contracts/OreOreCoinFull.sol\":12536:12575  WithdrawalToken(msg.sender, val2, true) */\n      mload(0x40)\n      tag_182\n      swap4\n      swap3\n      swap2\n      swap1\n      tag_161\n      jump\t// in\n    tag_182:\n      mload(0x40)\n      dup1\n      swap2\n      sub\n      swap1\n      log1\n        /* \"contracts/OreOreCoinFull.sol\":12377:12587  {... */\n      pop\n        /* \"contracts/OreOreCoinFull.sol\":11819:12587  if (fundingGoalReached) {... */\n    tag_172:\n        /* \"contracts/OreOreCoinFull.sol\":11640:12594  function withdrawalOwner() public onlyOwner {... */\n      jump\t// out\n        /* \"contracts/OreOreCoinFull.sol\":6810:6842  uint256 public transferableToken */\n    tag_57:\n      sload(0x04)\n      dup2\n      jump\t// out\n        /* \"contracts/OreOreCoinFull.sol\":6719:6742  uint256 public deadline */\n    tag_62:\n      sload(0x02)\n      dup2\n      jump\t// out\n        /* \"contracts/OreOreCoinFull.sol\":7169:7221  mapping (address => Property) public fundersProperty */\n    tag_71:\n      mstore(0x20, 0x08)\n      dup1\n      0x00\n      mstore\n      keccak256(0x00, 0x40)\n      0x00\n      swap2\n      pop\n      swap1\n      pop\n      dup1\n      0x00\n      add\n      sload\n      swap1\n      dup1\n      0x01\n      add\n      sload\n      swap1\n      dup1\n      0x02\n      add\n      0x00\n      swap1\n      sload\n      swap1\n      0x0100\n      exp\n      swap1\n      div\n      0xff\n      and\n      swap1\n      pop\n      dup4\n      jump\t// out\n        /* \"contracts/OreOreCoinFull.sol\":6873:6897  uint256 public soldToken */\n    tag_76:\n      sload(0x05)\n      dup2\n      jump\t// out\n        /* \"contracts/OreOreCoinFull.sol\":7102:7122  bool public isOpened */\n    tag_80:\n      0x07\n      0x15\n      swap1\n      sload\n      swap1\n      0x0100\n      exp\n      swap1\n      div\n      0xff\n      and\n      dup2\n      jump\t// out\n        /* \"contracts/OreOreCoinFull.sol\":6972:7001  OreOreCoin public tokenReward */\n    tag_85:\n      0x07\n      0x00\n      swap1\n      sload\n      swap1\n      0x0100\n      exp\n      swap1\n      div\n      0xffffffffffffffffffffffffffffffffffffffff\n      and\n      dup2\n      jump\t// out\n        /* \"contracts/OreOreCoinFull.sol\":6924:6948  uint256 public startTime */\n    tag_90:\n      sload(0x06)\n      dup2\n      jump\t// out\n        /* \"contracts/OreOreCoinFull.sol\":6669:6695  uint256 public fundingGoal */\n    tag_94:\n      sload(0x01)\n      dup2\n      jump\t// out\n        /* \"contracts/OreOreCoinFull.sol\":138:158  address public owner */\n    tag_98:\n      0x00\n      dup1\n      sload\n      swap1\n      0x0100\n      exp\n      swap1\n      div\n      0xffffffffffffffffffffffffffffffffffffffff\n      and\n      dup2\n      jump\t// out\n        /* \"contracts/OreOreCoinFull.sol\":9450:10023  function start(uint _durationInMinutes) public onlyOwner {... */\n    tag_105:\n        /* \"contracts/OreOreCoinFull.sol\":395:400  owner */\n      0x00\n      dup1\n      sload\n      swap1\n      0x0100\n      exp\n      swap1\n      div\n      0xffffffffffffffffffffffffffffffffffffffff\n      and\n        /* \"contracts/OreOreCoinFull.sol\":381:400  msg.sender == owner */\n      0xffffffffffffffffffffffffffffffffffffffff\n      and\n        /* \"contracts/OreOreCoinFull.sol\":381:391  msg.sender */\n      caller\n        /* \"contracts/OreOreCoinFull.sol\":381:400  msg.sender == owner */\n      0xffffffffffffffffffffffffffffffffffffffff\n      and\n      eq\n        /* \"contracts/OreOreCoinFull.sol\":372:414  require (msg.sender == owner, \"onlyOwner\") */\n      tag_184\n      jumpi\n      mload(0x40)\n      0x08c379a000000000000000000000000000000000000000000000000000000000\n      dup2\n      mstore\n      0x04\n      add\n      tag_185\n      swap1\n      tag_148\n      jump\t// in\n    tag_185:\n      mload(0x40)\n      dup1\n      swap2\n      sub\n      swap1\n      revert\n    tag_184:\n        /* \"contracts/OreOreCoinFull.sol\":9541:9542  0 */\n      0x00\n        /* \"contracts/OreOreCoinFull.sol\":9527:9538  fundingGoal */\n      sload(0x01)\n        /* \"contracts/OreOreCoinFull.sol\":9527:9542  fundingGoal > 0 */\n      gt\n        /* \"contracts/OreOreCoinFull.sol\":9527:9555  fundingGoal > 0 && price > 0 */\n      dup1\n      iszero\n      tag_187\n      jumpi\n      pop\n        /* \"contracts/OreOreCoinFull.sol\":9554:9555  0 */\n      0x00\n        /* \"contracts/OreOreCoinFull.sol\":9546:9551  price */\n      sload(0x03)\n        /* \"contracts/OreOreCoinFull.sol\":9546:9555  price > 0 */\n      gt\n        /* \"contracts/OreOreCoinFull.sol\":9527:9555  fundingGoal > 0 && price > 0 */\n    tag_187:\n        /* \"contracts/OreOreCoinFull.sol\":9527:9580  fundingGoal > 0 && price > 0 && transferableToken > 0 */\n      dup1\n      iszero\n      tag_188\n      jumpi\n      pop\n        /* \"contracts/OreOreCoinFull.sol\":9579:9580  0 */\n      0x00\n        /* \"contracts/OreOreCoinFull.sol\":9559:9576  transferableToken */\n      sload(0x04)\n        /* \"contracts/OreOreCoinFull.sol\":9559:9580  transferableToken > 0 */\n      gt\n        /* \"contracts/OreOreCoinFull.sol\":9527:9580  fundingGoal > 0 && price > 0 && transferableToken > 0 */\n    tag_188:\n        /* \"contracts/OreOreCoinFull.sol\":9527:9631  fundingGoal > 0 && price > 0 && transferableToken > 0 &&... */\n      dup1\n      iszero\n      tag_189\n      jumpi\n      pop\n        /* \"contracts/OreOreCoinFull.sol\":9629:9630  0 */\n      0x00\n        /* \"contracts/OreOreCoinFull.sol\":9597:9631  address(tokenReward) != address(0) */\n      0xffffffffffffffffffffffffffffffffffffffff\n      and\n        /* \"contracts/OreOreCoinFull.sol\":9605:9616  tokenReward */\n      0x07\n      0x00\n      swap1\n      sload\n      swap1\n      0x0100\n      exp\n      swap1\n      div\n      0xffffffffffffffffffffffffffffffffffffffff\n      and\n        /* \"contracts/OreOreCoinFull.sol\":9597:9631  address(tokenReward) != address(0) */\n      0xffffffffffffffffffffffffffffffffffffffff\n      and\n      eq\n      iszero\n        /* \"contracts/OreOreCoinFull.sol\":9527:9631  fundingGoal > 0 && price > 0 && transferableToken > 0 &&... */\n    tag_189:\n        /* \"contracts/OreOreCoinFull.sol\":9527:9657  fundingGoal > 0 && price > 0 && transferableToken > 0 &&... */\n      dup1\n      iszero\n      tag_190\n      jumpi\n      pop\n        /* \"contracts/OreOreCoinFull.sol\":9656:9657  0 */\n      0x00\n        /* \"contracts/OreOreCoinFull.sol\":9635:9653  _durationInMinutes */\n      dup2\n        /* \"contracts/OreOreCoinFull.sol\":9635:9657  _durationInMinutes > 0 */\n      gt\n        /* \"contracts/OreOreCoinFull.sol\":9527:9657  fundingGoal > 0 && price > 0 && transferableToken > 0 &&... */\n    tag_190:\n        /* \"contracts/OreOreCoinFull.sol\":9527:9675  fundingGoal > 0 && price > 0 && transferableToken > 0 &&... */\n      dup1\n      iszero\n      tag_191\n      jumpi\n      pop\n        /* \"contracts/OreOreCoinFull.sol\":9674:9675  0 */\n      0x00\n        /* \"contracts/OreOreCoinFull.sol\":9661:9670  startTime */\n      sload(0x06)\n        /* \"contracts/OreOreCoinFull.sol\":9661:9675  startTime == 0 */\n      eq\n        /* \"contracts/OreOreCoinFull.sol\":9527:9675  fundingGoal > 0 && price > 0 && transferableToken > 0 &&... */\n    tag_191:\n        /* \"contracts/OreOreCoinFull.sol\":9518:9691  require (fundingGoal > 0 && price > 0 && transferableToken > 0 &&... */\n      tag_192\n      jumpi\n      mload(0x40)\n      0x08c379a000000000000000000000000000000000000000000000000000000000\n      dup2\n      mstore\n      0x04\n      add\n      tag_193\n      swap1\n      tag_194\n      jump\t// in\n    tag_193:\n      mload(0x40)\n      dup1\n      swap2\n      sub\n      swap1\n      revert\n    tag_192:\n        /* \"contracts/OreOreCoinFull.sol\":9756:9773  transferableToken */\n      sload(0x04)\n        /* \"contracts/OreOreCoinFull.sol\":9716:9727  tokenReward */\n      0x07\n      0x00\n      swap1\n      sload\n      swap1\n      0x0100\n      exp\n      swap1\n      div\n      0xffffffffffffffffffffffffffffffffffffffff\n      and\n        /* \"contracts/OreOreCoinFull.sol\":9716:9737  tokenReward.balanceOf */\n      0xffffffffffffffffffffffffffffffffffffffff\n      and\n      0x70a08231\n        /* \"contracts/OreOreCoinFull.sol\":9746:9750  this */\n      address\n        /* \"contracts/OreOreCoinFull.sol\":9716:9752  tokenReward.balanceOf(address(this)) */\n      mload(0x40)\n      dup3\n      0xffffffff\n      and\n      0xe0\n      shl\n      dup2\n      mstore\n      0x04\n      add\n      tag_195\n      swap2\n      swap1\n      tag_100\n      jump\t// in\n    tag_195:\n      0x20\n      mload(0x40)\n      dup1\n      dup4\n      sub\n      dup2\n      dup7\n      gas\n      staticcall\n      iszero\n      dup1\n      iszero\n      tag_197\n      jumpi\n      returndatasize\n      0x00\n      dup1\n      returndatacopy\n      revert(0x00, returndatasize)\n    tag_197:\n      pop\n      pop\n      pop\n      pop\n      mload(0x40)\n      returndatasize\n      not(0x1f)\n      0x1f\n      dup3\n      add\n      and\n      dup3\n      add\n      dup1\n      0x40\n      mstore\n      pop\n      dup2\n      add\n      swap1\n      tag_198\n      swap2\n      swap1\n      tag_177\n      jump\t// in\n    tag_198:\n        /* \"contracts/OreOreCoinFull.sol\":9716:9773  tokenReward.balanceOf(address(this)) >= transferableToken */\n      lt\n        /* \"contracts/OreOreCoinFull.sol\":9712:10016  if (tokenReward.balanceOf(address(this)) >= transferableToken) {... */\n      tag_199\n      jumpi\n        /* \"contracts/OreOreCoinFull.sol\":9802:9817  block.timestamp */\n      timestamp\n        /* \"contracts/OreOreCoinFull.sol\":9790:9799  startTime */\n      0x06\n        /* \"contracts/OreOreCoinFull.sol\":9790:9817  startTime = block.timestamp */\n      dup2\n      swap1\n      sstore\n      pop\n        /* \"contracts/OreOreCoinFull.sol\":9882:9891  1 minutes */\n      0x3c\n        /* \"contracts/OreOreCoinFull.sol\":9861:9879  _durationInMinutes */\n      dup2\n        /* \"contracts/OreOreCoinFull.sol\":9861:9891  _durationInMinutes * 1 minutes */\n      tag_200\n      swap2\n      swap1\n      tag_37\n      jump\t// in\n    tag_200:\n        /* \"contracts/OreOreCoinFull.sol\":9843:9858  block.timestamp */\n      timestamp\n        /* \"contracts/OreOreCoinFull.sol\":9843:9891  block.timestamp + _durationInMinutes * 1 minutes */\n      tag_201\n      swap2\n      swap1\n      tag_33\n      jump\t// in\n    tag_201:\n        /* \"contracts/OreOreCoinFull.sol\":9832:9840  deadline */\n      0x02\n        /* \"contracts/OreOreCoinFull.sol\":9832:9891  deadline = block.timestamp + _durationInMinutes * 1 minutes */\n      dup2\n      swap1\n      sstore\n      pop\n        /* \"contracts/OreOreCoinFull.sol\":9917:9921  true */\n      0x01\n        /* \"contracts/OreOreCoinFull.sol\":9906:9914  isOpened */\n      0x07\n      0x15\n        /* \"contracts/OreOreCoinFull.sol\":9906:9921  isOpened = true */\n      0x0100\n      exp\n      dup2\n      sload\n      dup2\n      0xff\n      mul\n      not\n      and\n      swap1\n      dup4\n      iszero\n      iszero\n      mul\n      or\n      swap1\n      sstore\n      pop\n        /* \"contracts/OreOreCoinFull.sol\":9941:10004  CrowdsaleStart(fundingGoal, deadline, transferableToken, owner) */\n      0x6a151b16df8b91a6230549a14ae94cf40f3c9426543b21802dc10201cd35648b\n        /* \"contracts/OreOreCoinFull.sol\":9956:9967  fundingGoal */\n      sload(0x01)\n        /* \"contracts/OreOreCoinFull.sol\":9969:9977  deadline */\n      sload(0x02)\n        /* \"contracts/OreOreCoinFull.sol\":9979:9996  transferableToken */\n      sload(0x04)\n        /* \"contracts/OreOreCoinFull.sol\":9998:10003  owner */\n      0x00\n      dup1\n      sload\n      swap1\n      0x0100\n      exp\n      swap1\n      div\n      0xffffffffffffffffffffffffffffffffffffffff\n      and\n        /* \"contracts/OreOreCoinFull.sol\":9941:10004  CrowdsaleStart(fundingGoal, deadline, transferableToken, owner) */\n      mload(0x40)\n      tag_202\n      swap5\n      swap4\n      swap3\n      swap2\n      swap1\n      tag_203\n      jump\t// in\n    tag_202:\n      mload(0x40)\n      dup1\n      swap2\n      sub\n      swap1\n      log1\n        /* \"contracts/OreOreCoinFull.sol\":9712:10016  if (tokenReward.balanceOf(address(this)) >= transferableToken) {... */\n    tag_199:\n        /* \"contracts/OreOreCoinFull.sol\":9450:10023  function start(uint _durationInMinutes) public onlyOwner {... */\n      pop\n      jump\t// out\n        /* \"contracts/OreOreCoinFull.sol\":6759:6779  uint256 public price */\n    tag_108:\n      sload(0x03)\n      dup2\n      jump\t// out\n        /* \"contracts/OreOreCoinFull.sol\":7038:7068  bool public fundingGoalReached */\n    tag_112:\n      0x07\n      0x14\n      swap1\n      sload\n      swap1\n      0x0100\n      exp\n      swap1\n      div\n      0xff\n      and\n      dup2\n      jump\t// out\n        /* \"contracts/OreOreCoinFull.sol\":12686:13964  function withdrawal() public {... */\n    tag_116:\n        /* \"contracts/OreOreCoinFull.sol\":12730:12738  isOpened */\n      0x07\n      0x15\n      swap1\n      sload\n      swap1\n      0x0100\n      exp\n      swap1\n      div\n      0xff\n      and\n        /* \"contracts/OreOreCoinFull.sol\":12726:12747  if (isOpened) return; */\n      iszero\n      tag_205\n      jumpi\n        /* \"contracts/OreOreCoinFull.sol\":12740:12747  return; */\n      jump(tag_204)\n        /* \"contracts/OreOreCoinFull.sol\":12726:12747  if (isOpened) return; */\n    tag_205:\n        /* \"contracts/OreOreCoinFull.sol\":12817:12832  fundersProperty */\n      0x08\n        /* \"contracts/OreOreCoinFull.sol\":12817:12844  fundersProperty[msg.sender] */\n      0x00\n        /* \"contracts/OreOreCoinFull.sol\":12833:12843  msg.sender */\n      caller\n        /* \"contracts/OreOreCoinFull.sol\":12817:12844  fundersProperty[msg.sender] */\n      0xffffffffffffffffffffffffffffffffffffffff\n      and\n      0xffffffffffffffffffffffffffffffffffffffff\n      and\n      dup2\n      mstore\n      0x20\n      add\n      swap1\n      dup2\n      mstore\n      0x20\n      add\n      0x00\n      keccak256\n        /* \"contracts/OreOreCoinFull.sol\":12817:12855  fundersProperty[msg.sender].withdrawed */\n      0x02\n      add\n      0x00\n      swap1\n      sload\n      swap1\n      0x0100\n      exp\n      swap1\n      div\n      0xff\n      and\n        /* \"contracts/OreOreCoinFull.sol\":12816:12855  !fundersProperty[msg.sender].withdrawed */\n      iszero\n        /* \"contracts/OreOreCoinFull.sol\":12807:12870  require (!fundersProperty[msg.sender].withdrawed, \"withdrawal\") */\n      tag_206\n      jumpi\n      mload(0x40)\n      0x08c379a000000000000000000000000000000000000000000000000000000000\n      dup2\n      mstore\n      0x04\n      add\n      tag_207\n      swap1\n      tag_208\n      jump\t// in\n    tag_207:\n      mload(0x40)\n      dup1\n      swap2\n      sub\n      swap1\n      revert\n    tag_206:\n        /* \"contracts/OreOreCoinFull.sol\":12942:12960  fundingGoalReached */\n      0x07\n      0x14\n      swap1\n      sload\n      swap1\n      0x0100\n      exp\n      swap1\n      div\n      0xff\n      and\n        /* \"contracts/OreOreCoinFull.sol\":12938:13957  if (fundingGoalReached) {... */\n      iszero\n      tag_209\n      jumpi\n        /* \"contracts/OreOreCoinFull.sol\":13025:13026  0 */\n      0x00\n        /* \"contracts/OreOreCoinFull.sol\":12981:12996  fundersProperty */\n      0x08\n        /* \"contracts/OreOreCoinFull.sol\":12981:13008  fundersProperty[msg.sender] */\n      0x00\n        /* \"contracts/OreOreCoinFull.sol\":12997:13007  msg.sender */\n      caller\n        /* \"contracts/OreOreCoinFull.sol\":12981:13008  fundersProperty[msg.sender] */\n      0xffffffffffffffffffffffffffffffffffffffff\n      and\n      0xffffffffffffffffffffffffffffffffffffffff\n      and\n      dup2\n      mstore\n      0x20\n      add\n      swap1\n      dup2\n      mstore\n      0x20\n      add\n      0x00\n      keccak256\n        /* \"contracts/OreOreCoinFull.sol\":12981:13022  fundersProperty[msg.sender].reservedToken */\n      0x01\n      add\n      sload\n        /* \"contracts/OreOreCoinFull.sol\":12981:13026  fundersProperty[msg.sender].reservedToken > 0 */\n      gt\n        /* \"contracts/OreOreCoinFull.sol\":12977:13418  if (fundersProperty[msg.sender].reservedToken > 0) {... */\n      iszero\n      tag_210\n      jumpi\n        /* \"contracts/OreOreCoinFull.sol\":13047:13058  tokenReward */\n      0x07\n      0x00\n      swap1\n      sload\n      swap1\n      0x0100\n      exp\n      swap1\n      div\n      0xffffffffffffffffffffffffffffffffffffffff\n      and\n        /* \"contracts/OreOreCoinFull.sol\":13047:13067  tokenReward.transfer */\n      0xffffffffffffffffffffffffffffffffffffffff\n      and\n      0xa9059cbb\n        /* \"contracts/OreOreCoinFull.sol\":13068:13078  msg.sender */\n      caller\n        /* \"contracts/OreOreCoinFull.sol\":13080:13095  fundersProperty */\n      0x08\n        /* \"contracts/OreOreCoinFull.sol\":13080:13107  fundersProperty[msg.sender] */\n      0x00\n        /* \"contracts/OreOreCoinFull.sol\":13096:13106  msg.sender */\n      caller\n        /* \"contracts/OreOreCoinFull.sol\":13080:13107  fundersProperty[msg.sender] */\n      0xffffffffffffffffffffffffffffffffffffffff\n      and\n      0xffffffffffffffffffffffffffffffffffffffff\n      and\n      dup2\n      mstore\n      0x20\n      add\n      swap1\n      dup2\n      mstore\n      0x20\n      add\n      0x00\n      keccak256\n        /* \"contracts/OreOreCoinFull.sol\":13080:13121  fundersProperty[msg.sender].reservedToken */\n      0x01\n      add\n      sload\n        /* \"contracts/OreOreCoinFull.sol\":13047:13122  tokenReward.transfer(msg.sender, fundersProperty[msg.sender].reservedToken) */\n      mload(0x40)\n      dup4\n      0xffffffff\n      and\n      0xe0\n      shl\n      dup2\n      mstore\n      0x04\n      add\n      tag_211\n      swap3\n      swap2\n      swap1\n      tag_167\n      jump\t// in\n    tag_211:\n      0x00\n      mload(0x40)\n      dup1\n      dup4\n      sub\n      dup2\n      0x00\n      dup8\n      dup1\n      extcodesize\n      iszero\n      dup1\n      iszero\n      tag_212\n      jumpi\n      0x00\n      dup1\n      revert\n    tag_212:\n      pop\n      gas\n      call\n      iszero\n      dup1\n      iszero\n      tag_214\n      jumpi\n      returndatasize\n      0x00\n      dup1\n      returndatacopy\n      revert(0x00, returndatasize)\n    tag_214:\n      pop\n      pop\n      pop\n      pop\n        /* \"contracts/OreOreCoinFull.sol\":13182:13186  true */\n      0x01\n        /* \"contracts/OreOreCoinFull.sol\":13141:13156  fundersProperty */\n      0x08\n        /* \"contracts/OreOreCoinFull.sol\":13141:13168  fundersProperty[msg.sender] */\n      0x00\n        /* \"contracts/OreOreCoinFull.sol\":13157:13167  msg.sender */\n      caller\n        /* \"contracts/OreOreCoinFull.sol\":13141:13168  fundersProperty[msg.sender] */\n      0xffffffffffffffffffffffffffffffffffffffff\n      and\n      0xffffffffffffffffffffffffffffffffffffffff\n      and\n      dup2\n      mstore\n      0x20\n      add\n      swap1\n      dup2\n      mstore\n      0x20\n      add\n      0x00\n      keccak256\n        /* \"contracts/OreOreCoinFull.sol\":13141:13179  fundersProperty[msg.sender].withdrawed */\n      0x02\n      add\n      0x00\n        /* \"contracts/OreOreCoinFull.sol\":13141:13186  fundersProperty[msg.sender].withdrawed = true */\n      0x0100\n      exp\n      dup2\n      sload\n      dup2\n      0xff\n      mul\n      not\n      and\n      swap1\n      dup4\n      iszero\n      iszero\n      mul\n      or\n      swap1\n      sstore\n      pop\n        /* \"contracts/OreOreCoinFull.sol\":13210:13402  WithdrawalToken(... */\n      0x860b533173a7b1027d391a00a46e79992fe2f681fc082e49c56ba22db74601c6\n        /* \"contracts/OreOreCoinFull.sol\":13248:13258  msg.sender */\n      caller\n        /* \"contracts/OreOreCoinFull.sol\":13281:13296  fundersProperty */\n      0x08\n        /* \"contracts/OreOreCoinFull.sol\":13281:13308  fundersProperty[msg.sender] */\n      0x00\n        /* \"contracts/OreOreCoinFull.sol\":13297:13307  msg.sender */\n      caller\n        /* \"contracts/OreOreCoinFull.sol\":13281:13308  fundersProperty[msg.sender] */\n      0xffffffffffffffffffffffffffffffffffffffff\n      and\n      0xffffffffffffffffffffffffffffffffffffffff\n      and\n      dup2\n      mstore\n      0x20\n      add\n      swap1\n      dup2\n      mstore\n      0x20\n      add\n      0x00\n      keccak256\n        /* \"contracts/OreOreCoinFull.sol\":13281:13322  fundersProperty[msg.sender].reservedToken */\n      0x01\n      add\n      sload\n        /* \"contracts/OreOreCoinFull.sol\":13345:13360  fundersProperty */\n      0x08\n        /* \"contracts/OreOreCoinFull.sol\":13345:13372  fundersProperty[msg.sender] */\n      0x00\n        /* \"contracts/OreOreCoinFull.sol\":13361:13371  msg.sender */\n      caller\n        /* \"contracts/OreOreCoinFull.sol\":13345:13372  fundersProperty[msg.sender] */\n      0xffffffffffffffffffffffffffffffffffffffff\n      and\n      0xffffffffffffffffffffffffffffffffffffffff\n      and\n      dup2\n      mstore\n      0x20\n      add\n      swap1\n      dup2\n      mstore\n      0x20\n      add\n      0x00\n      keccak256\n        /* \"contracts/OreOreCoinFull.sol\":13345:13383  fundersProperty[msg.sender].withdrawed */\n      0x02\n      add\n      0x00\n      swap1\n      sload\n      swap1\n      0x0100\n      exp\n      swap1\n      div\n      0xff\n      and\n        /* \"contracts/OreOreCoinFull.sol\":13210:13402  WithdrawalToken(... */\n      mload(0x40)\n      tag_215\n      swap4\n      swap3\n      swap2\n      swap1\n      tag_161\n      jump\t// in\n    tag_215:\n      mload(0x40)\n      dup1\n      swap2\n      sub\n      swap1\n      log1\n        /* \"contracts/OreOreCoinFull.sol\":12977:13418  if (fundersProperty[msg.sender].reservedToken > 0) {... */\n    tag_210:\n        /* \"contracts/OreOreCoinFull.sol\":12938:13957  if (fundingGoalReached) {... */\n      jump(tag_216)\n    tag_209:\n        /* \"contracts/OreOreCoinFull.sol\":13497:13498  0 */\n      0x00\n        /* \"contracts/OreOreCoinFull.sol\":13454:13469  fundersProperty */\n      0x08\n        /* \"contracts/OreOreCoinFull.sol\":13454:13481  fundersProperty[msg.sender] */\n      0x00\n        /* \"contracts/OreOreCoinFull.sol\":13470:13480  msg.sender */\n      caller\n        /* \"contracts/OreOreCoinFull.sol\":13454:13481  fundersProperty[msg.sender] */\n      0xffffffffffffffffffffffffffffffffffffffff\n      and\n      0xffffffffffffffffffffffffffffffffffffffff\n      and\n      dup2\n      mstore\n      0x20\n      add\n      swap1\n      dup2\n      mstore\n      0x20\n      add\n      0x00\n      keccak256\n        /* \"contracts/OreOreCoinFull.sol\":13454:13494  fundersProperty[msg.sender].paymentEther */\n      0x00\n      add\n      sload\n        /* \"contracts/OreOreCoinFull.sol\":13454:13498  fundersProperty[msg.sender].paymentEther > 0 */\n      gt\n        /* \"contracts/OreOreCoinFull.sol\":13450:13946  if (fundersProperty[msg.sender].paymentEther > 0) {... */\n      iszero\n      tag_217\n      jumpi\n        /* \"contracts/OreOreCoinFull.sol\":13520:13527  bool ok */\n      0x00\n        /* \"contracts/OreOreCoinFull.sol\":13533:13543  msg.sender */\n      caller\n        /* \"contracts/OreOreCoinFull.sol\":13533:13548  msg.sender.call */\n      0xffffffffffffffffffffffffffffffffffffffff\n      and\n        /* \"contracts/OreOreCoinFull.sol\":13556:13571  fundersProperty */\n      0x08\n        /* \"contracts/OreOreCoinFull.sol\":13556:13583  fundersProperty[msg.sender] */\n      0x00\n        /* \"contracts/OreOreCoinFull.sol\":13572:13582  msg.sender */\n      caller\n        /* \"contracts/OreOreCoinFull.sol\":13556:13583  fundersProperty[msg.sender] */\n      0xffffffffffffffffffffffffffffffffffffffff\n      and\n      0xffffffffffffffffffffffffffffffffffffffff\n      and\n      dup2\n      mstore\n      0x20\n      add\n      swap1\n      dup2\n      mstore\n      0x20\n      add\n      0x00\n      keccak256\n        /* \"contracts/OreOreCoinFull.sol\":13556:13596  fundersProperty[msg.sender].paymentEther */\n      0x00\n      add\n      sload\n        /* \"contracts/OreOreCoinFull.sol\":13533:13601  msg.sender.call{value: fundersProperty[msg.sender].paymentEther}(\"\") */\n      mload(0x40)\n      tag_218\n      swap1\n      tag_156\n      jump\t// in\n    tag_218:\n      0x00\n      mload(0x40)\n      dup1\n      dup4\n      sub\n      dup2\n      dup6\n      dup8\n      gas\n      call\n      swap3\n      pop\n      pop\n      pop\n      returndatasize\n      dup1\n      0x00\n      dup2\n      eq\n      tag_221\n      jumpi\n      mload(0x40)\n      swap2\n      pop\n      and(add(returndatasize, 0x3f), not(0x1f))\n      dup3\n      add\n      0x40\n      mstore\n      returndatasize\n      dup3\n      mstore\n      returndatasize\n      0x00\n      0x20\n      dup5\n      add\n      returndatacopy\n      jump(tag_220)\n    tag_221:\n      0x60\n      swap2\n      pop\n    tag_220:\n      pop\n        /* \"contracts/OreOreCoinFull.sol\":13519:13601  (bool ok, ) = msg.sender.call{value: fundersProperty[msg.sender].paymentEther}(\"\") */\n      pop\n      swap1\n      pop\n        /* \"contracts/OreOreCoinFull.sol\":13624:13626  ok */\n      dup1\n        /* \"contracts/OreOreCoinFull.sol\":13620:13716  if (ok) {... */\n      iszero\n      tag_222\n      jumpi\n        /* \"contracts/OreOreCoinFull.sol\":13692:13696  true */\n      0x01\n        /* \"contracts/OreOreCoinFull.sol\":13651:13666  fundersProperty */\n      0x08\n        /* \"contracts/OreOreCoinFull.sol\":13651:13678  fundersProperty[msg.sender] */\n      0x00\n        /* \"contracts/OreOreCoinFull.sol\":13667:13677  msg.sender */\n      caller\n        /* \"contracts/OreOreCoinFull.sol\":13651:13678  fundersProperty[msg.sender] */\n      0xffffffffffffffffffffffffffffffffffffffff\n      and\n      0xffffffffffffffffffffffffffffffffffffffff\n      and\n      dup2\n      mstore\n      0x20\n      add\n      swap1\n      dup2\n      mstore\n      0x20\n      add\n      0x00\n      keccak256\n        /* \"contracts/OreOreCoinFull.sol\":13651:13689  fundersProperty[msg.sender].withdrawed */\n      0x02\n      add\n      0x00\n        /* \"contracts/OreOreCoinFull.sol\":13651:13696  fundersProperty[msg.sender].withdrawed = true */\n      0x0100\n      exp\n      dup2\n      sload\n      dup2\n      0xff\n      mul\n      not\n      and\n      swap1\n      dup4\n      iszero\n      iszero\n      mul\n      or\n      swap1\n      sstore\n      pop\n        /* \"contracts/OreOreCoinFull.sol\":13620:13716  if (ok) {... */\n    tag_222:\n        /* \"contracts/OreOreCoinFull.sol\":13739:13930  WithdrawalEther(... */\n      0x5b8e8dabfb07633926aad60d1498e605e71a8ee067252f388e7ed6228f8a1f9c\n        /* \"contracts/OreOreCoinFull.sol\":13777:13787  msg.sender */\n      caller\n        /* \"contracts/OreOreCoinFull.sol\":13810:13825  fundersProperty */\n      0x08\n        /* \"contracts/OreOreCoinFull.sol\":13810:13837  fundersProperty[msg.sender] */\n      0x00\n        /* \"contracts/OreOreCoinFull.sol\":13826:13836  msg.sender */\n      caller\n        /* \"contracts/OreOreCoinFull.sol\":13810:13837  fundersProperty[msg.sender] */\n      0xffffffffffffffffffffffffffffffffffffffff\n      and\n      0xffffffffffffffffffffffffffffffffffffffff\n      and\n      dup2\n      mstore\n      0x20\n      add\n      swap1\n      dup2\n      mstore\n      0x20\n      add\n      0x00\n      keccak256\n        /* \"contracts/OreOreCoinFull.sol\":13810:13850  fundersProperty[msg.sender].paymentEther */\n      0x00\n      add\n      sload\n        /* \"contracts/OreOreCoinFull.sol\":13873:13888  fundersProperty */\n      0x08\n        /* \"contracts/OreOreCoinFull.sol\":13873:13900  fundersProperty[msg.sender] */\n      0x00\n        /* \"contracts/OreOreCoinFull.sol\":13889:13899  msg.sender */\n      caller\n        /* \"contracts/OreOreCoinFull.sol\":13873:13900  fundersProperty[msg.sender] */\n      0xffffffffffffffffffffffffffffffffffffffff\n      and\n      0xffffffffffffffffffffffffffffffffffffffff\n      and\n      dup2\n      mstore\n      0x20\n      add\n      swap1\n      dup2\n      mstore\n      0x20\n      add\n      0x00\n      keccak256\n        /* \"contracts/OreOreCoinFull.sol\":13873:13911  fundersProperty[msg.sender].withdrawed */\n      0x02\n      add\n      0x00\n      swap1\n      sload\n      swap1\n      0x0100\n      exp\n      swap1\n      div\n      0xff\n      and\n        /* \"contracts/OreOreCoinFull.sol\":13739:13930  WithdrawalEther(... */\n      mload(0x40)\n      tag_223\n      swap4\n      swap3\n      swap2\n      swap1\n      tag_161\n      jump\t// in\n    tag_223:\n      mload(0x40)\n      dup1\n      swap2\n      sub\n      swap1\n      log1\n        /* \"contracts/OreOreCoinFull.sol\":13500:13946  {... */\n      pop\n        /* \"contracts/OreOreCoinFull.sol\":13450:13946  if (fundersProperty[msg.sender].paymentEther > 0) {... */\n    tag_217:\n        /* \"contracts/OreOreCoinFull.sol\":12938:13957  if (fundingGoalReached) {... */\n    tag_216:\n        /* \"contracts/OreOreCoinFull.sol\":12686:13964  function withdrawal() public {... */\n    tag_204:\n      jump\t// out\n        /* \"contracts/OreOreCoinFull.sol\":10610:11084  function getRemainingTimeEthToken() public view returns(uint min, uint shortage, uint remainToken) {... */\n    tag_119:\n        /* \"contracts/OreOreCoinFull.sol\":10666:10674  uint min */\n      0x00\n        /* \"contracts/OreOreCoinFull.sol\":10676:10689  uint shortage */\n      dup1\n        /* \"contracts/OreOreCoinFull.sol\":10691:10707  uint remainToken */\n      0x00\n        /* \"contracts/OreOreCoinFull.sol\":10742:10750  deadline */\n      sload(0x02)\n        /* \"contracts/OreOreCoinFull.sol\":10724:10739  block.timestamp */\n      timestamp\n        /* \"contracts/OreOreCoinFull.sol\":10724:10750  block.timestamp < deadline */\n      lt\n        /* \"contracts/OreOreCoinFull.sol\":10720:10827  if (block.timestamp < deadline) {... */\n      iszero\n      tag_225\n      jumpi\n        /* \"contracts/OreOreCoinFull.sol\":10805:10814  1 minutes */\n      0x3c\n        /* \"contracts/OreOreCoinFull.sol\":10785:10800  block.timestamp */\n      timestamp\n        /* \"contracts/OreOreCoinFull.sol\":10774:10782  deadline */\n      sload(0x02)\n        /* \"contracts/OreOreCoinFull.sol\":10774:10800  deadline - block.timestamp */\n      tag_226\n      swap2\n      swap1\n      tag_163\n      jump\t// in\n    tag_226:\n        /* \"contracts/OreOreCoinFull.sol\":10773:10815  (deadline - block.timestamp) / (1 minutes) */\n      tag_227\n      swap2\n      swap1\n      tag_35\n      jump\t// in\n    tag_227:\n        /* \"contracts/OreOreCoinFull.sol\":10767:10815  min = (deadline - block.timestamp) / (1 minutes) */\n      swap3\n      pop\n        /* \"contracts/OreOreCoinFull.sol\":10720:10827  if (block.timestamp < deadline) {... */\n    tag_225:\n        /* \"contracts/OreOreCoinFull.sol\":10864:10885  address(this).balance */\n      selfbalance\n        /* \"contracts/OreOreCoinFull.sol\":10850:10861  fundingGoal */\n      sload(0x01)\n        /* \"contracts/OreOreCoinFull.sol\":10850:10885  fundingGoal < address(this).balance */\n      lt\n        /* \"contracts/OreOreCoinFull.sol\":10847:11023  if(fundingGoal < address(this).balance) {... */\n      iszero\n      tag_228\n      jumpi\n        /* \"contracts/OreOreCoinFull.sol\":10913:10914  0 */\n      0x00\n        /* \"contracts/OreOreCoinFull.sol\":10902:10914  shortage = 0 */\n      swap2\n      pop\n        /* \"contracts/OreOreCoinFull.sol\":10847:11023  if(fundingGoal < address(this).balance) {... */\n      jump(tag_229)\n    tag_228:\n        /* \"contracts/OreOreCoinFull.sol\":10999:11006  1 ether */\n      0x0de0b6b3a7640000\n        /* \"contracts/OreOreCoinFull.sol\":10973:10994  address(this).balance */\n      selfbalance\n        /* \"contracts/OreOreCoinFull.sol\":10959:10970  fundingGoal */\n      sload(0x01)\n        /* \"contracts/OreOreCoinFull.sol\":10959:10994  fundingGoal - address(this).balance */\n      tag_230\n      swap2\n      swap1\n      tag_163\n      jump\t// in\n    tag_230:\n        /* \"contracts/OreOreCoinFull.sol\":10958:11007  (fundingGoal - address(this).balance) / (1 ether) */\n      tag_231\n      swap2\n      swap1\n      tag_35\n      jump\t// in\n    tag_231:\n        /* \"contracts/OreOreCoinFull.sol\":10947:11007  shortage = (fundingGoal - address(this).balance) / (1 ether) */\n      swap2\n      pop\n        /* \"contracts/OreOreCoinFull.sol\":10847:11023  if(fundingGoal < address(this).balance) {... */\n    tag_229:\n        /* \"contracts/OreOreCoinFull.sol\":11067:11076  soldToken */\n      sload(0x05)\n        /* \"contracts/OreOreCoinFull.sol\":11047:11064  transferableToken */\n      sload(0x04)\n        /* \"contracts/OreOreCoinFull.sol\":11047:11076  transferableToken - soldToken */\n      tag_232\n      swap2\n      swap1\n      tag_163\n      jump\t// in\n    tag_232:\n        /* \"contracts/OreOreCoinFull.sol\":11033:11076  remainToken = transferableToken - soldToken */\n      swap1\n      pop\n        /* \"contracts/OreOreCoinFull.sol\":10610:11084  function getRemainingTimeEthToken() public view returns(uint min, uint shortage, uint remainToken) {... */\n      swap1\n      swap2\n      swap3\n      jump\t// out\n        /* \"contracts/OreOreCoinFull.sol\":615:787  function transferOwnership(address _new) public onlyOwner {... */\n    tag_125:\n        /* \"contracts/OreOreCoinFull.sol\":395:400  owner */\n      0x00\n      dup1\n      sload\n      swap1\n      0x0100\n      exp\n      swap1\n      div\n      0xffffffffffffffffffffffffffffffffffffffff\n      and\n        /* \"contracts/OreOreCoinFull.sol\":381:400  msg.sender == owner */\n      0xffffffffffffffffffffffffffffffffffffffff\n      and\n        /* \"contracts/OreOreCoinFull.sol\":381:391  msg.sender */\n      caller\n        /* \"contracts/OreOreCoinFull.sol\":381:400  msg.sender == owner */\n      0xffffffffffffffffffffffffffffffffffffffff\n      and\n      eq\n        /* \"contracts/OreOreCoinFull.sol\":372:414  require (msg.sender == owner, \"onlyOwner\") */\n      tag_234\n      jumpi\n      mload(0x40)\n      0x08c379a000000000000000000000000000000000000000000000000000000000\n      dup2\n      mstore\n      0x04\n      add\n      tag_235\n      swap1\n      tag_148\n      jump\t// in\n    tag_235:\n      mload(0x40)\n      dup1\n      swap2\n      sub\n      swap1\n      revert\n    tag_234:\n        /* \"contracts/OreOreCoinFull.sol\":684:699  address oldaddr */\n      0x00\n        /* \"contracts/OreOreCoinFull.sol\":702:707  owner */\n      dup1\n      0x00\n      swap1\n      sload\n      swap1\n      0x0100\n      exp\n      swap1\n      div\n      0xffffffffffffffffffffffffffffffffffffffff\n      and\n        /* \"contracts/OreOreCoinFull.sol\":684:707  address oldaddr = owner */\n      swap1\n      pop\n        /* \"contracts/OreOreCoinFull.sol\":726:730  _new */\n      dup2\n        /* \"contracts/OreOreCoinFull.sol\":718:723  owner */\n      0x00\n      dup1\n        /* \"contracts/OreOreCoinFull.sol\":718:730  owner = _new */\n      0x0100\n      exp\n      dup2\n      sload\n      dup2\n      0xffffffffffffffffffffffffffffffffffffffff\n      mul\n      not\n      and\n      swap1\n      dup4\n      0xffffffffffffffffffffffffffffffffffffffff\n      and\n      mul\n      or\n      swap1\n      sstore\n      pop\n        /* \"contracts/OreOreCoinFull.sol\":746:779  TransferOwnership(oldaddr, owner) */\n      0x5c486528ec3e3f0ea91181cff8116f02bfa350e03b8b6f12e00765adbb5af85c\n        /* \"contracts/OreOreCoinFull.sol\":764:771  oldaddr */\n      dup2\n        /* \"contracts/OreOreCoinFull.sol\":773:778  owner */\n      0x00\n      dup1\n      sload\n      swap1\n      0x0100\n      exp\n      swap1\n      div\n      0xffffffffffffffffffffffffffffffffffffffff\n      and\n        /* \"contracts/OreOreCoinFull.sol\":746:779  TransferOwnership(oldaddr, owner) */\n      mload(0x40)\n      tag_237\n      swap3\n      swap2\n      swap1\n      tag_238\n      jump\t// in\n    tag_237:\n      mload(0x40)\n      dup1\n      swap2\n      sub\n      swap1\n      log1\n        /* \"contracts/OreOreCoinFull.sol\":673:787  {... */\n      pop\n        /* \"contracts/OreOreCoinFull.sol\":615:787  function transferOwnership(address _new) public onlyOwner {... */\n      pop\n      jump\t// out\n        /* \"#utility.yul\":7:176   */\n    tag_239:\n        /* \"#utility.yul\":91:102   */\n      0x00\n        /* \"#utility.yul\":125:131   */\n      dup3\n        /* \"#utility.yul\":120:123   */\n      dup3\n        /* \"#utility.yul\":113:132   */\n      mstore\n        /* \"#utility.yul\":165:169   */\n      0x20\n        /* \"#utility.yul\":160:163   */\n      dup3\n        /* \"#utility.yul\":156:170   */\n      add\n        /* \"#utility.yul\":141:170   */\n      swap1\n      pop\n        /* \"#utility.yul\":7:176   */\n      swap3\n      swap2\n      pop\n      pop\n      jump\t// out\n        /* \"#utility.yul\":182:350   */\n    tag_240:\n        /* \"#utility.yul\":322:342   */\n      0x726563656976652066756e6374696f6e20310000000000000000000000000000\n        /* \"#utility.yul\":318:319   */\n      0x00\n        /* \"#utility.yul\":310:316   */\n      dup3\n        /* \"#utility.yul\":306:320   */\n      add\n        /* \"#utility.yul\":299:343   */\n      mstore\n        /* \"#utility.yul\":182:350   */\n      pop\n      jump\t// out\n        /* \"#utility.yul\":356:722   */\n    tag_241:\n        /* \"#utility.yul\":498:501   */\n      0x00\n        /* \"#utility.yul\":519:586   */\n      tag_283\n        /* \"#utility.yul\":583:585   */\n      0x12\n        /* \"#utility.yul\":578:581   */\n      dup4\n        /* \"#utility.yul\":519:586   */\n      tag_239\n      jump\t// in\n    tag_283:\n        /* \"#utility.yul\":512:586   */\n      swap2\n      pop\n        /* \"#utility.yul\":595:688   */\n      tag_284\n        /* \"#utility.yul\":684:687   */\n      dup3\n        /* \"#utility.yul\":595:688   */\n      tag_240\n      jump\t// in\n    tag_284:\n        /* \"#utility.yul\":713:715   */\n      0x20\n        /* \"#utility.yul\":708:711   */\n      dup3\n        /* \"#utility.yul\":704:716   */\n      add\n        /* \"#utility.yul\":697:716   */\n      swap1\n      pop\n        /* \"#utility.yul\":356:722   */\n      swap2\n      swap1\n      pop\n      jump\t// out\n        /* \"#utility.yul\":728:1147   */\n    tag_29:\n        /* \"#utility.yul\":894:898   */\n      0x00\n        /* \"#utility.yul\":932:934   */\n      0x20\n        /* \"#utility.yul\":921:930   */\n      dup3\n        /* \"#utility.yul\":917:935   */\n      add\n        /* \"#utility.yul\":909:935   */\n      swap1\n      pop\n        /* \"#utility.yul\":981:990   */\n      dup2\n        /* \"#utility.yul\":975:979   */\n      dup2\n        /* \"#utility.yul\":971:991   */\n      sub\n        /* \"#utility.yul\":967:968   */\n      0x00\n        /* \"#utility.yul\":956:965   */\n      dup4\n        /* \"#utility.yul\":952:969   */\n      add\n        /* \"#utility.yul\":945:992   */\n      mstore\n        /* \"#utility.yul\":1009:1140   */\n      tag_286\n        /* \"#utility.yul\":1135:1139   */\n      dup2\n        /* \"#utility.yul\":1009:1140   */\n      tag_241\n      jump\t// in\n    tag_286:\n        /* \"#utility.yul\":1001:1140   */\n      swap1\n      pop\n        /* \"#utility.yul\":728:1147   */\n      swap2\n      swap1\n      pop\n      jump\t// out\n        /* \"#utility.yul\":1153:1230   */\n    tag_242:\n        /* \"#utility.yul\":1190:1197   */\n      0x00\n        /* \"#utility.yul\":1219:1224   */\n      dup2\n        /* \"#utility.yul\":1208:1224   */\n      swap1\n      pop\n        /* \"#utility.yul\":1153:1230   */\n      swap2\n      swap1\n      pop\n      jump\t// out\n        /* \"#utility.yul\":1236:1416   */\n    tag_243:\n        /* \"#utility.yul\":1284:1361   */\n      0x4e487b7100000000000000000000000000000000000000000000000000000000\n        /* \"#utility.yul\":1281:1282   */\n      0x00\n        /* \"#utility.yul\":1274:1362   */\n      mstore\n        /* \"#utility.yul\":1381:1385   */\n      0x11\n        /* \"#utility.yul\":1378:1379   */\n      0x04\n        /* \"#utility.yul\":1371:1386   */\n      mstore\n        /* \"#utility.yul\":1405:1409   */\n      0x24\n        /* \"#utility.yul\":1402:1403   */\n      0x00\n        /* \"#utility.yul\":1395:1410   */\n      revert\n        /* \"#utility.yul\":1422:1727   */\n    tag_33:\n        /* \"#utility.yul\":1462:1465   */\n      0x00\n        /* \"#utility.yul\":1481:1501   */\n      tag_290\n        /* \"#utility.yul\":1499:1500   */\n      dup3\n        /* \"#utility.yul\":1481:1501   */\n      tag_242\n      jump\t// in\n    tag_290:\n        /* \"#utility.yul\":1476:1501   */\n      swap2\n      pop\n        /* \"#utility.yul\":1515:1535   */\n      tag_291\n        /* \"#utility.yul\":1533:1534   */\n      dup4\n        /* \"#utility.yul\":1515:1535   */\n      tag_242\n      jump\t// in\n    tag_291:\n        /* \"#utility.yul\":1510:1535   */\n      swap3\n      pop\n        /* \"#utility.yul\":1669:1670   */\n      dup3\n        /* \"#utility.yul\":1601:1667   */\n      0xffffffffffffffffffffffffffffffffffffffffffffffffffffffffffffffff\n        /* \"#utility.yul\":1597:1671   */\n      sub\n        /* \"#utility.yul\":1594:1595   */\n      dup3\n        /* \"#utility.yul\":1591:1672   */\n      gt\n        /* \"#utility.yul\":1588:1695   */\n      iszero\n      tag_292\n      jumpi\n        /* \"#utility.yul\":1675:1693   */\n      tag_293\n      tag_243\n      jump\t// in\n    tag_293:\n        /* \"#utility.yul\":1588:1695   */\n    tag_292:\n        /* \"#utility.yul\":1719:1720   */\n      dup3\n        /* \"#utility.yul\":1716:1717   */\n      dup3\n        /* \"#utility.yul\":1712:1721   */\n      add\n        /* \"#utility.yul\":1705:1721   */\n      swap1\n      pop\n        /* \"#utility.yul\":1422:1727   */\n      swap3\n      swap2\n      pop\n      pop\n      jump\t// out\n        /* \"#utility.yul\":1733:1913   */\n    tag_244:\n        /* \"#utility.yul\":1781:1858   */\n      0x4e487b7100000000000000000000000000000000000000000000000000000000\n        /* \"#utility.yul\":1778:1779   */\n      0x00\n        /* \"#utility.yul\":1771:1859   */\n      mstore\n        /* \"#utility.yul\":1878:1882   */\n      0x12\n        /* \"#utility.yul\":1875:1876   */\n      0x04\n        /* \"#utility.yul\":1868:1883   */\n      mstore\n        /* \"#utility.yul\":1902:1906   */\n      0x24\n        /* \"#utility.yul\":1899:1900   */\n      0x00\n        /* \"#utility.yul\":1892:1907   */\n      revert\n        /* \"#utility.yul\":1919:2104   */\n    tag_35:\n        /* \"#utility.yul\":1959:1960   */\n      0x00\n        /* \"#utility.yul\":1976:1996   */\n      tag_296\n        /* \"#utility.yul\":1994:1995   */\n      dup3\n        /* \"#utility.yul\":1976:1996   */\n      tag_242\n      jump\t// in\n    tag_296:\n        /* \"#utility.yul\":1971:1996   */\n      swap2\n      pop\n        /* \"#utility.yul\":2010:2030   */\n      tag_297\n        /* \"#utility.yul\":2028:2029   */\n      dup4\n        /* \"#utility.yul\":2010:2030   */\n      tag_242\n      jump\t// in\n    tag_297:\n        /* \"#utility.yul\":2005:2030   */\n      swap3\n      pop\n        /* \"#utility.yul\":2049:2050   */\n      dup3\n        /* \"#utility.yul\":2039:2074   */\n      tag_298\n      jumpi\n        /* \"#utility.yul\":2054:2072   */\n      tag_299\n      tag_244\n      jump\t// in\n    tag_299:\n        /* \"#utility.yul\":2039:2074   */\n    tag_298:\n        /* \"#utility.yul\":2096:2097   */\n      dup3\n        /* \"#utility.yul\":2093:2094   */\n      dup3\n        /* \"#utility.yul\":2089:2098   */\n      div\n        /* \"#utility.yul\":2084:2098   */\n      swap1\n      pop\n        /* \"#utility.yul\":1919:2104   */\n      swap3\n      swap2\n      pop\n      pop\n      jump\t// out\n        /* \"#utility.yul\":2110:2458   */\n    tag_37:\n        /* \"#utility.yul\":2150:2157   */\n      0x00\n        /* \"#utility.yul\":2173:2193   */\n      tag_301\n        /* \"#utility.yul\":2191:2192   */\n      dup3\n        /* \"#utility.yul\":2173:2193   */\n      tag_242\n      jump\t// in\n    tag_301:\n        /* \"#utility.yul\":2168:2193   */\n      swap2\n      pop\n        /* \"#utility.yul\":2207:2227   */\n      tag_302\n        /* \"#utility.yul\":2225:2226   */\n      dup4\n        /* \"#utility.yul\":2207:2227   */\n      tag_242\n      jump\t// in\n    tag_302:\n        /* \"#utility.yul\":2202:2227   */\n      swap3\n      pop\n        /* \"#utility.yul\":2395:2396   */\n      dup2\n        /* \"#utility.yul\":2327:2393   */\n      0xffffffffffffffffffffffffffffffffffffffffffffffffffffffffffffffff\n        /* \"#utility.yul\":2323:2397   */\n      div\n        /* \"#utility.yul\":2320:2321   */\n      dup4\n        /* \"#utility.yul\":2317:2398   */\n      gt\n        /* \"#utility.yul\":2312:2313   */\n      dup3\n        /* \"#utility.yul\":2305:2314   */\n      iszero\n        /* \"#utility.yul\":2298:2315   */\n      iszero\n        /* \"#utility.yul\":2294:2399   */\n      and\n        /* \"#utility.yul\":2291:2422   */\n      iszero\n      tag_303\n      jumpi\n        /* \"#utility.yul\":2402:2420   */\n      tag_304\n      tag_243\n      jump\t// in\n    tag_304:\n        /* \"#utility.yul\":2291:2422   */\n    tag_303:\n        /* \"#utility.yul\":2450:2451   */\n      dup3\n        /* \"#utility.yul\":2447:2448   */\n      dup3\n        /* \"#utility.yul\":2443:2452   */\n      mul\n        /* \"#utility.yul\":2432:2452   */\n      swap1\n      pop\n        /* \"#utility.yul\":2110:2458   */\n      swap3\n      swap2\n      pop\n      pop\n      jump\t// out\n        /* \"#utility.yul\":2464:2632   */\n    tag_245:\n        /* \"#utility.yul\":2604:2624   */\n      0x726563656976652066756e6374696f6e20320000000000000000000000000000\n        /* \"#utility.yul\":2600:2601   */\n      0x00\n        /* \"#utility.yul\":2592:2598   */\n      dup3\n        /* \"#utility.yul\":2588:2602   */\n      add\n        /* \"#utility.yul\":2581:2625   */\n      mstore\n        /* \"#utility.yul\":2464:2632   */\n      pop\n      jump\t// out\n        /* \"#utility.yul\":2638:3004   */\n    tag_246:\n        /* \"#utility.yul\":2780:2783   */\n      0x00\n        /* \"#utility.yul\":2801:2868   */\n      tag_307\n        /* \"#utility.yul\":2865:2867   */\n      0x12\n        /* \"#utility.yul\":2860:2863   */\n      dup4\n        /* \"#utility.yul\":2801:2868   */\n      tag_239\n      jump\t// in\n    tag_307:\n        /* \"#utility.yul\":2794:2868   */\n      swap2\n      pop\n        /* \"#utility.yul\":2877:2970   */\n      tag_308\n        /* \"#utility.yul\":2966:2969   */\n      dup3\n        /* \"#utility.yul\":2877:2970   */\n      tag_245\n      jump\t// in\n    tag_308:\n        /* \"#utility.yul\":2995:2997   */\n      0x20\n        /* \"#utility.yul\":2990:2993   */\n      dup3\n        /* \"#utility.yul\":2986:2998   */\n      add\n        /* \"#utility.yul\":2979:2998   */\n      swap1\n      pop\n        /* \"#utility.yul\":2638:3004   */\n      swap2\n      swap1\n      pop\n      jump\t// out\n        /* \"#utility.yul\":3010:3429   */\n    tag_43:\n        /* \"#utility.yul\":3176:3180   */\n      0x00\n        /* \"#utility.yul\":3214:3216   */\n      0x20\n        /* \"#utility.yul\":3203:3212   */\n      dup3\n        /* \"#utility.yul\":3199:3217   */\n      add\n        /* \"#utility.yul\":3191:3217   */\n      swap1\n      pop\n        /* \"#utility.yul\":3263:3272   */\n      dup2\n        /* \"#utility.yul\":3257:3261   */\n      dup2\n        /* \"#utility.yul\":3253:3273   */\n      sub\n        /* \"#utility.yul\":3249:3250   */\n      0x00\n        /* \"#utility.yul\":3238:3247   */\n      dup4\n        /* \"#utility.yul\":3234:3251   */\n      add\n        /* \"#utility.yul\":3227:3274   */\n      mstore\n        /* \"#utility.yul\":3291:3422   */\n      tag_310\n        /* \"#utility.yul\":3417:3421   */\n      dup2\n        /* \"#utility.yul\":3291:3422   */\n      tag_246\n      jump\t// in\n    tag_310:\n        /* \"#utility.yul\":3283:3422   */\n      swap1\n      pop\n        /* \"#utility.yul\":3010:3429   */\n      swap2\n      swap1\n      pop\n      jump\t// out\n        /* \"#utility.yul\":3435:3561   */\n    tag_247:\n        /* \"#utility.yul\":3472:3479   */\n      0x00\n        /* \"#utility.yul\":3512:3554   */\n      0xffffffffffffffffffffffffffffffffffffffff\n        /* \"#utility.yul\":3505:3510   */\n      dup3\n        /* \"#utility.yul\":3501:3555   */\n      and\n        /* \"#utility.yul\":3490:3555   */\n      swap1\n      pop\n        /* \"#utility.yul\":3435:3561   */\n      swap2\n      swap1\n      pop\n      jump\t// out\n        /* \"#utility.yul\":3567:3663   */\n    tag_248:\n        /* \"#utility.yul\":3604:3611   */\n      0x00\n        /* \"#utility.yul\":3633:3657   */\n      tag_313\n        /* \"#utility.yul\":3651:3656   */\n      dup3\n        /* \"#utility.yul\":3633:3657   */\n      tag_247\n      jump\t// in\n    tag_313:\n        /* \"#utility.yul\":3622:3657   */\n      swap1\n      pop\n        /* \"#utility.yul\":3567:3663   */\n      swap2\n      swap1\n      pop\n      jump\t// out\n        /* \"#utility.yul\":3669:3787   */\n    tag_249:\n        /* \"#utility.yul\":3756:3780   */\n      tag_315\n        /* \"#utility.yul\":3774:3779   */\n      dup2\n        /* \"#utility.yul\":3756:3780   */\n      tag_248\n      jump\t// in\n    tag_315:\n        /* \"#utility.yul\":3751:3754   */\n      dup3\n        /* \"#utility.yul\":3744:3781   */\n      mstore\n        /* \"#utility.yul\":3669:3787   */\n      pop\n      pop\n      jump\t// out\n        /* \"#utility.yul\":3793:3911   */\n    tag_250:\n        /* \"#utility.yul\":3880:3904   */\n      tag_317\n        /* \"#utility.yul\":3898:3903   */\n      dup2\n        /* \"#utility.yul\":3880:3904   */\n      tag_242\n      jump\t// in\n    tag_317:\n        /* \"#utility.yul\":3875:3878   */\n      dup3\n        /* \"#utility.yul\":3868:3905   */\n      mstore\n        /* \"#utility.yul\":3793:3911   */\n      pop\n      pop\n      jump\t// out\n        /* \"#utility.yul\":3917:4359   */\n    tag_48:\n        /* \"#utility.yul\":4066:4070   */\n      0x00\n        /* \"#utility.yul\":4104:4106   */\n      0x60\n        /* \"#utility.yul\":4093:4102   */\n      dup3\n        /* \"#utility.yul\":4089:4107   */\n      add\n        /* \"#utility.yul\":4081:4107   */\n      swap1\n      pop\n        /* \"#utility.yul\":4117:4188   */\n      tag_319\n        /* \"#utility.yul\":4185:4186   */\n      0x00\n        /* \"#utility.yul\":4174:4183   */\n      dup4\n        /* \"#utility.yul\":4170:4187   */\n      add\n        /* \"#utility.yul\":4161:4167   */\n      dup7\n        /* \"#utility.yul\":4117:4188   */\n      tag_249\n      jump\t// in\n    tag_319:\n        /* \"#utility.yul\":4198:4270   */\n      tag_320\n        /* \"#utility.yul\":4266:4268   */\n      0x20\n        /* \"#utility.yul\":4255:4264   */\n      dup4\n        /* \"#utility.yul\":4251:4269   */\n      add\n        /* \"#utility.yul\":4242:4248   */\n      dup6\n        /* \"#utility.yul\":4198:4270   */\n      tag_250\n      jump\t// in\n    tag_320:\n        /* \"#utility.yul\":4280:4352   */\n      tag_321\n        /* \"#utility.yul\":4348:4350   */\n      0x40\n        /* \"#utility.yul\":4337:4346   */\n      dup4\n        /* \"#utility.yul\":4333:4351   */\n      add\n        /* \"#utility.yul\":4324:4330   */\n      dup5\n        /* \"#utility.yul\":4280:4352   */\n      tag_250\n      jump\t// in\n    tag_321:\n        /* \"#utility.yul\":3917:4359   */\n      swap5\n      swap4\n      pop\n      pop\n      pop\n      pop\n      jump\t// out\n        /* \"#utility.yul\":4365:4587   */\n    tag_59:\n        /* \"#utility.yul\":4458:4462   */\n      0x00\n        /* \"#utility.yul\":4496:4498   */\n      0x20\n        /* \"#utility.yul\":4485:4494   */\n      dup3\n        /* \"#utility.yul\":4481:4499   */\n      add\n        /* \"#utility.yul\":4473:4499   */\n      swap1\n      pop\n        /* \"#utility.yul\":4509:4580   */\n      tag_323\n        /* \"#utility.yul\":4577:4578   */\n      0x00\n        /* \"#utility.yul\":4566:4575   */\n      dup4\n        /* \"#utility.yul\":4562:4579   */\n      add\n        /* \"#utility.yul\":4553:4559   */\n      dup5\n        /* \"#utility.yul\":4509:4580   */\n      tag_250\n      jump\t// in\n    tag_323:\n        /* \"#utility.yul\":4365:4587   */\n      swap3\n      swap2\n      pop\n      pop\n      jump\t// out\n        /* \"#utility.yul\":4674:4791   */\n    tag_252:\n        /* \"#utility.yul\":4783:4784   */\n      0x00\n        /* \"#utility.yul\":4780:4781   */\n      dup1\n        /* \"#utility.yul\":4773:4785   */\n      revert\n        /* \"#utility.yul\":4920:5042   */\n    tag_254:\n        /* \"#utility.yul\":4993:5017   */\n      tag_328\n        /* \"#utility.yul\":5011:5016   */\n      dup2\n        /* \"#utility.yul\":4993:5017   */\n      tag_248\n      jump\t// in\n    tag_328:\n        /* \"#utility.yul\":4986:4991   */\n      dup2\n        /* \"#utility.yul\":4983:5018   */\n      eq\n        /* \"#utility.yul\":4973:5036   */\n      tag_329\n      jumpi\n        /* \"#utility.yul\":5032:5033   */\n      0x00\n        /* \"#utility.yul\":5029:5030   */\n      dup1\n        /* \"#utility.yul\":5022:5034   */\n      revert\n        /* \"#utility.yul\":4973:5036   */\n    tag_329:\n        /* \"#utility.yul\":4920:5042   */\n      pop\n      jump\t// out\n        /* \"#utility.yul\":5048:5187   */\n    tag_255:\n        /* \"#utility.yul\":5094:5099   */\n      0x00\n        /* \"#utility.yul\":5132:5138   */\n      dup2\n        /* \"#utility.yul\":5119:5139   */\n      calldataload\n        /* \"#utility.yul\":5110:5139   */\n      swap1\n      pop\n        /* \"#utility.yul\":5148:5181   */\n      tag_331\n        /* \"#utility.yul\":5175:5180   */\n      dup2\n        /* \"#utility.yul\":5148:5181   */\n      tag_254\n      jump\t// in\n    tag_331:\n        /* \"#utility.yul\":5048:5187   */\n      swap3\n      swap2\n      pop\n      pop\n      jump\t// out\n        /* \"#utility.yul\":5193:5522   */\n    tag_70:\n        /* \"#utility.yul\":5252:5258   */\n      0x00\n        /* \"#utility.yul\":5301:5303   */\n      0x20\n        /* \"#utility.yul\":5289:5298   */\n      dup3\n        /* \"#utility.yul\":5280:5287   */\n      dup5\n        /* \"#utility.yul\":5276:5299   */\n      sub\n        /* \"#utility.yul\":5272:5304   */\n      slt\n        /* \"#utility.yul\":5269:5388   */\n      iszero\n      tag_333\n      jumpi\n        /* \"#utility.yul\":5307:5386   */\n      tag_334\n      tag_252\n      jump\t// in\n    tag_334:\n        /* \"#utility.yul\":5269:5388   */\n    tag_333:\n        /* \"#utility.yul\":5427:5428   */\n      0x00\n        /* \"#utility.yul\":5452:5505   */\n      tag_335\n        /* \"#utility.yul\":5497:5504   */\n      dup5\n        /* \"#utility.yul\":5488:5494   */\n      dup3\n        /* \"#utility.yul\":5477:5486   */\n      dup6\n        /* \"#utility.yul\":5473:5495   */\n      add\n        /* \"#utility.yul\":5452:5505   */\n      tag_255\n      jump\t// in\n    tag_335:\n        /* \"#utility.yul\":5442:5505   */\n      swap2\n      pop\n        /* \"#utility.yul\":5398:5515   */\n      pop\n        /* \"#utility.yul\":5193:5522   */\n      swap3\n      swap2\n      pop\n      pop\n      jump\t// out\n        /* \"#utility.yul\":5528:5618   */\n    tag_256:\n        /* \"#utility.yul\":5562:5569   */\n      0x00\n        /* \"#utility.yul\":5605:5610   */\n      dup2\n        /* \"#utility.yul\":5598:5611   */\n      iszero\n        /* \"#utility.yul\":5591:5612   */\n      iszero\n        /* \"#utility.yul\":5580:5612   */\n      swap1\n      pop\n        /* \"#utility.yul\":5528:5618   */\n      swap2\n      swap1\n      pop\n      jump\t// out\n        /* \"#utility.yul\":5624:5733   */\n    tag_257:\n        /* \"#utility.yul\":5705:5726   */\n      tag_338\n        /* \"#utility.yul\":5720:5725   */\n      dup2\n        /* \"#utility.yul\":5705:5726   */\n      tag_256\n      jump\t// in\n    tag_338:\n        /* \"#utility.yul\":5700:5703   */\n      dup3\n        /* \"#utility.yul\":5693:5727   */\n      mstore\n        /* \"#utility.yul\":5624:5733   */\n      pop\n      pop\n      jump\t// out\n        /* \"#utility.yul\":5739:6169   */\n    tag_73:\n        /* \"#utility.yul\":5882:5886   */\n      0x00\n        /* \"#utility.yul\":5920:5922   */\n      0x60\n        /* \"#utility.yul\":5909:5918   */\n      dup3\n        /* \"#utility.yul\":5905:5923   */\n      add\n        /* \"#utility.yul\":5897:5923   */\n      swap1\n      pop\n        /* \"#utility.yul\":5933:6004   */\n      tag_340\n        /* \"#utility.yul\":6001:6002   */\n      0x00\n        /* \"#utility.yul\":5990:5999   */\n      dup4\n        /* \"#utility.yul\":5986:6003   */\n      add\n        /* \"#utility.yul\":5977:5983   */\n      dup7\n        /* \"#utility.yul\":5933:6004   */\n      tag_250\n      jump\t// in\n    tag_340:\n        /* \"#utility.yul\":6014:6086   */\n      tag_341\n        /* \"#utility.yul\":6082:6084   */\n      0x20\n        /* \"#utility.yul\":6071:6080   */\n      dup4\n        /* \"#utility.yul\":6067:6085   */\n      add\n        /* \"#utility.yul\":6058:6064   */\n      dup6\n        /* \"#utility.yul\":6014:6086   */\n      tag_250\n      jump\t// in\n    tag_341:\n        /* \"#utility.yul\":6096:6162   */\n      tag_342\n        /* \"#utility.yul\":6158:6160   */\n      0x40\n        /* \"#utility.yul\":6147:6156   */\n      dup4\n        /* \"#utility.yul\":6143:6161   */\n      add\n        /* \"#utility.yul\":6134:6140   */\n      dup5\n        /* \"#utility.yul\":6096:6162   */\n      tag_257\n      jump\t// in\n    tag_342:\n        /* \"#utility.yul\":5739:6169   */\n      swap5\n      swap4\n      pop\n      pop\n      pop\n      pop\n      jump\t// out\n        /* \"#utility.yul\":6175:6385   */\n    tag_82:\n        /* \"#utility.yul\":6262:6266   */\n      0x00\n        /* \"#utility.yul\":6300:6302   */\n      0x20\n        /* \"#utility.yul\":6289:6298   */\n      dup3\n        /* \"#utility.yul\":6285:6303   */\n      add\n        /* \"#utility.yul\":6277:6303   */\n      swap1\n      pop\n        /* \"#utility.yul\":6313:6378   */\n      tag_344\n        /* \"#utility.yul\":6375:6376   */\n      0x00\n        /* \"#utility.yul\":6364:6373   */\n      dup4\n        /* \"#utility.yul\":6360:6377   */\n      add\n        /* \"#utility.yul\":6351:6357   */\n      dup5\n        /* \"#utility.yul\":6313:6378   */\n      tag_257\n      jump\t// in\n    tag_344:\n        /* \"#utility.yul\":6175:6385   */\n      swap3\n      swap2\n      pop\n      pop\n      jump\t// out\n        /* \"#utility.yul\":6391:6451   */\n    tag_258:\n        /* \"#utility.yul\":6419:6422   */\n      0x00\n        /* \"#utility.yul\":6440:6445   */\n      dup2\n        /* \"#utility.yul\":6433:6445   */\n      swap1\n      pop\n        /* \"#utility.yul\":6391:6451   */\n      swap2\n      swap1\n      pop\n      jump\t// out\n        /* \"#utility.yul\":6457:6599   */\n    tag_259:\n        /* \"#utility.yul\":6507:6516   */\n      0x00\n        /* \"#utility.yul\":6540:6593   */\n      tag_347\n        /* \"#utility.yul\":6558:6592   */\n      tag_348\n        /* \"#utility.yul\":6567:6591   */\n      tag_349\n        /* \"#utility.yul\":6585:6590   */\n      dup5\n        /* \"#utility.yul\":6567:6591   */\n      tag_247\n      jump\t// in\n    tag_349:\n        /* \"#utility.yul\":6558:6592   */\n      tag_258\n      jump\t// in\n    tag_348:\n        /* \"#utility.yul\":6540:6593   */\n      tag_247\n      jump\t// in\n    tag_347:\n        /* \"#utility.yul\":6527:6593   */\n      swap1\n      pop\n        /* \"#utility.yul\":6457:6599   */\n      swap2\n      swap1\n      pop\n      jump\t// out\n        /* \"#utility.yul\":6605:6731   */\n    tag_260:\n        /* \"#utility.yul\":6655:6664   */\n      0x00\n        /* \"#utility.yul\":6688:6725   */\n      tag_351\n        /* \"#utility.yul\":6719:6724   */\n      dup3\n        /* \"#utility.yul\":6688:6725   */\n      tag_259\n      jump\t// in\n    tag_351:\n        /* \"#utility.yul\":6675:6725   */\n      swap1\n      pop\n        /* \"#utility.yul\":6605:6731   */\n      swap2\n      swap1\n      pop\n      jump\t// out\n        /* \"#utility.yul\":6737:6881   */\n    tag_261:\n        /* \"#utility.yul\":6805:6814   */\n      0x00\n        /* \"#utility.yul\":6838:6875   */\n      tag_353\n        /* \"#utility.yul\":6869:6874   */\n      dup3\n        /* \"#utility.yul\":6838:6875   */\n      tag_260\n      jump\t// in\n    tag_353:\n        /* \"#utility.yul\":6825:6875   */\n      swap1\n      pop\n        /* \"#utility.yul\":6737:6881   */\n      swap2\n      swap1\n      pop\n      jump\t// out\n        /* \"#utility.yul\":6887:7054   */\n    tag_262:\n        /* \"#utility.yul\":6992:7047   */\n      tag_355\n        /* \"#utility.yul\":7041:7046   */\n      dup2\n        /* \"#utility.yul\":6992:7047   */\n      tag_261\n      jump\t// in\n    tag_355:\n        /* \"#utility.yul\":6987:6990   */\n      dup3\n        /* \"#utility.yul\":6980:7048   */\n      mstore\n        /* \"#utility.yul\":6887:7054   */\n      pop\n      pop\n      jump\t// out\n        /* \"#utility.yul\":7060:7318   */\n    tag_87:\n        /* \"#utility.yul\":7171:7175   */\n      0x00\n        /* \"#utility.yul\":7209:7211   */\n      0x20\n        /* \"#utility.yul\":7198:7207   */\n      dup3\n        /* \"#utility.yul\":7194:7212   */\n      add\n        /* \"#utility.yul\":7186:7212   */\n      swap1\n      pop\n        /* \"#utility.yul\":7222:7311   */\n      tag_357\n        /* \"#utility.yul\":7308:7309   */\n      0x00\n        /* \"#utility.yul\":7297:7306   */\n      dup4\n        /* \"#utility.yul\":7293:7310   */\n      add\n        /* \"#utility.yul\":7284:7290   */\n      dup5\n        /* \"#utility.yul\":7222:7311   */\n      tag_262\n      jump\t// in\n    tag_357:\n        /* \"#utility.yul\":7060:7318   */\n      swap3\n      swap2\n      pop\n      pop\n      jump\t// out\n        /* \"#utility.yul\":7324:7546   */\n    tag_100:\n        /* \"#utility.yul\":7417:7421   */\n      0x00\n        /* \"#utility.yul\":7455:7457   */\n      0x20\n        /* \"#utility.yul\":7444:7453   */\n      dup3\n        /* \"#utility.yul\":7440:7458   */\n      add\n        /* \"#utility.yul\":7432:7458   */\n      swap1\n      pop\n        /* \"#utility.yul\":7468:7539   */\n      tag_359\n        /* \"#utility.yul\":7536:7537   */\n      0x00\n        /* \"#utility.yul\":7525:7534   */\n      dup4\n        /* \"#utility.yul\":7521:7538   */\n      add\n        /* \"#utility.yul\":7512:7518   */\n      dup5\n        /* \"#utility.yul\":7468:7539   */\n      tag_249\n      jump\t// in\n    tag_359:\n        /* \"#utility.yul\":7324:7546   */\n      swap3\n      swap2\n      pop\n      pop\n      jump\t// out\n        /* \"#utility.yul\":7552:7674   */\n    tag_263:\n        /* \"#utility.yul\":7625:7649   */\n      tag_361\n        /* \"#utility.yul\":7643:7648   */\n      dup2\n        /* \"#utility.yul\":7625:7649   */\n      tag_242\n      jump\t// in\n    tag_361:\n        /* \"#utility.yul\":7618:7623   */\n      dup2\n        /* \"#utility.yul\":7615:7650   */\n      eq\n        /* \"#utility.yul\":7605:7668   */\n      tag_362\n      jumpi\n        /* \"#utility.yul\":7664:7665   */\n      0x00\n        /* \"#utility.yul\":7661:7662   */\n      dup1\n        /* \"#utility.yul\":7654:7666   */\n      revert\n        /* \"#utility.yul\":7605:7668   */\n    tag_362:\n        /* \"#utility.yul\":7552:7674   */\n      pop\n      jump\t// out\n        /* \"#utility.yul\":7680:7819   */\n    tag_264:\n        /* \"#utility.yul\":7726:7731   */\n      0x00\n        /* \"#utility.yul\":7764:7770   */\n      dup2\n        /* \"#utility.yul\":7751:7771   */\n      calldataload\n        /* \"#utility.yul\":7742:7771   */\n      swap1\n      pop\n        /* \"#utility.yul\":7780:7813   */\n      tag_364\n        /* \"#utility.yul\":7807:7812   */\n      dup2\n        /* \"#utility.yul\":7780:7813   */\n      tag_263\n      jump\t// in\n    tag_364:\n        /* \"#utility.yul\":7680:7819   */\n      swap3\n      swap2\n      pop\n      pop\n      jump\t// out\n        /* \"#utility.yul\":7825:8154   */\n    tag_104:\n        /* \"#utility.yul\":7884:7890   */\n      0x00\n        /* \"#utility.yul\":7933:7935   */\n      0x20\n        /* \"#utility.yul\":7921:7930   */\n      dup3\n        /* \"#utility.yul\":7912:7919   */\n      dup5\n        /* \"#utility.yul\":7908:7931   */\n      sub\n        /* \"#utility.yul\":7904:7936   */\n      slt\n        /* \"#utility.yul\":7901:8020   */\n      iszero\n      tag_366\n      jumpi\n        /* \"#utility.yul\":7939:8018   */\n      tag_367\n      tag_252\n      jump\t// in\n    tag_367:\n        /* \"#utility.yul\":7901:8020   */\n    tag_366:\n        /* \"#utility.yul\":8059:8060   */\n      0x00\n        /* \"#utility.yul\":8084:8137   */\n      tag_368\n        /* \"#utility.yul\":8129:8136   */\n      dup5\n        /* \"#utility.yul\":8120:8126   */\n      dup3\n        /* \"#utility.yul\":8109:8118   */\n      dup6\n        /* \"#utility.yul\":8105:8127   */\n      add\n        /* \"#utility.yul\":8084:8137   */\n      tag_264\n      jump\t// in\n    tag_368:\n        /* \"#utility.yul\":8074:8137   */\n      swap2\n      pop\n        /* \"#utility.yul\":8030:8147   */\n      pop\n        /* \"#utility.yul\":7825:8154   */\n      swap3\n      swap2\n      pop\n      pop\n      jump\t// out\n        /* \"#utility.yul\":8160:8602   */\n    tag_121:\n        /* \"#utility.yul\":8309:8313   */\n      0x00\n        /* \"#utility.yul\":8347:8349   */\n      0x60\n        /* \"#utility.yul\":8336:8345   */\n      dup3\n        /* \"#utility.yul\":8332:8350   */\n      add\n        /* \"#utility.yul\":8324:8350   */\n      swap1\n      pop\n        /* \"#utility.yul\":8360:8431   */\n      tag_370\n        /* \"#utility.yul\":8428:8429   */\n      0x00\n        /* \"#utility.yul\":8417:8426   */\n      dup4\n        /* \"#utility.yul\":8413:8430   */\n      add\n        /* \"#utility.yul\":8404:8410   */\n      dup7\n        /* \"#utility.yul\":8360:8431   */\n      tag_250\n      jump\t// in\n    tag_370:\n        /* \"#utility.yul\":8441:8513   */\n      tag_371\n        /* \"#utility.yul\":8509:8511   */\n      0x20\n        /* \"#utility.yul\":8498:8507   */\n      dup4\n        /* \"#utility.yul\":8494:8512   */\n      add\n        /* \"#utility.yul\":8485:8491   */\n      dup6\n        /* \"#utility.yul\":8441:8513   */\n      tag_250\n      jump\t// in\n    tag_371:\n        /* \"#utility.yul\":8523:8595   */\n      tag_372\n        /* \"#utility.yul\":8591:8593   */\n      0x40\n        /* \"#utility.yul\":8580:8589   */\n      dup4\n        /* \"#utility.yul\":8576:8594   */\n      add\n        /* \"#utility.yul\":8567:8573   */\n      dup5\n        /* \"#utility.yul\":8523:8595   */\n      tag_250\n      jump\t// in\n    tag_372:\n        /* \"#utility.yul\":8160:8602   */\n      swap5\n      swap4\n      pop\n      pop\n      pop\n      pop\n      jump\t// out\n        /* \"#utility.yul\":8608:8771   */\n    tag_265:\n        /* \"#utility.yul\":8748:8763   */\n      0x6166746572446561646c696e6500000000000000000000000000000000000000\n        /* \"#utility.yul\":8744:8745   */\n      0x00\n        /* \"#utility.yul\":8736:8742   */\n      dup3\n        /* \"#utility.yul\":8732:8746   */\n      add\n        /* \"#utility.yul\":8725:8764   */\n      mstore\n        /* \"#utility.yul\":8608:8771   */\n      pop\n      jump\t// out\n        /* \"#utility.yul\":8777:9143   */\n    tag_266:\n        /* \"#utility.yul\":8919:8922   */\n      0x00\n        /* \"#utility.yul\":8940:9007   */\n      tag_375\n        /* \"#utility.yul\":9004:9006   */\n      0x0d\n        /* \"#utility.yul\":8999:9002   */\n      dup4\n        /* \"#utility.yul\":8940:9007   */\n      tag_239\n      jump\t// in\n    tag_375:\n        /* \"#utility.yul\":8933:9007   */\n      swap2\n      pop\n        /* \"#utility.yul\":9016:9109   */\n      tag_376\n        /* \"#utility.yul\":9105:9108   */\n      dup3\n        /* \"#utility.yul\":9016:9109   */\n      tag_265\n      jump\t// in\n    tag_376:\n        /* \"#utility.yul\":9134:9136   */\n      0x20\n        /* \"#utility.yul\":9129:9132   */\n      dup3\n        /* \"#utility.yul\":9125:9137   */\n      add\n        /* \"#utility.yul\":9118:9137   */\n      swap1\n      pop\n        /* \"#utility.yul\":8777:9143   */\n      swap2\n      swap1\n      pop\n      jump\t// out\n        /* \"#utility.yul\":9149:9568   */\n    tag_139:\n        /* \"#utility.yul\":9315:9319   */\n      0x00\n        /* \"#utility.yul\":9353:9355   */\n      0x20\n        /* \"#utility.yul\":9342:9351   */\n      dup3\n        /* \"#utility.yul\":9338:9356   */\n      add\n        /* \"#utility.yul\":9330:9356   */\n      swap1\n      pop\n        /* \"#utility.yul\":9402:9411   */\n      dup2\n        /* \"#utility.yul\":9396:9400   */\n      dup2\n        /* \"#utility.yul\":9392:9412   */\n      sub\n        /* \"#utility.yul\":9388:9389   */\n      0x00\n        /* \"#utility.yul\":9377:9386   */\n      dup4\n        /* \"#utility.yul\":9373:9390   */\n      add\n        /* \"#utility.yul\":9366:9413   */\n      mstore\n        /* \"#utility.yul\":9430:9561   */\n      tag_378\n        /* \"#utility.yul\":9556:9560   */\n      dup2\n        /* \"#utility.yul\":9430:9561   */\n      tag_266\n      jump\t// in\n    tag_378:\n        /* \"#utility.yul\":9422:9561   */\n      swap1\n      pop\n        /* \"#utility.yul\":9149:9568   */\n      swap2\n      swap1\n      pop\n      jump\t// out\n        /* \"#utility.yul\":9574:10226   */\n    tag_144:\n        /* \"#utility.yul\":9773:9777   */\n      0x00\n        /* \"#utility.yul\":9811:9814   */\n      0xa0\n        /* \"#utility.yul\":9800:9809   */\n      dup3\n        /* \"#utility.yul\":9796:9815   */\n      add\n        /* \"#utility.yul\":9788:9815   */\n      swap1\n      pop\n        /* \"#utility.yul\":9825:9896   */\n      tag_380\n        /* \"#utility.yul\":9893:9894   */\n      0x00\n        /* \"#utility.yul\":9882:9891   */\n      dup4\n        /* \"#utility.yul\":9878:9895   */\n      add\n        /* \"#utility.yul\":9869:9875   */\n      dup9\n        /* \"#utility.yul\":9825:9896   */\n      tag_249\n      jump\t// in\n    tag_380:\n        /* \"#utility.yul\":9906:9978   */\n      tag_381\n        /* \"#utility.yul\":9974:9976   */\n      0x20\n        /* \"#utility.yul\":9963:9972   */\n      dup4\n        /* \"#utility.yul\":9959:9977   */\n      add\n        /* \"#utility.yul\":9950:9956   */\n      dup8\n        /* \"#utility.yul\":9906:9978   */\n      tag_250\n      jump\t// in\n    tag_381:\n        /* \"#utility.yul\":9988:10060   */\n      tag_382\n        /* \"#utility.yul\":10056:10058   */\n      0x40\n        /* \"#utility.yul\":10045:10054   */\n      dup4\n        /* \"#utility.yul\":10041:10059   */\n      add\n        /* \"#utility.yul\":10032:10038   */\n      dup7\n        /* \"#utility.yul\":9988:10060   */\n      tag_250\n      jump\t// in\n    tag_382:\n        /* \"#utility.yul\":10070:10136   */\n      tag_383\n        /* \"#utility.yul\":10132:10134   */\n      0x60\n        /* \"#utility.yul\":10121:10130   */\n      dup4\n        /* \"#utility.yul\":10117:10135   */\n      add\n        /* \"#utility.yul\":10108:10114   */\n      dup6\n        /* \"#utility.yul\":10070:10136   */\n      tag_257\n      jump\t// in\n    tag_383:\n        /* \"#utility.yul\":10146:10219   */\n      tag_384\n        /* \"#utility.yul\":10214:10217   */\n      0x80\n        /* \"#utility.yul\":10203:10212   */\n      dup4\n        /* \"#utility.yul\":10199:10218   */\n      add\n        /* \"#utility.yul\":10190:10196   */\n      dup5\n        /* \"#utility.yul\":10146:10219   */\n      tag_250\n      jump\t// in\n    tag_384:\n        /* \"#utility.yul\":9574:10226   */\n      swap7\n      swap6\n      pop\n      pop\n      pop\n      pop\n      pop\n      pop\n      jump\t// out\n        /* \"#utility.yul\":10232:10391   */\n    tag_267:\n        /* \"#utility.yul\":10372:10383   */\n      0x6f6e6c794f776e65720000000000000000000000000000000000000000000000\n        /* \"#utility.yul\":10368:10369   */\n      0x00\n        /* \"#utility.yul\":10360:10366   */\n      dup3\n        /* \"#utility.yul\":10356:10370   */\n      add\n        /* \"#utility.yul\":10349:10384   */\n      mstore\n        /* \"#utility.yul\":10232:10391   */\n      pop\n      jump\t// out\n        /* \"#utility.yul\":10397:10762   */\n    tag_268:\n        /* \"#utility.yul\":10539:10542   */\n      0x00\n        /* \"#utility.yul\":10560:10626   */\n      tag_387\n        /* \"#utility.yul\":10624:10625   */\n      0x09\n        /* \"#utility.yul\":10619:10622   */\n      dup4\n        /* \"#utility.yul\":10560:10626   */\n      tag_239\n      jump\t// in\n    tag_387:\n        /* \"#utility.yul\":10553:10626   */\n      swap2\n      pop\n        /* \"#utility.yul\":10635:10728   */\n      tag_388\n        /* \"#utility.yul\":10724:10727   */\n      dup3\n        /* \"#utility.yul\":10635:10728   */\n      tag_267\n      jump\t// in\n    tag_388:\n        /* \"#utility.yul\":10753:10755   */\n      0x20\n        /* \"#utility.yul\":10748:10751   */\n      dup3\n        /* \"#utility.yul\":10744:10756   */\n      add\n        /* \"#utility.yul\":10737:10756   */\n      swap1\n      pop\n        /* \"#utility.yul\":10397:10762   */\n      swap2\n      swap1\n      pop\n      jump\t// out\n        /* \"#utility.yul\":10768:11187   */\n    tag_148:\n        /* \"#utility.yul\":10934:10938   */\n      0x00\n        /* \"#utility.yul\":10972:10974   */\n      0x20\n        /* \"#utility.yul\":10961:10970   */\n      dup3\n        /* \"#utility.yul\":10957:10975   */\n      add\n        /* \"#utility.yul\":10949:10975   */\n      swap1\n      pop\n        /* \"#utility.yul\":11021:11030   */\n      dup2\n        /* \"#utility.yul\":11015:11019   */\n      dup2\n        /* \"#utility.yul\":11011:11031   */\n      sub\n        /* \"#utility.yul\":11007:11008   */\n      0x00\n        /* \"#utility.yul\":10996:11005   */\n      dup4\n        /* \"#utility.yul\":10992:11009   */\n      add\n        /* \"#utility.yul\":10985:11032   */\n      mstore\n        /* \"#utility.yul\":11049:11180   */\n      tag_390\n        /* \"#utility.yul\":11175:11179   */\n      dup2\n        /* \"#utility.yul\":11049:11180   */\n      tag_268\n      jump\t// in\n    tag_390:\n        /* \"#utility.yul\":11041:11180   */\n      swap1\n      pop\n        /* \"#utility.yul\":10768:11187   */\n      swap2\n      swap1\n      pop\n      jump\t// out\n        /* \"#utility.yul\":11193:11358   */\n    tag_269:\n        /* \"#utility.yul\":11333:11350   */\n      0x7769746864726177616c4f776e65720000000000000000000000000000000000\n        /* \"#utility.yul\":11329:11330   */\n      0x00\n        /* \"#utility.yul\":11321:11327   */\n      dup3\n        /* \"#utility.yul\":11317:11331   */\n      add\n        /* \"#utility.yul\":11310:11351   */\n      mstore\n        /* \"#utility.yul\":11193:11358   */\n      pop\n      jump\t// out\n        /* \"#utility.yul\":11364:11730   */\n    tag_270:\n        /* \"#utility.yul\":11506:11509   */\n      0x00\n        /* \"#utility.yul\":11527:11594   */\n      tag_393\n        /* \"#utility.yul\":11591:11593   */\n      0x0f\n        /* \"#utility.yul\":11586:11589   */\n      dup4\n        /* \"#utility.yul\":11527:11594   */\n      tag_239\n      jump\t// in\n    tag_393:\n        /* \"#utility.yul\":11520:11594   */\n      swap2\n      pop\n        /* \"#utility.yul\":11603:11696   */\n      tag_394\n        /* \"#utility.yul\":11692:11695   */\n      dup3\n        /* \"#utility.yul\":11603:11696   */\n      tag_269\n      jump\t// in\n    tag_394:\n        /* \"#utility.yul\":11721:11723   */\n      0x20\n        /* \"#utility.yul\":11716:11719   */\n      dup3\n        /* \"#utility.yul\":11712:11724   */\n      add\n        /* \"#utility.yul\":11705:11724   */\n      swap1\n      pop\n        /* \"#utility.yul\":11364:11730   */\n      swap2\n      swap1\n      pop\n      jump\t// out\n        /* \"#utility.yul\":11736:12155   */\n    tag_152:\n        /* \"#utility.yul\":11902:11906   */\n      0x00\n        /* \"#utility.yul\":11940:11942   */\n      0x20\n        /* \"#utility.yul\":11929:11938   */\n      dup3\n        /* \"#utility.yul\":11925:11943   */\n      add\n        /* \"#utility.yul\":11917:11943   */\n      swap1\n      pop\n        /* \"#utility.yul\":11989:11998   */\n      dup2\n        /* \"#utility.yul\":11983:11987   */\n      dup2\n        /* \"#utility.yul\":11979:11999   */\n      sub\n        /* \"#utility.yul\":11975:11976   */\n      0x00\n        /* \"#utility.yul\":11964:11973   */\n      dup4\n        /* \"#utility.yul\":11960:11977   */\n      add\n        /* \"#utility.yul\":11953:12000   */\n      mstore\n        /* \"#utility.yul\":12017:12148   */\n      tag_396\n        /* \"#utility.yul\":12143:12147   */\n      dup2\n        /* \"#utility.yul\":12017:12148   */\n      tag_270\n      jump\t// in\n    tag_396:\n        /* \"#utility.yul\":12009:12148   */\n      swap1\n      pop\n        /* \"#utility.yul\":11736:12155   */\n      swap2\n      swap1\n      pop\n      jump\t// out\n        /* \"#utility.yul\":12161:12308   */\n    tag_271:\n        /* \"#utility.yul\":12262:12273   */\n      0x00\n        /* \"#utility.yul\":12299:12302   */\n      dup2\n        /* \"#utility.yul\":12284:12302   */\n      swap1\n      pop\n        /* \"#utility.yul\":12161:12308   */\n      swap3\n      swap2\n      pop\n      pop\n      jump\t// out\n        /* \"#utility.yul\":12314:12428   */\n    tag_272:\n      pop\n      jump\t// out\n        /* \"#utility.yul\":12434:12832   */\n    tag_273:\n        /* \"#utility.yul\":12593:12596   */\n      0x00\n        /* \"#utility.yul\":12614:12697   */\n      tag_400\n        /* \"#utility.yul\":12695:12696   */\n      0x00\n        /* \"#utility.yul\":12690:12693   */\n      dup4\n        /* \"#utility.yul\":12614:12697   */\n      tag_271\n      jump\t// in\n    tag_400:\n        /* \"#utility.yul\":12607:12697   */\n      swap2\n      pop\n        /* \"#utility.yul\":12706:12799   */\n      tag_401\n        /* \"#utility.yul\":12795:12798   */\n      dup3\n        /* \"#utility.yul\":12706:12799   */\n      tag_272\n      jump\t// in\n    tag_401:\n        /* \"#utility.yul\":12824:12825   */\n      0x00\n        /* \"#utility.yul\":12819:12822   */\n      dup3\n        /* \"#utility.yul\":12815:12826   */\n      add\n        /* \"#utility.yul\":12808:12826   */\n      swap1\n      pop\n        /* \"#utility.yul\":12434:12832   */\n      swap2\n      swap1\n      pop\n      jump\t// out\n        /* \"#utility.yul\":12838:13217   */\n    tag_156:\n        /* \"#utility.yul\":13022:13025   */\n      0x00\n        /* \"#utility.yul\":13044:13191   */\n      tag_403\n        /* \"#utility.yul\":13187:13190   */\n      dup3\n        /* \"#utility.yul\":13044:13191   */\n      tag_273\n      jump\t// in\n    tag_403:\n        /* \"#utility.yul\":13037:13191   */\n      swap2\n      pop\n        /* \"#utility.yul\":13208:13211   */\n      dup2\n        /* \"#utility.yul\":13201:13211   */\n      swap1\n      pop\n        /* \"#utility.yul\":12838:13217   */\n      swap2\n      swap1\n      pop\n      jump\t// out\n        /* \"#utility.yul\":13223:13653   */\n    tag_161:\n        /* \"#utility.yul\":13366:13370   */\n      0x00\n        /* \"#utility.yul\":13404:13406   */\n      0x60\n        /* \"#utility.yul\":13393:13402   */\n      dup3\n        /* \"#utility.yul\":13389:13407   */\n      add\n        /* \"#utility.yul\":13381:13407   */\n      swap1\n      pop\n        /* \"#utility.yul\":13417:13488   */\n      tag_405\n        /* \"#utility.yul\":13485:13486   */\n      0x00\n        /* \"#utility.yul\":13474:13483   */\n      dup4\n        /* \"#utility.yul\":13470:13487   */\n      add\n        /* \"#utility.yul\":13461:13467   */\n      dup7\n        /* \"#utility.yul\":13417:13488   */\n      tag_249\n      jump\t// in\n    tag_405:\n        /* \"#utility.yul\":13498:13570   */\n      tag_406\n        /* \"#utility.yul\":13566:13568   */\n      0x20\n        /* \"#utility.yul\":13555:13564   */\n      dup4\n        /* \"#utility.yul\":13551:13569   */\n      add\n        /* \"#utility.yul\":13542:13548   */\n      dup6\n        /* \"#utility.yul\":13498:13570   */\n      tag_250\n      jump\t// in\n    tag_406:\n        /* \"#utility.yul\":13580:13646   */\n      tag_407\n        /* \"#utility.yul\":13642:13644   */\n      0x40\n        /* \"#utility.yul\":13631:13640   */\n      dup4\n        /* \"#utility.yul\":13627:13645   */\n      add\n        /* \"#utility.yul\":13618:13624   */\n      dup5\n        /* \"#utility.yul\":13580:13646   */\n      tag_257\n      jump\t// in\n    tag_407:\n        /* \"#utility.yul\":13223:13653   */\n      swap5\n      swap4\n      pop\n      pop\n      pop\n      pop\n      jump\t// out\n        /* \"#utility.yul\":13659:13850   */\n    tag_163:\n        /* \"#utility.yul\":13699:13703   */\n      0x00\n        /* \"#utility.yul\":13719:13739   */\n      tag_409\n        /* \"#utility.yul\":13737:13738   */\n      dup3\n        /* \"#utility.yul\":13719:13739   */\n      tag_242\n      jump\t// in\n    tag_409:\n        /* \"#utility.yul\":13714:13739   */\n      swap2\n      pop\n        /* \"#utility.yul\":13753:13773   */\n      tag_410\n        /* \"#utility.yul\":13771:13772   */\n      dup4\n        /* \"#utility.yul\":13753:13773   */\n      tag_242\n      jump\t// in\n    tag_410:\n        /* \"#utility.yul\":13748:13773   */\n      swap3\n      pop\n        /* \"#utility.yul\":13792:13793   */\n      dup3\n        /* \"#utility.yul\":13789:13790   */\n      dup3\n        /* \"#utility.yul\":13786:13794   */\n      lt\n        /* \"#utility.yul\":13783:13817   */\n      iszero\n      tag_411\n      jumpi\n        /* \"#utility.yul\":13797:13815   */\n      tag_412\n      tag_243\n      jump\t// in\n    tag_412:\n        /* \"#utility.yul\":13783:13817   */\n    tag_411:\n        /* \"#utility.yul\":13842:13843   */\n      dup3\n        /* \"#utility.yul\":13839:13840   */\n      dup3\n        /* \"#utility.yul\":13835:13844   */\n      sub\n        /* \"#utility.yul\":13827:13844   */\n      swap1\n      pop\n        /* \"#utility.yul\":13659:13850   */\n      swap3\n      swap2\n      pop\n      pop\n      jump\t// out\n        /* \"#utility.yul\":13856:14188   */\n    tag_167:\n        /* \"#utility.yul\":13977:13981   */\n      0x00\n        /* \"#utility.yul\":14015:14017   */\n      0x40\n        /* \"#utility.yul\":14004:14013   */\n      dup3\n        /* \"#utility.yul\":14000:14018   */\n      add\n        /* \"#utility.yul\":13992:14018   */\n      swap1\n      pop\n        /* \"#utility.yul\":14028:14099   */\n      tag_414\n        /* \"#utility.yul\":14096:14097   */\n      0x00\n        /* \"#utility.yul\":14085:14094   */\n      dup4\n        /* \"#utility.yul\":14081:14098   */\n      add\n        /* \"#utility.yul\":14072:14078   */\n      dup6\n        /* \"#utility.yul\":14028:14099   */\n      tag_249\n      jump\t// in\n    tag_414:\n        /* \"#utility.yul\":14109:14181   */\n      tag_415\n        /* \"#utility.yul\":14177:14179   */\n      0x20\n        /* \"#utility.yul\":14166:14175   */\n      dup4\n        /* \"#utility.yul\":14162:14180   */\n      add\n        /* \"#utility.yul\":14153:14159   */\n      dup5\n        /* \"#utility.yul\":14109:14181   */\n      tag_250\n      jump\t// in\n    tag_415:\n        /* \"#utility.yul\":13856:14188   */\n      swap4\n      swap3\n      pop\n      pop\n      pop\n      jump\t// out\n        /* \"#utility.yul\":14194:14337   */\n    tag_274:\n        /* \"#utility.yul\":14251:14256   */\n      0x00\n        /* \"#utility.yul\":14282:14288   */\n      dup2\n        /* \"#utility.yul\":14276:14289   */\n      mload\n        /* \"#utility.yul\":14267:14289   */\n      swap1\n      pop\n        /* \"#utility.yul\":14298:14331   */\n      tag_417\n        /* \"#utility.yul\":14325:14330   */\n      dup2\n        /* \"#utility.yul\":14298:14331   */\n      tag_263\n      jump\t// in\n    tag_417:\n        /* \"#utility.yul\":14194:14337   */\n      swap3\n      swap2\n      pop\n      pop\n      jump\t// out\n        /* \"#utility.yul\":14343:14694   */\n    tag_177:\n        /* \"#utility.yul\":14413:14419   */\n      0x00\n        /* \"#utility.yul\":14462:14464   */\n      0x20\n        /* \"#utility.yul\":14450:14459   */\n      dup3\n        /* \"#utility.yul\":14441:14448   */\n      dup5\n        /* \"#utility.yul\":14437:14460   */\n      sub\n        /* \"#utility.yul\":14433:14465   */\n      slt\n        /* \"#utility.yul\":14430:14549   */\n      iszero\n      tag_419\n      jumpi\n        /* \"#utility.yul\":14468:14547   */\n      tag_420\n      tag_252\n      jump\t// in\n    tag_420:\n        /* \"#utility.yul\":14430:14549   */\n    tag_419:\n        /* \"#utility.yul\":14588:14589   */\n      0x00\n        /* \"#utility.yul\":14613:14677   */\n      tag_421\n        /* \"#utility.yul\":14669:14676   */\n      dup5\n        /* \"#utility.yul\":14660:14666   */\n      dup3\n        /* \"#utility.yul\":14649:14658   */\n      dup6\n        /* \"#utility.yul\":14645:14667   */\n      add\n        /* \"#utility.yul\":14613:14677   */\n      tag_274\n      jump\t// in\n    tag_421:\n        /* \"#utility.yul\":14603:14677   */\n      swap2\n      pop\n        /* \"#utility.yul\":14559:14687   */\n      pop\n        /* \"#utility.yul\":14343:14694   */\n      swap3\n      swap2\n      pop\n      pop\n      jump\t// out\n        /* \"#utility.yul\":14700:14861   */\n    tag_275:\n        /* \"#utility.yul\":14840:14853   */\n      0x63726f7764207374617274000000000000000000000000000000000000000000\n        /* \"#utility.yul\":14836:14837   */\n      0x00\n        /* \"#utility.yul\":14828:14834   */\n      dup3\n        /* \"#utility.yul\":14824:14838   */\n      add\n        /* \"#utility.yul\":14817:14854   */\n      mstore\n        /* \"#utility.yul\":14700:14861   */\n      pop\n      jump\t// out\n        /* \"#utility.yul\":14867:15233   */\n    tag_276:\n        /* \"#utility.yul\":15009:15012   */\n      0x00\n        /* \"#utility.yul\":15030:15097   */\n      tag_424\n        /* \"#utility.yul\":15094:15096   */\n      0x0b\n        /* \"#utility.yul\":15089:15092   */\n      dup4\n        /* \"#utility.yul\":15030:15097   */\n      tag_239\n      jump\t// in\n    tag_424:\n        /* \"#utility.yul\":15023:15097   */\n      swap2\n      pop\n        /* \"#utility.yul\":15106:15199   */\n      tag_425\n        /* \"#utility.yul\":15195:15198   */\n      dup3\n        /* \"#utility.yul\":15106:15199   */\n      tag_275\n      jump\t// in\n    tag_425:\n        /* \"#utility.yul\":15224:15226   */\n      0x20\n        /* \"#utility.yul\":15219:15222   */\n      dup3\n        /* \"#utility.yul\":15215:15227   */\n      add\n        /* \"#utility.yul\":15208:15227   */\n      swap1\n      pop\n        /* \"#utility.yul\":14867:15233   */\n      swap2\n      swap1\n      pop\n      jump\t// out\n        /* \"#utility.yul\":15239:15658   */\n    tag_194:\n        /* \"#utility.yul\":15405:15409   */\n      0x00\n        /* \"#utility.yul\":15443:15445   */\n      0x20\n        /* \"#utility.yul\":15432:15441   */\n      dup3\n        /* \"#utility.yul\":15428:15446   */\n      add\n        /* \"#utility.yul\":15420:15446   */\n      swap1\n      pop\n        /* \"#utility.yul\":15492:15501   */\n      dup2\n        /* \"#utility.yul\":15486:15490   */\n      dup2\n        /* \"#utility.yul\":15482:15502   */\n      sub\n        /* \"#utility.yul\":15478:15479   */\n      0x00\n        /* \"#utility.yul\":15467:15476   */\n      dup4\n        /* \"#utility.yul\":15463:15480   */\n      add\n        /* \"#utility.yul\":15456:15503   */\n      mstore\n        /* \"#utility.yul\":15520:15651   */\n      tag_427\n        /* \"#utility.yul\":15646:15650   */\n      dup2\n        /* \"#utility.yul\":15520:15651   */\n      tag_276\n      jump\t// in\n    tag_427:\n        /* \"#utility.yul\":15512:15651   */\n      swap1\n      pop\n        /* \"#utility.yul\":15239:15658   */\n      swap2\n      swap1\n      pop\n      jump\t// out\n        /* \"#utility.yul\":15664:16217   */\n    tag_203:\n        /* \"#utility.yul\":15841:15845   */\n      0x00\n        /* \"#utility.yul\":15879:15882   */\n      0x80\n        /* \"#utility.yul\":15868:15877   */\n      dup3\n        /* \"#utility.yul\":15864:15883   */\n      add\n        /* \"#utility.yul\":15856:15883   */\n      swap1\n      pop\n        /* \"#utility.yul\":15893:15964   */\n      tag_429\n        /* \"#utility.yul\":15961:15962   */\n      0x00\n        /* \"#utility.yul\":15950:15959   */\n      dup4\n        /* \"#utility.yul\":15946:15963   */\n      add\n        /* \"#utility.yul\":15937:15943   */\n      dup8\n        /* \"#utility.yul\":15893:15964   */\n      tag_250\n      jump\t// in\n    tag_429:\n        /* \"#utility.yul\":15974:16046   */\n      tag_430\n        /* \"#utility.yul\":16042:16044   */\n      0x20\n        /* \"#utility.yul\":16031:16040   */\n      dup4\n        /* \"#utility.yul\":16027:16045   */\n      add\n        /* \"#utility.yul\":16018:16024   */\n      dup7\n        /* \"#utility.yul\":15974:16046   */\n      tag_250\n      jump\t// in\n    tag_430:\n        /* \"#utility.yul\":16056:16128   */\n      tag_431\n        /* \"#utility.yul\":16124:16126   */\n      0x40\n        /* \"#utility.yul\":16113:16122   */\n      dup4\n        /* \"#utility.yul\":16109:16127   */\n      add\n        /* \"#utility.yul\":16100:16106   */\n      dup6\n        /* \"#utility.yul\":16056:16128   */\n      tag_250\n      jump\t// in\n    tag_431:\n        /* \"#utility.yul\":16138:16210   */\n      tag_432\n        /* \"#utility.yul\":16206:16208   */\n      0x60\n        /* \"#utility.yul\":16195:16204   */\n      dup4\n        /* \"#utility.yul\":16191:16209   */\n      add\n        /* \"#utility.yul\":16182:16188   */\n      dup5\n        /* \"#utility.yul\":16138:16210   */\n      tag_249\n      jump\t// in\n    tag_432:\n        /* \"#utility.yul\":15664:16217   */\n      swap6\n      swap5\n      pop\n      pop\n      pop\n      pop\n      pop\n      jump\t// out\n        /* \"#utility.yul\":16223:16383   */\n    tag_277:\n        /* \"#utility.yul\":16363:16375   */\n      0x7769746864726177616c00000000000000000000000000000000000000000000\n        /* \"#utility.yul\":16359:16360   */\n      0x00\n        /* \"#utility.yul\":16351:16357   */\n      dup3\n        /* \"#utility.yul\":16347:16361   */\n      add\n        /* \"#utility.yul\":16340:16376   */\n      mstore\n        /* \"#utility.yul\":16223:16383   */\n      pop\n      jump\t// out\n        /* \"#utility.yul\":16389:16755   */\n    tag_278:\n        /* \"#utility.yul\":16531:16534   */\n      0x00\n        /* \"#utility.yul\":16552:16619   */\n      tag_435\n        /* \"#utility.yul\":16616:16618   */\n      0x0a\n        /* \"#utility.yul\":16611:16614   */\n      dup4\n        /* \"#utility.yul\":16552:16619   */\n      tag_239\n      jump\t// in\n    tag_435:\n        /* \"#utility.yul\":16545:16619   */\n      swap2\n      pop\n        /* \"#utility.yul\":16628:16721   */\n      tag_436\n        /* \"#utility.yul\":16717:16720   */\n      dup3\n        /* \"#utility.yul\":16628:16721   */\n      tag_277\n      jump\t// in\n    tag_436:\n        /* \"#utility.yul\":16746:16748   */\n      0x20\n        /* \"#utility.yul\":16741:16744   */\n      dup3\n        /* \"#utility.yul\":16737:16749   */\n      add\n        /* \"#utility.yul\":16730:16749   */\n      swap1\n      pop\n        /* \"#utility.yul\":16389:16755   */\n      swap2\n      swap1\n      pop\n      jump\t// out\n        /* \"#utility.yul\":16761:17180   */\n    tag_208:\n        /* \"#utility.yul\":16927:16931   */\n      0x00\n        /* \"#utility.yul\":16965:16967   */\n      0x20\n        /* \"#utility.yul\":16954:16963   */\n      dup3\n        /* \"#utility.yul\":16950:16968   */\n      add\n        /* \"#utility.yul\":16942:16968   */\n      swap1\n      pop\n        /* \"#utility.yul\":17014:17023   */\n      dup2\n        /* \"#utility.yul\":17008:17012   */\n      dup2\n        /* \"#utility.yul\":17004:17024   */\n      sub\n        /* \"#utility.yul\":17000:17001   */\n      0x00\n        /* \"#utility.yul\":16989:16998   */\n      dup4\n        /* \"#utility.yul\":16985:17002   */\n      add\n        /* \"#utility.yul\":16978:17025   */\n      mstore\n        /* \"#utility.yul\":17042:17173   */\n      tag_438\n        /* \"#utility.yul\":17168:17172   */\n      dup2\n        /* \"#utility.yul\":17042:17173   */\n      tag_278\n      jump\t// in\n    tag_438:\n        /* \"#utility.yul\":17034:17173   */\n      swap1\n      pop\n        /* \"#utility.yul\":16761:17180   */\n      swap2\n      swap1\n      pop\n      jump\t// out\n        /* \"#utility.yul\":17186:17518   */\n    tag_238:\n        /* \"#utility.yul\":17307:17311   */\n      0x00\n        /* \"#utility.yul\":17345:17347   */\n      0x40\n        /* \"#utility.yul\":17334:17343   */\n      dup3\n        /* \"#utility.yul\":17330:17348   */\n      add\n        /* \"#utility.yul\":17322:17348   */\n      swap1\n      pop\n        /* \"#utility.yul\":17358:17429   */\n      tag_440\n        /* \"#utility.yul\":17426:17427   */\n      0x00\n        /* \"#utility.yul\":17415:17424   */\n      dup4\n        /* \"#utility.yul\":17411:17428   */\n      add\n        /* \"#utility.yul\":17402:17408   */\n      dup6\n        /* \"#utility.yul\":17358:17429   */\n      tag_249\n      jump\t// in\n    tag_440:\n        /* \"#utility.yul\":17439:17511   */\n      tag_441\n        /* \"#utility.yul\":17507:17509   */\n      0x20\n        /* \"#utility.yul\":17496:17505   */\n      dup4\n        /* \"#utility.yul\":17492:17510   */\n      add\n        /* \"#utility.yul\":17483:17489   */\n      dup5\n        /* \"#utility.yul\":17439:17511   */\n      tag_249\n      jump\t// in\n    tag_441:\n        /* \"#utility.yul\":17186:17518   */\n      swap4\n      swap3\n      pop\n      pop\n      pop\n      jump\t// out\n\n    auxdata: 0xa26469706673582212204ff130a23175149308e8ccd96b5ff3a42de7ad61947231c6a7e3f86f1df3f6c364736f6c634300080c0033\n}\n",
				"bytecode": {
					"linkReferences": {},
					"object": "60806040523480156200001157600080fd5b5060405162002228380380620022288339818101604052810190620000379190620001ba565b336000806101000a81548173ffffffffffffffffffffffffffffffffffffffff021916908373ffffffffffffffffffffffffffffffffffffffff160217905550670de0b6b3a7640000846200008d91906200025b565b60018190555081670de0b6b3a7640000620000a99190620002eb565b6003819055508260048190555080600760006101000a81548173ffffffffffffffffffffffffffffffffffffffff021916908373ffffffffffffffffffffffffffffffffffffffff1602179055505050505062000323565b600080fd5b6000819050919050565b6200011b8162000106565b81146200012757600080fd5b50565b6000815190506200013b8162000110565b92915050565b600073ffffffffffffffffffffffffffffffffffffffff82169050919050565b60006200016e8262000141565b9050919050565b6000620001828262000161565b9050919050565b620001948162000175565b8114620001a057600080fd5b50565b600081519050620001b48162000189565b92915050565b60008060008060808587031215620001d757620001d662000101565b5b6000620001e7878288016200012a565b9450506020620001fa878288016200012a565b93505060406200020d878288016200012a565b92505060606200022087828801620001a3565b91505092959194509250565b7f4e487b7100000000000000000000000000000000000000000000000000000000600052601160045260246000fd5b6000620002688262000106565b9150620002758362000106565b9250817fffffffffffffffffffffffffffffffffffffffffffffffffffffffffffffffff0483118215151615620002b157620002b06200022c565b5b828202905092915050565b7f4e487b7100000000000000000000000000000000000000000000000000000000600052601260045260246000fd5b6000620002f88262000106565b9150620003058362000106565b925082620003185762000317620002bc565b5b828204905092915050565b611ef580620003336000396000f3fe60806040526004361061010d5760003560e01c806378e9792511610095578063a035b1fe11610064578063a035b1fe14610535578063d424f62814610560578063d4e932921461058b578063d8c02754146105a2578063f2fde38b146105cf57610317565b806378e979251461048b5780637a3a0e84146104b65780638da5cb5b146104e157806395805dad1461050c57610317565b80635334c231116100dc5780635334c231146103a05780635627df88146103cb5780636769d1f91461040a578063692aa97e146104355780636e66f6e91461046057610317565b806301cb3b201461031c578063163f9b4f14610333578063213655971461034a57806329dcb0cf1461037557610317565b3661031757600760159054906101000a900460ff16801561012f575060025442105b61016e576040517f08c379a00000000000000000000000000000000000000000000000000000000081526004016101659061165f565b60405180910390fd5b60003490506000606461017f6105f8565b606461018b91906116b8565b60035484610199919061173d565b6101a3919061176e565b6101ad919061173d565b9050600081141580156101ce5750600454816005546101cc91906116b8565b105b61020d576040517f08c379a000000000000000000000000000000000000000000000000000000000815260040161020490611814565b60405180910390fd5b81600860003373ffffffffffffffffffffffffffffffffffffffff1673ffffffffffffffffffffffffffffffffffffffff168152602001908152602001600020600001600082825461025f91906116b8565b9250508190555080600860003373ffffffffffffffffffffffffffffffffffffffff1673ffffffffffffffffffffffffffffffffffffffff16815260200190815260200160002060010160008282546102b891906116b8565b9250508190555080600560008282546102d191906116b8565b925050819055507fead0fad6e7b11ddfb488609871d5558d4fc839131da518a4105c68466683e46933838360405161030b93929190611884565b60405180910390a15050005b600080fd5b34801561032857600080fd5b50610331610661565b005b34801561033f57600080fd5b50610348610770565b005b34801561035657600080fd5b5061035f610b88565b60405161036c91906118bb565b60405180910390f35b34801561038157600080fd5b5061038a610b8e565b60405161039791906118bb565b60405180910390f35b3480156103ac57600080fd5b506103b56105f8565b6040516103c291906118bb565b60405180910390f35b3480156103d757600080fd5b506103f260048036038101906103ed9190611907565b610b94565b6040516104019392919061194f565b60405180910390f35b34801561041657600080fd5b5061041f610bcb565b60405161042c91906118bb565b60405180910390f35b34801561044157600080fd5b5061044a610bd1565b6040516104579190611986565b60405180910390f35b34801561046c57600080fd5b50610475610be4565b6040516104829190611a00565b60405180910390f35b34801561049757600080fd5b506104a0610c0a565b6040516104ad91906118bb565b60405180910390f35b3480156104c257600080fd5b506104cb610c10565b6040516104d891906118bb565b60405180910390f35b3480156104ed57600080fd5b506104f6610c16565b6040516105039190611a1b565b60405180910390f35b34801561051857600080fd5b50610533600480360381019061052e9190611a62565b610c3a565b005b34801561054157600080fd5b5061054a610ee9565b60405161055791906118bb565b60405180910390f35b34801561056c57600080fd5b50610575610eef565b6040516105829190611986565b60405180910390f35b34801561059757600080fd5b506105a0610f02565b005b3480156105ae57600080fd5b506105b7611437565b6040516105c693929190611a8f565b60405180910390f35b3480156105db57600080fd5b506105f660048036038101906105f19190611907565b6114b1565b005b60004260b460065461060a91906116b8565b1115610619576064905061065e565b4261012c60065461062a91906116b8565b1115610639576032905061065e565b4261025860065461064a91906116b8565b1115610659576014905061065e565b600090505b90565b6002544210156106a6576040517f08c379a000000000000000000000000000000000000000000000000000000000815260040161069d90611b12565b60405180910390fd5b600760159054906101000a900460ff161561076e5760015447106106e0576001600760146101000a81548160ff0219169083151502179055505b6000600760156101000a81548160ff0219169083151502179055507fc783731abb215641b374658a7052db331ac5fad7a50db3b621017b721a40ac8260008054906101000a900473ffffffffffffffffffffffffffffffffffffffff1660015447600760149054906101000a900460ff16600554604051610765959493929190611b32565b60405180910390a15b565b60008054906101000a900473ffffffffffffffffffffffffffffffffffffffff1673ffffffffffffffffffffffffffffffffffffffff163373ffffffffffffffffffffffffffffffffffffffff16146107fe576040517f08c379a00000000000000000000000000000000000000000000000000000000081526004016107f590611bd1565b60405180910390fd5b600760159054906101000a900460ff161561084e576040517f08c379a000000000000000000000000000000000000000000000000000000000815260040161084590611c3d565b60405180910390fd5b600760149054906101000a900460ff1615610a19576000479050600081111561091a5760003373ffffffffffffffffffffffffffffffffffffffff168260405161089790611c8e565b60006040518083038185875af1925050503d80600081146108d4576040519150601f19603f3d011682016040523d82523d6000602084013e6108d9565b606091505b505090507f5b8e8dabfb07633926aad60d1498e605e71a8ee067252f388e7ed6228f8a1f9c33838360405161091093929190611ca3565b60405180910390a1505b600060055460045461092c9190611cda565b90506000811115610a1257600760009054906101000a900473ffffffffffffffffffffffffffffffffffffffff1673ffffffffffffffffffffffffffffffffffffffff1663a9059cbb336005546004546109869190611cda565b6040518363ffffffff1660e01b81526004016109a3929190611d0e565b600060405180830381600087803b1580156109bd57600080fd5b505af11580156109d1573d6000803e3d6000fd5b505050507f860b533173a7b1027d391a00a46e79992fe2f681fc082e49c56ba22db74601c633826001604051610a0993929190611ca3565b60405180910390a15b5050610b86565b6000600760009054906101000a900473ffffffffffffffffffffffffffffffffffffffff1673ffffffffffffffffffffffffffffffffffffffff166370a08231306040518263ffffffff1660e01b8152600401610a769190611a1b565b602060405180830381865afa158015610a93573d6000803e3d6000fd5b505050506040513d601f19601f82011682018060405250810190610ab79190611d4c565b9050600760009054906101000a900473ffffffffffffffffffffffffffffffffffffffff1673ffffffffffffffffffffffffffffffffffffffff1663a9059cbb33836040518363ffffffff1660e01b8152600401610b16929190611d0e565b600060405180830381600087803b158015610b3057600080fd5b505af1158015610b44573d6000803e3d6000fd5b505050507f860b533173a7b1027d391a00a46e79992fe2f681fc082e49c56ba22db74601c633826001604051610b7c93929190611ca3565b60405180910390a1505b565b60045481565b60025481565b60086020528060005260406000206000915090508060000154908060010154908060020160009054906101000a900460ff16905083565b60055481565b600760159054906101000a900460ff1681565b600760009054906101000a900473ffffffffffffffffffffffffffffffffffffffff1681565b60065481565b60015481565b60008054906101000a900473ffffffffffffffffffffffffffffffffffffffff1681565b60008054906101000a900473ffffffffffffffffffffffffffffffffffffffff1673ffffffffffffffffffffffffffffffffffffffff163373ffffffffffffffffffffffffffffffffffffffff1614610cc8576040517f08c379a0000000000000000000000000000000000000000000000000000000008152600401610cbf90611bd1565b60405180910390fd5b6000600154118015610cdc57506000600354115b8015610cea57506000600454115b8015610d455750600073ffffffffffffffffffffffffffffffffffffffff16600760009054906101000a900473ffffffffffffffffffffffffffffffffffffffff1673ffffffffffffffffffffffffffffffffffffffff1614155b8015610d515750600081115b8015610d5f57506000600654145b610d9e576040517f08c379a0000000000000000000000000000000000000000000000000000000008152600401610d9590611dc5565b60405180910390fd5b600454600760009054906101000a900473ffffffffffffffffffffffffffffffffffffffff1673ffffffffffffffffffffffffffffffffffffffff166370a08231306040518263ffffffff1660e01b8152600401610dfc9190611a1b565b602060405180830381865afa158015610e19573d6000803e3d6000fd5b505050506040513d601f19601f82011682018060405250810190610e3d9190611d4c565b10610ee65742600681905550603c81610e56919061176e565b42610e6191906116b8565b6002819055506001600760156101000a81548160ff0219169083151502179055507f6a151b16df8b91a6230549a14ae94cf40f3c9426543b21802dc10201cd35648b60015460025460045460008054906101000a900473ffffffffffffffffffffffffffffffffffffffff16604051610edd9493929190611de5565b60405180910390a15b50565b60035481565b600760149054906101000a900460ff1681565b600760159054906101000a900460ff1615610f1c57611435565b600860003373ffffffffffffffffffffffffffffffffffffffff1673ffffffffffffffffffffffffffffffffffffffff16815260200190815260200160002060020160009054906101000a900460ff1615610fac576040517f08c379a0000000000000000000000000000000000000000000000000000000008152600401610fa390611e76565b60405180910390fd5b600760149054906101000a900460ff161561120a576000600860003373ffffffffffffffffffffffffffffffffffffffff1673ffffffffffffffffffffffffffffffffffffffff16815260200190815260200160002060010154111561120557600760009054906101000a900473ffffffffffffffffffffffffffffffffffffffff1673ffffffffffffffffffffffffffffffffffffffff1663a9059cbb33600860003373ffffffffffffffffffffffffffffffffffffffff1673ffffffffffffffffffffffffffffffffffffffff168152602001908152602001600020600101546040518363ffffffff1660e01b81526004016110ab929190611d0e565b600060405180830381600087803b1580156110c557600080fd5b505af11580156110d9573d6000803e3d6000fd5b505050506001600860003373ffffffffffffffffffffffffffffffffffffffff1673ffffffffffffffffffffffffffffffffffffffff16815260200190815260200160002060020160006101000a81548160ff0219169083151502179055507f860b533173a7b1027d391a00a46e79992fe2f681fc082e49c56ba22db74601c633600860003373ffffffffffffffffffffffffffffffffffffffff1673ffffffffffffffffffffffffffffffffffffffff16815260200190815260200160002060010154600860003373ffffffffffffffffffffffffffffffffffffffff1673ffffffffffffffffffffffffffffffffffffffff16815260200190815260200160002060020160009054906101000a900460ff166040516111fc93929190611ca3565b60405180910390a15b611434565b6000600860003373ffffffffffffffffffffffffffffffffffffffff1673ffffffffffffffffffffffffffffffffffffffff1681526020019081526020016000206000015411156114335760003373ffffffffffffffffffffffffffffffffffffffff16600860003373ffffffffffffffffffffffffffffffffffffffff1673ffffffffffffffffffffffffffffffffffffffff168152602001908152602001600020600001546040516112bd90611c8e565b60006040518083038185875af1925050503d80600081146112fa576040519150601f19603f3d011682016040523d82523d6000602084013e6112ff565b606091505b505090508015611365576001600860003373ffffffffffffffffffffffffffffffffffffffff1673ffffffffffffffffffffffffffffffffffffffff16815260200190815260200160002060020160006101000a81548160ff0219169083151502179055505b7f5b8e8dabfb07633926aad60d1498e605e71a8ee067252f388e7ed6228f8a1f9c33600860003373ffffffffffffffffffffffffffffffffffffffff1673ffffffffffffffffffffffffffffffffffffffff16815260200190815260200160002060000154600860003373ffffffffffffffffffffffffffffffffffffffff1673ffffffffffffffffffffffffffffffffffffffff16815260200190815260200160002060020160009054906101000a900460ff1660405161142993929190611ca3565b60405180910390a1505b5b5b565b600080600060025442101561146357603c426002546114569190611cda565b611460919061173d565b92505b476001541015611476576000915061149a565b670de0b6b3a76400004760015461148d9190611cda565b611497919061173d565b91505b6005546004546114aa9190611cda565b9050909192565b60008054906101000a900473ffffffffffffffffffffffffffffffffffffffff1673ffffffffffffffffffffffffffffffffffffffff163373ffffffffffffffffffffffffffffffffffffffff161461153f576040517f08c379a000000000000000000000000000000000000000000000000000000000815260040161153690611bd1565b60405180910390fd5b60008060009054906101000a900473ffffffffffffffffffffffffffffffffffffffff169050816000806101000a81548173ffffffffffffffffffffffffffffffffffffffff021916908373ffffffffffffffffffffffffffffffffffffffff1602179055507f5c486528ec3e3f0ea91181cff8116f02bfa350e03b8b6f12e00765adbb5af85c8160008054906101000a900473ffffffffffffffffffffffffffffffffffffffff166040516115f6929190611e96565b60405180910390a15050565b600082825260208201905092915050565b7f726563656976652066756e6374696f6e20310000000000000000000000000000600082015250565b6000611649601283611602565b915061165482611613565b602082019050919050565b600060208201905081810360008301526116788161163c565b9050919050565b6000819050919050565b7f4e487b7100000000000000000000000000000000000000000000000000000000600052601160045260246000fd5b60006116c38261167f565b91506116ce8361167f565b9250827fffffffffffffffffffffffffffffffffffffffffffffffffffffffffffffffff0382111561170357611702611689565b5b828201905092915050565b7f4e487b7100000000000000000000000000000000000000000000000000000000600052601260045260246000fd5b60006117488261167f565b91506117538361167f565b9250826117635761176261170e565b5b828204905092915050565b60006117798261167f565b91506117848361167f565b9250817fffffffffffffffffffffffffffffffffffffffffffffffffffffffffffffffff04831182151516156117bd576117bc611689565b5b828202905092915050565b7f726563656976652066756e6374696f6e20320000000000000000000000000000600082015250565b60006117fe601283611602565b9150611809826117c8565b602082019050919050565b6000602082019050818103600083015261182d816117f1565b9050919050565b600073ffffffffffffffffffffffffffffffffffffffff82169050919050565b600061185f82611834565b9050919050565b61186f81611854565b82525050565b61187e8161167f565b82525050565b60006060820190506118996000830186611866565b6118a66020830185611875565b6118b36040830184611875565b949350505050565b60006020820190506118d06000830184611875565b92915050565b600080fd5b6118e481611854565b81146118ef57600080fd5b50565b600081359050611901816118db565b92915050565b60006020828403121561191d5761191c6118d6565b5b600061192b848285016118f2565b91505092915050565b60008115159050919050565b61194981611934565b82525050565b60006060820190506119646000830186611875565b6119716020830185611875565b61197e6040830184611940565b949350505050565b600060208201905061199b6000830184611940565b92915050565b6000819050919050565b60006119c66119c16119bc84611834565b6119a1565b611834565b9050919050565b60006119d8826119ab565b9050919050565b60006119ea826119cd565b9050919050565b6119fa816119df565b82525050565b6000602082019050611a1560008301846119f1565b92915050565b6000602082019050611a306000830184611866565b92915050565b611a3f8161167f565b8114611a4a57600080fd5b50565b600081359050611a5c81611a36565b92915050565b600060208284031215611a7857611a776118d6565b5b6000611a8684828501611a4d565b91505092915050565b6000606082019050611aa46000830186611875565b611ab16020830185611875565b611abe6040830184611875565b949350505050565b7f6166746572446561646c696e6500000000000000000000000000000000000000600082015250565b6000611afc600d83611602565b9150611b0782611ac6565b602082019050919050565b60006020820190508181036000830152611b2b81611aef565b9050919050565b600060a082019050611b476000830188611866565b611b546020830187611875565b611b616040830186611875565b611b6e6060830185611940565b611b7b6080830184611875565b9695505050505050565b7f6f6e6c794f776e65720000000000000000000000000000000000000000000000600082015250565b6000611bbb600983611602565b9150611bc682611b85565b602082019050919050565b60006020820190508181036000830152611bea81611bae565b9050919050565b7f7769746864726177616c4f776e65720000000000000000000000000000000000600082015250565b6000611c27600f83611602565b9150611c3282611bf1565b602082019050919050565b60006020820190508181036000830152611c5681611c1a565b9050919050565b600081905092915050565b50565b6000611c78600083611c5d565b9150611c8382611c68565b600082019050919050565b6000611c9982611c6b565b9150819050919050565b6000606082019050611cb86000830186611866565b611cc56020830185611875565b611cd26040830184611940565b949350505050565b6000611ce58261167f565b9150611cf08361167f565b925082821015611d0357611d02611689565b5b828203905092915050565b6000604082019050611d236000830185611866565b611d306020830184611875565b9392505050565b600081519050611d4681611a36565b92915050565b600060208284031215611d6257611d616118d6565b5b6000611d7084828501611d37565b91505092915050565b7f63726f7764207374617274000000000000000000000000000000000000000000600082015250565b6000611daf600b83611602565b9150611dba82611d79565b602082019050919050565b60006020820190508181036000830152611dde81611da2565b9050919050565b6000608082019050611dfa6000830187611875565b611e076020830186611875565b611e146040830185611875565b611e216060830184611866565b95945050505050565b7f7769746864726177616c00000000000000000000000000000000000000000000600082015250565b6000611e60600a83611602565b9150611e6b82611e2a565b602082019050919050565b60006020820190508181036000830152611e8f81611e53565b9050919050565b6000604082019050611eab6000830185611866565b611eb86020830184611866565b939250505056fea26469706673582212204ff130a23175149308e8ccd96b5ff3a42de7ad61947231c6a7e3f86f1df3f6c364736f6c634300080c0033",
					"opcodes": "PUSH1 0x80 PUSH1 0x40 MSTORE CALLVALUE DUP1 ISZERO PUSH3 0x11 JUMPI PUSH1 0x0 DUP1 REVERT JUMPDEST POP PUSH1 0x40 MLOAD PUSH3 0x2228 CODESIZE SUB DUP1 PUSH3 0x2228 DUP4 CODECOPY DUP2 DUP2 ADD PUSH1 0x40 MSTORE DUP2 ADD SWAP1 PUSH3 0x37 SWAP2 SWAP1 PUSH3 0x1BA JUMP JUMPDEST CALLER PUSH1 0x0 DUP1 PUSH2 0x100 EXP DUP2 SLOAD DUP2 PUSH20 0xFFFFFFFFFFFFFFFFFFFFFFFFFFFFFFFFFFFFFFFF MUL NOT AND SWAP1 DUP4 PUSH20 0xFFFFFFFFFFFFFFFFFFFFFFFFFFFFFFFFFFFFFFFF AND MUL OR SWAP1 SSTORE POP PUSH8 0xDE0B6B3A7640000 DUP5 PUSH3 0x8D SWAP2 SWAP1 PUSH3 0x25B JUMP JUMPDEST PUSH1 0x1 DUP2 SWAP1 SSTORE POP DUP2 PUSH8 0xDE0B6B3A7640000 PUSH3 0xA9 SWAP2 SWAP1 PUSH3 0x2EB JUMP JUMPDEST PUSH1 0x3 DUP2 SWAP1 SSTORE POP DUP3 PUSH1 0x4 DUP2 SWAP1 SSTORE POP DUP1 PUSH1 0x7 PUSH1 0x0 PUSH2 0x100 EXP DUP2 SLOAD DUP2 PUSH20 0xFFFFFFFFFFFFFFFFFFFFFFFFFFFFFFFFFFFFFFFF MUL NOT AND SWAP1 DUP4 PUSH20 0xFFFFFFFFFFFFFFFFFFFFFFFFFFFFFFFFFFFFFFFF AND MUL OR SWAP1 SSTORE POP POP POP POP POP PUSH3 0x323 JUMP JUMPDEST PUSH1 0x0 DUP1 REVERT JUMPDEST PUSH1 0x0 DUP2 SWAP1 POP SWAP2 SWAP1 POP JUMP JUMPDEST PUSH3 0x11B DUP2 PUSH3 0x106 JUMP JUMPDEST DUP2 EQ PUSH3 0x127 JUMPI PUSH1 0x0 DUP1 REVERT JUMPDEST POP JUMP JUMPDEST PUSH1 0x0 DUP2 MLOAD SWAP1 POP PUSH3 0x13B DUP2 PUSH3 0x110 JUMP JUMPDEST SWAP3 SWAP2 POP POP JUMP JUMPDEST PUSH1 0x0 PUSH20 0xFFFFFFFFFFFFFFFFFFFFFFFFFFFFFFFFFFFFFFFF DUP3 AND SWAP1 POP SWAP2 SWAP1 POP JUMP JUMPDEST PUSH1 0x0 PUSH3 0x16E DUP3 PUSH3 0x141 JUMP JUMPDEST SWAP1 POP SWAP2 SWAP1 POP JUMP JUMPDEST PUSH1 0x0 PUSH3 0x182 DUP3 PUSH3 0x161 JUMP JUMPDEST SWAP1 POP SWAP2 SWAP1 POP JUMP JUMPDEST PUSH3 0x194 DUP2 PUSH3 0x175 JUMP JUMPDEST DUP2 EQ PUSH3 0x1A0 JUMPI PUSH1 0x0 DUP1 REVERT JUMPDEST POP JUMP JUMPDEST PUSH1 0x0 DUP2 MLOAD SWAP1 POP PUSH3 0x1B4 DUP2 PUSH3 0x189 JUMP JUMPDEST SWAP3 SWAP2 POP POP JUMP JUMPDEST PUSH1 0x0 DUP1 PUSH1 0x0 DUP1 PUSH1 0x80 DUP6 DUP8 SUB SLT ISZERO PUSH3 0x1D7 JUMPI PUSH3 0x1D6 PUSH3 0x101 JUMP JUMPDEST JUMPDEST PUSH1 0x0 PUSH3 0x1E7 DUP8 DUP3 DUP9 ADD PUSH3 0x12A JUMP JUMPDEST SWAP5 POP POP PUSH1 0x20 PUSH3 0x1FA DUP8 DUP3 DUP9 ADD PUSH3 0x12A JUMP JUMPDEST SWAP4 POP POP PUSH1 0x40 PUSH3 0x20D DUP8 DUP3 DUP9 ADD PUSH3 0x12A JUMP JUMPDEST SWAP3 POP POP PUSH1 0x60 PUSH3 0x220 DUP8 DUP3 DUP9 ADD PUSH3 0x1A3 JUMP JUMPDEST SWAP2 POP POP SWAP3 SWAP6 SWAP2 SWAP5 POP SWAP3 POP JUMP JUMPDEST PUSH32 0x4E487B7100000000000000000000000000000000000000000000000000000000 PUSH1 0x0 MSTORE PUSH1 0x11 PUSH1 0x4 MSTORE PUSH1 0x24 PUSH1 0x0 REVERT JUMPDEST PUSH1 0x0 PUSH3 0x268 DUP3 PUSH3 0x106 JUMP JUMPDEST SWAP2 POP PUSH3 0x275 DUP4 PUSH3 0x106 JUMP JUMPDEST SWAP3 POP DUP2 PUSH32 0xFFFFFFFFFFFFFFFFFFFFFFFFFFFFFFFFFFFFFFFFFFFFFFFFFFFFFFFFFFFFFFFF DIV DUP4 GT DUP3 ISZERO ISZERO AND ISZERO PUSH3 0x2B1 JUMPI PUSH3 0x2B0 PUSH3 0x22C JUMP JUMPDEST JUMPDEST DUP3 DUP3 MUL SWAP1 POP SWAP3 SWAP2 POP POP JUMP JUMPDEST PUSH32 0x4E487B7100000000000000000000000000000000000000000000000000000000 PUSH1 0x0 MSTORE PUSH1 0x12 PUSH1 0x4 MSTORE PUSH1 0x24 PUSH1 0x0 REVERT JUMPDEST PUSH1 0x0 PUSH3 0x2F8 DUP3 PUSH3 0x106 JUMP JUMPDEST SWAP2 POP PUSH3 0x305 DUP4 PUSH3 0x106 JUMP JUMPDEST SWAP3 POP DUP3 PUSH3 0x318 JUMPI PUSH3 0x317 PUSH3 0x2BC JUMP JUMPDEST JUMPDEST DUP3 DUP3 DIV SWAP1 POP SWAP3 SWAP2 POP POP JUMP JUMPDEST PUSH2 0x1EF5 DUP1 PUSH3 0x333 PUSH1 0x0 CODECOPY PUSH1 0x0 RETURN INVALID PUSH1 0x80 PUSH1 0x40 MSTORE PUSH1 0x4 CALLDATASIZE LT PUSH2 0x10D JUMPI PUSH1 0x0 CALLDATALOAD PUSH1 0xE0 SHR DUP1 PUSH4 0x78E97925 GT PUSH2 0x95 JUMPI DUP1 PUSH4 0xA035B1FE GT PUSH2 0x64 JUMPI DUP1 PUSH4 0xA035B1FE EQ PUSH2 0x535 JUMPI DUP1 PUSH4 0xD424F628 EQ PUSH2 0x560 JUMPI DUP1 PUSH4 0xD4E93292 EQ PUSH2 0x58B JUMPI DUP1 PUSH4 0xD8C02754 EQ PUSH2 0x5A2 JUMPI DUP1 PUSH4 0xF2FDE38B EQ PUSH2 0x5CF JUMPI PUSH2 0x317 JUMP JUMPDEST DUP1 PUSH4 0x78E97925 EQ PUSH2 0x48B JUMPI DUP1 PUSH4 0x7A3A0E84 EQ PUSH2 0x4B6 JUMPI DUP1 PUSH4 0x8DA5CB5B EQ PUSH2 0x4E1 JUMPI DUP1 PUSH4 0x95805DAD EQ PUSH2 0x50C JUMPI PUSH2 0x317 JUMP JUMPDEST DUP1 PUSH4 0x5334C231 GT PUSH2 0xDC JUMPI DUP1 PUSH4 0x5334C231 EQ PUSH2 0x3A0 JUMPI DUP1 PUSH4 0x5627DF88 EQ PUSH2 0x3CB JUMPI DUP1 PUSH4 0x6769D1F9 EQ PUSH2 0x40A JUMPI DUP1 PUSH4 0x692AA97E EQ PUSH2 0x435 JUMPI DUP1 PUSH4 0x6E66F6E9 EQ PUSH2 0x460 JUMPI PUSH2 0x317 JUMP JUMPDEST DUP1 PUSH4 0x1CB3B20 EQ PUSH2 0x31C JUMPI DUP1 PUSH4 0x163F9B4F EQ PUSH2 0x333 JUMPI DUP1 PUSH4 0x21365597 EQ PUSH2 0x34A JUMPI DUP1 PUSH4 0x29DCB0CF EQ PUSH2 0x375 JUMPI PUSH2 0x317 JUMP JUMPDEST CALLDATASIZE PUSH2 0x317 JUMPI PUSH1 0x7 PUSH1 0x15 SWAP1 SLOAD SWAP1 PUSH2 0x100 EXP SWAP1 DIV PUSH1 0xFF AND DUP1 ISZERO PUSH2 0x12F JUMPI POP PUSH1 0x2 SLOAD TIMESTAMP LT JUMPDEST PUSH2 0x16E JUMPI PUSH1 0x40 MLOAD PUSH32 0x8C379A000000000000000000000000000000000000000000000000000000000 DUP2 MSTORE PUSH1 0x4 ADD PUSH2 0x165 SWAP1 PUSH2 0x165F JUMP JUMPDEST PUSH1 0x40 MLOAD DUP1 SWAP2 SUB SWAP1 REVERT JUMPDEST PUSH1 0x0 CALLVALUE SWAP1 POP PUSH1 0x0 PUSH1 0x64 PUSH2 0x17F PUSH2 0x5F8 JUMP JUMPDEST PUSH1 0x64 PUSH2 0x18B SWAP2 SWAP1 PUSH2 0x16B8 JUMP JUMPDEST PUSH1 0x3 SLOAD DUP5 PUSH2 0x199 SWAP2 SWAP1 PUSH2 0x173D JUMP JUMPDEST PUSH2 0x1A3 SWAP2 SWAP1 PUSH2 0x176E JUMP JUMPDEST PUSH2 0x1AD SWAP2 SWAP1 PUSH2 0x173D JUMP JUMPDEST SWAP1 POP PUSH1 0x0 DUP2 EQ ISZERO DUP1 ISZERO PUSH2 0x1CE JUMPI POP PUSH1 0x4 SLOAD DUP2 PUSH1 0x5 SLOAD PUSH2 0x1CC SWAP2 SWAP1 PUSH2 0x16B8 JUMP JUMPDEST LT JUMPDEST PUSH2 0x20D JUMPI PUSH1 0x40 MLOAD PUSH32 0x8C379A000000000000000000000000000000000000000000000000000000000 DUP2 MSTORE PUSH1 0x4 ADD PUSH2 0x204 SWAP1 PUSH2 0x1814 JUMP JUMPDEST PUSH1 0x40 MLOAD DUP1 SWAP2 SUB SWAP1 REVERT JUMPDEST DUP2 PUSH1 0x8 PUSH1 0x0 CALLER PUSH20 0xFFFFFFFFFFFFFFFFFFFFFFFFFFFFFFFFFFFFFFFF AND PUSH20 0xFFFFFFFFFFFFFFFFFFFFFFFFFFFFFFFFFFFFFFFF AND DUP2 MSTORE PUSH1 0x20 ADD SWAP1 DUP2 MSTORE PUSH1 0x20 ADD PUSH1 0x0 KECCAK256 PUSH1 0x0 ADD PUSH1 0x0 DUP3 DUP3 SLOAD PUSH2 0x25F SWAP2 SWAP1 PUSH2 0x16B8 JUMP JUMPDEST SWAP3 POP POP DUP2 SWAP1 SSTORE POP DUP1 PUSH1 0x8 PUSH1 0x0 CALLER PUSH20 0xFFFFFFFFFFFFFFFFFFFFFFFFFFFFFFFFFFFFFFFF AND PUSH20 0xFFFFFFFFFFFFFFFFFFFFFFFFFFFFFFFFFFFFFFFF AND DUP2 MSTORE PUSH1 0x20 ADD SWAP1 DUP2 MSTORE PUSH1 0x20 ADD PUSH1 0x0 KECCAK256 PUSH1 0x1 ADD PUSH1 0x0 DUP3 DUP3 SLOAD PUSH2 0x2B8 SWAP2 SWAP1 PUSH2 0x16B8 JUMP JUMPDEST SWAP3 POP POP DUP2 SWAP1 SSTORE POP DUP1 PUSH1 0x5 PUSH1 0x0 DUP3 DUP3 SLOAD PUSH2 0x2D1 SWAP2 SWAP1 PUSH2 0x16B8 JUMP JUMPDEST SWAP3 POP POP DUP2 SWAP1 SSTORE POP PUSH32 0xEAD0FAD6E7B11DDFB488609871D5558D4FC839131DA518A4105C68466683E469 CALLER DUP4 DUP4 PUSH1 0x40 MLOAD PUSH2 0x30B SWAP4 SWAP3 SWAP2 SWAP1 PUSH2 0x1884 JUMP JUMPDEST PUSH1 0x40 MLOAD DUP1 SWAP2 SUB SWAP1 LOG1 POP POP STOP JUMPDEST PUSH1 0x0 DUP1 REVERT JUMPDEST CALLVALUE DUP1 ISZERO PUSH2 0x328 JUMPI PUSH1 0x0 DUP1 REVERT JUMPDEST POP PUSH2 0x331 PUSH2 0x661 JUMP JUMPDEST STOP JUMPDEST CALLVALUE DUP1 ISZERO PUSH2 0x33F JUMPI PUSH1 0x0 DUP1 REVERT JUMPDEST POP PUSH2 0x348 PUSH2 0x770 JUMP JUMPDEST STOP JUMPDEST CALLVALUE DUP1 ISZERO PUSH2 0x356 JUMPI PUSH1 0x0 DUP1 REVERT JUMPDEST POP PUSH2 0x35F PUSH2 0xB88 JUMP JUMPDEST PUSH1 0x40 MLOAD PUSH2 0x36C SWAP2 SWAP1 PUSH2 0x18BB JUMP JUMPDEST PUSH1 0x40 MLOAD DUP1 SWAP2 SUB SWAP1 RETURN JUMPDEST CALLVALUE DUP1 ISZERO PUSH2 0x381 JUMPI PUSH1 0x0 DUP1 REVERT JUMPDEST POP PUSH2 0x38A PUSH2 0xB8E JUMP JUMPDEST PUSH1 0x40 MLOAD PUSH2 0x397 SWAP2 SWAP1 PUSH2 0x18BB JUMP JUMPDEST PUSH1 0x40 MLOAD DUP1 SWAP2 SUB SWAP1 RETURN JUMPDEST CALLVALUE DUP1 ISZERO PUSH2 0x3AC JUMPI PUSH1 0x0 DUP1 REVERT JUMPDEST POP PUSH2 0x3B5 PUSH2 0x5F8 JUMP JUMPDEST PUSH1 0x40 MLOAD PUSH2 0x3C2 SWAP2 SWAP1 PUSH2 0x18BB JUMP JUMPDEST PUSH1 0x40 MLOAD DUP1 SWAP2 SUB SWAP1 RETURN JUMPDEST CALLVALUE DUP1 ISZERO PUSH2 0x3D7 JUMPI PUSH1 0x0 DUP1 REVERT JUMPDEST POP PUSH2 0x3F2 PUSH1 0x4 DUP1 CALLDATASIZE SUB DUP2 ADD SWAP1 PUSH2 0x3ED SWAP2 SWAP1 PUSH2 0x1907 JUMP JUMPDEST PUSH2 0xB94 JUMP JUMPDEST PUSH1 0x40 MLOAD PUSH2 0x401 SWAP4 SWAP3 SWAP2 SWAP1 PUSH2 0x194F JUMP JUMPDEST PUSH1 0x40 MLOAD DUP1 SWAP2 SUB SWAP1 RETURN JUMPDEST CALLVALUE DUP1 ISZERO PUSH2 0x416 JUMPI PUSH1 0x0 DUP1 REVERT JUMPDEST POP PUSH2 0x41F PUSH2 0xBCB JUMP JUMPDEST PUSH1 0x40 MLOAD PUSH2 0x42C SWAP2 SWAP1 PUSH2 0x18BB JUMP JUMPDEST PUSH1 0x40 MLOAD DUP1 SWAP2 SUB SWAP1 RETURN JUMPDEST CALLVALUE DUP1 ISZERO PUSH2 0x441 JUMPI PUSH1 0x0 DUP1 REVERT JUMPDEST POP PUSH2 0x44A PUSH2 0xBD1 JUMP JUMPDEST PUSH1 0x40 MLOAD PUSH2 0x457 SWAP2 SWAP1 PUSH2 0x1986 JUMP JUMPDEST PUSH1 0x40 MLOAD DUP1 SWAP2 SUB SWAP1 RETURN JUMPDEST CALLVALUE DUP1 ISZERO PUSH2 0x46C JUMPI PUSH1 0x0 DUP1 REVERT JUMPDEST POP PUSH2 0x475 PUSH2 0xBE4 JUMP JUMPDEST PUSH1 0x40 MLOAD PUSH2 0x482 SWAP2 SWAP1 PUSH2 0x1A00 JUMP JUMPDEST PUSH1 0x40 MLOAD DUP1 SWAP2 SUB SWAP1 RETURN JUMPDEST CALLVALUE DUP1 ISZERO PUSH2 0x497 JUMPI PUSH1 0x0 DUP1 REVERT JUMPDEST POP PUSH2 0x4A0 PUSH2 0xC0A JUMP JUMPDEST PUSH1 0x40 MLOAD PUSH2 0x4AD SWAP2 SWAP1 PUSH2 0x18BB JUMP JUMPDEST PUSH1 0x40 MLOAD DUP1 SWAP2 SUB SWAP1 RETURN JUMPDEST CALLVALUE DUP1 ISZERO PUSH2 0x4C2 JUMPI PUSH1 0x0 DUP1 REVERT JUMPDEST POP PUSH2 0x4CB PUSH2 0xC10 JUMP JUMPDEST PUSH1 0x40 MLOAD PUSH2 0x4D8 SWAP2 SWAP1 PUSH2 0x18BB JUMP JUMPDEST PUSH1 0x40 MLOAD DUP1 SWAP2 SUB SWAP1 RETURN JUMPDEST CALLVALUE DUP1 ISZERO PUSH2 0x4ED JUMPI PUSH1 0x0 DUP1 REVERT JUMPDEST POP PUSH2 0x4F6 PUSH2 0xC16 JUMP JUMPDEST PUSH1 0x40 MLOAD PUSH2 0x503 SWAP2 SWAP1 PUSH2 0x1A1B JUMP JUMPDEST PUSH1 0x40 MLOAD DUP1 SWAP2 SUB SWAP1 RETURN JUMPDEST CALLVALUE DUP1 ISZERO PUSH2 0x518 JUMPI PUSH1 0x0 DUP1 REVERT JUMPDEST POP PUSH2 0x533 PUSH1 0x4 DUP1 CALLDATASIZE SUB DUP2 ADD SWAP1 PUSH2 0x52E SWAP2 SWAP1 PUSH2 0x1A62 JUMP JUMPDEST PUSH2 0xC3A JUMP JUMPDEST STOP JUMPDEST CALLVALUE DUP1 ISZERO PUSH2 0x541 JUMPI PUSH1 0x0 DUP1 REVERT JUMPDEST POP PUSH2 0x54A PUSH2 0xEE9 JUMP JUMPDEST PUSH1 0x40 MLOAD PUSH2 0x557 SWAP2 SWAP1 PUSH2 0x18BB JUMP JUMPDEST PUSH1 0x40 MLOAD DUP1 SWAP2 SUB SWAP1 RETURN JUMPDEST CALLVALUE DUP1 ISZERO PUSH2 0x56C JUMPI PUSH1 0x0 DUP1 REVERT JUMPDEST POP PUSH2 0x575 PUSH2 0xEEF JUMP JUMPDEST PUSH1 0x40 MLOAD PUSH2 0x582 SWAP2 SWAP1 PUSH2 0x1986 JUMP JUMPDEST PUSH1 0x40 MLOAD DUP1 SWAP2 SUB SWAP1 RETURN JUMPDEST CALLVALUE DUP1 ISZERO PUSH2 0x597 JUMPI PUSH1 0x0 DUP1 REVERT JUMPDEST POP PUSH2 0x5A0 PUSH2 0xF02 JUMP JUMPDEST STOP JUMPDEST CALLVALUE DUP1 ISZERO PUSH2 0x5AE JUMPI PUSH1 0x0 DUP1 REVERT JUMPDEST POP PUSH2 0x5B7 PUSH2 0x1437 JUMP JUMPDEST PUSH1 0x40 MLOAD PUSH2 0x5C6 SWAP4 SWAP3 SWAP2 SWAP1 PUSH2 0x1A8F JUMP JUMPDEST PUSH1 0x40 MLOAD DUP1 SWAP2 SUB SWAP1 RETURN JUMPDEST CALLVALUE DUP1 ISZERO PUSH2 0x5DB JUMPI PUSH1 0x0 DUP1 REVERT JUMPDEST POP PUSH2 0x5F6 PUSH1 0x4 DUP1 CALLDATASIZE SUB DUP2 ADD SWAP1 PUSH2 0x5F1 SWAP2 SWAP1 PUSH2 0x1907 JUMP JUMPDEST PUSH2 0x14B1 JUMP JUMPDEST STOP JUMPDEST PUSH1 0x0 TIMESTAMP PUSH1 0xB4 PUSH1 0x6 SLOAD PUSH2 0x60A SWAP2 SWAP1 PUSH2 0x16B8 JUMP JUMPDEST GT ISZERO PUSH2 0x619 JUMPI PUSH1 0x64 SWAP1 POP PUSH2 0x65E JUMP JUMPDEST TIMESTAMP PUSH2 0x12C PUSH1 0x6 SLOAD PUSH2 0x62A SWAP2 SWAP1 PUSH2 0x16B8 JUMP JUMPDEST GT ISZERO PUSH2 0x639 JUMPI PUSH1 0x32 SWAP1 POP PUSH2 0x65E JUMP JUMPDEST TIMESTAMP PUSH2 0x258 PUSH1 0x6 SLOAD PUSH2 0x64A SWAP2 SWAP1 PUSH2 0x16B8 JUMP JUMPDEST GT ISZERO PUSH2 0x659 JUMPI PUSH1 0x14 SWAP1 POP PUSH2 0x65E JUMP JUMPDEST PUSH1 0x0 SWAP1 POP JUMPDEST SWAP1 JUMP JUMPDEST PUSH1 0x2 SLOAD TIMESTAMP LT ISZERO PUSH2 0x6A6 JUMPI PUSH1 0x40 MLOAD PUSH32 0x8C379A000000000000000000000000000000000000000000000000000000000 DUP2 MSTORE PUSH1 0x4 ADD PUSH2 0x69D SWAP1 PUSH2 0x1B12 JUMP JUMPDEST PUSH1 0x40 MLOAD DUP1 SWAP2 SUB SWAP1 REVERT JUMPDEST PUSH1 0x7 PUSH1 0x15 SWAP1 SLOAD SWAP1 PUSH2 0x100 EXP SWAP1 DIV PUSH1 0xFF AND ISZERO PUSH2 0x76E JUMPI PUSH1 0x1 SLOAD SELFBALANCE LT PUSH2 0x6E0 JUMPI PUSH1 0x1 PUSH1 0x7 PUSH1 0x14 PUSH2 0x100 EXP DUP2 SLOAD DUP2 PUSH1 0xFF MUL NOT AND SWAP1 DUP4 ISZERO ISZERO MUL OR SWAP1 SSTORE POP JUMPDEST PUSH1 0x0 PUSH1 0x7 PUSH1 0x15 PUSH2 0x100 EXP DUP2 SLOAD DUP2 PUSH1 0xFF MUL NOT AND SWAP1 DUP4 ISZERO ISZERO MUL OR SWAP1 SSTORE POP PUSH32 0xC783731ABB215641B374658A7052DB331AC5FAD7A50DB3B621017B721A40AC82 PUSH1 0x0 DUP1 SLOAD SWAP1 PUSH2 0x100 EXP SWAP1 DIV PUSH20 0xFFFFFFFFFFFFFFFFFFFFFFFFFFFFFFFFFFFFFFFF AND PUSH1 0x1 SLOAD SELFBALANCE PUSH1 0x7 PUSH1 0x14 SWAP1 SLOAD SWAP1 PUSH2 0x100 EXP SWAP1 DIV PUSH1 0xFF AND PUSH1 0x5 SLOAD PUSH1 0x40 MLOAD PUSH2 0x765 SWAP6 SWAP5 SWAP4 SWAP3 SWAP2 SWAP1 PUSH2 0x1B32 JUMP JUMPDEST PUSH1 0x40 MLOAD DUP1 SWAP2 SUB SWAP1 LOG1 JUMPDEST JUMP JUMPDEST PUSH1 0x0 DUP1 SLOAD SWAP1 PUSH2 0x100 EXP SWAP1 DIV PUSH20 0xFFFFFFFFFFFFFFFFFFFFFFFFFFFFFFFFFFFFFFFF AND PUSH20 0xFFFFFFFFFFFFFFFFFFFFFFFFFFFFFFFFFFFFFFFF AND CALLER PUSH20 0xFFFFFFFFFFFFFFFFFFFFFFFFFFFFFFFFFFFFFFFF AND EQ PUSH2 0x7FE JUMPI PUSH1 0x40 MLOAD PUSH32 0x8C379A000000000000000000000000000000000000000000000000000000000 DUP2 MSTORE PUSH1 0x4 ADD PUSH2 0x7F5 SWAP1 PUSH2 0x1BD1 JUMP JUMPDEST PUSH1 0x40 MLOAD DUP1 SWAP2 SUB SWAP1 REVERT JUMPDEST PUSH1 0x7 PUSH1 0x15 SWAP1 SLOAD SWAP1 PUSH2 0x100 EXP SWAP1 DIV PUSH1 0xFF AND ISZERO PUSH2 0x84E JUMPI PUSH1 0x40 MLOAD PUSH32 0x8C379A000000000000000000000000000000000000000000000000000000000 DUP2 MSTORE PUSH1 0x4 ADD PUSH2 0x845 SWAP1 PUSH2 0x1C3D JUMP JUMPDEST PUSH1 0x40 MLOAD DUP1 SWAP2 SUB SWAP1 REVERT JUMPDEST PUSH1 0x7 PUSH1 0x14 SWAP1 SLOAD SWAP1 PUSH2 0x100 EXP SWAP1 DIV PUSH1 0xFF AND ISZERO PUSH2 0xA19 JUMPI PUSH1 0x0 SELFBALANCE SWAP1 POP PUSH1 0x0 DUP2 GT ISZERO PUSH2 0x91A JUMPI PUSH1 0x0 CALLER PUSH20 0xFFFFFFFFFFFFFFFFFFFFFFFFFFFFFFFFFFFFFFFF AND DUP3 PUSH1 0x40 MLOAD PUSH2 0x897 SWAP1 PUSH2 0x1C8E JUMP JUMPDEST PUSH1 0x0 PUSH1 0x40 MLOAD DUP1 DUP4 SUB DUP2 DUP6 DUP8 GAS CALL SWAP3 POP POP POP RETURNDATASIZE DUP1 PUSH1 0x0 DUP2 EQ PUSH2 0x8D4 JUMPI PUSH1 0x40 MLOAD SWAP2 POP PUSH1 0x1F NOT PUSH1 0x3F RETURNDATASIZE ADD AND DUP3 ADD PUSH1 0x40 MSTORE RETURNDATASIZE DUP3 MSTORE RETURNDATASIZE PUSH1 0x0 PUSH1 0x20 DUP5 ADD RETURNDATACOPY PUSH2 0x8D9 JUMP JUMPDEST PUSH1 0x60 SWAP2 POP JUMPDEST POP POP SWAP1 POP PUSH32 0x5B8E8DABFB07633926AAD60D1498E605E71A8EE067252F388E7ED6228F8A1F9C CALLER DUP4 DUP4 PUSH1 0x40 MLOAD PUSH2 0x910 SWAP4 SWAP3 SWAP2 SWAP1 PUSH2 0x1CA3 JUMP JUMPDEST PUSH1 0x40 MLOAD DUP1 SWAP2 SUB SWAP1 LOG1 POP JUMPDEST PUSH1 0x0 PUSH1 0x5 SLOAD PUSH1 0x4 SLOAD PUSH2 0x92C SWAP2 SWAP1 PUSH2 0x1CDA JUMP JUMPDEST SWAP1 POP PUSH1 0x0 DUP2 GT ISZERO PUSH2 0xA12 JUMPI PUSH1 0x7 PUSH1 0x0 SWAP1 SLOAD SWAP1 PUSH2 0x100 EXP SWAP1 DIV PUSH20 0xFFFFFFFFFFFFFFFFFFFFFFFFFFFFFFFFFFFFFFFF AND PUSH20 0xFFFFFFFFFFFFFFFFFFFFFFFFFFFFFFFFFFFFFFFF AND PUSH4 0xA9059CBB CALLER PUSH1 0x5 SLOAD PUSH1 0x4 SLOAD PUSH2 0x986 SWAP2 SWAP1 PUSH2 0x1CDA JUMP JUMPDEST PUSH1 0x40 MLOAD DUP4 PUSH4 0xFFFFFFFF AND PUSH1 0xE0 SHL DUP2 MSTORE PUSH1 0x4 ADD PUSH2 0x9A3 SWAP3 SWAP2 SWAP1 PUSH2 0x1D0E JUMP JUMPDEST PUSH1 0x0 PUSH1 0x40 MLOAD DUP1 DUP4 SUB DUP2 PUSH1 0x0 DUP8 DUP1 EXTCODESIZE ISZERO DUP1 ISZERO PUSH2 0x9BD JUMPI PUSH1 0x0 DUP1 REVERT JUMPDEST POP GAS CALL ISZERO DUP1 ISZERO PUSH2 0x9D1 JUMPI RETURNDATASIZE PUSH1 0x0 DUP1 RETURNDATACOPY RETURNDATASIZE PUSH1 0x0 REVERT JUMPDEST POP POP POP POP PUSH32 0x860B533173A7B1027D391A00A46E79992FE2F681FC082E49C56BA22DB74601C6 CALLER DUP3 PUSH1 0x1 PUSH1 0x40 MLOAD PUSH2 0xA09 SWAP4 SWAP3 SWAP2 SWAP1 PUSH2 0x1CA3 JUMP JUMPDEST PUSH1 0x40 MLOAD DUP1 SWAP2 SUB SWAP1 LOG1 JUMPDEST POP POP PUSH2 0xB86 JUMP JUMPDEST PUSH1 0x0 PUSH1 0x7 PUSH1 0x0 SWAP1 SLOAD SWAP1 PUSH2 0x100 EXP SWAP1 DIV PUSH20 0xFFFFFFFFFFFFFFFFFFFFFFFFFFFFFFFFFFFFFFFF AND PUSH20 0xFFFFFFFFFFFFFFFFFFFFFFFFFFFFFFFFFFFFFFFF AND PUSH4 0x70A08231 ADDRESS PUSH1 0x40 MLOAD DUP3 PUSH4 0xFFFFFFFF AND PUSH1 0xE0 SHL DUP2 MSTORE PUSH1 0x4 ADD PUSH2 0xA76 SWAP2 SWAP1 PUSH2 0x1A1B JUMP JUMPDEST PUSH1 0x20 PUSH1 0x40 MLOAD DUP1 DUP4 SUB DUP2 DUP7 GAS STATICCALL ISZERO DUP1 ISZERO PUSH2 0xA93 JUMPI RETURNDATASIZE PUSH1 0x0 DUP1 RETURNDATACOPY RETURNDATASIZE PUSH1 0x0 REVERT JUMPDEST POP POP POP POP PUSH1 0x40 MLOAD RETURNDATASIZE PUSH1 0x1F NOT PUSH1 0x1F DUP3 ADD AND DUP3 ADD DUP1 PUSH1 0x40 MSTORE POP DUP2 ADD SWAP1 PUSH2 0xAB7 SWAP2 SWAP1 PUSH2 0x1D4C JUMP JUMPDEST SWAP1 POP PUSH1 0x7 PUSH1 0x0 SWAP1 SLOAD SWAP1 PUSH2 0x100 EXP SWAP1 DIV PUSH20 0xFFFFFFFFFFFFFFFFFFFFFFFFFFFFFFFFFFFFFFFF AND PUSH20 0xFFFFFFFFFFFFFFFFFFFFFFFFFFFFFFFFFFFFFFFF AND PUSH4 0xA9059CBB CALLER DUP4 PUSH1 0x40 MLOAD DUP4 PUSH4 0xFFFFFFFF AND PUSH1 0xE0 SHL DUP2 MSTORE PUSH1 0x4 ADD PUSH2 0xB16 SWAP3 SWAP2 SWAP1 PUSH2 0x1D0E JUMP JUMPDEST PUSH1 0x0 PUSH1 0x40 MLOAD DUP1 DUP4 SUB DUP2 PUSH1 0x0 DUP8 DUP1 EXTCODESIZE ISZERO DUP1 ISZERO PUSH2 0xB30 JUMPI PUSH1 0x0 DUP1 REVERT JUMPDEST POP GAS CALL ISZERO DUP1 ISZERO PUSH2 0xB44 JUMPI RETURNDATASIZE PUSH1 0x0 DUP1 RETURNDATACOPY RETURNDATASIZE PUSH1 0x0 REVERT JUMPDEST POP POP POP POP PUSH32 0x860B533173A7B1027D391A00A46E79992FE2F681FC082E49C56BA22DB74601C6 CALLER DUP3 PUSH1 0x1 PUSH1 0x40 MLOAD PUSH2 0xB7C SWAP4 SWAP3 SWAP2 SWAP1 PUSH2 0x1CA3 JUMP JUMPDEST PUSH1 0x40 MLOAD DUP1 SWAP2 SUB SWAP1 LOG1 POP JUMPDEST JUMP JUMPDEST PUSH1 0x4 SLOAD DUP2 JUMP JUMPDEST PUSH1 0x2 SLOAD DUP2 JUMP JUMPDEST PUSH1 0x8 PUSH1 0x20 MSTORE DUP1 PUSH1 0x0 MSTORE PUSH1 0x40 PUSH1 0x0 KECCAK256 PUSH1 0x0 SWAP2 POP SWAP1 POP DUP1 PUSH1 0x0 ADD SLOAD SWAP1 DUP1 PUSH1 0x1 ADD SLOAD SWAP1 DUP1 PUSH1 0x2 ADD PUSH1 0x0 SWAP1 SLOAD SWAP1 PUSH2 0x100 EXP SWAP1 DIV PUSH1 0xFF AND SWAP1 POP DUP4 JUMP JUMPDEST PUSH1 0x5 SLOAD DUP2 JUMP JUMPDEST PUSH1 0x7 PUSH1 0x15 SWAP1 SLOAD SWAP1 PUSH2 0x100 EXP SWAP1 DIV PUSH1 0xFF AND DUP2 JUMP JUMPDEST PUSH1 0x7 PUSH1 0x0 SWAP1 SLOAD SWAP1 PUSH2 0x100 EXP SWAP1 DIV PUSH20 0xFFFFFFFFFFFFFFFFFFFFFFFFFFFFFFFFFFFFFFFF AND DUP2 JUMP JUMPDEST PUSH1 0x6 SLOAD DUP2 JUMP JUMPDEST PUSH1 0x1 SLOAD DUP2 JUMP JUMPDEST PUSH1 0x0 DUP1 SLOAD SWAP1 PUSH2 0x100 EXP SWAP1 DIV PUSH20 0xFFFFFFFFFFFFFFFFFFFFFFFFFFFFFFFFFFFFFFFF AND DUP2 JUMP JUMPDEST PUSH1 0x0 DUP1 SLOAD SWAP1 PUSH2 0x100 EXP SWAP1 DIV PUSH20 0xFFFFFFFFFFFFFFFFFFFFFFFFFFFFFFFFFFFFFFFF AND PUSH20 0xFFFFFFFFFFFFFFFFFFFFFFFFFFFFFFFFFFFFFFFF AND CALLER PUSH20 0xFFFFFFFFFFFFFFFFFFFFFFFFFFFFFFFFFFFFFFFF AND EQ PUSH2 0xCC8 JUMPI PUSH1 0x40 MLOAD PUSH32 0x8C379A000000000000000000000000000000000000000000000000000000000 DUP2 MSTORE PUSH1 0x4 ADD PUSH2 0xCBF SWAP1 PUSH2 0x1BD1 JUMP JUMPDEST PUSH1 0x40 MLOAD DUP1 SWAP2 SUB SWAP1 REVERT JUMPDEST PUSH1 0x0 PUSH1 0x1 SLOAD GT DUP1 ISZERO PUSH2 0xCDC JUMPI POP PUSH1 0x0 PUSH1 0x3 SLOAD GT JUMPDEST DUP1 ISZERO PUSH2 0xCEA JUMPI POP PUSH1 0x0 PUSH1 0x4 SLOAD GT JUMPDEST DUP1 ISZERO PUSH2 0xD45 JUMPI POP PUSH1 0x0 PUSH20 0xFFFFFFFFFFFFFFFFFFFFFFFFFFFFFFFFFFFFFFFF AND PUSH1 0x7 PUSH1 0x0 SWAP1 SLOAD SWAP1 PUSH2 0x100 EXP SWAP1 DIV PUSH20 0xFFFFFFFFFFFFFFFFFFFFFFFFFFFFFFFFFFFFFFFF AND PUSH20 0xFFFFFFFFFFFFFFFFFFFFFFFFFFFFFFFFFFFFFFFF AND EQ ISZERO JUMPDEST DUP1 ISZERO PUSH2 0xD51 JUMPI POP PUSH1 0x0 DUP2 GT JUMPDEST DUP1 ISZERO PUSH2 0xD5F JUMPI POP PUSH1 0x0 PUSH1 0x6 SLOAD EQ JUMPDEST PUSH2 0xD9E JUMPI PUSH1 0x40 MLOAD PUSH32 0x8C379A000000000000000000000000000000000000000000000000000000000 DUP2 MSTORE PUSH1 0x4 ADD PUSH2 0xD95 SWAP1 PUSH2 0x1DC5 JUMP JUMPDEST PUSH1 0x40 MLOAD DUP1 SWAP2 SUB SWAP1 REVERT JUMPDEST PUSH1 0x4 SLOAD PUSH1 0x7 PUSH1 0x0 SWAP1 SLOAD SWAP1 PUSH2 0x100 EXP SWAP1 DIV PUSH20 0xFFFFFFFFFFFFFFFFFFFFFFFFFFFFFFFFFFFFFFFF AND PUSH20 0xFFFFFFFFFFFFFFFFFFFFFFFFFFFFFFFFFFFFFFFF AND PUSH4 0x70A08231 ADDRESS PUSH1 0x40 MLOAD DUP3 PUSH4 0xFFFFFFFF AND PUSH1 0xE0 SHL DUP2 MSTORE PUSH1 0x4 ADD PUSH2 0xDFC SWAP2 SWAP1 PUSH2 0x1A1B JUMP JUMPDEST PUSH1 0x20 PUSH1 0x40 MLOAD DUP1 DUP4 SUB DUP2 DUP7 GAS STATICCALL ISZERO DUP1 ISZERO PUSH2 0xE19 JUMPI RETURNDATASIZE PUSH1 0x0 DUP1 RETURNDATACOPY RETURNDATASIZE PUSH1 0x0 REVERT JUMPDEST POP POP POP POP PUSH1 0x40 MLOAD RETURNDATASIZE PUSH1 0x1F NOT PUSH1 0x1F DUP3 ADD AND DUP3 ADD DUP1 PUSH1 0x40 MSTORE POP DUP2 ADD SWAP1 PUSH2 0xE3D SWAP2 SWAP1 PUSH2 0x1D4C JUMP JUMPDEST LT PUSH2 0xEE6 JUMPI TIMESTAMP PUSH1 0x6 DUP2 SWAP1 SSTORE POP PUSH1 0x3C DUP2 PUSH2 0xE56 SWAP2 SWAP1 PUSH2 0x176E JUMP JUMPDEST TIMESTAMP PUSH2 0xE61 SWAP2 SWAP1 PUSH2 0x16B8 JUMP JUMPDEST PUSH1 0x2 DUP2 SWAP1 SSTORE POP PUSH1 0x1 PUSH1 0x7 PUSH1 0x15 PUSH2 0x100 EXP DUP2 SLOAD DUP2 PUSH1 0xFF MUL NOT AND SWAP1 DUP4 ISZERO ISZERO MUL OR SWAP1 SSTORE POP PUSH32 0x6A151B16DF8B91A6230549A14AE94CF40F3C9426543B21802DC10201CD35648B PUSH1 0x1 SLOAD PUSH1 0x2 SLOAD PUSH1 0x4 SLOAD PUSH1 0x0 DUP1 SLOAD SWAP1 PUSH2 0x100 EXP SWAP1 DIV PUSH20 0xFFFFFFFFFFFFFFFFFFFFFFFFFFFFFFFFFFFFFFFF AND PUSH1 0x40 MLOAD PUSH2 0xEDD SWAP5 SWAP4 SWAP3 SWAP2 SWAP1 PUSH2 0x1DE5 JUMP JUMPDEST PUSH1 0x40 MLOAD DUP1 SWAP2 SUB SWAP1 LOG1 JUMPDEST POP JUMP JUMPDEST PUSH1 0x3 SLOAD DUP2 JUMP JUMPDEST PUSH1 0x7 PUSH1 0x14 SWAP1 SLOAD SWAP1 PUSH2 0x100 EXP SWAP1 DIV PUSH1 0xFF AND DUP2 JUMP JUMPDEST PUSH1 0x7 PUSH1 0x15 SWAP1 SLOAD SWAP1 PUSH2 0x100 EXP SWAP1 DIV PUSH1 0xFF AND ISZERO PUSH2 0xF1C JUMPI PUSH2 0x1435 JUMP JUMPDEST PUSH1 0x8 PUSH1 0x0 CALLER PUSH20 0xFFFFFFFFFFFFFFFFFFFFFFFFFFFFFFFFFFFFFFFF AND PUSH20 0xFFFFFFFFFFFFFFFFFFFFFFFFFFFFFFFFFFFFFFFF AND DUP2 MSTORE PUSH1 0x20 ADD SWAP1 DUP2 MSTORE PUSH1 0x20 ADD PUSH1 0x0 KECCAK256 PUSH1 0x2 ADD PUSH1 0x0 SWAP1 SLOAD SWAP1 PUSH2 0x100 EXP SWAP1 DIV PUSH1 0xFF AND ISZERO PUSH2 0xFAC JUMPI PUSH1 0x40 MLOAD PUSH32 0x8C379A000000000000000000000000000000000000000000000000000000000 DUP2 MSTORE PUSH1 0x4 ADD PUSH2 0xFA3 SWAP1 PUSH2 0x1E76 JUMP JUMPDEST PUSH1 0x40 MLOAD DUP1 SWAP2 SUB SWAP1 REVERT JUMPDEST PUSH1 0x7 PUSH1 0x14 SWAP1 SLOAD SWAP1 PUSH2 0x100 EXP SWAP1 DIV PUSH1 0xFF AND ISZERO PUSH2 0x120A JUMPI PUSH1 0x0 PUSH1 0x8 PUSH1 0x0 CALLER PUSH20 0xFFFFFFFFFFFFFFFFFFFFFFFFFFFFFFFFFFFFFFFF AND PUSH20 0xFFFFFFFFFFFFFFFFFFFFFFFFFFFFFFFFFFFFFFFF AND DUP2 MSTORE PUSH1 0x20 ADD SWAP1 DUP2 MSTORE PUSH1 0x20 ADD PUSH1 0x0 KECCAK256 PUSH1 0x1 ADD SLOAD GT ISZERO PUSH2 0x1205 JUMPI PUSH1 0x7 PUSH1 0x0 SWAP1 SLOAD SWAP1 PUSH2 0x100 EXP SWAP1 DIV PUSH20 0xFFFFFFFFFFFFFFFFFFFFFFFFFFFFFFFFFFFFFFFF AND PUSH20 0xFFFFFFFFFFFFFFFFFFFFFFFFFFFFFFFFFFFFFFFF AND PUSH4 0xA9059CBB CALLER PUSH1 0x8 PUSH1 0x0 CALLER PUSH20 0xFFFFFFFFFFFFFFFFFFFFFFFFFFFFFFFFFFFFFFFF AND PUSH20 0xFFFFFFFFFFFFFFFFFFFFFFFFFFFFFFFFFFFFFFFF AND DUP2 MSTORE PUSH1 0x20 ADD SWAP1 DUP2 MSTORE PUSH1 0x20 ADD PUSH1 0x0 KECCAK256 PUSH1 0x1 ADD SLOAD PUSH1 0x40 MLOAD DUP4 PUSH4 0xFFFFFFFF AND PUSH1 0xE0 SHL DUP2 MSTORE PUSH1 0x4 ADD PUSH2 0x10AB SWAP3 SWAP2 SWAP1 PUSH2 0x1D0E JUMP JUMPDEST PUSH1 0x0 PUSH1 0x40 MLOAD DUP1 DUP4 SUB DUP2 PUSH1 0x0 DUP8 DUP1 EXTCODESIZE ISZERO DUP1 ISZERO PUSH2 0x10C5 JUMPI PUSH1 0x0 DUP1 REVERT JUMPDEST POP GAS CALL ISZERO DUP1 ISZERO PUSH2 0x10D9 JUMPI RETURNDATASIZE PUSH1 0x0 DUP1 RETURNDATACOPY RETURNDATASIZE PUSH1 0x0 REVERT JUMPDEST POP POP POP POP PUSH1 0x1 PUSH1 0x8 PUSH1 0x0 CALLER PUSH20 0xFFFFFFFFFFFFFFFFFFFFFFFFFFFFFFFFFFFFFFFF AND PUSH20 0xFFFFFFFFFFFFFFFFFFFFFFFFFFFFFFFFFFFFFFFF AND DUP2 MSTORE PUSH1 0x20 ADD SWAP1 DUP2 MSTORE PUSH1 0x20 ADD PUSH1 0x0 KECCAK256 PUSH1 0x2 ADD PUSH1 0x0 PUSH2 0x100 EXP DUP2 SLOAD DUP2 PUSH1 0xFF MUL NOT AND SWAP1 DUP4 ISZERO ISZERO MUL OR SWAP1 SSTORE POP PUSH32 0x860B533173A7B1027D391A00A46E79992FE2F681FC082E49C56BA22DB74601C6 CALLER PUSH1 0x8 PUSH1 0x0 CALLER PUSH20 0xFFFFFFFFFFFFFFFFFFFFFFFFFFFFFFFFFFFFFFFF AND PUSH20 0xFFFFFFFFFFFFFFFFFFFFFFFFFFFFFFFFFFFFFFFF AND DUP2 MSTORE PUSH1 0x20 ADD SWAP1 DUP2 MSTORE PUSH1 0x20 ADD PUSH1 0x0 KECCAK256 PUSH1 0x1 ADD SLOAD PUSH1 0x8 PUSH1 0x0 CALLER PUSH20 0xFFFFFFFFFFFFFFFFFFFFFFFFFFFFFFFFFFFFFFFF AND PUSH20 0xFFFFFFFFFFFFFFFFFFFFFFFFFFFFFFFFFFFFFFFF AND DUP2 MSTORE PUSH1 0x20 ADD SWAP1 DUP2 MSTORE PUSH1 0x20 ADD PUSH1 0x0 KECCAK256 PUSH1 0x2 ADD PUSH1 0x0 SWAP1 SLOAD SWAP1 PUSH2 0x100 EXP SWAP1 DIV PUSH1 0xFF AND PUSH1 0x40 MLOAD PUSH2 0x11FC SWAP4 SWAP3 SWAP2 SWAP1 PUSH2 0x1CA3 JUMP JUMPDEST PUSH1 0x40 MLOAD DUP1 SWAP2 SUB SWAP1 LOG1 JUMPDEST PUSH2 0x1434 JUMP JUMPDEST PUSH1 0x0 PUSH1 0x8 PUSH1 0x0 CALLER PUSH20 0xFFFFFFFFFFFFFFFFFFFFFFFFFFFFFFFFFFFFFFFF AND PUSH20 0xFFFFFFFFFFFFFFFFFFFFFFFFFFFFFFFFFFFFFFFF AND DUP2 MSTORE PUSH1 0x20 ADD SWAP1 DUP2 MSTORE PUSH1 0x20 ADD PUSH1 0x0 KECCAK256 PUSH1 0x0 ADD SLOAD GT ISZERO PUSH2 0x1433 JUMPI PUSH1 0x0 CALLER PUSH20 0xFFFFFFFFFFFFFFFFFFFFFFFFFFFFFFFFFFFFFFFF AND PUSH1 0x8 PUSH1 0x0 CALLER PUSH20 0xFFFFFFFFFFFFFFFFFFFFFFFFFFFFFFFFFFFFFFFF AND PUSH20 0xFFFFFFFFFFFFFFFFFFFFFFFFFFFFFFFFFFFFFFFF AND DUP2 MSTORE PUSH1 0x20 ADD SWAP1 DUP2 MSTORE PUSH1 0x20 ADD PUSH1 0x0 KECCAK256 PUSH1 0x0 ADD SLOAD PUSH1 0x40 MLOAD PUSH2 0x12BD SWAP1 PUSH2 0x1C8E JUMP JUMPDEST PUSH1 0x0 PUSH1 0x40 MLOAD DUP1 DUP4 SUB DUP2 DUP6 DUP8 GAS CALL SWAP3 POP POP POP RETURNDATASIZE DUP1 PUSH1 0x0 DUP2 EQ PUSH2 0x12FA JUMPI PUSH1 0x40 MLOAD SWAP2 POP PUSH1 0x1F NOT PUSH1 0x3F RETURNDATASIZE ADD AND DUP3 ADD PUSH1 0x40 MSTORE RETURNDATASIZE DUP3 MSTORE RETURNDATASIZE PUSH1 0x0 PUSH1 0x20 DUP5 ADD RETURNDATACOPY PUSH2 0x12FF JUMP JUMPDEST PUSH1 0x60 SWAP2 POP JUMPDEST POP POP SWAP1 POP DUP1 ISZERO PUSH2 0x1365 JUMPI PUSH1 0x1 PUSH1 0x8 PUSH1 0x0 CALLER PUSH20 0xFFFFFFFFFFFFFFFFFFFFFFFFFFFFFFFFFFFFFFFF AND PUSH20 0xFFFFFFFFFFFFFFFFFFFFFFFFFFFFFFFFFFFFFFFF AND DUP2 MSTORE PUSH1 0x20 ADD SWAP1 DUP2 MSTORE PUSH1 0x20 ADD PUSH1 0x0 KECCAK256 PUSH1 0x2 ADD PUSH1 0x0 PUSH2 0x100 EXP DUP2 SLOAD DUP2 PUSH1 0xFF MUL NOT AND SWAP1 DUP4 ISZERO ISZERO MUL OR SWAP1 SSTORE POP JUMPDEST PUSH32 0x5B8E8DABFB07633926AAD60D1498E605E71A8EE067252F388E7ED6228F8A1F9C CALLER PUSH1 0x8 PUSH1 0x0 CALLER PUSH20 0xFFFFFFFFFFFFFFFFFFFFFFFFFFFFFFFFFFFFFFFF AND PUSH20 0xFFFFFFFFFFFFFFFFFFFFFFFFFFFFFFFFFFFFFFFF AND DUP2 MSTORE PUSH1 0x20 ADD SWAP1 DUP2 MSTORE PUSH1 0x20 ADD PUSH1 0x0 KECCAK256 PUSH1 0x0 ADD SLOAD PUSH1 0x8 PUSH1 0x0 CALLER PUSH20 0xFFFFFFFFFFFFFFFFFFFFFFFFFFFFFFFFFFFFFFFF AND PUSH20 0xFFFFFFFFFFFFFFFFFFFFFFFFFFFFFFFFFFFFFFFF AND DUP2 MSTORE PUSH1 0x20 ADD SWAP1 DUP2 MSTORE PUSH1 0x20 ADD PUSH1 0x0 KECCAK256 PUSH1 0x2 ADD PUSH1 0x0 SWAP1 SLOAD SWAP1 PUSH2 0x100 EXP SWAP1 DIV PUSH1 0xFF AND PUSH1 0x40 MLOAD PUSH2 0x1429 SWAP4 SWAP3 SWAP2 SWAP1 PUSH2 0x1CA3 JUMP JUMPDEST PUSH1 0x40 MLOAD DUP1 SWAP2 SUB SWAP1 LOG1 POP JUMPDEST JUMPDEST JUMPDEST JUMP JUMPDEST PUSH1 0x0 DUP1 PUSH1 0x0 PUSH1 0x2 SLOAD TIMESTAMP LT ISZERO PUSH2 0x1463 JUMPI PUSH1 0x3C TIMESTAMP PUSH1 0x2 SLOAD PUSH2 0x1456 SWAP2 SWAP1 PUSH2 0x1CDA JUMP JUMPDEST PUSH2 0x1460 SWAP2 SWAP1 PUSH2 0x173D JUMP JUMPDEST SWAP3 POP JUMPDEST SELFBALANCE PUSH1 0x1 SLOAD LT ISZERO PUSH2 0x1476 JUMPI PUSH1 0x0 SWAP2 POP PUSH2 0x149A JUMP JUMPDEST PUSH8 0xDE0B6B3A7640000 SELFBALANCE PUSH1 0x1 SLOAD PUSH2 0x148D SWAP2 SWAP1 PUSH2 0x1CDA JUMP JUMPDEST PUSH2 0x1497 SWAP2 SWAP1 PUSH2 0x173D JUMP JUMPDEST SWAP2 POP JUMPDEST PUSH1 0x5 SLOAD PUSH1 0x4 SLOAD PUSH2 0x14AA SWAP2 SWAP1 PUSH2 0x1CDA JUMP JUMPDEST SWAP1 POP SWAP1 SWAP2 SWAP3 JUMP JUMPDEST PUSH1 0x0 DUP1 SLOAD SWAP1 PUSH2 0x100 EXP SWAP1 DIV PUSH20 0xFFFFFFFFFFFFFFFFFFFFFFFFFFFFFFFFFFFFFFFF AND PUSH20 0xFFFFFFFFFFFFFFFFFFFFFFFFFFFFFFFFFFFFFFFF AND CALLER PUSH20 0xFFFFFFFFFFFFFFFFFFFFFFFFFFFFFFFFFFFFFFFF AND EQ PUSH2 0x153F JUMPI PUSH1 0x40 MLOAD PUSH32 0x8C379A000000000000000000000000000000000000000000000000000000000 DUP2 MSTORE PUSH1 0x4 ADD PUSH2 0x1536 SWAP1 PUSH2 0x1BD1 JUMP JUMPDEST PUSH1 0x40 MLOAD DUP1 SWAP2 SUB SWAP1 REVERT JUMPDEST PUSH1 0x0 DUP1 PUSH1 0x0 SWAP1 SLOAD SWAP1 PUSH2 0x100 EXP SWAP1 DIV PUSH20 0xFFFFFFFFFFFFFFFFFFFFFFFFFFFFFFFFFFFFFFFF AND SWAP1 POP DUP2 PUSH1 0x0 DUP1 PUSH2 0x100 EXP DUP2 SLOAD DUP2 PUSH20 0xFFFFFFFFFFFFFFFFFFFFFFFFFFFFFFFFFFFFFFFF MUL NOT AND SWAP1 DUP4 PUSH20 0xFFFFFFFFFFFFFFFFFFFFFFFFFFFFFFFFFFFFFFFF AND MUL OR SWAP1 SSTORE POP PUSH32 0x5C486528EC3E3F0EA91181CFF8116F02BFA350E03B8B6F12E00765ADBB5AF85C DUP2 PUSH1 0x0 DUP1 SLOAD SWAP1 PUSH2 0x100 EXP SWAP1 DIV PUSH20 0xFFFFFFFFFFFFFFFFFFFFFFFFFFFFFFFFFFFFFFFF AND PUSH1 0x40 MLOAD PUSH2 0x15F6 SWAP3 SWAP2 SWAP1 PUSH2 0x1E96 JUMP JUMPDEST PUSH1 0x40 MLOAD DUP1 SWAP2 SUB SWAP1 LOG1 POP POP JUMP JUMPDEST PUSH1 0x0 DUP3 DUP3 MSTORE PUSH1 0x20 DUP3 ADD SWAP1 POP SWAP3 SWAP2 POP POP JUMP JUMPDEST PUSH32 0x726563656976652066756E6374696F6E20310000000000000000000000000000 PUSH1 0x0 DUP3 ADD MSTORE POP JUMP JUMPDEST PUSH1 0x0 PUSH2 0x1649 PUSH1 0x12 DUP4 PUSH2 0x1602 JUMP JUMPDEST SWAP2 POP PUSH2 0x1654 DUP3 PUSH2 0x1613 JUMP JUMPDEST PUSH1 0x20 DUP3 ADD SWAP1 POP SWAP2 SWAP1 POP JUMP JUMPDEST PUSH1 0x0 PUSH1 0x20 DUP3 ADD SWAP1 POP DUP2 DUP2 SUB PUSH1 0x0 DUP4 ADD MSTORE PUSH2 0x1678 DUP2 PUSH2 0x163C JUMP JUMPDEST SWAP1 POP SWAP2 SWAP1 POP JUMP JUMPDEST PUSH1 0x0 DUP2 SWAP1 POP SWAP2 SWAP1 POP JUMP JUMPDEST PUSH32 0x4E487B7100000000000000000000000000000000000000000000000000000000 PUSH1 0x0 MSTORE PUSH1 0x11 PUSH1 0x4 MSTORE PUSH1 0x24 PUSH1 0x0 REVERT JUMPDEST PUSH1 0x0 PUSH2 0x16C3 DUP3 PUSH2 0x167F JUMP JUMPDEST SWAP2 POP PUSH2 0x16CE DUP4 PUSH2 0x167F JUMP JUMPDEST SWAP3 POP DUP3 PUSH32 0xFFFFFFFFFFFFFFFFFFFFFFFFFFFFFFFFFFFFFFFFFFFFFFFFFFFFFFFFFFFFFFFF SUB DUP3 GT ISZERO PUSH2 0x1703 JUMPI PUSH2 0x1702 PUSH2 0x1689 JUMP JUMPDEST JUMPDEST DUP3 DUP3 ADD SWAP1 POP SWAP3 SWAP2 POP POP JUMP JUMPDEST PUSH32 0x4E487B7100000000000000000000000000000000000000000000000000000000 PUSH1 0x0 MSTORE PUSH1 0x12 PUSH1 0x4 MSTORE PUSH1 0x24 PUSH1 0x0 REVERT JUMPDEST PUSH1 0x0 PUSH2 0x1748 DUP3 PUSH2 0x167F JUMP JUMPDEST SWAP2 POP PUSH2 0x1753 DUP4 PUSH2 0x167F JUMP JUMPDEST SWAP3 POP DUP3 PUSH2 0x1763 JUMPI PUSH2 0x1762 PUSH2 0x170E JUMP JUMPDEST JUMPDEST DUP3 DUP3 DIV SWAP1 POP SWAP3 SWAP2 POP POP JUMP JUMPDEST PUSH1 0x0 PUSH2 0x1779 DUP3 PUSH2 0x167F JUMP JUMPDEST SWAP2 POP PUSH2 0x1784 DUP4 PUSH2 0x167F JUMP JUMPDEST SWAP3 POP DUP2 PUSH32 0xFFFFFFFFFFFFFFFFFFFFFFFFFFFFFFFFFFFFFFFFFFFFFFFFFFFFFFFFFFFFFFFF DIV DUP4 GT DUP3 ISZERO ISZERO AND ISZERO PUSH2 0x17BD JUMPI PUSH2 0x17BC PUSH2 0x1689 JUMP JUMPDEST JUMPDEST DUP3 DUP3 MUL SWAP1 POP SWAP3 SWAP2 POP POP JUMP JUMPDEST PUSH32 0x726563656976652066756E6374696F6E20320000000000000000000000000000 PUSH1 0x0 DUP3 ADD MSTORE POP JUMP JUMPDEST PUSH1 0x0 PUSH2 0x17FE PUSH1 0x12 DUP4 PUSH2 0x1602 JUMP JUMPDEST SWAP2 POP PUSH2 0x1809 DUP3 PUSH2 0x17C8 JUMP JUMPDEST PUSH1 0x20 DUP3 ADD SWAP1 POP SWAP2 SWAP1 POP JUMP JUMPDEST PUSH1 0x0 PUSH1 0x20 DUP3 ADD SWAP1 POP DUP2 DUP2 SUB PUSH1 0x0 DUP4 ADD MSTORE PUSH2 0x182D DUP2 PUSH2 0x17F1 JUMP JUMPDEST SWAP1 POP SWAP2 SWAP1 POP JUMP JUMPDEST PUSH1 0x0 PUSH20 0xFFFFFFFFFFFFFFFFFFFFFFFFFFFFFFFFFFFFFFFF DUP3 AND SWAP1 POP SWAP2 SWAP1 POP JUMP JUMPDEST PUSH1 0x0 PUSH2 0x185F DUP3 PUSH2 0x1834 JUMP JUMPDEST SWAP1 POP SWAP2 SWAP1 POP JUMP JUMPDEST PUSH2 0x186F DUP2 PUSH2 0x1854 JUMP JUMPDEST DUP3 MSTORE POP POP JUMP JUMPDEST PUSH2 0x187E DUP2 PUSH2 0x167F JUMP JUMPDEST DUP3 MSTORE POP POP JUMP JUMPDEST PUSH1 0x0 PUSH1 0x60 DUP3 ADD SWAP1 POP PUSH2 0x1899 PUSH1 0x0 DUP4 ADD DUP7 PUSH2 0x1866 JUMP JUMPDEST PUSH2 0x18A6 PUSH1 0x20 DUP4 ADD DUP6 PUSH2 0x1875 JUMP JUMPDEST PUSH2 0x18B3 PUSH1 0x40 DUP4 ADD DUP5 PUSH2 0x1875 JUMP JUMPDEST SWAP5 SWAP4 POP POP POP POP JUMP JUMPDEST PUSH1 0x0 PUSH1 0x20 DUP3 ADD SWAP1 POP PUSH2 0x18D0 PUSH1 0x0 DUP4 ADD DUP5 PUSH2 0x1875 JUMP JUMPDEST SWAP3 SWAP2 POP POP JUMP JUMPDEST PUSH1 0x0 DUP1 REVERT JUMPDEST PUSH2 0x18E4 DUP2 PUSH2 0x1854 JUMP JUMPDEST DUP2 EQ PUSH2 0x18EF JUMPI PUSH1 0x0 DUP1 REVERT JUMPDEST POP JUMP JUMPDEST PUSH1 0x0 DUP2 CALLDATALOAD SWAP1 POP PUSH2 0x1901 DUP2 PUSH2 0x18DB JUMP JUMPDEST SWAP3 SWAP2 POP POP JUMP JUMPDEST PUSH1 0x0 PUSH1 0x20 DUP3 DUP5 SUB SLT ISZERO PUSH2 0x191D JUMPI PUSH2 0x191C PUSH2 0x18D6 JUMP JUMPDEST JUMPDEST PUSH1 0x0 PUSH2 0x192B DUP5 DUP3 DUP6 ADD PUSH2 0x18F2 JUMP JUMPDEST SWAP2 POP POP SWAP3 SWAP2 POP POP JUMP JUMPDEST PUSH1 0x0 DUP2 ISZERO ISZERO SWAP1 POP SWAP2 SWAP1 POP JUMP JUMPDEST PUSH2 0x1949 DUP2 PUSH2 0x1934 JUMP JUMPDEST DUP3 MSTORE POP POP JUMP JUMPDEST PUSH1 0x0 PUSH1 0x60 DUP3 ADD SWAP1 POP PUSH2 0x1964 PUSH1 0x0 DUP4 ADD DUP7 PUSH2 0x1875 JUMP JUMPDEST PUSH2 0x1971 PUSH1 0x20 DUP4 ADD DUP6 PUSH2 0x1875 JUMP JUMPDEST PUSH2 0x197E PUSH1 0x40 DUP4 ADD DUP5 PUSH2 0x1940 JUMP JUMPDEST SWAP5 SWAP4 POP POP POP POP JUMP JUMPDEST PUSH1 0x0 PUSH1 0x20 DUP3 ADD SWAP1 POP PUSH2 0x199B PUSH1 0x0 DUP4 ADD DUP5 PUSH2 0x1940 JUMP JUMPDEST SWAP3 SWAP2 POP POP JUMP JUMPDEST PUSH1 0x0 DUP2 SWAP1 POP SWAP2 SWAP1 POP JUMP JUMPDEST PUSH1 0x0 PUSH2 0x19C6 PUSH2 0x19C1 PUSH2 0x19BC DUP5 PUSH2 0x1834 JUMP JUMPDEST PUSH2 0x19A1 JUMP JUMPDEST PUSH2 0x1834 JUMP JUMPDEST SWAP1 POP SWAP2 SWAP1 POP JUMP JUMPDEST PUSH1 0x0 PUSH2 0x19D8 DUP3 PUSH2 0x19AB JUMP JUMPDEST SWAP1 POP SWAP2 SWAP1 POP JUMP JUMPDEST PUSH1 0x0 PUSH2 0x19EA DUP3 PUSH2 0x19CD JUMP JUMPDEST SWAP1 POP SWAP2 SWAP1 POP JUMP JUMPDEST PUSH2 0x19FA DUP2 PUSH2 0x19DF JUMP JUMPDEST DUP3 MSTORE POP POP JUMP JUMPDEST PUSH1 0x0 PUSH1 0x20 DUP3 ADD SWAP1 POP PUSH2 0x1A15 PUSH1 0x0 DUP4 ADD DUP5 PUSH2 0x19F1 JUMP JUMPDEST SWAP3 SWAP2 POP POP JUMP JUMPDEST PUSH1 0x0 PUSH1 0x20 DUP3 ADD SWAP1 POP PUSH2 0x1A30 PUSH1 0x0 DUP4 ADD DUP5 PUSH2 0x1866 JUMP JUMPDEST SWAP3 SWAP2 POP POP JUMP JUMPDEST PUSH2 0x1A3F DUP2 PUSH2 0x167F JUMP JUMPDEST DUP2 EQ PUSH2 0x1A4A JUMPI PUSH1 0x0 DUP1 REVERT JUMPDEST POP JUMP JUMPDEST PUSH1 0x0 DUP2 CALLDATALOAD SWAP1 POP PUSH2 0x1A5C DUP2 PUSH2 0x1A36 JUMP JUMPDEST SWAP3 SWAP2 POP POP JUMP JUMPDEST PUSH1 0x0 PUSH1 0x20 DUP3 DUP5 SUB SLT ISZERO PUSH2 0x1A78 JUMPI PUSH2 0x1A77 PUSH2 0x18D6 JUMP JUMPDEST JUMPDEST PUSH1 0x0 PUSH2 0x1A86 DUP5 DUP3 DUP6 ADD PUSH2 0x1A4D JUMP JUMPDEST SWAP2 POP POP SWAP3 SWAP2 POP POP JUMP JUMPDEST PUSH1 0x0 PUSH1 0x60 DUP3 ADD SWAP1 POP PUSH2 0x1AA4 PUSH1 0x0 DUP4 ADD DUP7 PUSH2 0x1875 JUMP JUMPDEST PUSH2 0x1AB1 PUSH1 0x20 DUP4 ADD DUP6 PUSH2 0x1875 JUMP JUMPDEST PUSH2 0x1ABE PUSH1 0x40 DUP4 ADD DUP5 PUSH2 0x1875 JUMP JUMPDEST SWAP5 SWAP4 POP POP POP POP JUMP JUMPDEST PUSH32 0x6166746572446561646C696E6500000000000000000000000000000000000000 PUSH1 0x0 DUP3 ADD MSTORE POP JUMP JUMPDEST PUSH1 0x0 PUSH2 0x1AFC PUSH1 0xD DUP4 PUSH2 0x1602 JUMP JUMPDEST SWAP2 POP PUSH2 0x1B07 DUP3 PUSH2 0x1AC6 JUMP JUMPDEST PUSH1 0x20 DUP3 ADD SWAP1 POP SWAP2 SWAP1 POP JUMP JUMPDEST PUSH1 0x0 PUSH1 0x20 DUP3 ADD SWAP1 POP DUP2 DUP2 SUB PUSH1 0x0 DUP4 ADD MSTORE PUSH2 0x1B2B DUP2 PUSH2 0x1AEF JUMP JUMPDEST SWAP1 POP SWAP2 SWAP1 POP JUMP JUMPDEST PUSH1 0x0 PUSH1 0xA0 DUP3 ADD SWAP1 POP PUSH2 0x1B47 PUSH1 0x0 DUP4 ADD DUP9 PUSH2 0x1866 JUMP JUMPDEST PUSH2 0x1B54 PUSH1 0x20 DUP4 ADD DUP8 PUSH2 0x1875 JUMP JUMPDEST PUSH2 0x1B61 PUSH1 0x40 DUP4 ADD DUP7 PUSH2 0x1875 JUMP JUMPDEST PUSH2 0x1B6E PUSH1 0x60 DUP4 ADD DUP6 PUSH2 0x1940 JUMP JUMPDEST PUSH2 0x1B7B PUSH1 0x80 DUP4 ADD DUP5 PUSH2 0x1875 JUMP JUMPDEST SWAP7 SWAP6 POP POP POP POP POP POP JUMP JUMPDEST PUSH32 0x6F6E6C794F776E65720000000000000000000000000000000000000000000000 PUSH1 0x0 DUP3 ADD MSTORE POP JUMP JUMPDEST PUSH1 0x0 PUSH2 0x1BBB PUSH1 0x9 DUP4 PUSH2 0x1602 JUMP JUMPDEST SWAP2 POP PUSH2 0x1BC6 DUP3 PUSH2 0x1B85 JUMP JUMPDEST PUSH1 0x20 DUP3 ADD SWAP1 POP SWAP2 SWAP1 POP JUMP JUMPDEST PUSH1 0x0 PUSH1 0x20 DUP3 ADD SWAP1 POP DUP2 DUP2 SUB PUSH1 0x0 DUP4 ADD MSTORE PUSH2 0x1BEA DUP2 PUSH2 0x1BAE JUMP JUMPDEST SWAP1 POP SWAP2 SWAP1 POP JUMP JUMPDEST PUSH32 0x7769746864726177616C4F776E65720000000000000000000000000000000000 PUSH1 0x0 DUP3 ADD MSTORE POP JUMP JUMPDEST PUSH1 0x0 PUSH2 0x1C27 PUSH1 0xF DUP4 PUSH2 0x1602 JUMP JUMPDEST SWAP2 POP PUSH2 0x1C32 DUP3 PUSH2 0x1BF1 JUMP JUMPDEST PUSH1 0x20 DUP3 ADD SWAP1 POP SWAP2 SWAP1 POP JUMP JUMPDEST PUSH1 0x0 PUSH1 0x20 DUP3 ADD SWAP1 POP DUP2 DUP2 SUB PUSH1 0x0 DUP4 ADD MSTORE PUSH2 0x1C56 DUP2 PUSH2 0x1C1A JUMP JUMPDEST SWAP1 POP SWAP2 SWAP1 POP JUMP JUMPDEST PUSH1 0x0 DUP2 SWAP1 POP SWAP3 SWAP2 POP POP JUMP JUMPDEST POP JUMP JUMPDEST PUSH1 0x0 PUSH2 0x1C78 PUSH1 0x0 DUP4 PUSH2 0x1C5D JUMP JUMPDEST SWAP2 POP PUSH2 0x1C83 DUP3 PUSH2 0x1C68 JUMP JUMPDEST PUSH1 0x0 DUP3 ADD SWAP1 POP SWAP2 SWAP1 POP JUMP JUMPDEST PUSH1 0x0 PUSH2 0x1C99 DUP3 PUSH2 0x1C6B JUMP JUMPDEST SWAP2 POP DUP2 SWAP1 POP SWAP2 SWAP1 POP JUMP JUMPDEST PUSH1 0x0 PUSH1 0x60 DUP3 ADD SWAP1 POP PUSH2 0x1CB8 PUSH1 0x0 DUP4 ADD DUP7 PUSH2 0x1866 JUMP JUMPDEST PUSH2 0x1CC5 PUSH1 0x20 DUP4 ADD DUP6 PUSH2 0x1875 JUMP JUMPDEST PUSH2 0x1CD2 PUSH1 0x40 DUP4 ADD DUP5 PUSH2 0x1940 JUMP JUMPDEST SWAP5 SWAP4 POP POP POP POP JUMP JUMPDEST PUSH1 0x0 PUSH2 0x1CE5 DUP3 PUSH2 0x167F JUMP JUMPDEST SWAP2 POP PUSH2 0x1CF0 DUP4 PUSH2 0x167F JUMP JUMPDEST SWAP3 POP DUP3 DUP3 LT ISZERO PUSH2 0x1D03 JUMPI PUSH2 0x1D02 PUSH2 0x1689 JUMP JUMPDEST JUMPDEST DUP3 DUP3 SUB SWAP1 POP SWAP3 SWAP2 POP POP JUMP JUMPDEST PUSH1 0x0 PUSH1 0x40 DUP3 ADD SWAP1 POP PUSH2 0x1D23 PUSH1 0x0 DUP4 ADD DUP6 PUSH2 0x1866 JUMP JUMPDEST PUSH2 0x1D30 PUSH1 0x20 DUP4 ADD DUP5 PUSH2 0x1875 JUMP JUMPDEST SWAP4 SWAP3 POP POP POP JUMP JUMPDEST PUSH1 0x0 DUP2 MLOAD SWAP1 POP PUSH2 0x1D46 DUP2 PUSH2 0x1A36 JUMP JUMPDEST SWAP3 SWAP2 POP POP JUMP JUMPDEST PUSH1 0x0 PUSH1 0x20 DUP3 DUP5 SUB SLT ISZERO PUSH2 0x1D62 JUMPI PUSH2 0x1D61 PUSH2 0x18D6 JUMP JUMPDEST JUMPDEST PUSH1 0x0 PUSH2 0x1D70 DUP5 DUP3 DUP6 ADD PUSH2 0x1D37 JUMP JUMPDEST SWAP2 POP POP SWAP3 SWAP2 POP POP JUMP JUMPDEST PUSH32 0x63726F7764207374617274000000000000000000000000000000000000000000 PUSH1 0x0 DUP3 ADD MSTORE POP JUMP JUMPDEST PUSH1 0x0 PUSH2 0x1DAF PUSH1 0xB DUP4 PUSH2 0x1602 JUMP JUMPDEST SWAP2 POP PUSH2 0x1DBA DUP3 PUSH2 0x1D79 JUMP JUMPDEST PUSH1 0x20 DUP3 ADD SWAP1 POP SWAP2 SWAP1 POP JUMP JUMPDEST PUSH1 0x0 PUSH1 0x20 DUP3 ADD SWAP1 POP DUP2 DUP2 SUB PUSH1 0x0 DUP4 ADD MSTORE PUSH2 0x1DDE DUP2 PUSH2 0x1DA2 JUMP JUMPDEST SWAP1 POP SWAP2 SWAP1 POP JUMP JUMPDEST PUSH1 0x0 PUSH1 0x80 DUP3 ADD SWAP1 POP PUSH2 0x1DFA PUSH1 0x0 DUP4 ADD DUP8 PUSH2 0x1875 JUMP JUMPDEST PUSH2 0x1E07 PUSH1 0x20 DUP4 ADD DUP7 PUSH2 0x1875 JUMP JUMPDEST PUSH2 0x1E14 PUSH1 0x40 DUP4 ADD DUP6 PUSH2 0x1875 JUMP JUMPDEST PUSH2 0x1E21 PUSH1 0x60 DUP4 ADD DUP5 PUSH2 0x1866 JUMP JUMPDEST SWAP6 SWAP5 POP POP POP POP POP JUMP JUMPDEST PUSH32 0x7769746864726177616C00000000000000000000000000000000000000000000 PUSH1 0x0 DUP3 ADD MSTORE POP JUMP JUMPDEST PUSH1 0x0 PUSH2 0x1E60 PUSH1 0xA DUP4 PUSH2 0x1602 JUMP JUMPDEST SWAP2 POP PUSH2 0x1E6B DUP3 PUSH2 0x1E2A JUMP JUMPDEST PUSH1 0x20 DUP3 ADD SWAP1 POP SWAP2 SWAP1 POP JUMP JUMPDEST PUSH1 0x0 PUSH1 0x20 DUP3 ADD SWAP1 POP DUP2 DUP2 SUB PUSH1 0x0 DUP4 ADD MSTORE PUSH2 0x1E8F DUP2 PUSH2 0x1E53 JUMP JUMPDEST SWAP1 POP SWAP2 SWAP1 POP JUMP JUMPDEST PUSH1 0x0 PUSH1 0x40 DUP3 ADD SWAP1 POP PUSH2 0x1EAB PUSH1 0x0 DUP4 ADD DUP6 PUSH2 0x1866 JUMP JUMPDEST PUSH2 0x1EB8 PUSH1 0x20 DUP4 ADD DUP5 PUSH2 0x1866 JUMP JUMPDEST SWAP4 SWAP3 POP POP POP JUMP INVALID LOG2 PUSH5 0x6970667358 0x22 SLT KECCAK256 0x4F CALL ADDRESS LOG2 BALANCE PUSH22 0x149308E8CCD96B5FF3A42DE7AD61947231C6A7E3F86F SAR RETURN 0xF6 0xC3 PUSH5 0x736F6C6343 STOP ADDMOD 0xC STOP CALLER "
				},
				"gasEstimates": {
					"creation": {
						"codeDepositCost": "1585000",
						"executionCost": "infinite",
						"totalCost": "infinite"
					},
					"external": {
						"checkGoalReached()": "infinite",
						"currentSwapRate()": "infinite",
						"deadline()": "2519",
						"fundersProperty(address)": "infinite",
						"fundingGoal()": "2474",
						"fundingGoalReached()": "2565",
						"getRemainingTimeEthToken()": "infinite",
						"isOpened()": "2610",
						"owner()": "2578",
						"price()": "2451",
						"soldToken()": "2496",
						"start(uint256)": "infinite",
						"startTime()": "2452",
						"tokenReward()": "infinite",
						"transferOwnership(address)": "infinite",
						"transferableToken()": "2497",
						"withdrawal()": "infinite",
						"withdrawalOwner()": "infinite"
					}
				},
				"methodIdentifiers": {
					"checkGoalReached()": "01cb3b20",
					"currentSwapRate()": "5334c231",
					"deadline()": "29dcb0cf",
					"fundersProperty(address)": "5627df88",
					"fundingGoal()": "7a3a0e84",
					"fundingGoalReached()": "d424f628",
					"getRemainingTimeEthToken()": "d8c02754",
					"isOpened()": "692aa97e",
					"owner()": "8da5cb5b",
					"price()": "a035b1fe",
					"soldToken()": "6769d1f9",
					"start(uint256)": "95805dad",
					"startTime()": "78e97925",
					"tokenReward()": "6e66f6e9",
					"transferOwnership(address)": "f2fde38b",
					"transferableToken()": "21365597",
					"withdrawal()": "d4e93292",
					"withdrawalOwner()": "163f9b4f"
				}
			},
			"storageLayout": {
				"storage": [
					{
						"astId": 3,
						"contract": "contracts/OreOreCoinFull.sol:Crowdsale",
						"label": "owner",
						"offset": 0,
						"slot": "0",
						"type": "t_address"
					},
					{
						"astId": 574,
						"contract": "contracts/OreOreCoinFull.sol:Crowdsale",
						"label": "fundingGoal",
						"offset": 0,
						"slot": "1",
						"type": "t_uint256"
					},
					{
						"astId": 576,
						"contract": "contracts/OreOreCoinFull.sol:Crowdsale",
						"label": "deadline",
						"offset": 0,
						"slot": "2",
						"type": "t_uint256"
					},
					{
						"astId": 578,
						"contract": "contracts/OreOreCoinFull.sol:Crowdsale",
						"label": "price",
						"offset": 0,
						"slot": "3",
						"type": "t_uint256"
					},
					{
						"astId": 580,
						"contract": "contracts/OreOreCoinFull.sol:Crowdsale",
						"label": "transferableToken",
						"offset": 0,
						"slot": "4",
						"type": "t_uint256"
					},
					{
						"astId": 582,
						"contract": "contracts/OreOreCoinFull.sol:Crowdsale",
						"label": "soldToken",
						"offset": 0,
						"slot": "5",
						"type": "t_uint256"
					},
					{
						"astId": 584,
						"contract": "contracts/OreOreCoinFull.sol:Crowdsale",
						"label": "startTime",
						"offset": 0,
						"slot": "6",
						"type": "t_uint256"
					},
					{
						"astId": 587,
						"contract": "contracts/OreOreCoinFull.sol:Crowdsale",
						"label": "tokenReward",
						"offset": 0,
						"slot": "7",
						"type": "t_contract(OreOreCoin)570"
					},
					{
						"astId": 589,
						"contract": "contracts/OreOreCoinFull.sol:Crowdsale",
						"label": "fundingGoalReached",
						"offset": 20,
						"slot": "7",
						"type": "t_bool"
					},
					{
						"astId": 591,
						"contract": "contracts/OreOreCoinFull.sol:Crowdsale",
						"label": "isOpened",
						"offset": 21,
						"slot": "7",
						"type": "t_bool"
					},
					{
						"astId": 596,
						"contract": "contracts/OreOreCoinFull.sol:Crowdsale",
						"label": "fundersProperty",
						"offset": 0,
						"slot": "8",
						"type": "t_mapping(t_address,t_struct(Property)603_storage)"
					}
				],
				"types": {
					"t_address": {
						"encoding": "inplace",
						"label": "address",
						"numberOfBytes": "20"
					},
					"t_bool": {
						"encoding": "inplace",
						"label": "bool",
						"numberOfBytes": "1"
					},
					"t_contract(OreOreCoin)570": {
						"encoding": "inplace",
						"label": "contract OreOreCoin",
						"numberOfBytes": "20"
					},
					"t_mapping(t_address,t_struct(Property)603_storage)": {
						"encoding": "mapping",
						"key": "t_address",
						"label": "mapping(address => struct Crowdsale.Property)",
						"numberOfBytes": "32",
						"value": "t_struct(Property)603_storage"
					},
					"t_struct(Property)603_storage": {
						"encoding": "inplace",
						"label": "struct Crowdsale.Property",
						"members": [
							{
								"astId": 598,
								"contract": "contracts/OreOreCoinFull.sol:Crowdsale",
								"label": "paymentEther",
								"offset": 0,
								"slot": "0",
								"type": "t_uint256"
							},
							{
								"astId": 600,
								"contract": "contracts/OreOreCoinFull.sol:Crowdsale",
								"label": "reservedToken",
								"offset": 0,
								"slot": "1",
								"type": "t_uint256"
							},
							{
								"astId": 602,
								"contract": "contracts/OreOreCoinFull.sol:Crowdsale",
								"label": "withdrawed",
								"offset": 0,
								"slot": "2",
								"type": "t_bool"
							}
						],
						"numberOfBytes": "96"
					},
					"t_uint256": {
						"encoding": "inplace",
						"label": "uint256",
						"numberOfBytes": "32"
					}
				}
			},
			"userdoc": {
				"kind": "user",
				"methods": {},
				"version": 1
			}
		}
	}
}