{
	"contracts/OreOreCoinBlackList.sol": {
		"OreOreCoin": {
			"abi": [
				{
					"inputs": [
						{
							"internalType": "uint256",
							"name": "_supply",
							"type": "uint256"
						},
						{
							"internalType": "string",
							"name": "_name",
							"type": "string"
						},
						{
							"internalType": "string",
							"name": "_symbol",
							"type": "string"
						},
						{
							"internalType": "uint8",
							"name": "_decimals",
							"type": "uint8"
						}
					],
					"stateMutability": "nonpayable",
					"type": "constructor"
				},
				{
					"anonymous": false,
					"inputs": [
						{
							"indexed": true,
							"internalType": "address",
							"name": "target",
							"type": "address"
						}
					],
					"name": "Blacklisted",
					"type": "event"
				},
				{
					"anonymous": false,
					"inputs": [
						{
							"indexed": true,
							"internalType": "address",
							"name": "target",
							"type": "address"
						}
					],
					"name": "DeleteFromBlacklist",
					"type": "event"
				},
				{
					"anonymous": false,
					"inputs": [
						{
							"indexed": true,
							"internalType": "address",
							"name": "from",
							"type": "address"
						},
						{
							"indexed": true,
							"internalType": "address",
							"name": "to",
							"type": "address"
						},
						{
							"indexed": false,
							"internalType": "uint256",
							"name": "value",
							"type": "uint256"
						}
					],
					"name": "RejectedPaymentFromBlacklistedAddr",
					"type": "event"
				},
				{
					"anonymous": false,
					"inputs": [
						{
							"indexed": true,
							"internalType": "address",
							"name": "from",
							"type": "address"
						},
						{
							"indexed": true,
							"internalType": "address",
							"name": "to",
							"type": "address"
						},
						{
							"indexed": false,
							"internalType": "uint256",
							"name": "value",
							"type": "uint256"
						}
					],
					"name": "RejectedPaymentToBlacklistedAddr",
					"type": "event"
				},
				{
					"anonymous": false,
					"inputs": [
						{
							"indexed": true,
							"internalType": "address",
							"name": "from",
							"type": "address"
						},
						{
							"indexed": true,
							"internalType": "address",
							"name": "to",
							"type": "address"
						},
						{
							"indexed": false,
							"internalType": "uint256",
							"name": "value",
							"type": "uint256"
						}
					],
					"name": "Transfer",
					"type": "event"
				},
				{
					"inputs": [
						{
							"internalType": "address",
							"name": "",
							"type": "address"
						}
					],
					"name": "balanceOf",
					"outputs": [
						{
							"internalType": "uint256",
							"name": "",
							"type": "uint256"
						}
					],
					"stateMutability": "view",
					"type": "function"
				},
				{
					"inputs": [
						{
							"internalType": "address",
							"name": "",
							"type": "address"
						}
					],
					"name": "blackList",
					"outputs": [
						{
							"internalType": "int8",
							"name": "",
							"type": "int8"
						}
					],
					"stateMutability": "view",
					"type": "function"
				},
				{
					"inputs": [
						{
							"internalType": "address",
							"name": "_addr",
							"type": "address"
						}
					],
					"name": "blacklisting",
					"outputs": [],
					"stateMutability": "nonpayable",
					"type": "function"
				},
				{
					"inputs": [],
					"name": "decimals",
					"outputs": [
						{
							"internalType": "uint8",
							"name": "",
							"type": "uint8"
						}
					],
					"stateMutability": "view",
					"type": "function"
				},
				{
					"inputs": [
						{
							"internalType": "address",
							"name": "_addr",
							"type": "address"
						}
					],
					"name": "deleteFromBlacklist",
					"outputs": [],
					"stateMutability": "nonpayable",
					"type": "function"
				},
				{
					"inputs": [],
					"name": "name",
					"outputs": [
						{
							"internalType": "string",
							"name": "",
							"type": "string"
						}
					],
					"stateMutability": "view",
					"type": "function"
				},
				{
					"inputs": [],
					"name": "owner",
					"outputs": [
						{
							"internalType": "address",
							"name": "",
							"type": "address"
						}
					],
					"stateMutability": "view",
					"type": "function"
				},
				{
					"inputs": [],
					"name": "symbol",
					"outputs": [
						{
							"internalType": "string",
							"name": "",
							"type": "string"
						}
					],
					"stateMutability": "view",
					"type": "function"
				},
				{
					"inputs": [],
					"name": "totalSupply",
					"outputs": [
						{
							"internalType": "uint256",
							"name": "",
							"type": "uint256"
						}
					],
					"stateMutability": "view",
					"type": "function"
				},
				{
					"inputs": [
						{
							"internalType": "address",
							"name": "_to",
							"type": "address"
						},
						{
							"internalType": "uint256",
							"name": "_value",
							"type": "uint256"
						}
					],
					"name": "transfer",
					"outputs": [],
					"stateMutability": "nonpayable",
					"type": "function"
				}
			],
			"devdoc": {
				"kind": "dev",
				"methods": {},
				"version": 1
			},
			"evm": {
				"assembly": "    /* \"contracts/OreOreCoinBlackList.sol\":61:2617  contract OreOreCoin {... */\n  mstore(0x40, 0x80)\n    /* \"contracts/OreOreCoinBlackList.sol\":1070:1379  constructor(uint256 _supply, string memory _name, string memory _symbol, uint8 _decimals) {... */\n  callvalue\n  dup1\n  iszero\n  tag_1\n  jumpi\n  0x00\n  dup1\n  revert\ntag_1:\n  pop\n  mload(0x40)\n  sub(codesize, bytecodeSize)\n  dup1\n  bytecodeSize\n  dup4\n  codecopy\n  dup2\n  dup2\n  add\n  0x40\n  mstore\n  dup2\n  add\n  swap1\n  tag_2\n  swap2\n  swap1\n  tag_3\n  jump\t// in\ntag_2:\n    /* \"contracts/OreOreCoinBlackList.sol\":1195:1202  _supply */\n  dup4\n    /* \"contracts/OreOreCoinBlackList.sol\":1171:1180  balanceOf */\n  0x04\n    /* \"contracts/OreOreCoinBlackList.sol\":1171:1192  balanceOf[msg.sender] */\n  0x00\n    /* \"contracts/OreOreCoinBlackList.sol\":1181:1191  msg.sender */\n  caller\n    /* \"contracts/OreOreCoinBlackList.sol\":1171:1192  balanceOf[msg.sender] */\n  0xffffffffffffffffffffffffffffffffffffffff\n  and\n  0xffffffffffffffffffffffffffffffffffffffff\n  and\n  dup2\n  mstore\n  0x20\n  add\n  swap1\n  dup2\n  mstore\n  0x20\n  add\n  0x00\n  keccak256\n    /* \"contracts/OreOreCoinBlackList.sol\":1171:1202  balanceOf[msg.sender] = _supply */\n  dup2\n  swap1\n  sstore\n  pop\n    /* \"contracts/OreOreCoinBlackList.sol\":1220:1225  _name */\n  dup3\n    /* \"contracts/OreOreCoinBlackList.sol\":1213:1217  name */\n  0x00\n    /* \"contracts/OreOreCoinBlackList.sol\":1213:1225  name = _name */\n  swap1\n  dup1\n  mload\n  swap1\n  0x20\n  add\n  swap1\n  tag_6\n  swap3\n  swap2\n  swap1\n  tag_7\n  jump\t// in\ntag_6:\n  pop\n    /* \"contracts/OreOreCoinBlackList.sol\":1245:1252  _symbol */\n  dup2\n    /* \"contracts/OreOreCoinBlackList.sol\":1236:1242  symbol */\n  0x01\n    /* \"contracts/OreOreCoinBlackList.sol\":1236:1252  symbol = _symbol */\n  swap1\n  dup1\n  mload\n  swap1\n  0x20\n  add\n  swap1\n  tag_8\n  swap3\n  swap2\n  swap1\n  tag_7\n  jump\t// in\ntag_8:\n  pop\n    /* \"contracts/OreOreCoinBlackList.sol\":1274:1283  _decimals */\n  dup1\n    /* \"contracts/OreOreCoinBlackList.sol\":1263:1271  decimals */\n  0x02\n  0x00\n    /* \"contracts/OreOreCoinBlackList.sol\":1263:1283  decimals = _decimals */\n  0x0100\n  exp\n  dup2\n  sload\n  dup2\n  0xff\n  mul\n  not\n  and\n  swap1\n  dup4\n  0xff\n  and\n  mul\n  or\n  swap1\n  sstore\n  pop\n    /* \"contracts/OreOreCoinBlackList.sol\":1308:1315  _supply */\n  dup4\n    /* \"contracts/OreOreCoinBlackList.sol\":1294:1305  totalSupply */\n  0x03\n    /* \"contracts/OreOreCoinBlackList.sol\":1294:1315  totalSupply = _supply */\n  dup2\n  swap1\n  sstore\n  pop\n    /* \"contracts/OreOreCoinBlackList.sol\":1334:1344  msg.sender */\n  caller\n    /* \"contracts/OreOreCoinBlackList.sol\":1326:1331  owner */\n  0x06\n  0x00\n    /* \"contracts/OreOreCoinBlackList.sol\":1326:1344  owner = msg.sender */\n  0x0100\n  exp\n  dup2\n  sload\n  dup2\n  0xffffffffffffffffffffffffffffffffffffffff\n  mul\n  not\n  and\n  swap1\n  dup4\n  0xffffffffffffffffffffffffffffffffffffffff\n  and\n  mul\n  or\n  swap1\n  sstore\n  pop\n    /* \"contracts/OreOreCoinBlackList.sol\":1070:1379  constructor(uint256 _supply, string memory _name, string memory _symbol, uint8 _decimals) {... */\n  pop\n  pop\n  pop\n  pop\n    /* \"contracts/OreOreCoinBlackList.sol\":61:2617  contract OreOreCoin {... */\n  jump(tag_9)\ntag_7:\n  dup3\n  dup1\n  sload\n  tag_10\n  swap1\n  tag_11\n  jump\t// in\ntag_10:\n  swap1\n  0x00\n  mstore\n  keccak256(0x00, 0x20)\n  swap1\n  0x1f\n  add\n  0x20\n  swap1\n  div\n  dup2\n  add\n  swap3\n  dup3\n  tag_13\n  jumpi\n  0x00\n  dup6\n  sstore\n  jump(tag_12)\ntag_13:\n  dup3\n  0x1f\n  lt\n  tag_14\n  jumpi\n  dup1\n  mload\n  not(0xff)\n  and\n  dup4\n  dup1\n  add\n  or\n  dup6\n  sstore\n  jump(tag_12)\ntag_14:\n  dup3\n  dup1\n  add\n  0x01\n  add\n  dup6\n  sstore\n  dup3\n  iszero\n  tag_12\n  jumpi\n  swap2\n  dup3\n  add\ntag_15:\n  dup3\n  dup2\n  gt\n  iszero\n  tag_16\n  jumpi\n  dup3\n  mload\n  dup3\n  sstore\n  swap2\n  0x20\n  add\n  swap2\n  swap1\n  0x01\n  add\n  swap1\n  jump(tag_15)\ntag_16:\ntag_12:\n  pop\n  swap1\n  pop\n  tag_17\n  swap2\n  swap1\n  tag_18\n  jump\t// in\ntag_17:\n  pop\n  swap1\n  jump\t// out\ntag_18:\ntag_19:\n  dup1\n  dup3\n  gt\n  iszero\n  tag_20\n  jumpi\n  0x00\n  dup2\n  0x00\n  swap1\n  sstore\n  pop\n  0x01\n  add\n  jump(tag_19)\ntag_20:\n  pop\n  swap1\n  jump\t// out\n    /* \"#utility.yul\":7:82   */\ntag_21:\n    /* \"#utility.yul\":40:46   */\n  0x00\n    /* \"#utility.yul\":73:75   */\n  0x40\n    /* \"#utility.yul\":67:76   */\n  mload\n    /* \"#utility.yul\":57:76   */\n  swap1\n  pop\n    /* \"#utility.yul\":7:82   */\n  swap1\n  jump\t// out\n    /* \"#utility.yul\":88:205   */\ntag_22:\n    /* \"#utility.yul\":197:198   */\n  0x00\n    /* \"#utility.yul\":194:195   */\n  dup1\n    /* \"#utility.yul\":187:199   */\n  revert\n    /* \"#utility.yul\":211:328   */\ntag_23:\n    /* \"#utility.yul\":320:321   */\n  0x00\n    /* \"#utility.yul\":317:318   */\n  dup1\n    /* \"#utility.yul\":310:322   */\n  revert\n    /* \"#utility.yul\":334:411   */\ntag_24:\n    /* \"#utility.yul\":371:378   */\n  0x00\n    /* \"#utility.yul\":400:405   */\n  dup2\n    /* \"#utility.yul\":389:405   */\n  swap1\n  pop\n    /* \"#utility.yul\":334:411   */\n  swap2\n  swap1\n  pop\n  jump\t// out\n    /* \"#utility.yul\":417:539   */\ntag_25:\n    /* \"#utility.yul\":490:514   */\n  tag_47\n    /* \"#utility.yul\":508:513   */\n  dup2\n    /* \"#utility.yul\":490:514   */\n  tag_24\n  jump\t// in\ntag_47:\n    /* \"#utility.yul\":483:488   */\n  dup2\n    /* \"#utility.yul\":480:515   */\n  eq\n    /* \"#utility.yul\":470:533   */\n  tag_48\n  jumpi\n    /* \"#utility.yul\":529:530   */\n  0x00\n    /* \"#utility.yul\":526:527   */\n  dup1\n    /* \"#utility.yul\":519:531   */\n  revert\n    /* \"#utility.yul\":470:533   */\ntag_48:\n    /* \"#utility.yul\":417:539   */\n  pop\n  jump\t// out\n    /* \"#utility.yul\":545:688   */\ntag_26:\n    /* \"#utility.yul\":602:607   */\n  0x00\n    /* \"#utility.yul\":633:639   */\n  dup2\n    /* \"#utility.yul\":627:640   */\n  mload\n    /* \"#utility.yul\":618:640   */\n  swap1\n  pop\n    /* \"#utility.yul\":649:682   */\n  tag_50\n    /* \"#utility.yul\":676:681   */\n  dup2\n    /* \"#utility.yul\":649:682   */\n  tag_25\n  jump\t// in\ntag_50:\n    /* \"#utility.yul\":545:688   */\n  swap3\n  swap2\n  pop\n  pop\n  jump\t// out\n    /* \"#utility.yul\":694:811   */\ntag_27:\n    /* \"#utility.yul\":803:804   */\n  0x00\n    /* \"#utility.yul\":800:801   */\n  dup1\n    /* \"#utility.yul\":793:805   */\n  revert\n    /* \"#utility.yul\":817:934   */\ntag_28:\n    /* \"#utility.yul\":926:927   */\n  0x00\n    /* \"#utility.yul\":923:924   */\n  dup1\n    /* \"#utility.yul\":916:928   */\n  revert\n    /* \"#utility.yul\":940:1042   */\ntag_29:\n    /* \"#utility.yul\":981:987   */\n  0x00\n    /* \"#utility.yul\":1032:1034   */\n  0x1f\n    /* \"#utility.yul\":1028:1035   */\n  not\n    /* \"#utility.yul\":1023:1025   */\n  0x1f\n    /* \"#utility.yul\":1016:1021   */\n  dup4\n    /* \"#utility.yul\":1012:1026   */\n  add\n    /* \"#utility.yul\":1008:1036   */\n  and\n    /* \"#utility.yul\":998:1036   */\n  swap1\n  pop\n    /* \"#utility.yul\":940:1042   */\n  swap2\n  swap1\n  pop\n  jump\t// out\n    /* \"#utility.yul\":1048:1228   */\ntag_30:\n    /* \"#utility.yul\":1096:1173   */\n  0x4e487b7100000000000000000000000000000000000000000000000000000000\n    /* \"#utility.yul\":1093:1094   */\n  0x00\n    /* \"#utility.yul\":1086:1174   */\n  mstore\n    /* \"#utility.yul\":1193:1197   */\n  0x41\n    /* \"#utility.yul\":1190:1191   */\n  0x04\n    /* \"#utility.yul\":1183:1198   */\n  mstore\n    /* \"#utility.yul\":1217:1221   */\n  0x24\n    /* \"#utility.yul\":1214:1215   */\n  0x00\n    /* \"#utility.yul\":1207:1222   */\n  revert\n    /* \"#utility.yul\":1234:1515   */\ntag_31:\n    /* \"#utility.yul\":1317:1344   */\n  tag_56\n    /* \"#utility.yul\":1339:1343   */\n  dup3\n    /* \"#utility.yul\":1317:1344   */\n  tag_29\n  jump\t// in\ntag_56:\n    /* \"#utility.yul\":1309:1315   */\n  dup2\n    /* \"#utility.yul\":1305:1345   */\n  add\n    /* \"#utility.yul\":1447:1453   */\n  dup2\n    /* \"#utility.yul\":1435:1445   */\n  dup2\n    /* \"#utility.yul\":1432:1454   */\n  lt\n    /* \"#utility.yul\":1411:1429   */\n  0xffffffffffffffff\n    /* \"#utility.yul\":1399:1409   */\n  dup3\n    /* \"#utility.yul\":1396:1430   */\n  gt\n    /* \"#utility.yul\":1393:1455   */\n  or\n    /* \"#utility.yul\":1390:1478   */\n  iszero\n  tag_57\n  jumpi\n    /* \"#utility.yul\":1458:1476   */\n  tag_58\n  tag_30\n  jump\t// in\ntag_58:\n    /* \"#utility.yul\":1390:1478   */\ntag_57:\n    /* \"#utility.yul\":1498:1508   */\n  dup1\n    /* \"#utility.yul\":1494:1496   */\n  0x40\n    /* \"#utility.yul\":1487:1509   */\n  mstore\n    /* \"#utility.yul\":1277:1515   */\n  pop\n    /* \"#utility.yul\":1234:1515   */\n  pop\n  pop\n  jump\t// out\n    /* \"#utility.yul\":1521:1650   */\ntag_32:\n    /* \"#utility.yul\":1555:1561   */\n  0x00\n    /* \"#utility.yul\":1582:1602   */\n  tag_60\n  tag_21\n  jump\t// in\ntag_60:\n    /* \"#utility.yul\":1572:1602   */\n  swap1\n  pop\n    /* \"#utility.yul\":1611:1644   */\n  tag_61\n    /* \"#utility.yul\":1639:1643   */\n  dup3\n    /* \"#utility.yul\":1631:1637   */\n  dup3\n    /* \"#utility.yul\":1611:1644   */\n  tag_31\n  jump\t// in\ntag_61:\n    /* \"#utility.yul\":1521:1650   */\n  swap2\n  swap1\n  pop\n  jump\t// out\n    /* \"#utility.yul\":1656:1964   */\ntag_33:\n    /* \"#utility.yul\":1718:1722   */\n  0x00\n    /* \"#utility.yul\":1808:1826   */\n  0xffffffffffffffff\n    /* \"#utility.yul\":1800:1806   */\n  dup3\n    /* \"#utility.yul\":1797:1827   */\n  gt\n    /* \"#utility.yul\":1794:1850   */\n  iszero\n  tag_63\n  jumpi\n    /* \"#utility.yul\":1830:1848   */\n  tag_64\n  tag_30\n  jump\t// in\ntag_64:\n    /* \"#utility.yul\":1794:1850   */\ntag_63:\n    /* \"#utility.yul\":1868:1897   */\n  tag_65\n    /* \"#utility.yul\":1890:1896   */\n  dup3\n    /* \"#utility.yul\":1868:1897   */\n  tag_29\n  jump\t// in\ntag_65:\n    /* \"#utility.yul\":1860:1897   */\n  swap1\n  pop\n    /* \"#utility.yul\":1952:1956   */\n  0x20\n    /* \"#utility.yul\":1946:1950   */\n  dup2\n    /* \"#utility.yul\":1942:1957   */\n  add\n    /* \"#utility.yul\":1934:1957   */\n  swap1\n  pop\n    /* \"#utility.yul\":1656:1964   */\n  swap2\n  swap1\n  pop\n  jump\t// out\n    /* \"#utility.yul\":1970:2277   */\ntag_34:\n    /* \"#utility.yul\":2038:2039   */\n  0x00\n    /* \"#utility.yul\":2048:2161   */\ntag_67:\n    /* \"#utility.yul\":2062:2068   */\n  dup4\n    /* \"#utility.yul\":2059:2060   */\n  dup2\n    /* \"#utility.yul\":2056:2069   */\n  lt\n    /* \"#utility.yul\":2048:2161   */\n  iszero\n  tag_69\n  jumpi\n    /* \"#utility.yul\":2147:2148   */\n  dup1\n    /* \"#utility.yul\":2142:2145   */\n  dup3\n    /* \"#utility.yul\":2138:2149   */\n  add\n    /* \"#utility.yul\":2132:2150   */\n  mload\n    /* \"#utility.yul\":2128:2129   */\n  dup2\n    /* \"#utility.yul\":2123:2126   */\n  dup5\n    /* \"#utility.yul\":2119:2130   */\n  add\n    /* \"#utility.yul\":2112:2151   */\n  mstore\n    /* \"#utility.yul\":2084:2086   */\n  0x20\n    /* \"#utility.yul\":2081:2082   */\n  dup2\n    /* \"#utility.yul\":2077:2087   */\n  add\n    /* \"#utility.yul\":2072:2087   */\n  swap1\n  pop\n    /* \"#utility.yul\":2048:2161   */\n  jump(tag_67)\ntag_69:\n    /* \"#utility.yul\":2179:2185   */\n  dup4\n    /* \"#utility.yul\":2176:2177   */\n  dup2\n    /* \"#utility.yul\":2173:2186   */\n  gt\n    /* \"#utility.yul\":2170:2271   */\n  iszero\n  tag_70\n  jumpi\n    /* \"#utility.yul\":2259:2260   */\n  0x00\n    /* \"#utility.yul\":2250:2256   */\n  dup5\n    /* \"#utility.yul\":2245:2248   */\n  dup5\n    /* \"#utility.yul\":2241:2257   */\n  add\n    /* \"#utility.yul\":2234:2261   */\n  mstore\n    /* \"#utility.yul\":2170:2271   */\ntag_70:\n    /* \"#utility.yul\":2019:2277   */\n  pop\n    /* \"#utility.yul\":1970:2277   */\n  pop\n  pop\n  pop\n  jump\t// out\n    /* \"#utility.yul\":2283:2704   */\ntag_35:\n    /* \"#utility.yul\":2372:2377   */\n  0x00\n    /* \"#utility.yul\":2397:2463   */\n  tag_72\n    /* \"#utility.yul\":2413:2462   */\n  tag_73\n    /* \"#utility.yul\":2455:2461   */\n  dup5\n    /* \"#utility.yul\":2413:2462   */\n  tag_33\n  jump\t// in\ntag_73:\n    /* \"#utility.yul\":2397:2463   */\n  tag_32\n  jump\t// in\ntag_72:\n    /* \"#utility.yul\":2388:2463   */\n  swap1\n  pop\n    /* \"#utility.yul\":2486:2492   */\n  dup3\n    /* \"#utility.yul\":2479:2484   */\n  dup2\n    /* \"#utility.yul\":2472:2493   */\n  mstore\n    /* \"#utility.yul\":2524:2528   */\n  0x20\n    /* \"#utility.yul\":2517:2522   */\n  dup2\n    /* \"#utility.yul\":2513:2529   */\n  add\n    /* \"#utility.yul\":2562:2565   */\n  dup5\n    /* \"#utility.yul\":2553:2559   */\n  dup5\n    /* \"#utility.yul\":2548:2551   */\n  dup5\n    /* \"#utility.yul\":2544:2560   */\n  add\n    /* \"#utility.yul\":2541:2566   */\n  gt\n    /* \"#utility.yul\":2538:2650   */\n  iszero\n  tag_74\n  jumpi\n    /* \"#utility.yul\":2569:2648   */\n  tag_75\n  tag_28\n  jump\t// in\ntag_75:\n    /* \"#utility.yul\":2538:2650   */\ntag_74:\n    /* \"#utility.yul\":2659:2698   */\n  tag_76\n    /* \"#utility.yul\":2691:2697   */\n  dup5\n    /* \"#utility.yul\":2686:2689   */\n  dup3\n    /* \"#utility.yul\":2681:2684   */\n  dup6\n    /* \"#utility.yul\":2659:2698   */\n  tag_34\n  jump\t// in\ntag_76:\n    /* \"#utility.yul\":2378:2704   */\n  pop\n    /* \"#utility.yul\":2283:2704   */\n  swap4\n  swap3\n  pop\n  pop\n  pop\n  jump\t// out\n    /* \"#utility.yul\":2724:3079   */\ntag_36:\n    /* \"#utility.yul\":2791:2796   */\n  0x00\n    /* \"#utility.yul\":2840:2843   */\n  dup3\n    /* \"#utility.yul\":2833:2837   */\n  0x1f\n    /* \"#utility.yul\":2825:2831   */\n  dup4\n    /* \"#utility.yul\":2821:2838   */\n  add\n    /* \"#utility.yul\":2817:2844   */\n  slt\n    /* \"#utility.yul\":2807:2929   */\n  tag_78\n  jumpi\n    /* \"#utility.yul\":2848:2927   */\n  tag_79\n  tag_27\n  jump\t// in\ntag_79:\n    /* \"#utility.yul\":2807:2929   */\ntag_78:\n    /* \"#utility.yul\":2958:2964   */\n  dup2\n    /* \"#utility.yul\":2952:2965   */\n  mload\n    /* \"#utility.yul\":2983:3073   */\n  tag_80\n    /* \"#utility.yul\":3069:3072   */\n  dup5\n    /* \"#utility.yul\":3061:3067   */\n  dup3\n    /* \"#utility.yul\":3054:3058   */\n  0x20\n    /* \"#utility.yul\":3046:3052   */\n  dup7\n    /* \"#utility.yul\":3042:3059   */\n  add\n    /* \"#utility.yul\":2983:3073   */\n  tag_35\n  jump\t// in\ntag_80:\n    /* \"#utility.yul\":2974:3073   */\n  swap2\n  pop\n    /* \"#utility.yul\":2797:3079   */\n  pop\n    /* \"#utility.yul\":2724:3079   */\n  swap3\n  swap2\n  pop\n  pop\n  jump\t// out\n    /* \"#utility.yul\":3085:3171   */\ntag_37:\n    /* \"#utility.yul\":3120:3127   */\n  0x00\n    /* \"#utility.yul\":3160:3164   */\n  0xff\n    /* \"#utility.yul\":3153:3158   */\n  dup3\n    /* \"#utility.yul\":3149:3165   */\n  and\n    /* \"#utility.yul\":3138:3165   */\n  swap1\n  pop\n    /* \"#utility.yul\":3085:3171   */\n  swap2\n  swap1\n  pop\n  jump\t// out\n    /* \"#utility.yul\":3177:3295   */\ntag_38:\n    /* \"#utility.yul\":3248:3270   */\n  tag_83\n    /* \"#utility.yul\":3264:3269   */\n  dup2\n    /* \"#utility.yul\":3248:3270   */\n  tag_37\n  jump\t// in\ntag_83:\n    /* \"#utility.yul\":3241:3246   */\n  dup2\n    /* \"#utility.yul\":3238:3271   */\n  eq\n    /* \"#utility.yul\":3228:3289   */\n  tag_84\n  jumpi\n    /* \"#utility.yul\":3285:3286   */\n  0x00\n    /* \"#utility.yul\":3282:3283   */\n  dup1\n    /* \"#utility.yul\":3275:3287   */\n  revert\n    /* \"#utility.yul\":3228:3289   */\ntag_84:\n    /* \"#utility.yul\":3177:3295   */\n  pop\n  jump\t// out\n    /* \"#utility.yul\":3301:3440   */\ntag_39:\n    /* \"#utility.yul\":3356:3361   */\n  0x00\n    /* \"#utility.yul\":3387:3393   */\n  dup2\n    /* \"#utility.yul\":3381:3394   */\n  mload\n    /* \"#utility.yul\":3372:3394   */\n  swap1\n  pop\n    /* \"#utility.yul\":3403:3434   */\n  tag_86\n    /* \"#utility.yul\":3428:3433   */\n  dup2\n    /* \"#utility.yul\":3403:3434   */\n  tag_38\n  jump\t// in\ntag_86:\n    /* \"#utility.yul\":3301:3440   */\n  swap3\n  swap2\n  pop\n  pop\n  jump\t// out\n    /* \"#utility.yul\":3446:4608   */\ntag_3:\n    /* \"#utility.yul\":3561:3567   */\n  0x00\n    /* \"#utility.yul\":3569:3575   */\n  dup1\n    /* \"#utility.yul\":3577:3583   */\n  0x00\n    /* \"#utility.yul\":3585:3591   */\n  dup1\n    /* \"#utility.yul\":3634:3637   */\n  0x80\n    /* \"#utility.yul\":3622:3631   */\n  dup6\n    /* \"#utility.yul\":3613:3620   */\n  dup8\n    /* \"#utility.yul\":3609:3632   */\n  sub\n    /* \"#utility.yul\":3605:3638   */\n  slt\n    /* \"#utility.yul\":3602:3722   */\n  iszero\n  tag_88\n  jumpi\n    /* \"#utility.yul\":3641:3720   */\n  tag_89\n  tag_22\n  jump\t// in\ntag_89:\n    /* \"#utility.yul\":3602:3722   */\ntag_88:\n    /* \"#utility.yul\":3761:3762   */\n  0x00\n    /* \"#utility.yul\":3786:3850   */\n  tag_90\n    /* \"#utility.yul\":3842:3849   */\n  dup8\n    /* \"#utility.yul\":3833:3839   */\n  dup3\n    /* \"#utility.yul\":3822:3831   */\n  dup9\n    /* \"#utility.yul\":3818:3840   */\n  add\n    /* \"#utility.yul\":3786:3850   */\n  tag_26\n  jump\t// in\ntag_90:\n    /* \"#utility.yul\":3776:3850   */\n  swap5\n  pop\n    /* \"#utility.yul\":3732:3860   */\n  pop\n    /* \"#utility.yul\":3920:3922   */\n  0x20\n    /* \"#utility.yul\":3909:3918   */\n  dup6\n    /* \"#utility.yul\":3905:3923   */\n  add\n    /* \"#utility.yul\":3899:3924   */\n  mload\n    /* \"#utility.yul\":3951:3969   */\n  0xffffffffffffffff\n    /* \"#utility.yul\":3943:3949   */\n  dup2\n    /* \"#utility.yul\":3940:3970   */\n  gt\n    /* \"#utility.yul\":3937:4054   */\n  iszero\n  tag_91\n  jumpi\n    /* \"#utility.yul\":3973:4052   */\n  tag_92\n  tag_23\n  jump\t// in\ntag_92:\n    /* \"#utility.yul\":3937:4054   */\ntag_91:\n    /* \"#utility.yul\":4078:4152   */\n  tag_93\n    /* \"#utility.yul\":4144:4151   */\n  dup8\n    /* \"#utility.yul\":4135:4141   */\n  dup3\n    /* \"#utility.yul\":4124:4133   */\n  dup9\n    /* \"#utility.yul\":4120:4142   */\n  add\n    /* \"#utility.yul\":4078:4152   */\n  tag_36\n  jump\t// in\ntag_93:\n    /* \"#utility.yul\":4068:4152   */\n  swap4\n  pop\n    /* \"#utility.yul\":3870:4162   */\n  pop\n    /* \"#utility.yul\":4222:4224   */\n  0x40\n    /* \"#utility.yul\":4211:4220   */\n  dup6\n    /* \"#utility.yul\":4207:4225   */\n  add\n    /* \"#utility.yul\":4201:4226   */\n  mload\n    /* \"#utility.yul\":4253:4271   */\n  0xffffffffffffffff\n    /* \"#utility.yul\":4245:4251   */\n  dup2\n    /* \"#utility.yul\":4242:4272   */\n  gt\n    /* \"#utility.yul\":4239:4356   */\n  iszero\n  tag_94\n  jumpi\n    /* \"#utility.yul\":4275:4354   */\n  tag_95\n  tag_23\n  jump\t// in\ntag_95:\n    /* \"#utility.yul\":4239:4356   */\ntag_94:\n    /* \"#utility.yul\":4380:4454   */\n  tag_96\n    /* \"#utility.yul\":4446:4453   */\n  dup8\n    /* \"#utility.yul\":4437:4443   */\n  dup3\n    /* \"#utility.yul\":4426:4435   */\n  dup9\n    /* \"#utility.yul\":4422:4444   */\n  add\n    /* \"#utility.yul\":4380:4454   */\n  tag_36\n  jump\t// in\ntag_96:\n    /* \"#utility.yul\":4370:4454   */\n  swap3\n  pop\n    /* \"#utility.yul\":4172:4464   */\n  pop\n    /* \"#utility.yul\":4503:4505   */\n  0x60\n    /* \"#utility.yul\":4529:4591   */\n  tag_97\n    /* \"#utility.yul\":4583:4590   */\n  dup8\n    /* \"#utility.yul\":4574:4580   */\n  dup3\n    /* \"#utility.yul\":4563:4572   */\n  dup9\n    /* \"#utility.yul\":4559:4581   */\n  add\n    /* \"#utility.yul\":4529:4591   */\n  tag_39\n  jump\t// in\ntag_97:\n    /* \"#utility.yul\":4519:4591   */\n  swap2\n  pop\n    /* \"#utility.yul\":4474:4601   */\n  pop\n    /* \"#utility.yul\":3446:4608   */\n  swap3\n  swap6\n  swap2\n  swap5\n  pop\n  swap3\n  pop\n  jump\t// out\n    /* \"#utility.yul\":4614:4794   */\ntag_40:\n    /* \"#utility.yul\":4662:4739   */\n  0x4e487b7100000000000000000000000000000000000000000000000000000000\n    /* \"#utility.yul\":4659:4660   */\n  0x00\n    /* \"#utility.yul\":4652:4740   */\n  mstore\n    /* \"#utility.yul\":4759:4763   */\n  0x22\n    /* \"#utility.yul\":4756:4757   */\n  0x04\n    /* \"#utility.yul\":4749:4764   */\n  mstore\n    /* \"#utility.yul\":4783:4787   */\n  0x24\n    /* \"#utility.yul\":4780:4781   */\n  0x00\n    /* \"#utility.yul\":4773:4788   */\n  revert\n    /* \"#utility.yul\":4800:5120   */\ntag_11:\n    /* \"#utility.yul\":4844:4850   */\n  0x00\n    /* \"#utility.yul\":4881:4882   */\n  0x02\n    /* \"#utility.yul\":4875:4879   */\n  dup3\n    /* \"#utility.yul\":4871:4883   */\n  div\n    /* \"#utility.yul\":4861:4883   */\n  swap1\n  pop\n    /* \"#utility.yul\":4928:4929   */\n  0x01\n    /* \"#utility.yul\":4922:4926   */\n  dup3\n    /* \"#utility.yul\":4918:4930   */\n  and\n    /* \"#utility.yul\":4949:4967   */\n  dup1\n    /* \"#utility.yul\":4939:5020   */\n  tag_100\n  jumpi\n    /* \"#utility.yul\":5005:5009   */\n  0x7f\n    /* \"#utility.yul\":4997:5003   */\n  dup3\n    /* \"#utility.yul\":4993:5010   */\n  and\n    /* \"#utility.yul\":4983:5010   */\n  swap2\n  pop\n    /* \"#utility.yul\":4939:5020   */\ntag_100:\n    /* \"#utility.yul\":5067:5069   */\n  0x20\n    /* \"#utility.yul\":5059:5065   */\n  dup3\n    /* \"#utility.yul\":5056:5070   */\n  lt\n    /* \"#utility.yul\":5036:5054   */\n  dup2\n    /* \"#utility.yul\":5033:5071   */\n  eq\n    /* \"#utility.yul\":5030:5114   */\n  iszero\n  tag_101\n  jumpi\n    /* \"#utility.yul\":5086:5104   */\n  tag_102\n  tag_40\n  jump\t// in\ntag_102:\n    /* \"#utility.yul\":5030:5114   */\ntag_101:\n    /* \"#utility.yul\":4851:5120   */\n  pop\n    /* \"#utility.yul\":4800:5120   */\n  swap2\n  swap1\n  pop\n  jump\t// out\n    /* \"contracts/OreOreCoinBlackList.sol\":61:2617  contract OreOreCoin {... */\ntag_9:\n  dataSize(sub_0)\n  dup1\n  dataOffset(sub_0)\n  0x00\n  codecopy\n  0x00\n  return\nstop\n\nsub_0: assembly {\n        /* \"contracts/OreOreCoinBlackList.sol\":61:2617  contract OreOreCoin {... */\n      mstore(0x40, 0x80)\n      callvalue\n      dup1\n      iszero\n      tag_1\n      jumpi\n      0x00\n      dup1\n      revert\n    tag_1:\n      pop\n      jumpi(tag_2, lt(calldatasize, 0x04))\n      shr(0xe0, calldataload(0x00))\n      dup1\n      0x8a294c60\n      gt\n      tag_13\n      jumpi\n      dup1\n      0x8a294c60\n      eq\n      tag_8\n      jumpi\n      dup1\n      0x8da5cb5b\n      eq\n      tag_9\n      jumpi\n      dup1\n      0x8de6b343\n      eq\n      tag_10\n      jumpi\n      dup1\n      0x95d89b41\n      eq\n      tag_11\n      jumpi\n      dup1\n      0xa9059cbb\n      eq\n      tag_12\n      jumpi\n      jump(tag_2)\n    tag_13:\n      dup1\n      0x06fdde03\n      eq\n      tag_3\n      jumpi\n      dup1\n      0x18160ddd\n      eq\n      tag_4\n      jumpi\n      dup1\n      0x313ce567\n      eq\n      tag_5\n      jumpi\n      dup1\n      0x4838d165\n      eq\n      tag_6\n      jumpi\n      dup1\n      0x70a08231\n      eq\n      tag_7\n      jumpi\n    tag_2:\n      0x00\n      dup1\n      revert\n        /* \"contracts/OreOreCoinBlackList.sol\":117:135  string public name */\n    tag_3:\n      tag_14\n      tag_15\n      jump\t// in\n    tag_14:\n      mload(0x40)\n      tag_16\n      swap2\n      swap1\n      tag_17\n      jump\t// in\n    tag_16:\n      mload(0x40)\n      dup1\n      swap2\n      sub\n      swap1\n      return\n        /* \"contracts/OreOreCoinBlackList.sol\":261:287  uint256 public totalSupply */\n    tag_4:\n      tag_18\n      tag_19\n      jump\t// in\n    tag_18:\n      mload(0x40)\n      tag_20\n      swap2\n      swap1\n      tag_21\n      jump\t// in\n    tag_20:\n      mload(0x40)\n      dup1\n      swap2\n      sub\n      swap1\n      return\n        /* \"contracts/OreOreCoinBlackList.sol\":203:224  uint8 public decimals */\n    tag_5:\n      tag_22\n      tag_23\n      jump\t// in\n    tag_22:\n      mload(0x40)\n      tag_24\n      swap2\n      swap1\n      tag_25\n      jump\t// in\n    tag_24:\n      mload(0x40)\n      dup1\n      swap2\n      sub\n      swap1\n      return\n        /* \"contracts/OreOreCoinBlackList.sol\":387:429  mapping (address => int8) public blackList */\n    tag_6:\n      tag_26\n      0x04\n      dup1\n      calldatasize\n      sub\n      dup2\n      add\n      swap1\n      tag_27\n      swap2\n      swap1\n      tag_28\n      jump\t// in\n    tag_27:\n      tag_29\n      jump\t// in\n    tag_26:\n      mload(0x40)\n      tag_30\n      swap2\n      swap1\n      tag_31\n      jump\t// in\n    tag_30:\n      mload(0x40)\n      dup1\n      swap2\n      sub\n      swap1\n      return\n        /* \"contracts/OreOreCoinBlackList.sol\":311:356  mapping (address => uint256) public balanceOf */\n    tag_7:\n      tag_32\n      0x04\n      dup1\n      calldatasize\n      sub\n      dup2\n      add\n      swap1\n      tag_33\n      swap2\n      swap1\n      tag_28\n      jump\t// in\n    tag_33:\n      tag_34\n      jump\t// in\n    tag_32:\n      mload(0x40)\n      tag_35\n      swap2\n      swap1\n      tag_21\n      jump\t// in\n    tag_35:\n      mload(0x40)\n      dup1\n      swap2\n      sub\n      swap1\n      return\n        /* \"contracts/OreOreCoinBlackList.sol\":1432:1559  function blacklisting(address _addr) public onlyOwner {... */\n    tag_8:\n      tag_36\n      0x04\n      dup1\n      calldatasize\n      sub\n      dup2\n      add\n      swap1\n      tag_37\n      swap2\n      swap1\n      tag_28\n      jump\t// in\n    tag_37:\n      tag_38\n      jump\t// in\n    tag_36:\n      stop\n        /* \"contracts/OreOreCoinBlackList.sol\":455:475  address public owner */\n    tag_9:\n      tag_39\n      tag_40\n      jump\t// in\n    tag_39:\n      mload(0x40)\n      tag_41\n      swap2\n      swap1\n      tag_42\n      jump\t// in\n    tag_41:\n      mload(0x40)\n      dup1\n      swap2\n      sub\n      swap1\n      return\n        /* \"contracts/OreOreCoinBlackList.sol\":1615:1758  function deleteFromBlacklist(address _addr) public onlyOwner {... */\n    tag_10:\n      tag_43\n      0x04\n      dup1\n      calldatasize\n      sub\n      dup2\n      add\n      swap1\n      tag_44\n      swap2\n      swap1\n      tag_28\n      jump\t// in\n    tag_44:\n      tag_45\n      jump\t// in\n    tag_43:\n      stop\n        /* \"contracts/OreOreCoinBlackList.sol\":159:179  string public symbol */\n    tag_11:\n      tag_46\n      tag_47\n      jump\t// in\n    tag_46:\n      mload(0x40)\n      tag_48\n      swap2\n      swap1\n      tag_17\n      jump\t// in\n    tag_48:\n      mload(0x40)\n      dup1\n      swap2\n      sub\n      swap1\n      return\n        /* \"contracts/OreOreCoinBlackList.sol\":1782:2614  function transfer(address _to, uint256 _value) public {... */\n    tag_12:\n      tag_49\n      0x04\n      dup1\n      calldatasize\n      sub\n      dup2\n      add\n      swap1\n      tag_50\n      swap2\n      swap1\n      tag_51\n      jump\t// in\n    tag_50:\n      tag_52\n      jump\t// in\n    tag_49:\n      stop\n        /* \"contracts/OreOreCoinBlackList.sol\":117:135  string public name */\n    tag_15:\n      0x00\n      dup1\n      sload\n      tag_53\n      swap1\n      tag_54\n      jump\t// in\n    tag_53:\n      dup1\n      0x1f\n      add\n      0x20\n      dup1\n      swap2\n      div\n      mul\n      0x20\n      add\n      mload(0x40)\n      swap1\n      dup2\n      add\n      0x40\n      mstore\n      dup1\n      swap3\n      swap2\n      swap1\n      dup2\n      dup2\n      mstore\n      0x20\n      add\n      dup3\n      dup1\n      sload\n      tag_55\n      swap1\n      tag_54\n      jump\t// in\n    tag_55:\n      dup1\n      iszero\n      tag_56\n      jumpi\n      dup1\n      0x1f\n      lt\n      tag_57\n      jumpi\n      0x0100\n      dup1\n      dup4\n      sload\n      div\n      mul\n      dup4\n      mstore\n      swap2\n      0x20\n      add\n      swap2\n      jump(tag_56)\n    tag_57:\n      dup3\n      add\n      swap2\n      swap1\n      0x00\n      mstore\n      keccak256(0x00, 0x20)\n      swap1\n    tag_58:\n      dup2\n      sload\n      dup2\n      mstore\n      swap1\n      0x01\n      add\n      swap1\n      0x20\n      add\n      dup1\n      dup4\n      gt\n      tag_58\n      jumpi\n      dup3\n      swap1\n      sub\n      0x1f\n      and\n      dup3\n      add\n      swap2\n    tag_56:\n      pop\n      pop\n      pop\n      pop\n      pop\n      dup2\n      jump\t// out\n        /* \"contracts/OreOreCoinBlackList.sol\":261:287  uint256 public totalSupply */\n    tag_19:\n      sload(0x03)\n      dup2\n      jump\t// out\n        /* \"contracts/OreOreCoinBlackList.sol\":203:224  uint8 public decimals */\n    tag_23:\n      0x02\n      0x00\n      swap1\n      sload\n      swap1\n      0x0100\n      exp\n      swap1\n      div\n      0xff\n      and\n      dup2\n      jump\t// out\n        /* \"contracts/OreOreCoinBlackList.sol\":387:429  mapping (address => int8) public blackList */\n    tag_29:\n      mstore(0x20, 0x05)\n      dup1\n      0x00\n      mstore\n      keccak256(0x00, 0x40)\n      0x00\n      swap2\n      pop\n      sload\n      swap1\n      0x0100\n      exp\n      swap1\n      div\n      0x00\n      signextend\n      dup2\n      jump\t// out\n        /* \"contracts/OreOreCoinBlackList.sol\":311:356  mapping (address => uint256) public balanceOf */\n    tag_34:\n      mstore(0x20, 0x04)\n      dup1\n      0x00\n      mstore\n      keccak256(0x00, 0x40)\n      0x00\n      swap2\n      pop\n      swap1\n      pop\n      sload\n      dup2\n      jump\t// out\n        /* \"contracts/OreOreCoinBlackList.sol\":1432:1559  function blacklisting(address _addr) public onlyOwner {... */\n    tag_38:\n        /* \"contracts/OreOreCoinBlackList.sol\":582:587  owner */\n      0x06\n      0x00\n      swap1\n      sload\n      swap1\n      0x0100\n      exp\n      swap1\n      div\n      0xffffffffffffffffffffffffffffffffffffffff\n      and\n        /* \"contracts/OreOreCoinBlackList.sol\":568:587  msg.sender == owner */\n      0xffffffffffffffffffffffffffffffffffffffff\n      and\n        /* \"contracts/OreOreCoinBlackList.sol\":568:578  msg.sender */\n      caller\n        /* \"contracts/OreOreCoinBlackList.sol\":568:587  msg.sender == owner */\n      0xffffffffffffffffffffffffffffffffffffffff\n      and\n      eq\n        /* \"contracts/OreOreCoinBlackList.sol\":559:601  require (msg.sender == owner, \"onlyOwner\") */\n      tag_60\n      jumpi\n      mload(0x40)\n      0x08c379a000000000000000000000000000000000000000000000000000000000\n      dup2\n      mstore\n      0x04\n      add\n      tag_61\n      swap1\n      tag_62\n      jump\t// in\n    tag_61:\n      mload(0x40)\n      dup1\n      swap2\n      sub\n      swap1\n      revert\n    tag_60:\n        /* \"contracts/OreOreCoinBlackList.sol\":1516:1517  1 */\n      0x01\n        /* \"contracts/OreOreCoinBlackList.sol\":1497:1506  blackList */\n      0x05\n        /* \"contracts/OreOreCoinBlackList.sol\":1497:1513  blackList[_addr] */\n      0x00\n        /* \"contracts/OreOreCoinBlackList.sol\":1507:1512  _addr */\n      dup4\n        /* \"contracts/OreOreCoinBlackList.sol\":1497:1513  blackList[_addr] */\n      0xffffffffffffffffffffffffffffffffffffffff\n      and\n      0xffffffffffffffffffffffffffffffffffffffff\n      and\n      dup2\n      mstore\n      0x20\n      add\n      swap1\n      dup2\n      mstore\n      0x20\n      add\n      0x00\n      keccak256\n      0x00\n        /* \"contracts/OreOreCoinBlackList.sol\":1497:1517  blackList[_addr] = 1 */\n      0x0100\n      exp\n      dup2\n      sload\n      dup2\n      0xff\n      mul\n      not\n      and\n      swap1\n      dup4\n      0x00\n      signextend\n      0xff\n      and\n      mul\n      or\n      swap1\n      sstore\n      pop\n        /* \"contracts/OreOreCoinBlackList.sol\":1545:1550  _addr */\n      dup1\n        /* \"contracts/OreOreCoinBlackList.sol\":1533:1551  Blacklisted(_addr) */\n      0xffffffffffffffffffffffffffffffffffffffff\n      and\n      0xffa4e6181777692565cf28528fc88fd1516ea86b56da075235fa575af6a4b855\n      mload(0x40)\n      mload(0x40)\n      dup1\n      swap2\n      sub\n      swap1\n      log2\n        /* \"contracts/OreOreCoinBlackList.sol\":1432:1559  function blacklisting(address _addr) public onlyOwner {... */\n      pop\n      jump\t// out\n        /* \"contracts/OreOreCoinBlackList.sol\":455:475  address public owner */\n    tag_40:\n      0x06\n      0x00\n      swap1\n      sload\n      swap1\n      0x0100\n      exp\n      swap1\n      div\n      0xffffffffffffffffffffffffffffffffffffffff\n      and\n      dup2\n      jump\t// out\n        /* \"contracts/OreOreCoinBlackList.sol\":1615:1758  function deleteFromBlacklist(address _addr) public onlyOwner {... */\n    tag_45:\n        /* \"contracts/OreOreCoinBlackList.sol\":582:587  owner */\n      0x06\n      0x00\n      swap1\n      sload\n      swap1\n      0x0100\n      exp\n      swap1\n      div\n      0xffffffffffffffffffffffffffffffffffffffff\n      and\n        /* \"contracts/OreOreCoinBlackList.sol\":568:587  msg.sender == owner */\n      0xffffffffffffffffffffffffffffffffffffffff\n      and\n        /* \"contracts/OreOreCoinBlackList.sol\":568:578  msg.sender */\n      caller\n        /* \"contracts/OreOreCoinBlackList.sol\":568:587  msg.sender == owner */\n      0xffffffffffffffffffffffffffffffffffffffff\n      and\n      eq\n        /* \"contracts/OreOreCoinBlackList.sol\":559:601  require (msg.sender == owner, \"onlyOwner\") */\n      tag_65\n      jumpi\n      mload(0x40)\n      0x08c379a000000000000000000000000000000000000000000000000000000000\n      dup2\n      mstore\n      0x04\n      add\n      tag_66\n      swap1\n      tag_62\n      jump\t// in\n    tag_66:\n      mload(0x40)\n      dup1\n      swap2\n      sub\n      swap1\n      revert\n    tag_65:\n        /* \"contracts/OreOreCoinBlackList.sol\":1706:1708  -1 */\n      0xffffffffffffffffffffffffffffffffffffffffffffffffffffffffffffffff\n        /* \"contracts/OreOreCoinBlackList.sol\":1687:1696  blackList */\n      0x05\n        /* \"contracts/OreOreCoinBlackList.sol\":1687:1703  blackList[_addr] */\n      0x00\n        /* \"contracts/OreOreCoinBlackList.sol\":1697:1702  _addr */\n      dup4\n        /* \"contracts/OreOreCoinBlackList.sol\":1687:1703  blackList[_addr] */\n      0xffffffffffffffffffffffffffffffffffffffff\n      and\n      0xffffffffffffffffffffffffffffffffffffffff\n      and\n      dup2\n      mstore\n      0x20\n      add\n      swap1\n      dup2\n      mstore\n      0x20\n      add\n      0x00\n      keccak256\n      0x00\n        /* \"contracts/OreOreCoinBlackList.sol\":1687:1708  blackList[_addr] = -1 */\n      0x0100\n      exp\n      dup2\n      sload\n      dup2\n      0xff\n      mul\n      not\n      and\n      swap1\n      dup4\n      0x00\n      signextend\n      0xff\n      and\n      mul\n      or\n      swap1\n      sstore\n      pop\n        /* \"contracts/OreOreCoinBlackList.sol\":1744:1749  _addr */\n      dup1\n        /* \"contracts/OreOreCoinBlackList.sol\":1724:1750  DeleteFromBlacklist(_addr) */\n      0xffffffffffffffffffffffffffffffffffffffff\n      and\n      0x2e5392b52e98bf05bdf3784aaec667371398a6ea4fb965a2894852471999bca9\n      mload(0x40)\n      mload(0x40)\n      dup1\n      swap2\n      sub\n      swap1\n      log2\n        /* \"contracts/OreOreCoinBlackList.sol\":1615:1758  function deleteFromBlacklist(address _addr) public onlyOwner {... */\n      pop\n      jump\t// out\n        /* \"contracts/OreOreCoinBlackList.sol\":159:179  string public symbol */\n    tag_47:\n      0x01\n      dup1\n      sload\n      tag_68\n      swap1\n      tag_54\n      jump\t// in\n    tag_68:\n      dup1\n      0x1f\n      add\n      0x20\n      dup1\n      swap2\n      div\n      mul\n      0x20\n      add\n      mload(0x40)\n      swap1\n      dup2\n      add\n      0x40\n      mstore\n      dup1\n      swap3\n      swap2\n      swap1\n      dup2\n      dup2\n      mstore\n      0x20\n      add\n      dup3\n      dup1\n      sload\n      tag_69\n      swap1\n      tag_54\n      jump\t// in\n    tag_69:\n      dup1\n      iszero\n      tag_70\n      jumpi\n      dup1\n      0x1f\n      lt\n      tag_71\n      jumpi\n      0x0100\n      dup1\n      dup4\n      sload\n      div\n      mul\n      dup4\n      mstore\n      swap2\n      0x20\n      add\n      swap2\n      jump(tag_70)\n    tag_71:\n      dup3\n      add\n      swap2\n      swap1\n      0x00\n      mstore\n      keccak256(0x00, 0x20)\n      swap1\n    tag_72:\n      dup2\n      sload\n      dup2\n      mstore\n      swap1\n      0x01\n      add\n      swap1\n      0x20\n      add\n      dup1\n      dup4\n      gt\n      tag_72\n      jumpi\n      dup3\n      swap1\n      sub\n      0x1f\n      and\n      dup3\n      add\n      swap2\n    tag_70:\n      pop\n      pop\n      pop\n      pop\n      pop\n      dup2\n      jump\t// out\n        /* \"contracts/OreOreCoinBlackList.sol\":1782:2614  function transfer(address _to, uint256 _value) public {... */\n    tag_52:\n        /* \"contracts/OreOreCoinBlackList.sol\":1914:1920  _value */\n      dup1\n        /* \"contracts/OreOreCoinBlackList.sol\":1889:1898  balanceOf */\n      0x04\n        /* \"contracts/OreOreCoinBlackList.sol\":1889:1910  balanceOf[msg.sender] */\n      0x00\n        /* \"contracts/OreOreCoinBlackList.sol\":1899:1909  msg.sender */\n      caller\n        /* \"contracts/OreOreCoinBlackList.sol\":1889:1910  balanceOf[msg.sender] */\n      0xffffffffffffffffffffffffffffffffffffffff\n      and\n      0xffffffffffffffffffffffffffffffffffffffff\n      and\n      dup2\n      mstore\n      0x20\n      add\n      swap1\n      dup2\n      mstore\n      0x20\n      add\n      0x00\n      keccak256\n      sload\n        /* \"contracts/OreOreCoinBlackList.sol\":1889:1920  balanceOf[msg.sender] >= _value */\n      lt\n      iszero\n        /* \"contracts/OreOreCoinBlackList.sol\":1880:1938  require (balanceOf[msg.sender] >= _value, \"tranfer_err_1\") */\n      tag_74\n      jumpi\n      mload(0x40)\n      0x08c379a000000000000000000000000000000000000000000000000000000000\n      dup2\n      mstore\n      0x04\n      add\n      tag_75\n      swap1\n      tag_76\n      jump\t// in\n    tag_75:\n      mload(0x40)\n      dup1\n      swap2\n      sub\n      swap1\n      revert\n    tag_74:\n        /* \"contracts/OreOreCoinBlackList.sol\":1985:1994  balanceOf */\n      0x04\n        /* \"contracts/OreOreCoinBlackList.sol\":1985:1999  balanceOf[_to] */\n      0x00\n        /* \"contracts/OreOreCoinBlackList.sol\":1995:1998  _to */\n      dup4\n        /* \"contracts/OreOreCoinBlackList.sol\":1985:1999  balanceOf[_to] */\n      0xffffffffffffffffffffffffffffffffffffffff\n      and\n      0xffffffffffffffffffffffffffffffffffffffff\n      and\n      dup2\n      mstore\n      0x20\n      add\n      swap1\n      dup2\n      mstore\n      0x20\n      add\n      0x00\n      keccak256\n      sload\n        /* \"contracts/OreOreCoinBlackList.sol\":1975:1981  _value */\n      dup2\n        /* \"contracts/OreOreCoinBlackList.sol\":1958:1967  balanceOf */\n      0x04\n        /* \"contracts/OreOreCoinBlackList.sol\":1958:1972  balanceOf[_to] */\n      0x00\n        /* \"contracts/OreOreCoinBlackList.sol\":1968:1971  _to */\n      dup6\n        /* \"contracts/OreOreCoinBlackList.sol\":1958:1972  balanceOf[_to] */\n      0xffffffffffffffffffffffffffffffffffffffff\n      and\n      0xffffffffffffffffffffffffffffffffffffffff\n      and\n      dup2\n      mstore\n      0x20\n      add\n      swap1\n      dup2\n      mstore\n      0x20\n      add\n      0x00\n      keccak256\n      sload\n        /* \"contracts/OreOreCoinBlackList.sol\":1958:1981  balanceOf[_to] + _value */\n      tag_77\n      swap2\n      swap1\n      tag_78\n      jump\t// in\n    tag_77:\n        /* \"contracts/OreOreCoinBlackList.sol\":1958:1999  balanceOf[_to] + _value >= balanceOf[_to] */\n      lt\n      iszero\n        /* \"contracts/OreOreCoinBlackList.sol\":1949:2017  require (balanceOf[_to] + _value >= balanceOf[_to], \"tranfer_err_2\") */\n      tag_79\n      jumpi\n      mload(0x40)\n      0x08c379a000000000000000000000000000000000000000000000000000000000\n      dup2\n      mstore\n      0x04\n      add\n      tag_80\n      swap1\n      tag_81\n      jump\t// in\n    tag_80:\n      mload(0x40)\n      dup1\n      swap2\n      sub\n      swap1\n      revert\n    tag_79:\n        /* \"contracts/OreOreCoinBlackList.sol\":2137:2138  0 */\n      0x00\n        /* \"contracts/OreOreCoinBlackList.sol\":2113:2122  blackList */\n      0x05\n        /* \"contracts/OreOreCoinBlackList.sol\":2113:2134  blackList[msg.sender] */\n      0x00\n        /* \"contracts/OreOreCoinBlackList.sol\":2123:2133  msg.sender */\n      caller\n        /* \"contracts/OreOreCoinBlackList.sol\":2113:2134  blackList[msg.sender] */\n      0xffffffffffffffffffffffffffffffffffffffff\n      and\n      0xffffffffffffffffffffffffffffffffffffffff\n      and\n      dup2\n      mstore\n      0x20\n      add\n      swap1\n      dup2\n      mstore\n      0x20\n      add\n      0x00\n      keccak256\n      0x00\n      swap1\n      sload\n      swap1\n      0x0100\n      exp\n      swap1\n      div\n      0x00\n      signextend\n        /* \"contracts/OreOreCoinBlackList.sol\":2113:2138  blackList[msg.sender] > 0 */\n      0x00\n      signextend\n      sgt\n        /* \"contracts/OreOreCoinBlackList.sol\":2109:2607  if (blackList[msg.sender] > 0) {... */\n      iszero\n      tag_82\n      jumpi\n        /* \"contracts/OreOreCoinBlackList.sol\":2207:2210  _to */\n      dup2\n        /* \"contracts/OreOreCoinBlackList.sol\":2160:2219  RejectedPaymentFromBlacklistedAddr(msg.sender, _to, _value) */\n      0xffffffffffffffffffffffffffffffffffffffff\n      and\n        /* \"contracts/OreOreCoinBlackList.sol\":2195:2205  msg.sender */\n      caller\n        /* \"contracts/OreOreCoinBlackList.sol\":2160:2219  RejectedPaymentFromBlacklistedAddr(msg.sender, _to, _value) */\n      0xffffffffffffffffffffffffffffffffffffffff\n      and\n      0x2a04c84c100a93363ee2e1ab7076505a06b5dd417cccc0d6080ec8285e84f79e\n        /* \"contracts/OreOreCoinBlackList.sol\":2212:2218  _value */\n      dup4\n        /* \"contracts/OreOreCoinBlackList.sol\":2160:2219  RejectedPaymentFromBlacklistedAddr(msg.sender, _to, _value) */\n      mload(0x40)\n      tag_83\n      swap2\n      swap1\n      tag_21\n      jump\t// in\n    tag_83:\n      mload(0x40)\n      dup1\n      swap2\n      sub\n      swap1\n      log3\n        /* \"contracts/OreOreCoinBlackList.sol\":2109:2607  if (blackList[msg.sender] > 0) {... */\n      jump(tag_84)\n    tag_82:\n        /* \"contracts/OreOreCoinBlackList.sol\":2258:2259  0 */\n      0x00\n        /* \"contracts/OreOreCoinBlackList.sol\":2241:2250  blackList */\n      0x05\n        /* \"contracts/OreOreCoinBlackList.sol\":2241:2255  blackList[_to] */\n      0x00\n        /* \"contracts/OreOreCoinBlackList.sol\":2251:2254  _to */\n      dup5\n        /* \"contracts/OreOreCoinBlackList.sol\":2241:2255  blackList[_to] */\n      0xffffffffffffffffffffffffffffffffffffffff\n      and\n      0xffffffffffffffffffffffffffffffffffffffff\n      and\n      dup2\n      mstore\n      0x20\n      add\n      swap1\n      dup2\n      mstore\n      0x20\n      add\n      0x00\n      keccak256\n      0x00\n      swap1\n      sload\n      swap1\n      0x0100\n      exp\n      swap1\n      div\n      0x00\n      signextend\n        /* \"contracts/OreOreCoinBlackList.sol\":2241:2259  blackList[_to] > 0 */\n      0x00\n      signextend\n      sgt\n        /* \"contracts/OreOreCoinBlackList.sol\":2237:2607  if (blackList[_to] > 0) {... */\n      iszero\n      tag_85\n      jumpi\n        /* \"contracts/OreOreCoinBlackList.sol\":2326:2329  _to */\n      dup2\n        /* \"contracts/OreOreCoinBlackList.sol\":2281:2338  RejectedPaymentToBlacklistedAddr(msg.sender, _to, _value) */\n      0xffffffffffffffffffffffffffffffffffffffff\n      and\n        /* \"contracts/OreOreCoinBlackList.sol\":2314:2324  msg.sender */\n      caller\n        /* \"contracts/OreOreCoinBlackList.sol\":2281:2338  RejectedPaymentToBlacklistedAddr(msg.sender, _to, _value) */\n      0xffffffffffffffffffffffffffffffffffffffff\n      and\n      0xee75d149bb5e330e03f98b125aaa1efcd5864e4e2d5946f23dc6dd30630d5616\n        /* \"contracts/OreOreCoinBlackList.sol\":2331:2337  _value */\n      dup4\n        /* \"contracts/OreOreCoinBlackList.sol\":2281:2338  RejectedPaymentToBlacklistedAddr(msg.sender, _to, _value) */\n      mload(0x40)\n      tag_86\n      swap2\n      swap1\n      tag_21\n      jump\t// in\n    tag_86:\n      mload(0x40)\n      dup1\n      swap2\n      sub\n      swap1\n      log3\n        /* \"contracts/OreOreCoinBlackList.sol\":2237:2607  if (blackList[_to] > 0) {... */\n      jump(tag_87)\n    tag_85:\n        /* \"contracts/OreOreCoinBlackList.sol\":2472:2478  _value */\n      dup1\n        /* \"contracts/OreOreCoinBlackList.sol\":2447:2456  balanceOf */\n      0x04\n        /* \"contracts/OreOreCoinBlackList.sol\":2447:2468  balanceOf[msg.sender] */\n      0x00\n        /* \"contracts/OreOreCoinBlackList.sol\":2457:2467  msg.sender */\n      caller\n        /* \"contracts/OreOreCoinBlackList.sol\":2447:2468  balanceOf[msg.sender] */\n      0xffffffffffffffffffffffffffffffffffffffff\n      and\n      0xffffffffffffffffffffffffffffffffffffffff\n      and\n      dup2\n      mstore\n      0x20\n      add\n      swap1\n      dup2\n      mstore\n      0x20\n      add\n      0x00\n      keccak256\n      0x00\n        /* \"contracts/OreOreCoinBlackList.sol\":2447:2478  balanceOf[msg.sender] -= _value */\n      dup3\n      dup3\n      sload\n      tag_88\n      swap2\n      swap1\n      tag_89\n      jump\t// in\n    tag_88:\n      swap3\n      pop\n      pop\n      dup2\n      swap1\n      sstore\n      pop\n        /* \"contracts/OreOreCoinBlackList.sol\":2511:2517  _value */\n      dup1\n        /* \"contracts/OreOreCoinBlackList.sol\":2493:2502  balanceOf */\n      0x04\n        /* \"contracts/OreOreCoinBlackList.sol\":2493:2507  balanceOf[_to] */\n      0x00\n        /* \"contracts/OreOreCoinBlackList.sol\":2503:2506  _to */\n      dup5\n        /* \"contracts/OreOreCoinBlackList.sol\":2493:2507  balanceOf[_to] */\n      0xffffffffffffffffffffffffffffffffffffffff\n      and\n      0xffffffffffffffffffffffffffffffffffffffff\n      and\n      dup2\n      mstore\n      0x20\n      add\n      swap1\n      dup2\n      mstore\n      0x20\n      add\n      0x00\n      keccak256\n      0x00\n        /* \"contracts/OreOreCoinBlackList.sol\":2493:2517  balanceOf[_to] += _value */\n      dup3\n      dup3\n      sload\n      tag_90\n      swap2\n      swap1\n      tag_78\n      jump\t// in\n    tag_90:\n      swap3\n      pop\n      pop\n      dup2\n      swap1\n      sstore\n      pop\n        /* \"contracts/OreOreCoinBlackList.sol\":2583:2586  _to */\n      dup2\n        /* \"contracts/OreOreCoinBlackList.sol\":2562:2595  Transfer(msg.sender, _to, _value) */\n      0xffffffffffffffffffffffffffffffffffffffff\n      and\n        /* \"contracts/OreOreCoinBlackList.sol\":2571:2581  msg.sender */\n      caller\n        /* \"contracts/OreOreCoinBlackList.sol\":2562:2595  Transfer(msg.sender, _to, _value) */\n      0xffffffffffffffffffffffffffffffffffffffff\n      and\n      0xddf252ad1be2c89b69c2b068fc378daa952ba7f163c4a11628f55a4df523b3ef\n        /* \"contracts/OreOreCoinBlackList.sol\":2588:2594  _value */\n      dup4\n        /* \"contracts/OreOreCoinBlackList.sol\":2562:2595  Transfer(msg.sender, _to, _value) */\n      mload(0x40)\n      tag_91\n      swap2\n      swap1\n      tag_21\n      jump\t// in\n    tag_91:\n      mload(0x40)\n      dup1\n      swap2\n      sub\n      swap1\n      log3\n        /* \"contracts/OreOreCoinBlackList.sol\":2237:2607  if (blackList[_to] > 0) {... */\n    tag_87:\n        /* \"contracts/OreOreCoinBlackList.sol\":2109:2607  if (blackList[msg.sender] > 0) {... */\n    tag_84:\n        /* \"contracts/OreOreCoinBlackList.sol\":1782:2614  function transfer(address _to, uint256 _value) public {... */\n      pop\n      pop\n      jump\t// out\n        /* \"#utility.yul\":7:106   */\n    tag_92:\n        /* \"#utility.yul\":59:65   */\n      0x00\n        /* \"#utility.yul\":93:98   */\n      dup2\n        /* \"#utility.yul\":87:99   */\n      mload\n        /* \"#utility.yul\":77:99   */\n      swap1\n      pop\n        /* \"#utility.yul\":7:106   */\n      swap2\n      swap1\n      pop\n      jump\t// out\n        /* \"#utility.yul\":112:281   */\n    tag_93:\n        /* \"#utility.yul\":196:207   */\n      0x00\n        /* \"#utility.yul\":230:236   */\n      dup3\n        /* \"#utility.yul\":225:228   */\n      dup3\n        /* \"#utility.yul\":218:237   */\n      mstore\n        /* \"#utility.yul\":270:274   */\n      0x20\n        /* \"#utility.yul\":265:268   */\n      dup3\n        /* \"#utility.yul\":261:275   */\n      add\n        /* \"#utility.yul\":246:275   */\n      swap1\n      pop\n        /* \"#utility.yul\":112:281   */\n      swap3\n      swap2\n      pop\n      pop\n      jump\t// out\n        /* \"#utility.yul\":287:594   */\n    tag_94:\n        /* \"#utility.yul\":355:356   */\n      0x00\n        /* \"#utility.yul\":365:478   */\n    tag_125:\n        /* \"#utility.yul\":379:385   */\n      dup4\n        /* \"#utility.yul\":376:377   */\n      dup2\n        /* \"#utility.yul\":373:386   */\n      lt\n        /* \"#utility.yul\":365:478   */\n      iszero\n      tag_127\n      jumpi\n        /* \"#utility.yul\":464:465   */\n      dup1\n        /* \"#utility.yul\":459:462   */\n      dup3\n        /* \"#utility.yul\":455:466   */\n      add\n        /* \"#utility.yul\":449:467   */\n      mload\n        /* \"#utility.yul\":445:446   */\n      dup2\n        /* \"#utility.yul\":440:443   */\n      dup5\n        /* \"#utility.yul\":436:447   */\n      add\n        /* \"#utility.yul\":429:468   */\n      mstore\n        /* \"#utility.yul\":401:403   */\n      0x20\n        /* \"#utility.yul\":398:399   */\n      dup2\n        /* \"#utility.yul\":394:404   */\n      add\n        /* \"#utility.yul\":389:404   */\n      swap1\n      pop\n        /* \"#utility.yul\":365:478   */\n      jump(tag_125)\n    tag_127:\n        /* \"#utility.yul\":496:502   */\n      dup4\n        /* \"#utility.yul\":493:494   */\n      dup2\n        /* \"#utility.yul\":490:503   */\n      gt\n        /* \"#utility.yul\":487:588   */\n      iszero\n      tag_128\n      jumpi\n        /* \"#utility.yul\":576:577   */\n      0x00\n        /* \"#utility.yul\":567:573   */\n      dup5\n        /* \"#utility.yul\":562:565   */\n      dup5\n        /* \"#utility.yul\":558:574   */\n      add\n        /* \"#utility.yul\":551:578   */\n      mstore\n        /* \"#utility.yul\":487:588   */\n    tag_128:\n        /* \"#utility.yul\":336:594   */\n      pop\n        /* \"#utility.yul\":287:594   */\n      pop\n      pop\n      pop\n      jump\t// out\n        /* \"#utility.yul\":600:702   */\n    tag_95:\n        /* \"#utility.yul\":641:647   */\n      0x00\n        /* \"#utility.yul\":692:694   */\n      0x1f\n        /* \"#utility.yul\":688:695   */\n      not\n        /* \"#utility.yul\":683:685   */\n      0x1f\n        /* \"#utility.yul\":676:681   */\n      dup4\n        /* \"#utility.yul\":672:686   */\n      add\n        /* \"#utility.yul\":668:696   */\n      and\n        /* \"#utility.yul\":658:696   */\n      swap1\n      pop\n        /* \"#utility.yul\":600:702   */\n      swap2\n      swap1\n      pop\n      jump\t// out\n        /* \"#utility.yul\":708:1072   */\n    tag_96:\n        /* \"#utility.yul\":796:799   */\n      0x00\n        /* \"#utility.yul\":824:863   */\n      tag_131\n        /* \"#utility.yul\":857:862   */\n      dup3\n        /* \"#utility.yul\":824:863   */\n      tag_92\n      jump\t// in\n    tag_131:\n        /* \"#utility.yul\":879:950   */\n      tag_132\n        /* \"#utility.yul\":943:949   */\n      dup2\n        /* \"#utility.yul\":938:941   */\n      dup6\n        /* \"#utility.yul\":879:950   */\n      tag_93\n      jump\t// in\n    tag_132:\n        /* \"#utility.yul\":872:950   */\n      swap4\n      pop\n        /* \"#utility.yul\":959:1011   */\n      tag_133\n        /* \"#utility.yul\":1004:1010   */\n      dup2\n        /* \"#utility.yul\":999:1002   */\n      dup6\n        /* \"#utility.yul\":992:996   */\n      0x20\n        /* \"#utility.yul\":985:990   */\n      dup7\n        /* \"#utility.yul\":981:997   */\n      add\n        /* \"#utility.yul\":959:1011   */\n      tag_94\n      jump\t// in\n    tag_133:\n        /* \"#utility.yul\":1036:1065   */\n      tag_134\n        /* \"#utility.yul\":1058:1064   */\n      dup2\n        /* \"#utility.yul\":1036:1065   */\n      tag_95\n      jump\t// in\n    tag_134:\n        /* \"#utility.yul\":1031:1034   */\n      dup5\n        /* \"#utility.yul\":1027:1066   */\n      add\n        /* \"#utility.yul\":1020:1066   */\n      swap2\n      pop\n        /* \"#utility.yul\":800:1072   */\n      pop\n        /* \"#utility.yul\":708:1072   */\n      swap3\n      swap2\n      pop\n      pop\n      jump\t// out\n        /* \"#utility.yul\":1078:1391   */\n    tag_17:\n        /* \"#utility.yul\":1191:1195   */\n      0x00\n        /* \"#utility.yul\":1229:1231   */\n      0x20\n        /* \"#utility.yul\":1218:1227   */\n      dup3\n        /* \"#utility.yul\":1214:1232   */\n      add\n        /* \"#utility.yul\":1206:1232   */\n      swap1\n      pop\n        /* \"#utility.yul\":1278:1287   */\n      dup2\n        /* \"#utility.yul\":1272:1276   */\n      dup2\n        /* \"#utility.yul\":1268:1288   */\n      sub\n        /* \"#utility.yul\":1264:1265   */\n      0x00\n        /* \"#utility.yul\":1253:1262   */\n      dup4\n        /* \"#utility.yul\":1249:1266   */\n      add\n        /* \"#utility.yul\":1242:1289   */\n      mstore\n        /* \"#utility.yul\":1306:1384   */\n      tag_136\n        /* \"#utility.yul\":1379:1383   */\n      dup2\n        /* \"#utility.yul\":1370:1376   */\n      dup5\n        /* \"#utility.yul\":1306:1384   */\n      tag_96\n      jump\t// in\n    tag_136:\n        /* \"#utility.yul\":1298:1384   */\n      swap1\n      pop\n        /* \"#utility.yul\":1078:1391   */\n      swap3\n      swap2\n      pop\n      pop\n      jump\t// out\n        /* \"#utility.yul\":1397:1474   */\n    tag_97:\n        /* \"#utility.yul\":1434:1441   */\n      0x00\n        /* \"#utility.yul\":1463:1468   */\n      dup2\n        /* \"#utility.yul\":1452:1468   */\n      swap1\n      pop\n        /* \"#utility.yul\":1397:1474   */\n      swap2\n      swap1\n      pop\n      jump\t// out\n        /* \"#utility.yul\":1480:1598   */\n    tag_98:\n        /* \"#utility.yul\":1567:1591   */\n      tag_139\n        /* \"#utility.yul\":1585:1590   */\n      dup2\n        /* \"#utility.yul\":1567:1591   */\n      tag_97\n      jump\t// in\n    tag_139:\n        /* \"#utility.yul\":1562:1565   */\n      dup3\n        /* \"#utility.yul\":1555:1592   */\n      mstore\n        /* \"#utility.yul\":1480:1598   */\n      pop\n      pop\n      jump\t// out\n        /* \"#utility.yul\":1604:1826   */\n    tag_21:\n        /* \"#utility.yul\":1697:1701   */\n      0x00\n        /* \"#utility.yul\":1735:1737   */\n      0x20\n        /* \"#utility.yul\":1724:1733   */\n      dup3\n        /* \"#utility.yul\":1720:1738   */\n      add\n        /* \"#utility.yul\":1712:1738   */\n      swap1\n      pop\n        /* \"#utility.yul\":1748:1819   */\n      tag_141\n        /* \"#utility.yul\":1816:1817   */\n      0x00\n        /* \"#utility.yul\":1805:1814   */\n      dup4\n        /* \"#utility.yul\":1801:1818   */\n      add\n        /* \"#utility.yul\":1792:1798   */\n      dup5\n        /* \"#utility.yul\":1748:1819   */\n      tag_98\n      jump\t// in\n    tag_141:\n        /* \"#utility.yul\":1604:1826   */\n      swap3\n      swap2\n      pop\n      pop\n      jump\t// out\n        /* \"#utility.yul\":1832:1918   */\n    tag_99:\n        /* \"#utility.yul\":1867:1874   */\n      0x00\n        /* \"#utility.yul\":1907:1911   */\n      0xff\n        /* \"#utility.yul\":1900:1905   */\n      dup3\n        /* \"#utility.yul\":1896:1912   */\n      and\n        /* \"#utility.yul\":1885:1912   */\n      swap1\n      pop\n        /* \"#utility.yul\":1832:1918   */\n      swap2\n      swap1\n      pop\n      jump\t// out\n        /* \"#utility.yul\":1924:2036   */\n    tag_100:\n        /* \"#utility.yul\":2007:2029   */\n      tag_144\n        /* \"#utility.yul\":2023:2028   */\n      dup2\n        /* \"#utility.yul\":2007:2029   */\n      tag_99\n      jump\t// in\n    tag_144:\n        /* \"#utility.yul\":2002:2005   */\n      dup3\n        /* \"#utility.yul\":1995:2030   */\n      mstore\n        /* \"#utility.yul\":1924:2036   */\n      pop\n      pop\n      jump\t// out\n        /* \"#utility.yul\":2042:2256   */\n    tag_25:\n        /* \"#utility.yul\":2131:2135   */\n      0x00\n        /* \"#utility.yul\":2169:2171   */\n      0x20\n        /* \"#utility.yul\":2158:2167   */\n      dup3\n        /* \"#utility.yul\":2154:2172   */\n      add\n        /* \"#utility.yul\":2146:2172   */\n      swap1\n      pop\n        /* \"#utility.yul\":2182:2249   */\n      tag_146\n        /* \"#utility.yul\":2246:2247   */\n      0x00\n        /* \"#utility.yul\":2235:2244   */\n      dup4\n        /* \"#utility.yul\":2231:2248   */\n      add\n        /* \"#utility.yul\":2222:2228   */\n      dup5\n        /* \"#utility.yul\":2182:2249   */\n      tag_100\n      jump\t// in\n    tag_146:\n        /* \"#utility.yul\":2042:2256   */\n      swap3\n      swap2\n      pop\n      pop\n      jump\t// out\n        /* \"#utility.yul\":2343:2460   */\n    tag_102:\n        /* \"#utility.yul\":2452:2453   */\n      0x00\n        /* \"#utility.yul\":2449:2450   */\n      dup1\n        /* \"#utility.yul\":2442:2454   */\n      revert\n        /* \"#utility.yul\":2589:2715   */\n    tag_104:\n        /* \"#utility.yul\":2626:2633   */\n      0x00\n        /* \"#utility.yul\":2666:2708   */\n      0xffffffffffffffffffffffffffffffffffffffff\n        /* \"#utility.yul\":2659:2664   */\n      dup3\n        /* \"#utility.yul\":2655:2709   */\n      and\n        /* \"#utility.yul\":2644:2709   */\n      swap1\n      pop\n        /* \"#utility.yul\":2589:2715   */\n      swap2\n      swap1\n      pop\n      jump\t// out\n        /* \"#utility.yul\":2721:2817   */\n    tag_105:\n        /* \"#utility.yul\":2758:2765   */\n      0x00\n        /* \"#utility.yul\":2787:2811   */\n      tag_152\n        /* \"#utility.yul\":2805:2810   */\n      dup3\n        /* \"#utility.yul\":2787:2811   */\n      tag_104\n      jump\t// in\n    tag_152:\n        /* \"#utility.yul\":2776:2811   */\n      swap1\n      pop\n        /* \"#utility.yul\":2721:2817   */\n      swap2\n      swap1\n      pop\n      jump\t// out\n        /* \"#utility.yul\":2823:2945   */\n    tag_106:\n        /* \"#utility.yul\":2896:2920   */\n      tag_154\n        /* \"#utility.yul\":2914:2919   */\n      dup2\n        /* \"#utility.yul\":2896:2920   */\n      tag_105\n      jump\t// in\n    tag_154:\n        /* \"#utility.yul\":2889:2894   */\n      dup2\n        /* \"#utility.yul\":2886:2921   */\n      eq\n        /* \"#utility.yul\":2876:2939   */\n      tag_155\n      jumpi\n        /* \"#utility.yul\":2935:2936   */\n      0x00\n        /* \"#utility.yul\":2932:2933   */\n      dup1\n        /* \"#utility.yul\":2925:2937   */\n      revert\n        /* \"#utility.yul\":2876:2939   */\n    tag_155:\n        /* \"#utility.yul\":2823:2945   */\n      pop\n      jump\t// out\n        /* \"#utility.yul\":2951:3090   */\n    tag_107:\n        /* \"#utility.yul\":2997:3002   */\n      0x00\n        /* \"#utility.yul\":3035:3041   */\n      dup2\n        /* \"#utility.yul\":3022:3042   */\n      calldataload\n        /* \"#utility.yul\":3013:3042   */\n      swap1\n      pop\n        /* \"#utility.yul\":3051:3084   */\n      tag_157\n        /* \"#utility.yul\":3078:3083   */\n      dup2\n        /* \"#utility.yul\":3051:3084   */\n      tag_106\n      jump\t// in\n    tag_157:\n        /* \"#utility.yul\":2951:3090   */\n      swap3\n      swap2\n      pop\n      pop\n      jump\t// out\n        /* \"#utility.yul\":3096:3425   */\n    tag_28:\n        /* \"#utility.yul\":3155:3161   */\n      0x00\n        /* \"#utility.yul\":3204:3206   */\n      0x20\n        /* \"#utility.yul\":3192:3201   */\n      dup3\n        /* \"#utility.yul\":3183:3190   */\n      dup5\n        /* \"#utility.yul\":3179:3202   */\n      sub\n        /* \"#utility.yul\":3175:3207   */\n      slt\n        /* \"#utility.yul\":3172:3291   */\n      iszero\n      tag_159\n      jumpi\n        /* \"#utility.yul\":3210:3289   */\n      tag_160\n      tag_102\n      jump\t// in\n    tag_160:\n        /* \"#utility.yul\":3172:3291   */\n    tag_159:\n        /* \"#utility.yul\":3330:3331   */\n      0x00\n        /* \"#utility.yul\":3355:3408   */\n      tag_161\n        /* \"#utility.yul\":3400:3407   */\n      dup5\n        /* \"#utility.yul\":3391:3397   */\n      dup3\n        /* \"#utility.yul\":3380:3389   */\n      dup6\n        /* \"#utility.yul\":3376:3398   */\n      add\n        /* \"#utility.yul\":3355:3408   */\n      tag_107\n      jump\t// in\n    tag_161:\n        /* \"#utility.yul\":3345:3408   */\n      swap2\n      pop\n        /* \"#utility.yul\":3301:3418   */\n      pop\n        /* \"#utility.yul\":3096:3425   */\n      swap3\n      swap2\n      pop\n      pop\n      jump\t// out\n        /* \"#utility.yul\":3431:3520   */\n    tag_108:\n        /* \"#utility.yul\":3465:3472   */\n      0x00\n        /* \"#utility.yul\":3508:3513   */\n      dup2\n        /* \"#utility.yul\":3505:3506   */\n      0x00\n        /* \"#utility.yul\":3494:3514   */\n      signextend\n        /* \"#utility.yul\":3483:3514   */\n      swap1\n      pop\n        /* \"#utility.yul\":3431:3520   */\n      swap2\n      swap1\n      pop\n      jump\t// out\n        /* \"#utility.yul\":3526:3635   */\n    tag_109:\n        /* \"#utility.yul\":3607:3628   */\n      tag_164\n        /* \"#utility.yul\":3622:3627   */\n      dup2\n        /* \"#utility.yul\":3607:3628   */\n      tag_108\n      jump\t// in\n    tag_164:\n        /* \"#utility.yul\":3602:3605   */\n      dup3\n        /* \"#utility.yul\":3595:3629   */\n      mstore\n        /* \"#utility.yul\":3526:3635   */\n      pop\n      pop\n      jump\t// out\n        /* \"#utility.yul\":3641:3851   */\n    tag_31:\n        /* \"#utility.yul\":3728:3732   */\n      0x00\n        /* \"#utility.yul\":3766:3768   */\n      0x20\n        /* \"#utility.yul\":3755:3764   */\n      dup3\n        /* \"#utility.yul\":3751:3769   */\n      add\n        /* \"#utility.yul\":3743:3769   */\n      swap1\n      pop\n        /* \"#utility.yul\":3779:3844   */\n      tag_166\n        /* \"#utility.yul\":3841:3842   */\n      0x00\n        /* \"#utility.yul\":3830:3839   */\n      dup4\n        /* \"#utility.yul\":3826:3843   */\n      add\n        /* \"#utility.yul\":3817:3823   */\n      dup5\n        /* \"#utility.yul\":3779:3844   */\n      tag_109\n      jump\t// in\n    tag_166:\n        /* \"#utility.yul\":3641:3851   */\n      swap3\n      swap2\n      pop\n      pop\n      jump\t// out\n        /* \"#utility.yul\":3857:3975   */\n    tag_110:\n        /* \"#utility.yul\":3944:3968   */\n      tag_168\n        /* \"#utility.yul\":3962:3967   */\n      dup2\n        /* \"#utility.yul\":3944:3968   */\n      tag_105\n      jump\t// in\n    tag_168:\n        /* \"#utility.yul\":3939:3942   */\n      dup3\n        /* \"#utility.yul\":3932:3969   */\n      mstore\n        /* \"#utility.yul\":3857:3975   */\n      pop\n      pop\n      jump\t// out\n        /* \"#utility.yul\":3981:4203   */\n    tag_42:\n        /* \"#utility.yul\":4074:4078   */\n      0x00\n        /* \"#utility.yul\":4112:4114   */\n      0x20\n        /* \"#utility.yul\":4101:4110   */\n      dup3\n        /* \"#utility.yul\":4097:4115   */\n      add\n        /* \"#utility.yul\":4089:4115   */\n      swap1\n      pop\n        /* \"#utility.yul\":4125:4196   */\n      tag_170\n        /* \"#utility.yul\":4193:4194   */\n      0x00\n        /* \"#utility.yul\":4182:4191   */\n      dup4\n        /* \"#utility.yul\":4178:4195   */\n      add\n        /* \"#utility.yul\":4169:4175   */\n      dup5\n        /* \"#utility.yul\":4125:4196   */\n      tag_110\n      jump\t// in\n    tag_170:\n        /* \"#utility.yul\":3981:4203   */\n      swap3\n      swap2\n      pop\n      pop\n      jump\t// out\n        /* \"#utility.yul\":4209:4331   */\n    tag_111:\n        /* \"#utility.yul\":4282:4306   */\n      tag_172\n        /* \"#utility.yul\":4300:4305   */\n      dup2\n        /* \"#utility.yul\":4282:4306   */\n      tag_97\n      jump\t// in\n    tag_172:\n        /* \"#utility.yul\":4275:4280   */\n      dup2\n        /* \"#utility.yul\":4272:4307   */\n      eq\n        /* \"#utility.yul\":4262:4325   */\n      tag_173\n      jumpi\n        /* \"#utility.yul\":4321:4322   */\n      0x00\n        /* \"#utility.yul\":4318:4319   */\n      dup1\n        /* \"#utility.yul\":4311:4323   */\n      revert\n        /* \"#utility.yul\":4262:4325   */\n    tag_173:\n        /* \"#utility.yul\":4209:4331   */\n      pop\n      jump\t// out\n        /* \"#utility.yul\":4337:4476   */\n    tag_112:\n        /* \"#utility.yul\":4383:4388   */\n      0x00\n        /* \"#utility.yul\":4421:4427   */\n      dup2\n        /* \"#utility.yul\":4408:4428   */\n      calldataload\n        /* \"#utility.yul\":4399:4428   */\n      swap1\n      pop\n        /* \"#utility.yul\":4437:4470   */\n      tag_175\n        /* \"#utility.yul\":4464:4469   */\n      dup2\n        /* \"#utility.yul\":4437:4470   */\n      tag_111\n      jump\t// in\n    tag_175:\n        /* \"#utility.yul\":4337:4476   */\n      swap3\n      swap2\n      pop\n      pop\n      jump\t// out\n        /* \"#utility.yul\":4482:4956   */\n    tag_51:\n        /* \"#utility.yul\":4550:4556   */\n      0x00\n        /* \"#utility.yul\":4558:4564   */\n      dup1\n        /* \"#utility.yul\":4607:4609   */\n      0x40\n        /* \"#utility.yul\":4595:4604   */\n      dup4\n        /* \"#utility.yul\":4586:4593   */\n      dup6\n        /* \"#utility.yul\":4582:4605   */\n      sub\n        /* \"#utility.yul\":4578:4610   */\n      slt\n        /* \"#utility.yul\":4575:4694   */\n      iszero\n      tag_177\n      jumpi\n        /* \"#utility.yul\":4613:4692   */\n      tag_178\n      tag_102\n      jump\t// in\n    tag_178:\n        /* \"#utility.yul\":4575:4694   */\n    tag_177:\n        /* \"#utility.yul\":4733:4734   */\n      0x00\n        /* \"#utility.yul\":4758:4811   */\n      tag_179\n        /* \"#utility.yul\":4803:4810   */\n      dup6\n        /* \"#utility.yul\":4794:4800   */\n      dup3\n        /* \"#utility.yul\":4783:4792   */\n      dup7\n        /* \"#utility.yul\":4779:4801   */\n      add\n        /* \"#utility.yul\":4758:4811   */\n      tag_107\n      jump\t// in\n    tag_179:\n        /* \"#utility.yul\":4748:4811   */\n      swap3\n      pop\n        /* \"#utility.yul\":4704:4821   */\n      pop\n        /* \"#utility.yul\":4860:4862   */\n      0x20\n        /* \"#utility.yul\":4886:4939   */\n      tag_180\n        /* \"#utility.yul\":4931:4938   */\n      dup6\n        /* \"#utility.yul\":4922:4928   */\n      dup3\n        /* \"#utility.yul\":4911:4920   */\n      dup7\n        /* \"#utility.yul\":4907:4929   */\n      add\n        /* \"#utility.yul\":4886:4939   */\n      tag_112\n      jump\t// in\n    tag_180:\n        /* \"#utility.yul\":4876:4939   */\n      swap2\n      pop\n        /* \"#utility.yul\":4831:4949   */\n      pop\n        /* \"#utility.yul\":4482:4956   */\n      swap3\n      pop\n      swap3\n      swap1\n      pop\n      jump\t// out\n        /* \"#utility.yul\":4962:5142   */\n    tag_113:\n        /* \"#utility.yul\":5010:5087   */\n      0x4e487b7100000000000000000000000000000000000000000000000000000000\n        /* \"#utility.yul\":5007:5008   */\n      0x00\n        /* \"#utility.yul\":5000:5088   */\n      mstore\n        /* \"#utility.yul\":5107:5111   */\n      0x22\n        /* \"#utility.yul\":5104:5105   */\n      0x04\n        /* \"#utility.yul\":5097:5112   */\n      mstore\n        /* \"#utility.yul\":5131:5135   */\n      0x24\n        /* \"#utility.yul\":5128:5129   */\n      0x00\n        /* \"#utility.yul\":5121:5136   */\n      revert\n        /* \"#utility.yul\":5148:5468   */\n    tag_54:\n        /* \"#utility.yul\":5192:5198   */\n      0x00\n        /* \"#utility.yul\":5229:5230   */\n      0x02\n        /* \"#utility.yul\":5223:5227   */\n      dup3\n        /* \"#utility.yul\":5219:5231   */\n      div\n        /* \"#utility.yul\":5209:5231   */\n      swap1\n      pop\n        /* \"#utility.yul\":5276:5277   */\n      0x01\n        /* \"#utility.yul\":5270:5274   */\n      dup3\n        /* \"#utility.yul\":5266:5278   */\n      and\n        /* \"#utility.yul\":5297:5315   */\n      dup1\n        /* \"#utility.yul\":5287:5368   */\n      tag_183\n      jumpi\n        /* \"#utility.yul\":5353:5357   */\n      0x7f\n        /* \"#utility.yul\":5345:5351   */\n      dup3\n        /* \"#utility.yul\":5341:5358   */\n      and\n        /* \"#utility.yul\":5331:5358   */\n      swap2\n      pop\n        /* \"#utility.yul\":5287:5368   */\n    tag_183:\n        /* \"#utility.yul\":5415:5417   */\n      0x20\n        /* \"#utility.yul\":5407:5413   */\n      dup3\n        /* \"#utility.yul\":5404:5418   */\n      lt\n        /* \"#utility.yul\":5384:5402   */\n      dup2\n        /* \"#utility.yul\":5381:5419   */\n      eq\n        /* \"#utility.yul\":5378:5462   */\n      iszero\n      tag_184\n      jumpi\n        /* \"#utility.yul\":5434:5452   */\n      tag_185\n      tag_113\n      jump\t// in\n    tag_185:\n        /* \"#utility.yul\":5378:5462   */\n    tag_184:\n        /* \"#utility.yul\":5199:5468   */\n      pop\n        /* \"#utility.yul\":5148:5468   */\n      swap2\n      swap1\n      pop\n      jump\t// out\n        /* \"#utility.yul\":5474:5633   */\n    tag_114:\n        /* \"#utility.yul\":5614:5625   */\n      0x6f6e6c794f776e65720000000000000000000000000000000000000000000000\n        /* \"#utility.yul\":5610:5611   */\n      0x00\n        /* \"#utility.yul\":5602:5608   */\n      dup3\n        /* \"#utility.yul\":5598:5612   */\n      add\n        /* \"#utility.yul\":5591:5626   */\n      mstore\n        /* \"#utility.yul\":5474:5633   */\n      pop\n      jump\t// out\n        /* \"#utility.yul\":5639:6004   */\n    tag_115:\n        /* \"#utility.yul\":5781:5784   */\n      0x00\n        /* \"#utility.yul\":5802:5868   */\n      tag_188\n        /* \"#utility.yul\":5866:5867   */\n      0x09\n        /* \"#utility.yul\":5861:5864   */\n      dup4\n        /* \"#utility.yul\":5802:5868   */\n      tag_93\n      jump\t// in\n    tag_188:\n        /* \"#utility.yul\":5795:5868   */\n      swap2\n      pop\n        /* \"#utility.yul\":5877:5970   */\n      tag_189\n        /* \"#utility.yul\":5966:5969   */\n      dup3\n        /* \"#utility.yul\":5877:5970   */\n      tag_114\n      jump\t// in\n    tag_189:\n        /* \"#utility.yul\":5995:5997   */\n      0x20\n        /* \"#utility.yul\":5990:5993   */\n      dup3\n        /* \"#utility.yul\":5986:5998   */\n      add\n        /* \"#utility.yul\":5979:5998   */\n      swap1\n      pop\n        /* \"#utility.yul\":5639:6004   */\n      swap2\n      swap1\n      pop\n      jump\t// out\n        /* \"#utility.yul\":6010:6429   */\n    tag_62:\n        /* \"#utility.yul\":6176:6180   */\n      0x00\n        /* \"#utility.yul\":6214:6216   */\n      0x20\n        /* \"#utility.yul\":6203:6212   */\n      dup3\n        /* \"#utility.yul\":6199:6217   */\n      add\n        /* \"#utility.yul\":6191:6217   */\n      swap1\n      pop\n        /* \"#utility.yul\":6263:6272   */\n      dup2\n        /* \"#utility.yul\":6257:6261   */\n      dup2\n        /* \"#utility.yul\":6253:6273   */\n      sub\n        /* \"#utility.yul\":6249:6250   */\n      0x00\n        /* \"#utility.yul\":6238:6247   */\n      dup4\n        /* \"#utility.yul\":6234:6251   */\n      add\n        /* \"#utility.yul\":6227:6274   */\n      mstore\n        /* \"#utility.yul\":6291:6422   */\n      tag_191\n        /* \"#utility.yul\":6417:6421   */\n      dup2\n        /* \"#utility.yul\":6291:6422   */\n      tag_115\n      jump\t// in\n    tag_191:\n        /* \"#utility.yul\":6283:6422   */\n      swap1\n      pop\n        /* \"#utility.yul\":6010:6429   */\n      swap2\n      swap1\n      pop\n      jump\t// out\n        /* \"#utility.yul\":6435:6598   */\n    tag_116:\n        /* \"#utility.yul\":6575:6590   */\n      0x7472616e6665725f6572725f3100000000000000000000000000000000000000\n        /* \"#utility.yul\":6571:6572   */\n      0x00\n        /* \"#utility.yul\":6563:6569   */\n      dup3\n        /* \"#utility.yul\":6559:6573   */\n      add\n        /* \"#utility.yul\":6552:6591   */\n      mstore\n        /* \"#utility.yul\":6435:6598   */\n      pop\n      jump\t// out\n        /* \"#utility.yul\":6604:6970   */\n    tag_117:\n        /* \"#utility.yul\":6746:6749   */\n      0x00\n        /* \"#utility.yul\":6767:6834   */\n      tag_194\n        /* \"#utility.yul\":6831:6833   */\n      0x0d\n        /* \"#utility.yul\":6826:6829   */\n      dup4\n        /* \"#utility.yul\":6767:6834   */\n      tag_93\n      jump\t// in\n    tag_194:\n        /* \"#utility.yul\":6760:6834   */\n      swap2\n      pop\n        /* \"#utility.yul\":6843:6936   */\n      tag_195\n        /* \"#utility.yul\":6932:6935   */\n      dup3\n        /* \"#utility.yul\":6843:6936   */\n      tag_116\n      jump\t// in\n    tag_195:\n        /* \"#utility.yul\":6961:6963   */\n      0x20\n        /* \"#utility.yul\":6956:6959   */\n      dup3\n        /* \"#utility.yul\":6952:6964   */\n      add\n        /* \"#utility.yul\":6945:6964   */\n      swap1\n      pop\n        /* \"#utility.yul\":6604:6970   */\n      swap2\n      swap1\n      pop\n      jump\t// out\n        /* \"#utility.yul\":6976:7395   */\n    tag_76:\n        /* \"#utility.yul\":7142:7146   */\n      0x00\n        /* \"#utility.yul\":7180:7182   */\n      0x20\n        /* \"#utility.yul\":7169:7178   */\n      dup3\n        /* \"#utility.yul\":7165:7183   */\n      add\n        /* \"#utility.yul\":7157:7183   */\n      swap1\n      pop\n        /* \"#utility.yul\":7229:7238   */\n      dup2\n        /* \"#utility.yul\":7223:7227   */\n      dup2\n        /* \"#utility.yul\":7219:7239   */\n      sub\n        /* \"#utility.yul\":7215:7216   */\n      0x00\n        /* \"#utility.yul\":7204:7213   */\n      dup4\n        /* \"#utility.yul\":7200:7217   */\n      add\n        /* \"#utility.yul\":7193:7240   */\n      mstore\n        /* \"#utility.yul\":7257:7388   */\n      tag_197\n        /* \"#utility.yul\":7383:7387   */\n      dup2\n        /* \"#utility.yul\":7257:7388   */\n      tag_117\n      jump\t// in\n    tag_197:\n        /* \"#utility.yul\":7249:7388   */\n      swap1\n      pop\n        /* \"#utility.yul\":6976:7395   */\n      swap2\n      swap1\n      pop\n      jump\t// out\n        /* \"#utility.yul\":7401:7581   */\n    tag_118:\n        /* \"#utility.yul\":7449:7526   */\n      0x4e487b7100000000000000000000000000000000000000000000000000000000\n        /* \"#utility.yul\":7446:7447   */\n      0x00\n        /* \"#utility.yul\":7439:7527   */\n      mstore\n        /* \"#utility.yul\":7546:7550   */\n      0x11\n        /* \"#utility.yul\":7543:7544   */\n      0x04\n        /* \"#utility.yul\":7536:7551   */\n      mstore\n        /* \"#utility.yul\":7570:7574   */\n      0x24\n        /* \"#utility.yul\":7567:7568   */\n      0x00\n        /* \"#utility.yul\":7560:7575   */\n      revert\n        /* \"#utility.yul\":7587:7892   */\n    tag_78:\n        /* \"#utility.yul\":7627:7630   */\n      0x00\n        /* \"#utility.yul\":7646:7666   */\n      tag_200\n        /* \"#utility.yul\":7664:7665   */\n      dup3\n        /* \"#utility.yul\":7646:7666   */\n      tag_97\n      jump\t// in\n    tag_200:\n        /* \"#utility.yul\":7641:7666   */\n      swap2\n      pop\n        /* \"#utility.yul\":7680:7700   */\n      tag_201\n        /* \"#utility.yul\":7698:7699   */\n      dup4\n        /* \"#utility.yul\":7680:7700   */\n      tag_97\n      jump\t// in\n    tag_201:\n        /* \"#utility.yul\":7675:7700   */\n      swap3\n      pop\n        /* \"#utility.yul\":7834:7835   */\n      dup3\n        /* \"#utility.yul\":7766:7832   */\n      0xffffffffffffffffffffffffffffffffffffffffffffffffffffffffffffffff\n        /* \"#utility.yul\":7762:7836   */\n      sub\n        /* \"#utility.yul\":7759:7760   */\n      dup3\n        /* \"#utility.yul\":7756:7837   */\n      gt\n        /* \"#utility.yul\":7753:7860   */\n      iszero\n      tag_202\n      jumpi\n        /* \"#utility.yul\":7840:7858   */\n      tag_203\n      tag_118\n      jump\t// in\n    tag_203:\n        /* \"#utility.yul\":7753:7860   */\n    tag_202:\n        /* \"#utility.yul\":7884:7885   */\n      dup3\n        /* \"#utility.yul\":7881:7882   */\n      dup3\n        /* \"#utility.yul\":7877:7886   */\n      add\n        /* \"#utility.yul\":7870:7886   */\n      swap1\n      pop\n        /* \"#utility.yul\":7587:7892   */\n      swap3\n      swap2\n      pop\n      pop\n      jump\t// out\n        /* \"#utility.yul\":7898:8061   */\n    tag_119:\n        /* \"#utility.yul\":8038:8053   */\n      0x7472616e6665725f6572725f3200000000000000000000000000000000000000\n        /* \"#utility.yul\":8034:8035   */\n      0x00\n        /* \"#utility.yul\":8026:8032   */\n      dup3\n        /* \"#utility.yul\":8022:8036   */\n      add\n        /* \"#utility.yul\":8015:8054   */\n      mstore\n        /* \"#utility.yul\":7898:8061   */\n      pop\n      jump\t// out\n        /* \"#utility.yul\":8067:8433   */\n    tag_120:\n        /* \"#utility.yul\":8209:8212   */\n      0x00\n        /* \"#utility.yul\":8230:8297   */\n      tag_206\n        /* \"#utility.yul\":8294:8296   */\n      0x0d\n        /* \"#utility.yul\":8289:8292   */\n      dup4\n        /* \"#utility.yul\":8230:8297   */\n      tag_93\n      jump\t// in\n    tag_206:\n        /* \"#utility.yul\":8223:8297   */\n      swap2\n      pop\n        /* \"#utility.yul\":8306:8399   */\n      tag_207\n        /* \"#utility.yul\":8395:8398   */\n      dup3\n        /* \"#utility.yul\":8306:8399   */\n      tag_119\n      jump\t// in\n    tag_207:\n        /* \"#utility.yul\":8424:8426   */\n      0x20\n        /* \"#utility.yul\":8419:8422   */\n      dup3\n        /* \"#utility.yul\":8415:8427   */\n      add\n        /* \"#utility.yul\":8408:8427   */\n      swap1\n      pop\n        /* \"#utility.yul\":8067:8433   */\n      swap2\n      swap1\n      pop\n      jump\t// out\n        /* \"#utility.yul\":8439:8858   */\n    tag_81:\n        /* \"#utility.yul\":8605:8609   */\n      0x00\n        /* \"#utility.yul\":8643:8645   */\n      0x20\n        /* \"#utility.yul\":8632:8641   */\n      dup3\n        /* \"#utility.yul\":8628:8646   */\n      add\n        /* \"#utility.yul\":8620:8646   */\n      swap1\n      pop\n        /* \"#utility.yul\":8692:8701   */\n      dup2\n        /* \"#utility.yul\":8686:8690   */\n      dup2\n        /* \"#utility.yul\":8682:8702   */\n      sub\n        /* \"#utility.yul\":8678:8679   */\n      0x00\n        /* \"#utility.yul\":8667:8676   */\n      dup4\n        /* \"#utility.yul\":8663:8680   */\n      add\n        /* \"#utility.yul\":8656:8703   */\n      mstore\n        /* \"#utility.yul\":8720:8851   */\n      tag_209\n        /* \"#utility.yul\":8846:8850   */\n      dup2\n        /* \"#utility.yul\":8720:8851   */\n      tag_120\n      jump\t// in\n    tag_209:\n        /* \"#utility.yul\":8712:8851   */\n      swap1\n      pop\n        /* \"#utility.yul\":8439:8858   */\n      swap2\n      swap1\n      pop\n      jump\t// out\n        /* \"#utility.yul\":8864:9055   */\n    tag_89:\n        /* \"#utility.yul\":8904:8908   */\n      0x00\n        /* \"#utility.yul\":8924:8944   */\n      tag_211\n        /* \"#utility.yul\":8942:8943   */\n      dup3\n        /* \"#utility.yul\":8924:8944   */\n      tag_97\n      jump\t// in\n    tag_211:\n        /* \"#utility.yul\":8919:8944   */\n      swap2\n      pop\n        /* \"#utility.yul\":8958:8978   */\n      tag_212\n        /* \"#utility.yul\":8976:8977   */\n      dup4\n        /* \"#utility.yul\":8958:8978   */\n      tag_97\n      jump\t// in\n    tag_212:\n        /* \"#utility.yul\":8953:8978   */\n      swap3\n      pop\n        /* \"#utility.yul\":8997:8998   */\n      dup3\n        /* \"#utility.yul\":8994:8995   */\n      dup3\n        /* \"#utility.yul\":8991:8999   */\n      lt\n        /* \"#utility.yul\":8988:9022   */\n      iszero\n      tag_213\n      jumpi\n        /* \"#utility.yul\":9002:9020   */\n      tag_214\n      tag_118\n      jump\t// in\n    tag_214:\n        /* \"#utility.yul\":8988:9022   */\n    tag_213:\n        /* \"#utility.yul\":9047:9048   */\n      dup3\n        /* \"#utility.yul\":9044:9045   */\n      dup3\n        /* \"#utility.yul\":9040:9049   */\n      sub\n        /* \"#utility.yul\":9032:9049   */\n      swap1\n      pop\n        /* \"#utility.yul\":8864:9055   */\n      swap3\n      swap2\n      pop\n      pop\n      jump\t// out\n\n    auxdata: 0xa2646970667358221220ddde11e1a5205691e7e97d244c797b4834b61728011ec0f18efcd2ce5e9163f164736f6c634300080c0033\n}\n",
				"bytecode": {
					"linkReferences": {},
					"object": "60806040523480156200001157600080fd5b5060405162001408380380620014088339818101604052810190620000379190620003e0565b83600460003373ffffffffffffffffffffffffffffffffffffffff1673ffffffffffffffffffffffffffffffffffffffff168152602001908152602001600020819055508260009080519060200190620000939291906200011a565b508160019080519060200190620000ac9291906200011a565b5080600260006101000a81548160ff021916908360ff1602179055508360038190555033600660006101000a81548173ffffffffffffffffffffffffffffffffffffffff021916908373ffffffffffffffffffffffffffffffffffffffff16021790555050505050620004f5565b8280546200012890620004bf565b90600052602060002090601f0160209004810192826200014c576000855562000198565b82601f106200016757805160ff191683800117855562000198565b8280016001018555821562000198579182015b82811115620001975782518255916020019190600101906200017a565b5b509050620001a79190620001ab565b5090565b5b80821115620001c6576000816000905550600101620001ac565b5090565b6000604051905090565b600080fd5b600080fd5b6000819050919050565b620001f381620001de565b8114620001ff57600080fd5b50565b6000815190506200021381620001e8565b92915050565b600080fd5b600080fd5b6000601f19601f8301169050919050565b7f4e487b7100000000000000000000000000000000000000000000000000000000600052604160045260246000fd5b6200026e8262000223565b810181811067ffffffffffffffff8211171562000290576200028f62000234565b5b80604052505050565b6000620002a5620001ca565b9050620002b3828262000263565b919050565b600067ffffffffffffffff821115620002d657620002d562000234565b5b620002e18262000223565b9050602081019050919050565b60005b838110156200030e578082015181840152602081019050620002f1565b838111156200031e576000848401525b50505050565b60006200033b6200033584620002b8565b62000299565b9050828152602081018484840111156200035a57620003596200021e565b5b62000367848285620002ee565b509392505050565b600082601f83011262000387576200038662000219565b5b81516200039984826020860162000324565b91505092915050565b600060ff82169050919050565b620003ba81620003a2565b8114620003c657600080fd5b50565b600081519050620003da81620003af565b92915050565b60008060008060808587031215620003fd57620003fc620001d4565b5b60006200040d8782880162000202565b945050602085015167ffffffffffffffff811115620004315762000430620001d9565b5b6200043f878288016200036f565b935050604085015167ffffffffffffffff811115620004635762000462620001d9565b5b62000471878288016200036f565b92505060606200048487828801620003c9565b91505092959194509250565b7f4e487b7100000000000000000000000000000000000000000000000000000000600052602260045260246000fd5b60006002820490506001821680620004d857607f821691505b60208210811415620004ef57620004ee62000490565b5b50919050565b610f0380620005056000396000f3fe608060405234801561001057600080fd5b506004361061009e5760003560e01c80638a294c60116100665780638a294c601461015d5780638da5cb5b146101795780638de6b3431461019757806395d89b41146101b3578063a9059cbb146101d15761009e565b806306fdde03146100a357806318160ddd146100c1578063313ce567146100df5780634838d165146100fd57806370a082311461012d575b600080fd5b6100ab6101ed565b6040516100b89190610a85565b60405180910390f35b6100c961027b565b6040516100d69190610ac0565b60405180910390f35b6100e7610281565b6040516100f49190610af7565b60405180910390f35b61011760048036038101906101129190610b75565b610294565b6040516101249190610bbe565b60405180910390f35b61014760048036038101906101429190610b75565b6102b4565b6040516101549190610ac0565b60405180910390f35b61017760048036038101906101729190610b75565b6102cc565b005b6101816103fe565b60405161018e9190610be8565b60405180910390f35b6101b160048036038101906101ac9190610b75565b610424565b005b6101bb610575565b6040516101c89190610a85565b60405180910390f35b6101eb60048036038101906101e69190610c2f565b610603565b005b600080546101fa90610c9e565b80601f016020809104026020016040519081016040528092919081815260200182805461022690610c9e565b80156102735780601f1061024857610100808354040283529160200191610273565b820191906000526020600020905b81548152906001019060200180831161025657829003601f168201915b505050505081565b60035481565b600260009054906101000a900460ff1681565b60056020528060005260406000206000915054906101000a900460000b81565b60046020528060005260406000206000915090505481565b600660009054906101000a900473ffffffffffffffffffffffffffffffffffffffff1673ffffffffffffffffffffffffffffffffffffffff163373ffffffffffffffffffffffffffffffffffffffff161461035c576040517f08c379a000000000000000000000000000000000000000000000000000000000815260040161035390610d1c565b60405180910390fd5b6001600560008373ffffffffffffffffffffffffffffffffffffffff1673ffffffffffffffffffffffffffffffffffffffff16815260200190815260200160002060006101000a81548160ff021916908360000b60ff1602179055508073ffffffffffffffffffffffffffffffffffffffff167fffa4e6181777692565cf28528fc88fd1516ea86b56da075235fa575af6a4b85560405160405180910390a250565b600660009054906101000a900473ffffffffffffffffffffffffffffffffffffffff1681565b600660009054906101000a900473ffffffffffffffffffffffffffffffffffffffff1673ffffffffffffffffffffffffffffffffffffffff163373ffffffffffffffffffffffffffffffffffffffff16146104b4576040517f08c379a00000000000000000000000000000000000000000000000000000000081526004016104ab90610d1c565b60405180910390fd5b7fffffffffffffffffffffffffffffffffffffffffffffffffffffffffffffffff600560008373ffffffffffffffffffffffffffffffffffffffff1673ffffffffffffffffffffffffffffffffffffffff16815260200190815260200160002060006101000a81548160ff021916908360000b60ff1602179055508073ffffffffffffffffffffffffffffffffffffffff167f2e5392b52e98bf05bdf3784aaec667371398a6ea4fb965a2894852471999bca960405160405180910390a250565b6001805461058290610c9e565b80601f01602080910402602001604051908101604052809291908181526020018280546105ae90610c9e565b80156105fb5780601f106105d0576101008083540402835291602001916105fb565b820191906000526020600020905b8154815290600101906020018083116105de57829003601f168201915b505050505081565b80600460003373ffffffffffffffffffffffffffffffffffffffff1673ffffffffffffffffffffffffffffffffffffffff168152602001908152602001600020541015610685576040517f08c379a000000000000000000000000000000000000000000000000000000000815260040161067c90610d88565b60405180910390fd5b600460008373ffffffffffffffffffffffffffffffffffffffff1673ffffffffffffffffffffffffffffffffffffffff1681526020019081526020016000205481600460008573ffffffffffffffffffffffffffffffffffffffff1673ffffffffffffffffffffffffffffffffffffffff168152602001908152602001600020546107109190610dd7565b1015610751576040517f08c379a000000000000000000000000000000000000000000000000000000000815260040161074890610e79565b60405180910390fd5b6000600560003373ffffffffffffffffffffffffffffffffffffffff1673ffffffffffffffffffffffffffffffffffffffff16815260200190815260200160002060009054906101000a900460000b60000b1315610813578173ffffffffffffffffffffffffffffffffffffffff163373ffffffffffffffffffffffffffffffffffffffff167f2a04c84c100a93363ee2e1ab7076505a06b5dd417cccc0d6080ec8285e84f79e836040516108069190610ac0565b60405180910390a36109e8565b6000600560008473ffffffffffffffffffffffffffffffffffffffff1673ffffffffffffffffffffffffffffffffffffffff16815260200190815260200160002060009054906101000a900460000b60000b13156108d5578173ffffffffffffffffffffffffffffffffffffffff163373ffffffffffffffffffffffffffffffffffffffff167fee75d149bb5e330e03f98b125aaa1efcd5864e4e2d5946f23dc6dd30630d5616836040516108c89190610ac0565b60405180910390a36109e7565b80600460003373ffffffffffffffffffffffffffffffffffffffff1673ffffffffffffffffffffffffffffffffffffffff16815260200190815260200160002060008282546109249190610e99565b9250508190555080600460008473ffffffffffffffffffffffffffffffffffffffff1673ffffffffffffffffffffffffffffffffffffffff168152602001908152602001600020600082825461097a9190610dd7565b925050819055508173ffffffffffffffffffffffffffffffffffffffff163373ffffffffffffffffffffffffffffffffffffffff167fddf252ad1be2c89b69c2b068fc378daa952ba7f163c4a11628f55a4df523b3ef836040516109de9190610ac0565b60405180910390a35b5b5050565b600081519050919050565b600082825260208201905092915050565b60005b83811015610a26578082015181840152602081019050610a0b565b83811115610a35576000848401525b50505050565b6000601f19601f8301169050919050565b6000610a57826109ec565b610a6181856109f7565b9350610a71818560208601610a08565b610a7a81610a3b565b840191505092915050565b60006020820190508181036000830152610a9f8184610a4c565b905092915050565b6000819050919050565b610aba81610aa7565b82525050565b6000602082019050610ad56000830184610ab1565b92915050565b600060ff82169050919050565b610af181610adb565b82525050565b6000602082019050610b0c6000830184610ae8565b92915050565b600080fd5b600073ffffffffffffffffffffffffffffffffffffffff82169050919050565b6000610b4282610b17565b9050919050565b610b5281610b37565b8114610b5d57600080fd5b50565b600081359050610b6f81610b49565b92915050565b600060208284031215610b8b57610b8a610b12565b5b6000610b9984828501610b60565b91505092915050565b60008160000b9050919050565b610bb881610ba2565b82525050565b6000602082019050610bd36000830184610baf565b92915050565b610be281610b37565b82525050565b6000602082019050610bfd6000830184610bd9565b92915050565b610c0c81610aa7565b8114610c1757600080fd5b50565b600081359050610c2981610c03565b92915050565b60008060408385031215610c4657610c45610b12565b5b6000610c5485828601610b60565b9250506020610c6585828601610c1a565b9150509250929050565b7f4e487b7100000000000000000000000000000000000000000000000000000000600052602260045260246000fd5b60006002820490506001821680610cb657607f821691505b60208210811415610cca57610cc9610c6f565b5b50919050565b7f6f6e6c794f776e65720000000000000000000000000000000000000000000000600082015250565b6000610d066009836109f7565b9150610d1182610cd0565b602082019050919050565b60006020820190508181036000830152610d3581610cf9565b9050919050565b7f7472616e6665725f6572725f3100000000000000000000000000000000000000600082015250565b6000610d72600d836109f7565b9150610d7d82610d3c565b602082019050919050565b60006020820190508181036000830152610da181610d65565b9050919050565b7f4e487b7100000000000000000000000000000000000000000000000000000000600052601160045260246000fd5b6000610de282610aa7565b9150610ded83610aa7565b9250827fffffffffffffffffffffffffffffffffffffffffffffffffffffffffffffffff03821115610e2257610e21610da8565b5b828201905092915050565b7f7472616e6665725f6572725f3200000000000000000000000000000000000000600082015250565b6000610e63600d836109f7565b9150610e6e82610e2d565b602082019050919050565b60006020820190508181036000830152610e9281610e56565b9050919050565b6000610ea482610aa7565b9150610eaf83610aa7565b925082821015610ec257610ec1610da8565b5b82820390509291505056fea2646970667358221220ddde11e1a5205691e7e97d244c797b4834b61728011ec0f18efcd2ce5e9163f164736f6c634300080c0033",
					"opcodes": "PUSH1 0x80 PUSH1 0x40 MSTORE CALLVALUE DUP1 ISZERO PUSH3 0x11 JUMPI PUSH1 0x0 DUP1 REVERT JUMPDEST POP PUSH1 0x40 MLOAD PUSH3 0x1408 CODESIZE SUB DUP1 PUSH3 0x1408 DUP4 CODECOPY DUP2 DUP2 ADD PUSH1 0x40 MSTORE DUP2 ADD SWAP1 PUSH3 0x37 SWAP2 SWAP1 PUSH3 0x3E0 JUMP JUMPDEST DUP4 PUSH1 0x4 PUSH1 0x0 CALLER PUSH20 0xFFFFFFFFFFFFFFFFFFFFFFFFFFFFFFFFFFFFFFFF AND PUSH20 0xFFFFFFFFFFFFFFFFFFFFFFFFFFFFFFFFFFFFFFFF AND DUP2 MSTORE PUSH1 0x20 ADD SWAP1 DUP2 MSTORE PUSH1 0x20 ADD PUSH1 0x0 KECCAK256 DUP2 SWAP1 SSTORE POP DUP3 PUSH1 0x0 SWAP1 DUP1 MLOAD SWAP1 PUSH1 0x20 ADD SWAP1 PUSH3 0x93 SWAP3 SWAP2 SWAP1 PUSH3 0x11A JUMP JUMPDEST POP DUP2 PUSH1 0x1 SWAP1 DUP1 MLOAD SWAP1 PUSH1 0x20 ADD SWAP1 PUSH3 0xAC SWAP3 SWAP2 SWAP1 PUSH3 0x11A JUMP JUMPDEST POP DUP1 PUSH1 0x2 PUSH1 0x0 PUSH2 0x100 EXP DUP2 SLOAD DUP2 PUSH1 0xFF MUL NOT AND SWAP1 DUP4 PUSH1 0xFF AND MUL OR SWAP1 SSTORE POP DUP4 PUSH1 0x3 DUP2 SWAP1 SSTORE POP CALLER PUSH1 0x6 PUSH1 0x0 PUSH2 0x100 EXP DUP2 SLOAD DUP2 PUSH20 0xFFFFFFFFFFFFFFFFFFFFFFFFFFFFFFFFFFFFFFFF MUL NOT AND SWAP1 DUP4 PUSH20 0xFFFFFFFFFFFFFFFFFFFFFFFFFFFFFFFFFFFFFFFF AND MUL OR SWAP1 SSTORE POP POP POP POP POP PUSH3 0x4F5 JUMP JUMPDEST DUP3 DUP1 SLOAD PUSH3 0x128 SWAP1 PUSH3 0x4BF JUMP JUMPDEST SWAP1 PUSH1 0x0 MSTORE PUSH1 0x20 PUSH1 0x0 KECCAK256 SWAP1 PUSH1 0x1F ADD PUSH1 0x20 SWAP1 DIV DUP2 ADD SWAP3 DUP3 PUSH3 0x14C JUMPI PUSH1 0x0 DUP6 SSTORE PUSH3 0x198 JUMP JUMPDEST DUP3 PUSH1 0x1F LT PUSH3 0x167 JUMPI DUP1 MLOAD PUSH1 0xFF NOT AND DUP4 DUP1 ADD OR DUP6 SSTORE PUSH3 0x198 JUMP JUMPDEST DUP3 DUP1 ADD PUSH1 0x1 ADD DUP6 SSTORE DUP3 ISZERO PUSH3 0x198 JUMPI SWAP2 DUP3 ADD JUMPDEST DUP3 DUP2 GT ISZERO PUSH3 0x197 JUMPI DUP3 MLOAD DUP3 SSTORE SWAP2 PUSH1 0x20 ADD SWAP2 SWAP1 PUSH1 0x1 ADD SWAP1 PUSH3 0x17A JUMP JUMPDEST JUMPDEST POP SWAP1 POP PUSH3 0x1A7 SWAP2 SWAP1 PUSH3 0x1AB JUMP JUMPDEST POP SWAP1 JUMP JUMPDEST JUMPDEST DUP1 DUP3 GT ISZERO PUSH3 0x1C6 JUMPI PUSH1 0x0 DUP2 PUSH1 0x0 SWAP1 SSTORE POP PUSH1 0x1 ADD PUSH3 0x1AC JUMP JUMPDEST POP SWAP1 JUMP JUMPDEST PUSH1 0x0 PUSH1 0x40 MLOAD SWAP1 POP SWAP1 JUMP JUMPDEST PUSH1 0x0 DUP1 REVERT JUMPDEST PUSH1 0x0 DUP1 REVERT JUMPDEST PUSH1 0x0 DUP2 SWAP1 POP SWAP2 SWAP1 POP JUMP JUMPDEST PUSH3 0x1F3 DUP2 PUSH3 0x1DE JUMP JUMPDEST DUP2 EQ PUSH3 0x1FF JUMPI PUSH1 0x0 DUP1 REVERT JUMPDEST POP JUMP JUMPDEST PUSH1 0x0 DUP2 MLOAD SWAP1 POP PUSH3 0x213 DUP2 PUSH3 0x1E8 JUMP JUMPDEST SWAP3 SWAP2 POP POP JUMP JUMPDEST PUSH1 0x0 DUP1 REVERT JUMPDEST PUSH1 0x0 DUP1 REVERT JUMPDEST PUSH1 0x0 PUSH1 0x1F NOT PUSH1 0x1F DUP4 ADD AND SWAP1 POP SWAP2 SWAP1 POP JUMP JUMPDEST PUSH32 0x4E487B7100000000000000000000000000000000000000000000000000000000 PUSH1 0x0 MSTORE PUSH1 0x41 PUSH1 0x4 MSTORE PUSH1 0x24 PUSH1 0x0 REVERT JUMPDEST PUSH3 0x26E DUP3 PUSH3 0x223 JUMP JUMPDEST DUP2 ADD DUP2 DUP2 LT PUSH8 0xFFFFFFFFFFFFFFFF DUP3 GT OR ISZERO PUSH3 0x290 JUMPI PUSH3 0x28F PUSH3 0x234 JUMP JUMPDEST JUMPDEST DUP1 PUSH1 0x40 MSTORE POP POP POP JUMP JUMPDEST PUSH1 0x0 PUSH3 0x2A5 PUSH3 0x1CA JUMP JUMPDEST SWAP1 POP PUSH3 0x2B3 DUP3 DUP3 PUSH3 0x263 JUMP JUMPDEST SWAP2 SWAP1 POP JUMP JUMPDEST PUSH1 0x0 PUSH8 0xFFFFFFFFFFFFFFFF DUP3 GT ISZERO PUSH3 0x2D6 JUMPI PUSH3 0x2D5 PUSH3 0x234 JUMP JUMPDEST JUMPDEST PUSH3 0x2E1 DUP3 PUSH3 0x223 JUMP JUMPDEST SWAP1 POP PUSH1 0x20 DUP2 ADD SWAP1 POP SWAP2 SWAP1 POP JUMP JUMPDEST PUSH1 0x0 JUMPDEST DUP4 DUP2 LT ISZERO PUSH3 0x30E JUMPI DUP1 DUP3 ADD MLOAD DUP2 DUP5 ADD MSTORE PUSH1 0x20 DUP2 ADD SWAP1 POP PUSH3 0x2F1 JUMP JUMPDEST DUP4 DUP2 GT ISZERO PUSH3 0x31E JUMPI PUSH1 0x0 DUP5 DUP5 ADD MSTORE JUMPDEST POP POP POP POP JUMP JUMPDEST PUSH1 0x0 PUSH3 0x33B PUSH3 0x335 DUP5 PUSH3 0x2B8 JUMP JUMPDEST PUSH3 0x299 JUMP JUMPDEST SWAP1 POP DUP3 DUP2 MSTORE PUSH1 0x20 DUP2 ADD DUP5 DUP5 DUP5 ADD GT ISZERO PUSH3 0x35A JUMPI PUSH3 0x359 PUSH3 0x21E JUMP JUMPDEST JUMPDEST PUSH3 0x367 DUP5 DUP3 DUP6 PUSH3 0x2EE JUMP JUMPDEST POP SWAP4 SWAP3 POP POP POP JUMP JUMPDEST PUSH1 0x0 DUP3 PUSH1 0x1F DUP4 ADD SLT PUSH3 0x387 JUMPI PUSH3 0x386 PUSH3 0x219 JUMP JUMPDEST JUMPDEST DUP2 MLOAD PUSH3 0x399 DUP5 DUP3 PUSH1 0x20 DUP7 ADD PUSH3 0x324 JUMP JUMPDEST SWAP2 POP POP SWAP3 SWAP2 POP POP JUMP JUMPDEST PUSH1 0x0 PUSH1 0xFF DUP3 AND SWAP1 POP SWAP2 SWAP1 POP JUMP JUMPDEST PUSH3 0x3BA DUP2 PUSH3 0x3A2 JUMP JUMPDEST DUP2 EQ PUSH3 0x3C6 JUMPI PUSH1 0x0 DUP1 REVERT JUMPDEST POP JUMP JUMPDEST PUSH1 0x0 DUP2 MLOAD SWAP1 POP PUSH3 0x3DA DUP2 PUSH3 0x3AF JUMP JUMPDEST SWAP3 SWAP2 POP POP JUMP JUMPDEST PUSH1 0x0 DUP1 PUSH1 0x0 DUP1 PUSH1 0x80 DUP6 DUP8 SUB SLT ISZERO PUSH3 0x3FD JUMPI PUSH3 0x3FC PUSH3 0x1D4 JUMP JUMPDEST JUMPDEST PUSH1 0x0 PUSH3 0x40D DUP8 DUP3 DUP9 ADD PUSH3 0x202 JUMP JUMPDEST SWAP5 POP POP PUSH1 0x20 DUP6 ADD MLOAD PUSH8 0xFFFFFFFFFFFFFFFF DUP2 GT ISZERO PUSH3 0x431 JUMPI PUSH3 0x430 PUSH3 0x1D9 JUMP JUMPDEST JUMPDEST PUSH3 0x43F DUP8 DUP3 DUP9 ADD PUSH3 0x36F JUMP JUMPDEST SWAP4 POP POP PUSH1 0x40 DUP6 ADD MLOAD PUSH8 0xFFFFFFFFFFFFFFFF DUP2 GT ISZERO PUSH3 0x463 JUMPI PUSH3 0x462 PUSH3 0x1D9 JUMP JUMPDEST JUMPDEST PUSH3 0x471 DUP8 DUP3 DUP9 ADD PUSH3 0x36F JUMP JUMPDEST SWAP3 POP POP PUSH1 0x60 PUSH3 0x484 DUP8 DUP3 DUP9 ADD PUSH3 0x3C9 JUMP JUMPDEST SWAP2 POP POP SWAP3 SWAP6 SWAP2 SWAP5 POP SWAP3 POP JUMP JUMPDEST PUSH32 0x4E487B7100000000000000000000000000000000000000000000000000000000 PUSH1 0x0 MSTORE PUSH1 0x22 PUSH1 0x4 MSTORE PUSH1 0x24 PUSH1 0x0 REVERT JUMPDEST PUSH1 0x0 PUSH1 0x2 DUP3 DIV SWAP1 POP PUSH1 0x1 DUP3 AND DUP1 PUSH3 0x4D8 JUMPI PUSH1 0x7F DUP3 AND SWAP2 POP JUMPDEST PUSH1 0x20 DUP3 LT DUP2 EQ ISZERO PUSH3 0x4EF JUMPI PUSH3 0x4EE PUSH3 0x490 JUMP JUMPDEST JUMPDEST POP SWAP2 SWAP1 POP JUMP JUMPDEST PUSH2 0xF03 DUP1 PUSH3 0x505 PUSH1 0x0 CODECOPY PUSH1 0x0 RETURN INVALID PUSH1 0x80 PUSH1 0x40 MSTORE CALLVALUE DUP1 ISZERO PUSH2 0x10 JUMPI PUSH1 0x0 DUP1 REVERT JUMPDEST POP PUSH1 0x4 CALLDATASIZE LT PUSH2 0x9E JUMPI PUSH1 0x0 CALLDATALOAD PUSH1 0xE0 SHR DUP1 PUSH4 0x8A294C60 GT PUSH2 0x66 JUMPI DUP1 PUSH4 0x8A294C60 EQ PUSH2 0x15D JUMPI DUP1 PUSH4 0x8DA5CB5B EQ PUSH2 0x179 JUMPI DUP1 PUSH4 0x8DE6B343 EQ PUSH2 0x197 JUMPI DUP1 PUSH4 0x95D89B41 EQ PUSH2 0x1B3 JUMPI DUP1 PUSH4 0xA9059CBB EQ PUSH2 0x1D1 JUMPI PUSH2 0x9E JUMP JUMPDEST DUP1 PUSH4 0x6FDDE03 EQ PUSH2 0xA3 JUMPI DUP1 PUSH4 0x18160DDD EQ PUSH2 0xC1 JUMPI DUP1 PUSH4 0x313CE567 EQ PUSH2 0xDF JUMPI DUP1 PUSH4 0x4838D165 EQ PUSH2 0xFD JUMPI DUP1 PUSH4 0x70A08231 EQ PUSH2 0x12D JUMPI JUMPDEST PUSH1 0x0 DUP1 REVERT JUMPDEST PUSH2 0xAB PUSH2 0x1ED JUMP JUMPDEST PUSH1 0x40 MLOAD PUSH2 0xB8 SWAP2 SWAP1 PUSH2 0xA85 JUMP JUMPDEST PUSH1 0x40 MLOAD DUP1 SWAP2 SUB SWAP1 RETURN JUMPDEST PUSH2 0xC9 PUSH2 0x27B JUMP JUMPDEST PUSH1 0x40 MLOAD PUSH2 0xD6 SWAP2 SWAP1 PUSH2 0xAC0 JUMP JUMPDEST PUSH1 0x40 MLOAD DUP1 SWAP2 SUB SWAP1 RETURN JUMPDEST PUSH2 0xE7 PUSH2 0x281 JUMP JUMPDEST PUSH1 0x40 MLOAD PUSH2 0xF4 SWAP2 SWAP1 PUSH2 0xAF7 JUMP JUMPDEST PUSH1 0x40 MLOAD DUP1 SWAP2 SUB SWAP1 RETURN JUMPDEST PUSH2 0x117 PUSH1 0x4 DUP1 CALLDATASIZE SUB DUP2 ADD SWAP1 PUSH2 0x112 SWAP2 SWAP1 PUSH2 0xB75 JUMP JUMPDEST PUSH2 0x294 JUMP JUMPDEST PUSH1 0x40 MLOAD PUSH2 0x124 SWAP2 SWAP1 PUSH2 0xBBE JUMP JUMPDEST PUSH1 0x40 MLOAD DUP1 SWAP2 SUB SWAP1 RETURN JUMPDEST PUSH2 0x147 PUSH1 0x4 DUP1 CALLDATASIZE SUB DUP2 ADD SWAP1 PUSH2 0x142 SWAP2 SWAP1 PUSH2 0xB75 JUMP JUMPDEST PUSH2 0x2B4 JUMP JUMPDEST PUSH1 0x40 MLOAD PUSH2 0x154 SWAP2 SWAP1 PUSH2 0xAC0 JUMP JUMPDEST PUSH1 0x40 MLOAD DUP1 SWAP2 SUB SWAP1 RETURN JUMPDEST PUSH2 0x177 PUSH1 0x4 DUP1 CALLDATASIZE SUB DUP2 ADD SWAP1 PUSH2 0x172 SWAP2 SWAP1 PUSH2 0xB75 JUMP JUMPDEST PUSH2 0x2CC JUMP JUMPDEST STOP JUMPDEST PUSH2 0x181 PUSH2 0x3FE JUMP JUMPDEST PUSH1 0x40 MLOAD PUSH2 0x18E SWAP2 SWAP1 PUSH2 0xBE8 JUMP JUMPDEST PUSH1 0x40 MLOAD DUP1 SWAP2 SUB SWAP1 RETURN JUMPDEST PUSH2 0x1B1 PUSH1 0x4 DUP1 CALLDATASIZE SUB DUP2 ADD SWAP1 PUSH2 0x1AC SWAP2 SWAP1 PUSH2 0xB75 JUMP JUMPDEST PUSH2 0x424 JUMP JUMPDEST STOP JUMPDEST PUSH2 0x1BB PUSH2 0x575 JUMP JUMPDEST PUSH1 0x40 MLOAD PUSH2 0x1C8 SWAP2 SWAP1 PUSH2 0xA85 JUMP JUMPDEST PUSH1 0x40 MLOAD DUP1 SWAP2 SUB SWAP1 RETURN JUMPDEST PUSH2 0x1EB PUSH1 0x4 DUP1 CALLDATASIZE SUB DUP2 ADD SWAP1 PUSH2 0x1E6 SWAP2 SWAP1 PUSH2 0xC2F JUMP JUMPDEST PUSH2 0x603 JUMP JUMPDEST STOP JUMPDEST PUSH1 0x0 DUP1 SLOAD PUSH2 0x1FA SWAP1 PUSH2 0xC9E JUMP JUMPDEST DUP1 PUSH1 0x1F ADD PUSH1 0x20 DUP1 SWAP2 DIV MUL PUSH1 0x20 ADD PUSH1 0x40 MLOAD SWAP1 DUP2 ADD PUSH1 0x40 MSTORE DUP1 SWAP3 SWAP2 SWAP1 DUP2 DUP2 MSTORE PUSH1 0x20 ADD DUP3 DUP1 SLOAD PUSH2 0x226 SWAP1 PUSH2 0xC9E JUMP JUMPDEST DUP1 ISZERO PUSH2 0x273 JUMPI DUP1 PUSH1 0x1F LT PUSH2 0x248 JUMPI PUSH2 0x100 DUP1 DUP4 SLOAD DIV MUL DUP4 MSTORE SWAP2 PUSH1 0x20 ADD SWAP2 PUSH2 0x273 JUMP JUMPDEST DUP3 ADD SWAP2 SWAP1 PUSH1 0x0 MSTORE PUSH1 0x20 PUSH1 0x0 KECCAK256 SWAP1 JUMPDEST DUP2 SLOAD DUP2 MSTORE SWAP1 PUSH1 0x1 ADD SWAP1 PUSH1 0x20 ADD DUP1 DUP4 GT PUSH2 0x256 JUMPI DUP3 SWAP1 SUB PUSH1 0x1F AND DUP3 ADD SWAP2 JUMPDEST POP POP POP POP POP DUP2 JUMP JUMPDEST PUSH1 0x3 SLOAD DUP2 JUMP JUMPDEST PUSH1 0x2 PUSH1 0x0 SWAP1 SLOAD SWAP1 PUSH2 0x100 EXP SWAP1 DIV PUSH1 0xFF AND DUP2 JUMP JUMPDEST PUSH1 0x5 PUSH1 0x20 MSTORE DUP1 PUSH1 0x0 MSTORE PUSH1 0x40 PUSH1 0x0 KECCAK256 PUSH1 0x0 SWAP2 POP SLOAD SWAP1 PUSH2 0x100 EXP SWAP1 DIV PUSH1 0x0 SIGNEXTEND DUP2 JUMP JUMPDEST PUSH1 0x4 PUSH1 0x20 MSTORE DUP1 PUSH1 0x0 MSTORE PUSH1 0x40 PUSH1 0x0 KECCAK256 PUSH1 0x0 SWAP2 POP SWAP1 POP SLOAD DUP2 JUMP JUMPDEST PUSH1 0x6 PUSH1 0x0 SWAP1 SLOAD SWAP1 PUSH2 0x100 EXP SWAP1 DIV PUSH20 0xFFFFFFFFFFFFFFFFFFFFFFFFFFFFFFFFFFFFFFFF AND PUSH20 0xFFFFFFFFFFFFFFFFFFFFFFFFFFFFFFFFFFFFFFFF AND CALLER PUSH20 0xFFFFFFFFFFFFFFFFFFFFFFFFFFFFFFFFFFFFFFFF AND EQ PUSH2 0x35C JUMPI PUSH1 0x40 MLOAD PUSH32 0x8C379A000000000000000000000000000000000000000000000000000000000 DUP2 MSTORE PUSH1 0x4 ADD PUSH2 0x353 SWAP1 PUSH2 0xD1C JUMP JUMPDEST PUSH1 0x40 MLOAD DUP1 SWAP2 SUB SWAP1 REVERT JUMPDEST PUSH1 0x1 PUSH1 0x5 PUSH1 0x0 DUP4 PUSH20 0xFFFFFFFFFFFFFFFFFFFFFFFFFFFFFFFFFFFFFFFF AND PUSH20 0xFFFFFFFFFFFFFFFFFFFFFFFFFFFFFFFFFFFFFFFF AND DUP2 MSTORE PUSH1 0x20 ADD SWAP1 DUP2 MSTORE PUSH1 0x20 ADD PUSH1 0x0 KECCAK256 PUSH1 0x0 PUSH2 0x100 EXP DUP2 SLOAD DUP2 PUSH1 0xFF MUL NOT AND SWAP1 DUP4 PUSH1 0x0 SIGNEXTEND PUSH1 0xFF AND MUL OR SWAP1 SSTORE POP DUP1 PUSH20 0xFFFFFFFFFFFFFFFFFFFFFFFFFFFFFFFFFFFFFFFF AND PUSH32 0xFFA4E6181777692565CF28528FC88FD1516EA86B56DA075235FA575AF6A4B855 PUSH1 0x40 MLOAD PUSH1 0x40 MLOAD DUP1 SWAP2 SUB SWAP1 LOG2 POP JUMP JUMPDEST PUSH1 0x6 PUSH1 0x0 SWAP1 SLOAD SWAP1 PUSH2 0x100 EXP SWAP1 DIV PUSH20 0xFFFFFFFFFFFFFFFFFFFFFFFFFFFFFFFFFFFFFFFF AND DUP2 JUMP JUMPDEST PUSH1 0x6 PUSH1 0x0 SWAP1 SLOAD SWAP1 PUSH2 0x100 EXP SWAP1 DIV PUSH20 0xFFFFFFFFFFFFFFFFFFFFFFFFFFFFFFFFFFFFFFFF AND PUSH20 0xFFFFFFFFFFFFFFFFFFFFFFFFFFFFFFFFFFFFFFFF AND CALLER PUSH20 0xFFFFFFFFFFFFFFFFFFFFFFFFFFFFFFFFFFFFFFFF AND EQ PUSH2 0x4B4 JUMPI PUSH1 0x40 MLOAD PUSH32 0x8C379A000000000000000000000000000000000000000000000000000000000 DUP2 MSTORE PUSH1 0x4 ADD PUSH2 0x4AB SWAP1 PUSH2 0xD1C JUMP JUMPDEST PUSH1 0x40 MLOAD DUP1 SWAP2 SUB SWAP1 REVERT JUMPDEST PUSH32 0xFFFFFFFFFFFFFFFFFFFFFFFFFFFFFFFFFFFFFFFFFFFFFFFFFFFFFFFFFFFFFFFF PUSH1 0x5 PUSH1 0x0 DUP4 PUSH20 0xFFFFFFFFFFFFFFFFFFFFFFFFFFFFFFFFFFFFFFFF AND PUSH20 0xFFFFFFFFFFFFFFFFFFFFFFFFFFFFFFFFFFFFFFFF AND DUP2 MSTORE PUSH1 0x20 ADD SWAP1 DUP2 MSTORE PUSH1 0x20 ADD PUSH1 0x0 KECCAK256 PUSH1 0x0 PUSH2 0x100 EXP DUP2 SLOAD DUP2 PUSH1 0xFF MUL NOT AND SWAP1 DUP4 PUSH1 0x0 SIGNEXTEND PUSH1 0xFF AND MUL OR SWAP1 SSTORE POP DUP1 PUSH20 0xFFFFFFFFFFFFFFFFFFFFFFFFFFFFFFFFFFFFFFFF AND PUSH32 0x2E5392B52E98BF05BDF3784AAEC667371398A6EA4FB965A2894852471999BCA9 PUSH1 0x40 MLOAD PUSH1 0x40 MLOAD DUP1 SWAP2 SUB SWAP1 LOG2 POP JUMP JUMPDEST PUSH1 0x1 DUP1 SLOAD PUSH2 0x582 SWAP1 PUSH2 0xC9E JUMP JUMPDEST DUP1 PUSH1 0x1F ADD PUSH1 0x20 DUP1 SWAP2 DIV MUL PUSH1 0x20 ADD PUSH1 0x40 MLOAD SWAP1 DUP2 ADD PUSH1 0x40 MSTORE DUP1 SWAP3 SWAP2 SWAP1 DUP2 DUP2 MSTORE PUSH1 0x20 ADD DUP3 DUP1 SLOAD PUSH2 0x5AE SWAP1 PUSH2 0xC9E JUMP JUMPDEST DUP1 ISZERO PUSH2 0x5FB JUMPI DUP1 PUSH1 0x1F LT PUSH2 0x5D0 JUMPI PUSH2 0x100 DUP1 DUP4 SLOAD DIV MUL DUP4 MSTORE SWAP2 PUSH1 0x20 ADD SWAP2 PUSH2 0x5FB JUMP JUMPDEST DUP3 ADD SWAP2 SWAP1 PUSH1 0x0 MSTORE PUSH1 0x20 PUSH1 0x0 KECCAK256 SWAP1 JUMPDEST DUP2 SLOAD DUP2 MSTORE SWAP1 PUSH1 0x1 ADD SWAP1 PUSH1 0x20 ADD DUP1 DUP4 GT PUSH2 0x5DE JUMPI DUP3 SWAP1 SUB PUSH1 0x1F AND DUP3 ADD SWAP2 JUMPDEST POP POP POP POP POP DUP2 JUMP JUMPDEST DUP1 PUSH1 0x4 PUSH1 0x0 CALLER PUSH20 0xFFFFFFFFFFFFFFFFFFFFFFFFFFFFFFFFFFFFFFFF AND PUSH20 0xFFFFFFFFFFFFFFFFFFFFFFFFFFFFFFFFFFFFFFFF AND DUP2 MSTORE PUSH1 0x20 ADD SWAP1 DUP2 MSTORE PUSH1 0x20 ADD PUSH1 0x0 KECCAK256 SLOAD LT ISZERO PUSH2 0x685 JUMPI PUSH1 0x40 MLOAD PUSH32 0x8C379A000000000000000000000000000000000000000000000000000000000 DUP2 MSTORE PUSH1 0x4 ADD PUSH2 0x67C SWAP1 PUSH2 0xD88 JUMP JUMPDEST PUSH1 0x40 MLOAD DUP1 SWAP2 SUB SWAP1 REVERT JUMPDEST PUSH1 0x4 PUSH1 0x0 DUP4 PUSH20 0xFFFFFFFFFFFFFFFFFFFFFFFFFFFFFFFFFFFFFFFF AND PUSH20 0xFFFFFFFFFFFFFFFFFFFFFFFFFFFFFFFFFFFFFFFF AND DUP2 MSTORE PUSH1 0x20 ADD SWAP1 DUP2 MSTORE PUSH1 0x20 ADD PUSH1 0x0 KECCAK256 SLOAD DUP2 PUSH1 0x4 PUSH1 0x0 DUP6 PUSH20 0xFFFFFFFFFFFFFFFFFFFFFFFFFFFFFFFFFFFFFFFF AND PUSH20 0xFFFFFFFFFFFFFFFFFFFFFFFFFFFFFFFFFFFFFFFF AND DUP2 MSTORE PUSH1 0x20 ADD SWAP1 DUP2 MSTORE PUSH1 0x20 ADD PUSH1 0x0 KECCAK256 SLOAD PUSH2 0x710 SWAP2 SWAP1 PUSH2 0xDD7 JUMP JUMPDEST LT ISZERO PUSH2 0x751 JUMPI PUSH1 0x40 MLOAD PUSH32 0x8C379A000000000000000000000000000000000000000000000000000000000 DUP2 MSTORE PUSH1 0x4 ADD PUSH2 0x748 SWAP1 PUSH2 0xE79 JUMP JUMPDEST PUSH1 0x40 MLOAD DUP1 SWAP2 SUB SWAP1 REVERT JUMPDEST PUSH1 0x0 PUSH1 0x5 PUSH1 0x0 CALLER PUSH20 0xFFFFFFFFFFFFFFFFFFFFFFFFFFFFFFFFFFFFFFFF AND PUSH20 0xFFFFFFFFFFFFFFFFFFFFFFFFFFFFFFFFFFFFFFFF AND DUP2 MSTORE PUSH1 0x20 ADD SWAP1 DUP2 MSTORE PUSH1 0x20 ADD PUSH1 0x0 KECCAK256 PUSH1 0x0 SWAP1 SLOAD SWAP1 PUSH2 0x100 EXP SWAP1 DIV PUSH1 0x0 SIGNEXTEND PUSH1 0x0 SIGNEXTEND SGT ISZERO PUSH2 0x813 JUMPI DUP2 PUSH20 0xFFFFFFFFFFFFFFFFFFFFFFFFFFFFFFFFFFFFFFFF AND CALLER PUSH20 0xFFFFFFFFFFFFFFFFFFFFFFFFFFFFFFFFFFFFFFFF AND PUSH32 0x2A04C84C100A93363EE2E1AB7076505A06B5DD417CCCC0D6080EC8285E84F79E DUP4 PUSH1 0x40 MLOAD PUSH2 0x806 SWAP2 SWAP1 PUSH2 0xAC0 JUMP JUMPDEST PUSH1 0x40 MLOAD DUP1 SWAP2 SUB SWAP1 LOG3 PUSH2 0x9E8 JUMP JUMPDEST PUSH1 0x0 PUSH1 0x5 PUSH1 0x0 DUP5 PUSH20 0xFFFFFFFFFFFFFFFFFFFFFFFFFFFFFFFFFFFFFFFF AND PUSH20 0xFFFFFFFFFFFFFFFFFFFFFFFFFFFFFFFFFFFFFFFF AND DUP2 MSTORE PUSH1 0x20 ADD SWAP1 DUP2 MSTORE PUSH1 0x20 ADD PUSH1 0x0 KECCAK256 PUSH1 0x0 SWAP1 SLOAD SWAP1 PUSH2 0x100 EXP SWAP1 DIV PUSH1 0x0 SIGNEXTEND PUSH1 0x0 SIGNEXTEND SGT ISZERO PUSH2 0x8D5 JUMPI DUP2 PUSH20 0xFFFFFFFFFFFFFFFFFFFFFFFFFFFFFFFFFFFFFFFF AND CALLER PUSH20 0xFFFFFFFFFFFFFFFFFFFFFFFFFFFFFFFFFFFFFFFF AND PUSH32 0xEE75D149BB5E330E03F98B125AAA1EFCD5864E4E2D5946F23DC6DD30630D5616 DUP4 PUSH1 0x40 MLOAD PUSH2 0x8C8 SWAP2 SWAP1 PUSH2 0xAC0 JUMP JUMPDEST PUSH1 0x40 MLOAD DUP1 SWAP2 SUB SWAP1 LOG3 PUSH2 0x9E7 JUMP JUMPDEST DUP1 PUSH1 0x4 PUSH1 0x0 CALLER PUSH20 0xFFFFFFFFFFFFFFFFFFFFFFFFFFFFFFFFFFFFFFFF AND PUSH20 0xFFFFFFFFFFFFFFFFFFFFFFFFFFFFFFFFFFFFFFFF AND DUP2 MSTORE PUSH1 0x20 ADD SWAP1 DUP2 MSTORE PUSH1 0x20 ADD PUSH1 0x0 KECCAK256 PUSH1 0x0 DUP3 DUP3 SLOAD PUSH2 0x924 SWAP2 SWAP1 PUSH2 0xE99 JUMP JUMPDEST SWAP3 POP POP DUP2 SWAP1 SSTORE POP DUP1 PUSH1 0x4 PUSH1 0x0 DUP5 PUSH20 0xFFFFFFFFFFFFFFFFFFFFFFFFFFFFFFFFFFFFFFFF AND PUSH20 0xFFFFFFFFFFFFFFFFFFFFFFFFFFFFFFFFFFFFFFFF AND DUP2 MSTORE PUSH1 0x20 ADD SWAP1 DUP2 MSTORE PUSH1 0x20 ADD PUSH1 0x0 KECCAK256 PUSH1 0x0 DUP3 DUP3 SLOAD PUSH2 0x97A SWAP2 SWAP1 PUSH2 0xDD7 JUMP JUMPDEST SWAP3 POP POP DUP2 SWAP1 SSTORE POP DUP2 PUSH20 0xFFFFFFFFFFFFFFFFFFFFFFFFFFFFFFFFFFFFFFFF AND CALLER PUSH20 0xFFFFFFFFFFFFFFFFFFFFFFFFFFFFFFFFFFFFFFFF AND PUSH32 0xDDF252AD1BE2C89B69C2B068FC378DAA952BA7F163C4A11628F55A4DF523B3EF DUP4 PUSH1 0x40 MLOAD PUSH2 0x9DE SWAP2 SWAP1 PUSH2 0xAC0 JUMP JUMPDEST PUSH1 0x40 MLOAD DUP1 SWAP2 SUB SWAP1 LOG3 JUMPDEST JUMPDEST POP POP JUMP JUMPDEST PUSH1 0x0 DUP2 MLOAD SWAP1 POP SWAP2 SWAP1 POP JUMP JUMPDEST PUSH1 0x0 DUP3 DUP3 MSTORE PUSH1 0x20 DUP3 ADD SWAP1 POP SWAP3 SWAP2 POP POP JUMP JUMPDEST PUSH1 0x0 JUMPDEST DUP4 DUP2 LT ISZERO PUSH2 0xA26 JUMPI DUP1 DUP3 ADD MLOAD DUP2 DUP5 ADD MSTORE PUSH1 0x20 DUP2 ADD SWAP1 POP PUSH2 0xA0B JUMP JUMPDEST DUP4 DUP2 GT ISZERO PUSH2 0xA35 JUMPI PUSH1 0x0 DUP5 DUP5 ADD MSTORE JUMPDEST POP POP POP POP JUMP JUMPDEST PUSH1 0x0 PUSH1 0x1F NOT PUSH1 0x1F DUP4 ADD AND SWAP1 POP SWAP2 SWAP1 POP JUMP JUMPDEST PUSH1 0x0 PUSH2 0xA57 DUP3 PUSH2 0x9EC JUMP JUMPDEST PUSH2 0xA61 DUP2 DUP6 PUSH2 0x9F7 JUMP JUMPDEST SWAP4 POP PUSH2 0xA71 DUP2 DUP6 PUSH1 0x20 DUP7 ADD PUSH2 0xA08 JUMP JUMPDEST PUSH2 0xA7A DUP2 PUSH2 0xA3B JUMP JUMPDEST DUP5 ADD SWAP2 POP POP SWAP3 SWAP2 POP POP JUMP JUMPDEST PUSH1 0x0 PUSH1 0x20 DUP3 ADD SWAP1 POP DUP2 DUP2 SUB PUSH1 0x0 DUP4 ADD MSTORE PUSH2 0xA9F DUP2 DUP5 PUSH2 0xA4C JUMP JUMPDEST SWAP1 POP SWAP3 SWAP2 POP POP JUMP JUMPDEST PUSH1 0x0 DUP2 SWAP1 POP SWAP2 SWAP1 POP JUMP JUMPDEST PUSH2 0xABA DUP2 PUSH2 0xAA7 JUMP JUMPDEST DUP3 MSTORE POP POP JUMP JUMPDEST PUSH1 0x0 PUSH1 0x20 DUP3 ADD SWAP1 POP PUSH2 0xAD5 PUSH1 0x0 DUP4 ADD DUP5 PUSH2 0xAB1 JUMP JUMPDEST SWAP3 SWAP2 POP POP JUMP JUMPDEST PUSH1 0x0 PUSH1 0xFF DUP3 AND SWAP1 POP SWAP2 SWAP1 POP JUMP JUMPDEST PUSH2 0xAF1 DUP2 PUSH2 0xADB JUMP JUMPDEST DUP3 MSTORE POP POP JUMP JUMPDEST PUSH1 0x0 PUSH1 0x20 DUP3 ADD SWAP1 POP PUSH2 0xB0C PUSH1 0x0 DUP4 ADD DUP5 PUSH2 0xAE8 JUMP JUMPDEST SWAP3 SWAP2 POP POP JUMP JUMPDEST PUSH1 0x0 DUP1 REVERT JUMPDEST PUSH1 0x0 PUSH20 0xFFFFFFFFFFFFFFFFFFFFFFFFFFFFFFFFFFFFFFFF DUP3 AND SWAP1 POP SWAP2 SWAP1 POP JUMP JUMPDEST PUSH1 0x0 PUSH2 0xB42 DUP3 PUSH2 0xB17 JUMP JUMPDEST SWAP1 POP SWAP2 SWAP1 POP JUMP JUMPDEST PUSH2 0xB52 DUP2 PUSH2 0xB37 JUMP JUMPDEST DUP2 EQ PUSH2 0xB5D JUMPI PUSH1 0x0 DUP1 REVERT JUMPDEST POP JUMP JUMPDEST PUSH1 0x0 DUP2 CALLDATALOAD SWAP1 POP PUSH2 0xB6F DUP2 PUSH2 0xB49 JUMP JUMPDEST SWAP3 SWAP2 POP POP JUMP JUMPDEST PUSH1 0x0 PUSH1 0x20 DUP3 DUP5 SUB SLT ISZERO PUSH2 0xB8B JUMPI PUSH2 0xB8A PUSH2 0xB12 JUMP JUMPDEST JUMPDEST PUSH1 0x0 PUSH2 0xB99 DUP5 DUP3 DUP6 ADD PUSH2 0xB60 JUMP JUMPDEST SWAP2 POP POP SWAP3 SWAP2 POP POP JUMP JUMPDEST PUSH1 0x0 DUP2 PUSH1 0x0 SIGNEXTEND SWAP1 POP SWAP2 SWAP1 POP JUMP JUMPDEST PUSH2 0xBB8 DUP2 PUSH2 0xBA2 JUMP JUMPDEST DUP3 MSTORE POP POP JUMP JUMPDEST PUSH1 0x0 PUSH1 0x20 DUP3 ADD SWAP1 POP PUSH2 0xBD3 PUSH1 0x0 DUP4 ADD DUP5 PUSH2 0xBAF JUMP JUMPDEST SWAP3 SWAP2 POP POP JUMP JUMPDEST PUSH2 0xBE2 DUP2 PUSH2 0xB37 JUMP JUMPDEST DUP3 MSTORE POP POP JUMP JUMPDEST PUSH1 0x0 PUSH1 0x20 DUP3 ADD SWAP1 POP PUSH2 0xBFD PUSH1 0x0 DUP4 ADD DUP5 PUSH2 0xBD9 JUMP JUMPDEST SWAP3 SWAP2 POP POP JUMP JUMPDEST PUSH2 0xC0C DUP2 PUSH2 0xAA7 JUMP JUMPDEST DUP2 EQ PUSH2 0xC17 JUMPI PUSH1 0x0 DUP1 REVERT JUMPDEST POP JUMP JUMPDEST PUSH1 0x0 DUP2 CALLDATALOAD SWAP1 POP PUSH2 0xC29 DUP2 PUSH2 0xC03 JUMP JUMPDEST SWAP3 SWAP2 POP POP JUMP JUMPDEST PUSH1 0x0 DUP1 PUSH1 0x40 DUP4 DUP6 SUB SLT ISZERO PUSH2 0xC46 JUMPI PUSH2 0xC45 PUSH2 0xB12 JUMP JUMPDEST JUMPDEST PUSH1 0x0 PUSH2 0xC54 DUP6 DUP3 DUP7 ADD PUSH2 0xB60 JUMP JUMPDEST SWAP3 POP POP PUSH1 0x20 PUSH2 0xC65 DUP6 DUP3 DUP7 ADD PUSH2 0xC1A JUMP JUMPDEST SWAP2 POP POP SWAP3 POP SWAP3 SWAP1 POP JUMP JUMPDEST PUSH32 0x4E487B7100000000000000000000000000000000000000000000000000000000 PUSH1 0x0 MSTORE PUSH1 0x22 PUSH1 0x4 MSTORE PUSH1 0x24 PUSH1 0x0 REVERT JUMPDEST PUSH1 0x0 PUSH1 0x2 DUP3 DIV SWAP1 POP PUSH1 0x1 DUP3 AND DUP1 PUSH2 0xCB6 JUMPI PUSH1 0x7F DUP3 AND SWAP2 POP JUMPDEST PUSH1 0x20 DUP3 LT DUP2 EQ ISZERO PUSH2 0xCCA JUMPI PUSH2 0xCC9 PUSH2 0xC6F JUMP JUMPDEST JUMPDEST POP SWAP2 SWAP1 POP JUMP JUMPDEST PUSH32 0x6F6E6C794F776E65720000000000000000000000000000000000000000000000 PUSH1 0x0 DUP3 ADD MSTORE POP JUMP JUMPDEST PUSH1 0x0 PUSH2 0xD06 PUSH1 0x9 DUP4 PUSH2 0x9F7 JUMP JUMPDEST SWAP2 POP PUSH2 0xD11 DUP3 PUSH2 0xCD0 JUMP JUMPDEST PUSH1 0x20 DUP3 ADD SWAP1 POP SWAP2 SWAP1 POP JUMP JUMPDEST PUSH1 0x0 PUSH1 0x20 DUP3 ADD SWAP1 POP DUP2 DUP2 SUB PUSH1 0x0 DUP4 ADD MSTORE PUSH2 0xD35 DUP2 PUSH2 0xCF9 JUMP JUMPDEST SWAP1 POP SWAP2 SWAP1 POP JUMP JUMPDEST PUSH32 0x7472616E6665725F6572725F3100000000000000000000000000000000000000 PUSH1 0x0 DUP3 ADD MSTORE POP JUMP JUMPDEST PUSH1 0x0 PUSH2 0xD72 PUSH1 0xD DUP4 PUSH2 0x9F7 JUMP JUMPDEST SWAP2 POP PUSH2 0xD7D DUP3 PUSH2 0xD3C JUMP JUMPDEST PUSH1 0x20 DUP3 ADD SWAP1 POP SWAP2 SWAP1 POP JUMP JUMPDEST PUSH1 0x0 PUSH1 0x20 DUP3 ADD SWAP1 POP DUP2 DUP2 SUB PUSH1 0x0 DUP4 ADD MSTORE PUSH2 0xDA1 DUP2 PUSH2 0xD65 JUMP JUMPDEST SWAP1 POP SWAP2 SWAP1 POP JUMP JUMPDEST PUSH32 0x4E487B7100000000000000000000000000000000000000000000000000000000 PUSH1 0x0 MSTORE PUSH1 0x11 PUSH1 0x4 MSTORE PUSH1 0x24 PUSH1 0x0 REVERT JUMPDEST PUSH1 0x0 PUSH2 0xDE2 DUP3 PUSH2 0xAA7 JUMP JUMPDEST SWAP2 POP PUSH2 0xDED DUP4 PUSH2 0xAA7 JUMP JUMPDEST SWAP3 POP DUP3 PUSH32 0xFFFFFFFFFFFFFFFFFFFFFFFFFFFFFFFFFFFFFFFFFFFFFFFFFFFFFFFFFFFFFFFF SUB DUP3 GT ISZERO PUSH2 0xE22 JUMPI PUSH2 0xE21 PUSH2 0xDA8 JUMP JUMPDEST JUMPDEST DUP3 DUP3 ADD SWAP1 POP SWAP3 SWAP2 POP POP JUMP JUMPDEST PUSH32 0x7472616E6665725F6572725F3200000000000000000000000000000000000000 PUSH1 0x0 DUP3 ADD MSTORE POP JUMP JUMPDEST PUSH1 0x0 PUSH2 0xE63 PUSH1 0xD DUP4 PUSH2 0x9F7 JUMP JUMPDEST SWAP2 POP PUSH2 0xE6E DUP3 PUSH2 0xE2D JUMP JUMPDEST PUSH1 0x20 DUP3 ADD SWAP1 POP SWAP2 SWAP1 POP JUMP JUMPDEST PUSH1 0x0 PUSH1 0x20 DUP3 ADD SWAP1 POP DUP2 DUP2 SUB PUSH1 0x0 DUP4 ADD MSTORE PUSH2 0xE92 DUP2 PUSH2 0xE56 JUMP JUMPDEST SWAP1 POP SWAP2 SWAP1 POP JUMP JUMPDEST PUSH1 0x0 PUSH2 0xEA4 DUP3 PUSH2 0xAA7 JUMP JUMPDEST SWAP2 POP PUSH2 0xEAF DUP4 PUSH2 0xAA7 JUMP JUMPDEST SWAP3 POP DUP3 DUP3 LT ISZERO PUSH2 0xEC2 JUMPI PUSH2 0xEC1 PUSH2 0xDA8 JUMP JUMPDEST JUMPDEST DUP3 DUP3 SUB SWAP1 POP SWAP3 SWAP2 POP POP JUMP INVALID LOG2 PUSH5 0x6970667358 0x22 SLT KECCAK256 0xDD 0xDE GT 0xE1 0xA5 KECCAK256 JUMP SWAP2 0xE7 0xE9 PUSH30 0x244C797B4834B61728011EC0F18EFCD2CE5E9163F164736F6C634300080C STOP CALLER "
				},
				"gasEstimates": {
					"creation": {
						"codeDepositCost": "768600",
						"executionCost": "infinite",
						"totalCost": "infinite"
					},
					"external": {
						"balanceOf(address)": "2903",
						"blackList(address)": "2916",
						"blacklisting(address)": "28151",
						"decimals()": "2516",
						"deleteFromBlacklist(address)": "28195",
						"name()": "infinite",
						"owner()": "2536",
						"symbol()": "infinite",
						"totalSupply()": "2452",
						"transfer(address,uint256)": "infinite"
					}
				},
				"methodIdentifiers": {
					"balanceOf(address)": "70a08231",
					"blackList(address)": "4838d165",
					"blacklisting(address)": "8a294c60",
					"decimals()": "313ce567",
					"deleteFromBlacklist(address)": "8de6b343",
					"name()": "06fdde03",
					"owner()": "8da5cb5b",
					"symbol()": "95d89b41",
					"totalSupply()": "18160ddd",
					"transfer(address,uint256)": "a9059cbb"
				}
			},
			"storageLayout": {
				"storage": [
					{
						"astId": 3,
						"contract": "contracts/OreOreCoinBlackList.sol:OreOreCoin",
						"label": "name",
						"offset": 0,
						"slot": "0",
						"type": "t_string_storage"
					},
					{
						"astId": 5,
						"contract": "contracts/OreOreCoinBlackList.sol:OreOreCoin",
						"label": "symbol",
						"offset": 0,
						"slot": "1",
						"type": "t_string_storage"
					},
					{
						"astId": 7,
						"contract": "contracts/OreOreCoinBlackList.sol:OreOreCoin",
						"label": "decimals",
						"offset": 0,
						"slot": "2",
						"type": "t_uint8"
					},
					{
						"astId": 9,
						"contract": "contracts/OreOreCoinBlackList.sol:OreOreCoin",
						"label": "totalSupply",
						"offset": 0,
						"slot": "3",
						"type": "t_uint256"
					},
					{
						"astId": 13,
						"contract": "contracts/OreOreCoinBlackList.sol:OreOreCoin",
						"label": "balanceOf",
						"offset": 0,
						"slot": "4",
						"type": "t_mapping(t_address,t_uint256)"
					},
					{
						"astId": 17,
						"contract": "contracts/OreOreCoinBlackList.sol:OreOreCoin",
						"label": "blackList",
						"offset": 0,
						"slot": "5",
						"type": "t_mapping(t_address,t_int8)"
					},
					{
						"astId": 19,
						"contract": "contracts/OreOreCoinBlackList.sol:OreOreCoin",
						"label": "owner",
						"offset": 0,
						"slot": "6",
						"type": "t_address"
					}
				],
				"types": {
					"t_address": {
						"encoding": "inplace",
						"label": "address",
						"numberOfBytes": "20"
					},
					"t_int8": {
						"encoding": "inplace",
						"label": "int8",
						"numberOfBytes": "1"
					},
					"t_mapping(t_address,t_int8)": {
						"encoding": "mapping",
						"key": "t_address",
						"label": "mapping(address => int8)",
						"numberOfBytes": "32",
						"value": "t_int8"
					},
					"t_mapping(t_address,t_uint256)": {
						"encoding": "mapping",
						"key": "t_address",
						"label": "mapping(address => uint256)",
						"numberOfBytes": "32",
						"value": "t_uint256"
					},
					"t_string_storage": {
						"encoding": "bytes",
						"label": "string",
						"numberOfBytes": "32"
					},
					"t_uint256": {
						"encoding": "inplace",
						"label": "uint256",
						"numberOfBytes": "32"
					},
					"t_uint8": {
						"encoding": "inplace",
						"label": "uint8",
						"numberOfBytes": "1"
					}
				}
			},
			"userdoc": {
				"kind": "user",
				"methods": {},
				"version": 1
			}
		}
	}
}